{
	"contracts/Lesson_5.sol": {
		"AucEngine": {
			"abi": [
				{
					"inputs": [],
					"stateMutability": "nonpayable",
					"type": "constructor"
				},
				{
					"inputs": [
						{
							"internalType": "uint256",
							"name": "",
							"type": "uint256"
						}
					],
					"name": "auctions",
					"outputs": [
						{
							"internalType": "address payable",
							"name": "seller",
							"type": "address"
						},
						{
							"internalType": "uint256",
							"name": "startingPrice",
							"type": "uint256"
						},
						{
							"internalType": "uint256",
							"name": "finalPrice",
							"type": "uint256"
						},
						{
							"internalType": "uint256",
							"name": "startsAt",
							"type": "uint256"
						},
						{
							"internalType": "uint256",
							"name": "endsAt",
							"type": "uint256"
						},
						{
							"internalType": "uint256",
							"name": "dicountRate",
							"type": "uint256"
						},
						{
							"internalType": "string",
							"name": "item",
							"type": "string"
						},
						{
							"internalType": "bool",
							"name": "stopped",
							"type": "bool"
						}
					],
					"stateMutability": "view",
					"type": "function"
				},
				{
					"inputs": [
						{
							"internalType": "uint256",
							"name": "_startingPrice",
							"type": "uint256"
						},
						{
							"internalType": "uint256",
							"name": "_discountRate",
							"type": "uint256"
						},
						{
							"internalType": "string",
							"name": "_item",
							"type": "string"
						},
						{
							"internalType": "uint256",
							"name": "_duration",
							"type": "uint256"
						}
					],
					"name": "createAuction",
					"outputs": [],
					"stateMutability": "nonpayable",
					"type": "function"
				},
				{
					"inputs": [],
					"name": "owner",
					"outputs": [
						{
							"internalType": "address",
							"name": "",
							"type": "address"
						}
					],
					"stateMutability": "view",
					"type": "function"
				}
			],
			"devdoc": {
				"kind": "dev",
				"methods": {},
				"version": 1
			},
			"evm": {
				"assembly": "    /* \"contracts/Lesson_5.sol\":62:956  contract AucEngine\r... */\n  mstore(0x40, 0x80)\n    /* \"contracts/Lesson_5.sol\":573:629  constructor()\r... */\n  callvalue\n  dup1\n  iszero\n  tag_1\n  jumpi\n  0x00\n  dup1\n  revert\ntag_1:\n  pop\n    /* \"contracts/Lesson_5.sol\":611:621  msg.sender */\n  caller\n    /* \"contracts/Lesson_5.sol\":603:608  owner */\n  0x00\n  dup1\n    /* \"contracts/Lesson_5.sol\":603:621  owner = msg.sender */\n  0x0100\n  exp\n  dup2\n  sload\n  dup2\n  0xffffffffffffffffffffffffffffffffffffffff\n  mul\n  not\n  and\n  swap1\n  dup4\n  0xffffffffffffffffffffffffffffffffffffffff\n  and\n  mul\n  or\n  swap1\n  sstore\n  pop\n    /* \"contracts/Lesson_5.sol\":62:956  contract AucEngine\r... */\n  dataSize(sub_0)\n  dup1\n  dataOffset(sub_0)\n  0x00\n  codecopy\n  0x00\n  return\nstop\n\nsub_0: assembly {\n        /* \"contracts/Lesson_5.sol\":62:956  contract AucEngine\r... */\n      mstore(0x40, 0x80)\n      callvalue\n      dup1\n      iszero\n      tag_1\n      jumpi\n      0x00\n      dup1\n      revert\n    tag_1:\n      pop\n      jumpi(tag_2, lt(calldatasize, 0x04))\n      shr(0xe0, calldataload(0x00))\n      dup1\n      0x571a26a0\n      eq\n      tag_3\n      jumpi\n      dup1\n      0x8da5cb5b\n      eq\n      tag_4\n      jumpi\n      dup1\n      0xe9835d15\n      eq\n      tag_5\n      jumpi\n    tag_2:\n      0x00\n      dup1\n      revert\n        /* \"contracts/Lesson_5.sol\":539:564  Auction[] public auctions */\n    tag_3:\n      tag_6\n      0x04\n      dup1\n      calldatasize\n      sub\n      dup2\n      add\n      swap1\n      tag_7\n      swap2\n      swap1\n      tag_8\n      jump\t// in\n    tag_7:\n      tag_9\n      jump\t// in\n    tag_6:\n      mload(0x40)\n      tag_10\n      swap9\n      swap8\n      swap7\n      swap6\n      swap5\n      swap4\n      swap3\n      swap2\n      swap1\n      tag_11\n      jump\t// in\n    tag_10:\n      mload(0x40)\n      dup1\n      swap2\n      sub\n      swap1\n      return\n        /* \"contracts/Lesson_5.sol\":89:109  address public owner */\n    tag_4:\n      tag_12\n      tag_13\n      jump\t// in\n    tag_12:\n      mload(0x40)\n      tag_14\n      swap2\n      swap1\n      tag_15\n      jump\t// in\n    tag_14:\n      mload(0x40)\n      dup1\n      swap2\n      sub\n      swap1\n      return\n        /* \"contracts/Lesson_5.sol\":637:953  function createAuction(uint _startingPrice, uint _discountRate, string calldata _item, uint _duration) external \r... */\n    tag_5:\n      tag_16\n      0x04\n      dup1\n      calldatasize\n      sub\n      dup2\n      add\n      swap1\n      tag_17\n      swap2\n      swap1\n      tag_18\n      jump\t// in\n    tag_17:\n      tag_19\n      jump\t// in\n    tag_16:\n      stop\n        /* \"contracts/Lesson_5.sol\":539:564  Auction[] public auctions */\n    tag_9:\n      0x01\n      dup2\n      dup2\n      sload\n      dup2\n      lt\n      tag_20\n      jumpi\n      0x00\n      dup1\n      revert\n    tag_20:\n      swap1\n      0x00\n      mstore\n      keccak256(0x00, 0x20)\n      swap1\n      0x08\n      mul\n      add\n      0x00\n      swap2\n      pop\n      swap1\n      pop\n      dup1\n      0x00\n      add\n      0x00\n      swap1\n      sload\n      swap1\n      0x0100\n      exp\n      swap1\n      div\n      0xffffffffffffffffffffffffffffffffffffffff\n      and\n      swap1\n      dup1\n      0x01\n      add\n      sload\n      swap1\n      dup1\n      0x02\n      add\n      sload\n      swap1\n      dup1\n      0x03\n      add\n      sload\n      swap1\n      dup1\n      0x04\n      add\n      sload\n      swap1\n      dup1\n      0x05\n      add\n      sload\n      swap1\n      dup1\n      0x06\n      add\n      dup1\n      sload\n      tag_22\n      swap1\n      tag_23\n      jump\t// in\n    tag_22:\n      dup1\n      0x1f\n      add\n      0x20\n      dup1\n      swap2\n      div\n      mul\n      0x20\n      add\n      mload(0x40)\n      swap1\n      dup2\n      add\n      0x40\n      mstore\n      dup1\n      swap3\n      swap2\n      swap1\n      dup2\n      dup2\n      mstore\n      0x20\n      add\n      dup3\n      dup1\n      sload\n      tag_24\n      swap1\n      tag_23\n      jump\t// in\n    tag_24:\n      dup1\n      iszero\n      tag_25\n      jumpi\n      dup1\n      0x1f\n      lt\n      tag_26\n      jumpi\n      0x0100\n      dup1\n      dup4\n      sload\n      div\n      mul\n      dup4\n      mstore\n      swap2\n      0x20\n      add\n      swap2\n      jump(tag_25)\n    tag_26:\n      dup3\n      add\n      swap2\n      swap1\n      0x00\n      mstore\n      keccak256(0x00, 0x20)\n      swap1\n    tag_27:\n      dup2\n      sload\n      dup2\n      mstore\n      swap1\n      0x01\n      add\n      swap1\n      0x20\n      add\n      dup1\n      dup4\n      gt\n      tag_27\n      jumpi\n      dup3\n      swap1\n      sub\n      0x1f\n      and\n      dup3\n      add\n      swap2\n    tag_25:\n      pop\n      pop\n      pop\n      pop\n      pop\n      swap1\n      dup1\n      0x07\n      add\n      0x00\n      swap1\n      sload\n      swap1\n      0x0100\n      exp\n      swap1\n      div\n      0xff\n      and\n      swap1\n      pop\n      dup9\n      jump\t// out\n        /* \"contracts/Lesson_5.sol\":89:109  address public owner */\n    tag_13:\n      0x00\n      dup1\n      sload\n      swap1\n      0x0100\n      exp\n      swap1\n      div\n      0xffffffffffffffffffffffffffffffffffffffff\n      and\n      dup2\n      jump\t// out\n        /* \"contracts/Lesson_5.sol\":637:953  function createAuction(uint _startingPrice, uint _discountRate, string calldata _item, uint _duration) external \r... */\n    tag_19:\n        /* \"contracts/Lesson_5.sol\":814:827  uint duration */\n      0x00\n        /* \"contracts/Lesson_5.sol\":843:844  0 */\n      dup1\n        /* \"contracts/Lesson_5.sol\":830:839  _duration */\n      dup3\n        /* \"contracts/Lesson_5.sol\":830:844  _duration == 0 */\n      eq\n        /* \"contracts/Lesson_5.sol\":830:867  _duration == 0 ? DURATION : _duration */\n      tag_29\n      jumpi\n        /* \"contracts/Lesson_5.sol\":858:867  _duration */\n      dup2\n        /* \"contracts/Lesson_5.sol\":830:867  _duration == 0 ? DURATION : _duration */\n      jump(tag_30)\n    tag_29:\n        /* \"contracts/Lesson_5.sol\":141:147  2 days */\n      0x02a300\n        /* \"contracts/Lesson_5.sol\":830:867  _duration == 0 ? DURATION : _duration */\n    tag_30:\n        /* \"contracts/Lesson_5.sol\":814:867  uint duration = _duration == 0 ? DURATION : _duration */\n      swap1\n      pop\n        /* \"contracts/Lesson_5.sol\":922:931  _duration */\n      dup2\n        /* \"contracts/Lesson_5.sol\":906:919  _discountRate */\n      dup6\n        /* \"contracts/Lesson_5.sol\":906:931  _discountRate * _duration */\n      tag_31\n      swap2\n      swap1\n      tag_32\n      jump\t// in\n    tag_31:\n        /* \"contracts/Lesson_5.sol\":888:902  _startingPrice */\n      dup7\n        /* \"contracts/Lesson_5.sol\":888:931  _startingPrice >= _discountRate * _duration */\n      lt\n      iszero\n        /* \"contracts/Lesson_5.sol\":880:945  require(_startingPrice >= _discountRate * _duration, \"Very low \") */\n      tag_33\n      jumpi\n      mload(0x40)\n      0x08c379a000000000000000000000000000000000000000000000000000000000\n      dup2\n      mstore\n      0x04\n      add\n      tag_34\n      swap1\n      tag_35\n      jump\t// in\n    tag_34:\n      mload(0x40)\n      dup1\n      swap2\n      sub\n      swap1\n      revert\n    tag_33:\n        /* \"contracts/Lesson_5.sol\":755:953  {\r... */\n      pop\n        /* \"contracts/Lesson_5.sol\":637:953  function createAuction(uint _startingPrice, uint _discountRate, string calldata _item, uint _duration) external \r... */\n      pop\n      pop\n      pop\n      pop\n      pop\n      jump\t// out\n        /* \"#utility.yul\":21:574   */\n    tag_37:\n        /* \"#utility.yul\":79:87   */\n      0x00\n        /* \"#utility.yul\":89:95   */\n      dup1\n        /* \"#utility.yul\":139:142   */\n      dup4\n        /* \"#utility.yul\":132:136   */\n      0x1f\n        /* \"#utility.yul\":124:130   */\n      dup5\n        /* \"#utility.yul\":120:137   */\n      add\n        /* \"#utility.yul\":116:143   */\n      slt\n        /* \"#utility.yul\":106:228   */\n      tag_39\n      jumpi\n        /* \"#utility.yul\":147:226   */\n      tag_40\n      tag_41\n      jump\t// in\n    tag_40:\n        /* \"#utility.yul\":106:228   */\n    tag_39:\n        /* \"#utility.yul\":260:266   */\n      dup3\n        /* \"#utility.yul\":247:267   */\n      calldataload\n        /* \"#utility.yul\":237:267   */\n      swap1\n      pop\n        /* \"#utility.yul\":290:308   */\n      0xffffffffffffffff\n        /* \"#utility.yul\":282:288   */\n      dup2\n        /* \"#utility.yul\":279:309   */\n      gt\n        /* \"#utility.yul\":276:393   */\n      iszero\n      tag_42\n      jumpi\n        /* \"#utility.yul\":312:391   */\n      tag_43\n      tag_44\n      jump\t// in\n    tag_43:\n        /* \"#utility.yul\":276:393   */\n    tag_42:\n        /* \"#utility.yul\":426:430   */\n      0x20\n        /* \"#utility.yul\":418:424   */\n      dup4\n        /* \"#utility.yul\":414:431   */\n      add\n        /* \"#utility.yul\":402:431   */\n      swap2\n      pop\n        /* \"#utility.yul\":480:483   */\n      dup4\n        /* \"#utility.yul\":472:476   */\n      0x01\n        /* \"#utility.yul\":464:470   */\n      dup3\n        /* \"#utility.yul\":460:477   */\n      mul\n        /* \"#utility.yul\":450:458   */\n      dup4\n        /* \"#utility.yul\":446:478   */\n      add\n        /* \"#utility.yul\":443:484   */\n      gt\n        /* \"#utility.yul\":440:568   */\n      iszero\n      tag_45\n      jumpi\n        /* \"#utility.yul\":487:566   */\n      tag_46\n      tag_47\n      jump\t// in\n    tag_46:\n        /* \"#utility.yul\":440:568   */\n    tag_45:\n        /* \"#utility.yul\":21:574   */\n      swap3\n      pop\n      swap3\n      swap1\n      pop\n      jump\t// out\n        /* \"#utility.yul\":580:719   */\n    tag_48:\n        /* \"#utility.yul\":626:631   */\n      0x00\n        /* \"#utility.yul\":664:670   */\n      dup2\n        /* \"#utility.yul\":651:671   */\n      calldataload\n        /* \"#utility.yul\":642:671   */\n      swap1\n      pop\n        /* \"#utility.yul\":680:713   */\n      tag_50\n        /* \"#utility.yul\":707:712   */\n      dup2\n        /* \"#utility.yul\":680:713   */\n      tag_51\n      jump\t// in\n    tag_50:\n        /* \"#utility.yul\":580:719   */\n      swap3\n      swap2\n      pop\n      pop\n      jump\t// out\n        /* \"#utility.yul\":725:1054   */\n    tag_8:\n        /* \"#utility.yul\":784:790   */\n      0x00\n        /* \"#utility.yul\":833:835   */\n      0x20\n        /* \"#utility.yul\":821:830   */\n      dup3\n        /* \"#utility.yul\":812:819   */\n      dup5\n        /* \"#utility.yul\":808:831   */\n      sub\n        /* \"#utility.yul\":804:836   */\n      slt\n        /* \"#utility.yul\":801:920   */\n      iszero\n      tag_53\n      jumpi\n        /* \"#utility.yul\":839:918   */\n      tag_54\n      tag_55\n      jump\t// in\n    tag_54:\n        /* \"#utility.yul\":801:920   */\n    tag_53:\n        /* \"#utility.yul\":959:960   */\n      0x00\n        /* \"#utility.yul\":984:1037   */\n      tag_56\n        /* \"#utility.yul\":1029:1036   */\n      dup5\n        /* \"#utility.yul\":1020:1026   */\n      dup3\n        /* \"#utility.yul\":1009:1018   */\n      dup6\n        /* \"#utility.yul\":1005:1027   */\n      add\n        /* \"#utility.yul\":984:1037   */\n      tag_48\n      jump\t// in\n    tag_56:\n        /* \"#utility.yul\":974:1037   */\n      swap2\n      pop\n        /* \"#utility.yul\":930:1047   */\n      pop\n        /* \"#utility.yul\":725:1054   */\n      swap3\n      swap2\n      pop\n      pop\n      jump\t// out\n        /* \"#utility.yul\":1060:2025   */\n    tag_18:\n        /* \"#utility.yul\":1158:1164   */\n      0x00\n        /* \"#utility.yul\":1166:1172   */\n      dup1\n        /* \"#utility.yul\":1174:1180   */\n      0x00\n        /* \"#utility.yul\":1182:1188   */\n      dup1\n        /* \"#utility.yul\":1190:1196   */\n      0x00\n        /* \"#utility.yul\":1239:1242   */\n      0x80\n        /* \"#utility.yul\":1227:1236   */\n      dup7\n        /* \"#utility.yul\":1218:1225   */\n      dup9\n        /* \"#utility.yul\":1214:1237   */\n      sub\n        /* \"#utility.yul\":1210:1243   */\n      slt\n        /* \"#utility.yul\":1207:1327   */\n      iszero\n      tag_58\n      jumpi\n        /* \"#utility.yul\":1246:1325   */\n      tag_59\n      tag_55\n      jump\t// in\n    tag_59:\n        /* \"#utility.yul\":1207:1327   */\n    tag_58:\n        /* \"#utility.yul\":1366:1367   */\n      0x00\n        /* \"#utility.yul\":1391:1444   */\n      tag_60\n        /* \"#utility.yul\":1436:1443   */\n      dup9\n        /* \"#utility.yul\":1427:1433   */\n      dup3\n        /* \"#utility.yul\":1416:1425   */\n      dup10\n        /* \"#utility.yul\":1412:1434   */\n      add\n        /* \"#utility.yul\":1391:1444   */\n      tag_48\n      jump\t// in\n    tag_60:\n        /* \"#utility.yul\":1381:1444   */\n      swap6\n      pop\n        /* \"#utility.yul\":1337:1454   */\n      pop\n        /* \"#utility.yul\":1493:1495   */\n      0x20\n        /* \"#utility.yul\":1519:1572   */\n      tag_61\n        /* \"#utility.yul\":1564:1571   */\n      dup9\n        /* \"#utility.yul\":1555:1561   */\n      dup3\n        /* \"#utility.yul\":1544:1553   */\n      dup10\n        /* \"#utility.yul\":1540:1562   */\n      add\n        /* \"#utility.yul\":1519:1572   */\n      tag_48\n      jump\t// in\n    tag_61:\n        /* \"#utility.yul\":1509:1572   */\n      swap5\n      pop\n        /* \"#utility.yul\":1464:1582   */\n      pop\n        /* \"#utility.yul\":1649:1651   */\n      0x40\n        /* \"#utility.yul\":1638:1647   */\n      dup7\n        /* \"#utility.yul\":1634:1652   */\n      add\n        /* \"#utility.yul\":1621:1653   */\n      calldataload\n        /* \"#utility.yul\":1680:1698   */\n      0xffffffffffffffff\n        /* \"#utility.yul\":1672:1678   */\n      dup2\n        /* \"#utility.yul\":1669:1699   */\n      gt\n        /* \"#utility.yul\":1666:1783   */\n      iszero\n      tag_62\n      jumpi\n        /* \"#utility.yul\":1702:1781   */\n      tag_63\n      tag_64\n      jump\t// in\n    tag_63:\n        /* \"#utility.yul\":1666:1783   */\n    tag_62:\n        /* \"#utility.yul\":1815:1880   */\n      tag_65\n        /* \"#utility.yul\":1872:1879   */\n      dup9\n        /* \"#utility.yul\":1863:1869   */\n      dup3\n        /* \"#utility.yul\":1852:1861   */\n      dup10\n        /* \"#utility.yul\":1848:1870   */\n      add\n        /* \"#utility.yul\":1815:1880   */\n      tag_37\n      jump\t// in\n    tag_65:\n        /* \"#utility.yul\":1797:1880   */\n      swap4\n      pop\n      swap4\n      pop\n        /* \"#utility.yul\":1592:1890   */\n      pop\n        /* \"#utility.yul\":1929:1931   */\n      0x60\n        /* \"#utility.yul\":1955:2008   */\n      tag_66\n        /* \"#utility.yul\":2000:2007   */\n      dup9\n        /* \"#utility.yul\":1991:1997   */\n      dup3\n        /* \"#utility.yul\":1980:1989   */\n      dup10\n        /* \"#utility.yul\":1976:1998   */\n      add\n        /* \"#utility.yul\":1955:2008   */\n      tag_48\n      jump\t// in\n    tag_66:\n        /* \"#utility.yul\":1945:2008   */\n      swap2\n      pop\n        /* \"#utility.yul\":1900:2018   */\n      pop\n        /* \"#utility.yul\":1060:2025   */\n      swap3\n      swap6\n      pop\n      swap3\n      swap6\n      swap1\n      swap4\n      pop\n      jump\t// out\n        /* \"#utility.yul\":2031:2173   */\n    tag_67:\n        /* \"#utility.yul\":2134:2166   */\n      tag_69\n        /* \"#utility.yul\":2160:2165   */\n      dup2\n        /* \"#utility.yul\":2134:2166   */\n      tag_70\n      jump\t// in\n    tag_69:\n        /* \"#utility.yul\":2129:2132   */\n      dup3\n        /* \"#utility.yul\":2122:2167   */\n      mstore\n        /* \"#utility.yul\":2031:2173   */\n      pop\n      pop\n      jump\t// out\n        /* \"#utility.yul\":2179:2297   */\n    tag_71:\n        /* \"#utility.yul\":2266:2290   */\n      tag_73\n        /* \"#utility.yul\":2284:2289   */\n      dup2\n        /* \"#utility.yul\":2266:2290   */\n      tag_74\n      jump\t// in\n    tag_73:\n        /* \"#utility.yul\":2261:2264   */\n      dup3\n        /* \"#utility.yul\":2254:2291   */\n      mstore\n        /* \"#utility.yul\":2179:2297   */\n      pop\n      pop\n      jump\t// out\n        /* \"#utility.yul\":2303:2412   */\n    tag_75:\n        /* \"#utility.yul\":2384:2405   */\n      tag_77\n        /* \"#utility.yul\":2399:2404   */\n      dup2\n        /* \"#utility.yul\":2384:2405   */\n      tag_78\n      jump\t// in\n    tag_77:\n        /* \"#utility.yul\":2379:2382   */\n      dup3\n        /* \"#utility.yul\":2372:2406   */\n      mstore\n        /* \"#utility.yul\":2303:2412   */\n      pop\n      pop\n      jump\t// out\n        /* \"#utility.yul\":2418:2782   */\n    tag_79:\n        /* \"#utility.yul\":2506:2509   */\n      0x00\n        /* \"#utility.yul\":2534:2573   */\n      tag_81\n        /* \"#utility.yul\":2567:2572   */\n      dup3\n        /* \"#utility.yul\":2534:2573   */\n      tag_82\n      jump\t// in\n    tag_81:\n        /* \"#utility.yul\":2589:2660   */\n      tag_83\n        /* \"#utility.yul\":2653:2659   */\n      dup2\n        /* \"#utility.yul\":2648:2651   */\n      dup6\n        /* \"#utility.yul\":2589:2660   */\n      tag_84\n      jump\t// in\n    tag_83:\n        /* \"#utility.yul\":2582:2660   */\n      swap4\n      pop\n        /* \"#utility.yul\":2669:2721   */\n      tag_85\n        /* \"#utility.yul\":2714:2720   */\n      dup2\n        /* \"#utility.yul\":2709:2712   */\n      dup6\n        /* \"#utility.yul\":2702:2706   */\n      0x20\n        /* \"#utility.yul\":2695:2700   */\n      dup7\n        /* \"#utility.yul\":2691:2707   */\n      add\n        /* \"#utility.yul\":2669:2721   */\n      tag_86\n      jump\t// in\n    tag_85:\n        /* \"#utility.yul\":2746:2775   */\n      tag_87\n        /* \"#utility.yul\":2768:2774   */\n      dup2\n        /* \"#utility.yul\":2746:2775   */\n      tag_88\n      jump\t// in\n    tag_87:\n        /* \"#utility.yul\":2741:2744   */\n      dup5\n        /* \"#utility.yul\":2737:2776   */\n      add\n        /* \"#utility.yul\":2730:2776   */\n      swap2\n      pop\n        /* \"#utility.yul\":2510:2782   */\n      pop\n        /* \"#utility.yul\":2418:2782   */\n      swap3\n      swap2\n      pop\n      pop\n      jump\t// out\n        /* \"#utility.yul\":2788:3153   */\n    tag_89:\n        /* \"#utility.yul\":2930:2933   */\n      0x00\n        /* \"#utility.yul\":2951:3017   */\n      tag_91\n        /* \"#utility.yul\":3015:3016   */\n      0x09\n        /* \"#utility.yul\":3010:3013   */\n      dup4\n        /* \"#utility.yul\":2951:3017   */\n      tag_84\n      jump\t// in\n    tag_91:\n        /* \"#utility.yul\":2944:3017   */\n      swap2\n      pop\n        /* \"#utility.yul\":3026:3119   */\n      tag_92\n        /* \"#utility.yul\":3115:3118   */\n      dup3\n        /* \"#utility.yul\":3026:3119   */\n      tag_93\n      jump\t// in\n    tag_92:\n        /* \"#utility.yul\":3144:3146   */\n      0x20\n        /* \"#utility.yul\":3139:3142   */\n      dup3\n        /* \"#utility.yul\":3135:3147   */\n      add\n        /* \"#utility.yul\":3128:3147   */\n      swap1\n      pop\n        /* \"#utility.yul\":2788:3153   */\n      swap2\n      swap1\n      pop\n      jump\t// out\n        /* \"#utility.yul\":3159:3277   */\n    tag_94:\n        /* \"#utility.yul\":3246:3270   */\n      tag_96\n        /* \"#utility.yul\":3264:3269   */\n      dup2\n        /* \"#utility.yul\":3246:3270   */\n      tag_97\n      jump\t// in\n    tag_96:\n        /* \"#utility.yul\":3241:3244   */\n      dup3\n        /* \"#utility.yul\":3234:3271   */\n      mstore\n        /* \"#utility.yul\":3159:3277   */\n      pop\n      pop\n      jump\t// out\n        /* \"#utility.yul\":3283:3505   */\n    tag_15:\n        /* \"#utility.yul\":3376:3380   */\n      0x00\n        /* \"#utility.yul\":3414:3416   */\n      0x20\n        /* \"#utility.yul\":3403:3412   */\n      dup3\n        /* \"#utility.yul\":3399:3417   */\n      add\n        /* \"#utility.yul\":3391:3417   */\n      swap1\n      pop\n        /* \"#utility.yul\":3427:3498   */\n      tag_99\n        /* \"#utility.yul\":3495:3496   */\n      0x00\n        /* \"#utility.yul\":3484:3493   */\n      dup4\n        /* \"#utility.yul\":3480:3497   */\n      add\n        /* \"#utility.yul\":3471:3477   */\n      dup5\n        /* \"#utility.yul\":3427:3498   */\n      tag_71\n      jump\t// in\n    tag_99:\n        /* \"#utility.yul\":3283:3505   */\n      swap3\n      swap2\n      pop\n      pop\n      jump\t// out\n        /* \"#utility.yul\":3511:4619   */\n    tag_11:\n        /* \"#utility.yul\":3830:3834   */\n      0x00\n        /* \"#utility.yul\":3868:3871   */\n      0x0100\n        /* \"#utility.yul\":3857:3866   */\n      dup3\n        /* \"#utility.yul\":3853:3872   */\n      add\n        /* \"#utility.yul\":3845:3872   */\n      swap1\n      pop\n        /* \"#utility.yul\":3882:3969   */\n      tag_101\n        /* \"#utility.yul\":3966:3967   */\n      0x00\n        /* \"#utility.yul\":3955:3964   */\n      dup4\n        /* \"#utility.yul\":3951:3968   */\n      add\n        /* \"#utility.yul\":3942:3948   */\n      dup12\n        /* \"#utility.yul\":3882:3969   */\n      tag_67\n      jump\t// in\n    tag_101:\n        /* \"#utility.yul\":3979:4051   */\n      tag_102\n        /* \"#utility.yul\":4047:4049   */\n      0x20\n        /* \"#utility.yul\":4036:4045   */\n      dup4\n        /* \"#utility.yul\":4032:4050   */\n      add\n        /* \"#utility.yul\":4023:4029   */\n      dup11\n        /* \"#utility.yul\":3979:4051   */\n      tag_94\n      jump\t// in\n    tag_102:\n        /* \"#utility.yul\":4061:4133   */\n      tag_103\n        /* \"#utility.yul\":4129:4131   */\n      0x40\n        /* \"#utility.yul\":4118:4127   */\n      dup4\n        /* \"#utility.yul\":4114:4132   */\n      add\n        /* \"#utility.yul\":4105:4111   */\n      dup10\n        /* \"#utility.yul\":4061:4133   */\n      tag_94\n      jump\t// in\n    tag_103:\n        /* \"#utility.yul\":4143:4215   */\n      tag_104\n        /* \"#utility.yul\":4211:4213   */\n      0x60\n        /* \"#utility.yul\":4200:4209   */\n      dup4\n        /* \"#utility.yul\":4196:4214   */\n      add\n        /* \"#utility.yul\":4187:4193   */\n      dup9\n        /* \"#utility.yul\":4143:4215   */\n      tag_94\n      jump\t// in\n    tag_104:\n        /* \"#utility.yul\":4225:4298   */\n      tag_105\n        /* \"#utility.yul\":4293:4296   */\n      0x80\n        /* \"#utility.yul\":4282:4291   */\n      dup4\n        /* \"#utility.yul\":4278:4297   */\n      add\n        /* \"#utility.yul\":4269:4275   */\n      dup8\n        /* \"#utility.yul\":4225:4298   */\n      tag_94\n      jump\t// in\n    tag_105:\n        /* \"#utility.yul\":4308:4381   */\n      tag_106\n        /* \"#utility.yul\":4376:4379   */\n      0xa0\n        /* \"#utility.yul\":4365:4374   */\n      dup4\n        /* \"#utility.yul\":4361:4380   */\n      add\n        /* \"#utility.yul\":4352:4358   */\n      dup7\n        /* \"#utility.yul\":4308:4381   */\n      tag_94\n      jump\t// in\n    tag_106:\n        /* \"#utility.yul\":4429:4438   */\n      dup2\n        /* \"#utility.yul\":4423:4427   */\n      dup2\n        /* \"#utility.yul\":4419:4439   */\n      sub\n        /* \"#utility.yul\":4413:4416   */\n      0xc0\n        /* \"#utility.yul\":4402:4411   */\n      dup4\n        /* \"#utility.yul\":4398:4417   */\n      add\n        /* \"#utility.yul\":4391:4440   */\n      mstore\n        /* \"#utility.yul\":4457:4535   */\n      tag_107\n        /* \"#utility.yul\":4530:4534   */\n      dup2\n        /* \"#utility.yul\":4521:4527   */\n      dup6\n        /* \"#utility.yul\":4457:4535   */\n      tag_79\n      jump\t// in\n    tag_107:\n        /* \"#utility.yul\":4449:4535   */\n      swap1\n      pop\n        /* \"#utility.yul\":4545:4612   */\n      tag_108\n        /* \"#utility.yul\":4607:4610   */\n      0xe0\n        /* \"#utility.yul\":4596:4605   */\n      dup4\n        /* \"#utility.yul\":4592:4611   */\n      add\n        /* \"#utility.yul\":4583:4589   */\n      dup5\n        /* \"#utility.yul\":4545:4612   */\n      tag_75\n      jump\t// in\n    tag_108:\n        /* \"#utility.yul\":3511:4619   */\n      swap10\n      swap9\n      pop\n      pop\n      pop\n      pop\n      pop\n      pop\n      pop\n      pop\n      pop\n      jump\t// out\n        /* \"#utility.yul\":4625:5044   */\n    tag_35:\n        /* \"#utility.yul\":4791:4795   */\n      0x00\n        /* \"#utility.yul\":4829:4831   */\n      0x20\n        /* \"#utility.yul\":4818:4827   */\n      dup3\n        /* \"#utility.yul\":4814:4832   */\n      add\n        /* \"#utility.yul\":4806:4832   */\n      swap1\n      pop\n        /* \"#utility.yul\":4878:4887   */\n      dup2\n        /* \"#utility.yul\":4872:4876   */\n      dup2\n        /* \"#utility.yul\":4868:4888   */\n      sub\n        /* \"#utility.yul\":4864:4865   */\n      0x00\n        /* \"#utility.yul\":4853:4862   */\n      dup4\n        /* \"#utility.yul\":4849:4866   */\n      add\n        /* \"#utility.yul\":4842:4889   */\n      mstore\n        /* \"#utility.yul\":4906:5037   */\n      tag_110\n        /* \"#utility.yul\":5032:5036   */\n      dup2\n        /* \"#utility.yul\":4906:5037   */\n      tag_89\n      jump\t// in\n    tag_110:\n        /* \"#utility.yul\":4898:5037   */\n      swap1\n      pop\n        /* \"#utility.yul\":4625:5044   */\n      swap2\n      swap1\n      pop\n      jump\t// out\n        /* \"#utility.yul\":5131:5230   */\n    tag_82:\n        /* \"#utility.yul\":5183:5189   */\n      0x00\n        /* \"#utility.yul\":5217:5222   */\n      dup2\n        /* \"#utility.yul\":5211:5223   */\n      mload\n        /* \"#utility.yul\":5201:5223   */\n      swap1\n      pop\n        /* \"#utility.yul\":5131:5230   */\n      swap2\n      swap1\n      pop\n      jump\t// out\n        /* \"#utility.yul\":5236:5405   */\n    tag_84:\n        /* \"#utility.yul\":5320:5331   */\n      0x00\n        /* \"#utility.yul\":5354:5360   */\n      dup3\n        /* \"#utility.yul\":5349:5352   */\n      dup3\n        /* \"#utility.yul\":5342:5361   */\n      mstore\n        /* \"#utility.yul\":5394:5398   */\n      0x20\n        /* \"#utility.yul\":5389:5392   */\n      dup3\n        /* \"#utility.yul\":5385:5399   */\n      add\n        /* \"#utility.yul\":5370:5399   */\n      swap1\n      pop\n        /* \"#utility.yul\":5236:5405   */\n      swap3\n      swap2\n      pop\n      pop\n      jump\t// out\n        /* \"#utility.yul\":5411:5759   */\n    tag_32:\n        /* \"#utility.yul\":5451:5458   */\n      0x00\n        /* \"#utility.yul\":5474:5494   */\n      tag_116\n        /* \"#utility.yul\":5492:5493   */\n      dup3\n        /* \"#utility.yul\":5474:5494   */\n      tag_97\n      jump\t// in\n    tag_116:\n        /* \"#utility.yul\":5469:5494   */\n      swap2\n      pop\n        /* \"#utility.yul\":5508:5528   */\n      tag_117\n        /* \"#utility.yul\":5526:5527   */\n      dup4\n        /* \"#utility.yul\":5508:5528   */\n      tag_97\n      jump\t// in\n    tag_117:\n        /* \"#utility.yul\":5503:5528   */\n      swap3\n      pop\n        /* \"#utility.yul\":5696:5697   */\n      dup2\n        /* \"#utility.yul\":5628:5694   */\n      0xffffffffffffffffffffffffffffffffffffffffffffffffffffffffffffffff\n        /* \"#utility.yul\":5624:5698   */\n      div\n        /* \"#utility.yul\":5621:5622   */\n      dup4\n        /* \"#utility.yul\":5618:5699   */\n      gt\n        /* \"#utility.yul\":5613:5614   */\n      dup3\n        /* \"#utility.yul\":5606:5615   */\n      iszero\n        /* \"#utility.yul\":5599:5616   */\n      iszero\n        /* \"#utility.yul\":5595:5700   */\n      and\n        /* \"#utility.yul\":5592:5723   */\n      iszero\n      tag_118\n      jumpi\n        /* \"#utility.yul\":5703:5721   */\n      tag_119\n      tag_120\n      jump\t// in\n    tag_119:\n        /* \"#utility.yul\":5592:5723   */\n    tag_118:\n        /* \"#utility.yul\":5751:5752   */\n      dup3\n        /* \"#utility.yul\":5748:5749   */\n      dup3\n        /* \"#utility.yul\":5744:5753   */\n      mul\n        /* \"#utility.yul\":5733:5753   */\n      swap1\n      pop\n        /* \"#utility.yul\":5411:5759   */\n      swap3\n      swap2\n      pop\n      pop\n      jump\t// out\n        /* \"#utility.yul\":5765:5861   */\n    tag_74:\n        /* \"#utility.yul\":5802:5809   */\n      0x00\n        /* \"#utility.yul\":5831:5855   */\n      tag_122\n        /* \"#utility.yul\":5849:5854   */\n      dup3\n        /* \"#utility.yul\":5831:5855   */\n      tag_123\n      jump\t// in\n    tag_122:\n        /* \"#utility.yul\":5820:5855   */\n      swap1\n      pop\n        /* \"#utility.yul\":5765:5861   */\n      swap2\n      swap1\n      pop\n      jump\t// out\n        /* \"#utility.yul\":5867:5971   */\n    tag_70:\n        /* \"#utility.yul\":5912:5919   */\n      0x00\n        /* \"#utility.yul\":5941:5965   */\n      tag_125\n        /* \"#utility.yul\":5959:5964   */\n      dup3\n        /* \"#utility.yul\":5941:5965   */\n      tag_123\n      jump\t// in\n    tag_125:\n        /* \"#utility.yul\":5930:5965   */\n      swap1\n      pop\n        /* \"#utility.yul\":5867:5971   */\n      swap2\n      swap1\n      pop\n      jump\t// out\n        /* \"#utility.yul\":5977:6067   */\n    tag_78:\n        /* \"#utility.yul\":6011:6018   */\n      0x00\n        /* \"#utility.yul\":6054:6059   */\n      dup2\n        /* \"#utility.yul\":6047:6060   */\n      iszero\n        /* \"#utility.yul\":6040:6061   */\n      iszero\n        /* \"#utility.yul\":6029:6061   */\n      swap1\n      pop\n        /* \"#utility.yul\":5977:6067   */\n      swap2\n      swap1\n      pop\n      jump\t// out\n        /* \"#utility.yul\":6073:6199   */\n    tag_123:\n        /* \"#utility.yul\":6110:6117   */\n      0x00\n        /* \"#utility.yul\":6150:6192   */\n      0xffffffffffffffffffffffffffffffffffffffff\n        /* \"#utility.yul\":6143:6148   */\n      dup3\n        /* \"#utility.yul\":6139:6193   */\n      and\n        /* \"#utility.yul\":6128:6193   */\n      swap1\n      pop\n        /* \"#utility.yul\":6073:6199   */\n      swap2\n      swap1\n      pop\n      jump\t// out\n        /* \"#utility.yul\":6205:6282   */\n    tag_97:\n        /* \"#utility.yul\":6242:6249   */\n      0x00\n        /* \"#utility.yul\":6271:6276   */\n      dup2\n        /* \"#utility.yul\":6260:6276   */\n      swap1\n      pop\n        /* \"#utility.yul\":6205:6282   */\n      swap2\n      swap1\n      pop\n      jump\t// out\n        /* \"#utility.yul\":6288:6595   */\n    tag_86:\n        /* \"#utility.yul\":6356:6357   */\n      0x00\n        /* \"#utility.yul\":6366:6479   */\n    tag_130:\n        /* \"#utility.yul\":6380:6386   */\n      dup4\n        /* \"#utility.yul\":6377:6378   */\n      dup2\n        /* \"#utility.yul\":6374:6387   */\n      lt\n        /* \"#utility.yul\":6366:6479   */\n      iszero\n      tag_132\n      jumpi\n        /* \"#utility.yul\":6465:6466   */\n      dup1\n        /* \"#utility.yul\":6460:6463   */\n      dup3\n        /* \"#utility.yul\":6456:6467   */\n      add\n        /* \"#utility.yul\":6450:6468   */\n      mload\n        /* \"#utility.yul\":6446:6447   */\n      dup2\n        /* \"#utility.yul\":6441:6444   */\n      dup5\n        /* \"#utility.yul\":6437:6448   */\n      add\n        /* \"#utility.yul\":6430:6469   */\n      mstore\n        /* \"#utility.yul\":6402:6404   */\n      0x20\n        /* \"#utility.yul\":6399:6400   */\n      dup2\n        /* \"#utility.yul\":6395:6405   */\n      add\n        /* \"#utility.yul\":6390:6405   */\n      swap1\n      pop\n        /* \"#utility.yul\":6366:6479   */\n      jump(tag_130)\n    tag_132:\n        /* \"#utility.yul\":6497:6503   */\n      dup4\n        /* \"#utility.yul\":6494:6495   */\n      dup2\n        /* \"#utility.yul\":6491:6504   */\n      gt\n        /* \"#utility.yul\":6488:6589   */\n      iszero\n      tag_133\n      jumpi\n        /* \"#utility.yul\":6577:6578   */\n      0x00\n        /* \"#utility.yul\":6568:6574   */\n      dup5\n        /* \"#utility.yul\":6563:6566   */\n      dup5\n        /* \"#utility.yul\":6559:6575   */\n      add\n        /* \"#utility.yul\":6552:6579   */\n      mstore\n        /* \"#utility.yul\":6488:6589   */\n    tag_133:\n        /* \"#utility.yul\":6337:6595   */\n      pop\n        /* \"#utility.yul\":6288:6595   */\n      pop\n      pop\n      pop\n      jump\t// out\n        /* \"#utility.yul\":6601:6921   */\n    tag_23:\n        /* \"#utility.yul\":6645:6651   */\n      0x00\n        /* \"#utility.yul\":6682:6683   */\n      0x02\n        /* \"#utility.yul\":6676:6680   */\n      dup3\n        /* \"#utility.yul\":6672:6684   */\n      div\n        /* \"#utility.yul\":6662:6684   */\n      swap1\n      pop\n        /* \"#utility.yul\":6729:6730   */\n      0x01\n        /* \"#utility.yul\":6723:6727   */\n      dup3\n        /* \"#utility.yul\":6719:6731   */\n      and\n        /* \"#utility.yul\":6750:6768   */\n      dup1\n        /* \"#utility.yul\":6740:6821   */\n      tag_135\n      jumpi\n        /* \"#utility.yul\":6806:6810   */\n      0x7f\n        /* \"#utility.yul\":6798:6804   */\n      dup3\n        /* \"#utility.yul\":6794:6811   */\n      and\n        /* \"#utility.yul\":6784:6811   */\n      swap2\n      pop\n        /* \"#utility.yul\":6740:6821   */\n    tag_135:\n        /* \"#utility.yul\":6868:6870   */\n      0x20\n        /* \"#utility.yul\":6860:6866   */\n      dup3\n        /* \"#utility.yul\":6857:6871   */\n      lt\n        /* \"#utility.yul\":6837:6855   */\n      dup2\n        /* \"#utility.yul\":6834:6872   */\n      eq\n        /* \"#utility.yul\":6831:6915   */\n      iszero\n      tag_136\n      jumpi\n        /* \"#utility.yul\":6887:6905   */\n      tag_137\n      tag_138\n      jump\t// in\n    tag_137:\n        /* \"#utility.yul\":6831:6915   */\n    tag_136:\n        /* \"#utility.yul\":6652:6921   */\n      pop\n        /* \"#utility.yul\":6601:6921   */\n      swap2\n      swap1\n      pop\n      jump\t// out\n        /* \"#utility.yul\":6927:7107   */\n    tag_120:\n        /* \"#utility.yul\":6975:7052   */\n      0x4e487b7100000000000000000000000000000000000000000000000000000000\n        /* \"#utility.yul\":6972:6973   */\n      0x00\n        /* \"#utility.yul\":6965:7053   */\n      mstore\n        /* \"#utility.yul\":7072:7076   */\n      0x11\n        /* \"#utility.yul\":7069:7070   */\n      0x04\n        /* \"#utility.yul\":7062:7077   */\n      mstore\n        /* \"#utility.yul\":7096:7100   */\n      0x24\n        /* \"#utility.yul\":7093:7094   */\n      0x00\n        /* \"#utility.yul\":7086:7101   */\n      revert\n        /* \"#utility.yul\":7113:7293   */\n    tag_138:\n        /* \"#utility.yul\":7161:7238   */\n      0x4e487b7100000000000000000000000000000000000000000000000000000000\n        /* \"#utility.yul\":7158:7159   */\n      0x00\n        /* \"#utility.yul\":7151:7239   */\n      mstore\n        /* \"#utility.yul\":7258:7262   */\n      0x22\n        /* \"#utility.yul\":7255:7256   */\n      0x04\n        /* \"#utility.yul\":7248:7263   */\n      mstore\n        /* \"#utility.yul\":7282:7286   */\n      0x24\n        /* \"#utility.yul\":7279:7280   */\n      0x00\n        /* \"#utility.yul\":7272:7287   */\n      revert\n        /* \"#utility.yul\":7299:7416   */\n    tag_44:\n        /* \"#utility.yul\":7408:7409   */\n      0x00\n        /* \"#utility.yul\":7405:7406   */\n      dup1\n        /* \"#utility.yul\":7398:7410   */\n      revert\n        /* \"#utility.yul\":7422:7539   */\n    tag_41:\n        /* \"#utility.yul\":7531:7532   */\n      0x00\n        /* \"#utility.yul\":7528:7529   */\n      dup1\n        /* \"#utility.yul\":7521:7533   */\n      revert\n        /* \"#utility.yul\":7545:7662   */\n    tag_47:\n        /* \"#utility.yul\":7654:7655   */\n      0x00\n        /* \"#utility.yul\":7651:7652   */\n      dup1\n        /* \"#utility.yul\":7644:7656   */\n      revert\n        /* \"#utility.yul\":7668:7785   */\n    tag_64:\n        /* \"#utility.yul\":7777:7778   */\n      0x00\n        /* \"#utility.yul\":7774:7775   */\n      dup1\n        /* \"#utility.yul\":7767:7779   */\n      revert\n        /* \"#utility.yul\":7791:7908   */\n    tag_55:\n        /* \"#utility.yul\":7900:7901   */\n      0x00\n        /* \"#utility.yul\":7897:7898   */\n      dup1\n        /* \"#utility.yul\":7890:7902   */\n      revert\n        /* \"#utility.yul\":7914:8016   */\n    tag_88:\n        /* \"#utility.yul\":7955:7961   */\n      0x00\n        /* \"#utility.yul\":8006:8008   */\n      0x1f\n        /* \"#utility.yul\":8002:8009   */\n      not\n        /* \"#utility.yul\":7997:7999   */\n      0x1f\n        /* \"#utility.yul\":7990:7995   */\n      dup4\n        /* \"#utility.yul\":7986:8000   */\n      add\n        /* \"#utility.yul\":7982:8010   */\n      and\n        /* \"#utility.yul\":7972:8010   */\n      swap1\n      pop\n        /* \"#utility.yul\":7914:8016   */\n      swap2\n      swap1\n      pop\n      jump\t// out\n        /* \"#utility.yul\":8022:8181   */\n    tag_93:\n        /* \"#utility.yul\":8162:8173   */\n      0x56657279206c6f77200000000000000000000000000000000000000000000000\n        /* \"#utility.yul\":8158:8159   */\n      0x00\n        /* \"#utility.yul\":8150:8156   */\n      dup3\n        /* \"#utility.yul\":8146:8160   */\n      add\n        /* \"#utility.yul\":8139:8174   */\n      mstore\n        /* \"#utility.yul\":8022:8181   */\n      pop\n      jump\t// out\n        /* \"#utility.yul\":8187:8309   */\n    tag_51:\n        /* \"#utility.yul\":8260:8284   */\n      tag_149\n        /* \"#utility.yul\":8278:8283   */\n      dup2\n        /* \"#utility.yul\":8260:8284   */\n      tag_97\n      jump\t// in\n    tag_149:\n        /* \"#utility.yul\":8253:8258   */\n      dup2\n        /* \"#utility.yul\":8250:8285   */\n      eq\n        /* \"#utility.yul\":8240:8303   */\n      tag_150\n      jumpi\n        /* \"#utility.yul\":8299:8300   */\n      0x00\n        /* \"#utility.yul\":8296:8297   */\n      dup1\n        /* \"#utility.yul\":8289:8301   */\n      revert\n        /* \"#utility.yul\":8240:8303   */\n    tag_150:\n        /* \"#utility.yul\":8187:8309   */\n      pop\n      jump\t// out\n\n    auxdata: 0xa26469706673582212204be6622c4be8c4b64ca4556ed1713d26820f8200a32b5d7b5ac086163a969cba64736f6c63430008070033\n}\n",
				"bytecode": {
					"linkReferences": {},
					"object": "608060405234801561001057600080fd5b50336000806101000a81548173ffffffffffffffffffffffffffffffffffffffff021916908373ffffffffffffffffffffffffffffffffffffffff1602179055506106ff806100606000396000f3fe608060405234801561001057600080fd5b50600436106100415760003560e01c8063571a26a0146100465780638da5cb5b1461007d578063e9835d151461009b575b600080fd5b610060600480360381019061005b91906102bf565b6100b7565b604051610074989796959493929190610427565b60405180910390f35b6100856101c4565b604051610092919061040c565b60405180910390f35b6100b560048036038101906100b091906102ec565b6101e8565b005b600181815481106100c757600080fd5b90600052602060002090600802016000915090508060000160009054906101000a900473ffffffffffffffffffffffffffffffffffffffff169080600101549080600201549080600301549080600401549080600501549080600601805461012e906105cf565b80601f016020809104026020016040519081016040528092919081815260200182805461015a906105cf565b80156101a75780601f1061017c576101008083540402835291602001916101a7565b820191906000526020600020905b81548152906001019060200180831161018a57829003601f168201915b5050505050908060070160009054906101000a900460ff16905088565b60008054906101000a900473ffffffffffffffffffffffffffffffffffffffff1681565b60008082146101f757816101fc565b6202a3005b9050818561020a91906104e8565b86101561024c576040517f08c379a0000000000000000000000000000000000000000000000000000000008152600401610243906104ac565b60405180910390fd5b505050505050565b60008083601f84011261026a57610269610664565b5b8235905067ffffffffffffffff8111156102875761028661065f565b5b6020830191508360018202830111156102a3576102a2610669565b5b9250929050565b6000813590506102b9816106b2565b92915050565b6000602082840312156102d5576102d4610673565b5b60006102e3848285016102aa565b91505092915050565b60008060008060006080868803121561030857610307610673565b5b6000610316888289016102aa565b9550506020610327888289016102aa565b945050604086013567ffffffffffffffff8111156103485761034761066e565b5b61035488828901610254565b93509350506060610367888289016102aa565b9150509295509295909350565b61037d81610554565b82525050565b61038c81610542565b82525050565b61039b81610566565b82525050565b60006103ac826104cc565b6103b681856104d7565b93506103c681856020860161059c565b6103cf81610678565b840191505092915050565b60006103e76009836104d7565b91506103f282610689565b602082019050919050565b61040681610592565b82525050565b60006020820190506104216000830184610383565b92915050565b60006101008201905061043d600083018b610374565b61044a602083018a6103fd565b61045760408301896103fd565b61046460608301886103fd565b61047160808301876103fd565b61047e60a08301866103fd565b81810360c083015261049081856103a1565b905061049f60e0830184610392565b9998505050505050505050565b600060208201905081810360008301526104c5816103da565b9050919050565b600081519050919050565b600082825260208201905092915050565b60006104f382610592565b91506104fe83610592565b9250817fffffffffffffffffffffffffffffffffffffffffffffffffffffffffffffffff048311821515161561053757610536610601565b5b828202905092915050565b600061054d82610572565b9050919050565b600061055f82610572565b9050919050565b60008115159050919050565b600073ffffffffffffffffffffffffffffffffffffffff82169050919050565b6000819050919050565b60005b838110156105ba57808201518184015260208101905061059f565b838111156105c9576000848401525b50505050565b600060028204905060018216806105e757607f821691505b602082108114156105fb576105fa610630565b5b50919050565b7f4e487b7100000000000000000000000000000000000000000000000000000000600052601160045260246000fd5b7f4e487b7100000000000000000000000000000000000000000000000000000000600052602260045260246000fd5b600080fd5b600080fd5b600080fd5b600080fd5b600080fd5b6000601f19601f8301169050919050565b7f56657279206c6f77200000000000000000000000000000000000000000000000600082015250565b6106bb81610592565b81146106c657600080fd5b5056fea26469706673582212204be6622c4be8c4b64ca4556ed1713d26820f8200a32b5d7b5ac086163a969cba64736f6c63430008070033",
					"opcodes": "PUSH1 0x80 PUSH1 0x40 MSTORE CALLVALUE DUP1 ISZERO PUSH2 0x10 JUMPI PUSH1 0x0 DUP1 REVERT JUMPDEST POP CALLER PUSH1 0x0 DUP1 PUSH2 0x100 EXP DUP2 SLOAD DUP2 PUSH20 0xFFFFFFFFFFFFFFFFFFFFFFFFFFFFFFFFFFFFFFFF MUL NOT AND SWAP1 DUP4 PUSH20 0xFFFFFFFFFFFFFFFFFFFFFFFFFFFFFFFFFFFFFFFF AND MUL OR SWAP1 SSTORE POP PUSH2 0x6FF DUP1 PUSH2 0x60 PUSH1 0x0 CODECOPY PUSH1 0x0 RETURN INVALID PUSH1 0x80 PUSH1 0x40 MSTORE CALLVALUE DUP1 ISZERO PUSH2 0x10 JUMPI PUSH1 0x0 DUP1 REVERT JUMPDEST POP PUSH1 0x4 CALLDATASIZE LT PUSH2 0x41 JUMPI PUSH1 0x0 CALLDATALOAD PUSH1 0xE0 SHR DUP1 PUSH4 0x571A26A0 EQ PUSH2 0x46 JUMPI DUP1 PUSH4 0x8DA5CB5B EQ PUSH2 0x7D JUMPI DUP1 PUSH4 0xE9835D15 EQ PUSH2 0x9B JUMPI JUMPDEST PUSH1 0x0 DUP1 REVERT JUMPDEST PUSH2 0x60 PUSH1 0x4 DUP1 CALLDATASIZE SUB DUP2 ADD SWAP1 PUSH2 0x5B SWAP2 SWAP1 PUSH2 0x2BF JUMP JUMPDEST PUSH2 0xB7 JUMP JUMPDEST PUSH1 0x40 MLOAD PUSH2 0x74 SWAP9 SWAP8 SWAP7 SWAP6 SWAP5 SWAP4 SWAP3 SWAP2 SWAP1 PUSH2 0x427 JUMP JUMPDEST PUSH1 0x40 MLOAD DUP1 SWAP2 SUB SWAP1 RETURN JUMPDEST PUSH2 0x85 PUSH2 0x1C4 JUMP JUMPDEST PUSH1 0x40 MLOAD PUSH2 0x92 SWAP2 SWAP1 PUSH2 0x40C JUMP JUMPDEST PUSH1 0x40 MLOAD DUP1 SWAP2 SUB SWAP1 RETURN JUMPDEST PUSH2 0xB5 PUSH1 0x4 DUP1 CALLDATASIZE SUB DUP2 ADD SWAP1 PUSH2 0xB0 SWAP2 SWAP1 PUSH2 0x2EC JUMP JUMPDEST PUSH2 0x1E8 JUMP JUMPDEST STOP JUMPDEST PUSH1 0x1 DUP2 DUP2 SLOAD DUP2 LT PUSH2 0xC7 JUMPI PUSH1 0x0 DUP1 REVERT JUMPDEST SWAP1 PUSH1 0x0 MSTORE PUSH1 0x20 PUSH1 0x0 KECCAK256 SWAP1 PUSH1 0x8 MUL ADD PUSH1 0x0 SWAP2 POP SWAP1 POP DUP1 PUSH1 0x0 ADD PUSH1 0x0 SWAP1 SLOAD SWAP1 PUSH2 0x100 EXP SWAP1 DIV PUSH20 0xFFFFFFFFFFFFFFFFFFFFFFFFFFFFFFFFFFFFFFFF AND SWAP1 DUP1 PUSH1 0x1 ADD SLOAD SWAP1 DUP1 PUSH1 0x2 ADD SLOAD SWAP1 DUP1 PUSH1 0x3 ADD SLOAD SWAP1 DUP1 PUSH1 0x4 ADD SLOAD SWAP1 DUP1 PUSH1 0x5 ADD SLOAD SWAP1 DUP1 PUSH1 0x6 ADD DUP1 SLOAD PUSH2 0x12E SWAP1 PUSH2 0x5CF JUMP JUMPDEST DUP1 PUSH1 0x1F ADD PUSH1 0x20 DUP1 SWAP2 DIV MUL PUSH1 0x20 ADD PUSH1 0x40 MLOAD SWAP1 DUP2 ADD PUSH1 0x40 MSTORE DUP1 SWAP3 SWAP2 SWAP1 DUP2 DUP2 MSTORE PUSH1 0x20 ADD DUP3 DUP1 SLOAD PUSH2 0x15A SWAP1 PUSH2 0x5CF JUMP JUMPDEST DUP1 ISZERO PUSH2 0x1A7 JUMPI DUP1 PUSH1 0x1F LT PUSH2 0x17C JUMPI PUSH2 0x100 DUP1 DUP4 SLOAD DIV MUL DUP4 MSTORE SWAP2 PUSH1 0x20 ADD SWAP2 PUSH2 0x1A7 JUMP JUMPDEST DUP3 ADD SWAP2 SWAP1 PUSH1 0x0 MSTORE PUSH1 0x20 PUSH1 0x0 KECCAK256 SWAP1 JUMPDEST DUP2 SLOAD DUP2 MSTORE SWAP1 PUSH1 0x1 ADD SWAP1 PUSH1 0x20 ADD DUP1 DUP4 GT PUSH2 0x18A JUMPI DUP3 SWAP1 SUB PUSH1 0x1F AND DUP3 ADD SWAP2 JUMPDEST POP POP POP POP POP SWAP1 DUP1 PUSH1 0x7 ADD PUSH1 0x0 SWAP1 SLOAD SWAP1 PUSH2 0x100 EXP SWAP1 DIV PUSH1 0xFF AND SWAP1 POP DUP9 JUMP JUMPDEST PUSH1 0x0 DUP1 SLOAD SWAP1 PUSH2 0x100 EXP SWAP1 DIV PUSH20 0xFFFFFFFFFFFFFFFFFFFFFFFFFFFFFFFFFFFFFFFF AND DUP2 JUMP JUMPDEST PUSH1 0x0 DUP1 DUP3 EQ PUSH2 0x1F7 JUMPI DUP2 PUSH2 0x1FC JUMP JUMPDEST PUSH3 0x2A300 JUMPDEST SWAP1 POP DUP2 DUP6 PUSH2 0x20A SWAP2 SWAP1 PUSH2 0x4E8 JUMP JUMPDEST DUP7 LT ISZERO PUSH2 0x24C JUMPI PUSH1 0x40 MLOAD PUSH32 0x8C379A000000000000000000000000000000000000000000000000000000000 DUP2 MSTORE PUSH1 0x4 ADD PUSH2 0x243 SWAP1 PUSH2 0x4AC JUMP JUMPDEST PUSH1 0x40 MLOAD DUP1 SWAP2 SUB SWAP1 REVERT JUMPDEST POP POP POP POP POP POP JUMP JUMPDEST PUSH1 0x0 DUP1 DUP4 PUSH1 0x1F DUP5 ADD SLT PUSH2 0x26A JUMPI PUSH2 0x269 PUSH2 0x664 JUMP JUMPDEST JUMPDEST DUP3 CALLDATALOAD SWAP1 POP PUSH8 0xFFFFFFFFFFFFFFFF DUP2 GT ISZERO PUSH2 0x287 JUMPI PUSH2 0x286 PUSH2 0x65F JUMP JUMPDEST JUMPDEST PUSH1 0x20 DUP4 ADD SWAP2 POP DUP4 PUSH1 0x1 DUP3 MUL DUP4 ADD GT ISZERO PUSH2 0x2A3 JUMPI PUSH2 0x2A2 PUSH2 0x669 JUMP JUMPDEST JUMPDEST SWAP3 POP SWAP3 SWAP1 POP JUMP JUMPDEST PUSH1 0x0 DUP2 CALLDATALOAD SWAP1 POP PUSH2 0x2B9 DUP2 PUSH2 0x6B2 JUMP JUMPDEST SWAP3 SWAP2 POP POP JUMP JUMPDEST PUSH1 0x0 PUSH1 0x20 DUP3 DUP5 SUB SLT ISZERO PUSH2 0x2D5 JUMPI PUSH2 0x2D4 PUSH2 0x673 JUMP JUMPDEST JUMPDEST PUSH1 0x0 PUSH2 0x2E3 DUP5 DUP3 DUP6 ADD PUSH2 0x2AA JUMP JUMPDEST SWAP2 POP POP SWAP3 SWAP2 POP POP JUMP JUMPDEST PUSH1 0x0 DUP1 PUSH1 0x0 DUP1 PUSH1 0x0 PUSH1 0x80 DUP7 DUP9 SUB SLT ISZERO PUSH2 0x308 JUMPI PUSH2 0x307 PUSH2 0x673 JUMP JUMPDEST JUMPDEST PUSH1 0x0 PUSH2 0x316 DUP9 DUP3 DUP10 ADD PUSH2 0x2AA JUMP JUMPDEST SWAP6 POP POP PUSH1 0x20 PUSH2 0x327 DUP9 DUP3 DUP10 ADD PUSH2 0x2AA JUMP JUMPDEST SWAP5 POP POP PUSH1 0x40 DUP7 ADD CALLDATALOAD PUSH8 0xFFFFFFFFFFFFFFFF DUP2 GT ISZERO PUSH2 0x348 JUMPI PUSH2 0x347 PUSH2 0x66E JUMP JUMPDEST JUMPDEST PUSH2 0x354 DUP9 DUP3 DUP10 ADD PUSH2 0x254 JUMP JUMPDEST SWAP4 POP SWAP4 POP POP PUSH1 0x60 PUSH2 0x367 DUP9 DUP3 DUP10 ADD PUSH2 0x2AA JUMP JUMPDEST SWAP2 POP POP SWAP3 SWAP6 POP SWAP3 SWAP6 SWAP1 SWAP4 POP JUMP JUMPDEST PUSH2 0x37D DUP2 PUSH2 0x554 JUMP JUMPDEST DUP3 MSTORE POP POP JUMP JUMPDEST PUSH2 0x38C DUP2 PUSH2 0x542 JUMP JUMPDEST DUP3 MSTORE POP POP JUMP JUMPDEST PUSH2 0x39B DUP2 PUSH2 0x566 JUMP JUMPDEST DUP3 MSTORE POP POP JUMP JUMPDEST PUSH1 0x0 PUSH2 0x3AC DUP3 PUSH2 0x4CC JUMP JUMPDEST PUSH2 0x3B6 DUP2 DUP6 PUSH2 0x4D7 JUMP JUMPDEST SWAP4 POP PUSH2 0x3C6 DUP2 DUP6 PUSH1 0x20 DUP7 ADD PUSH2 0x59C JUMP JUMPDEST PUSH2 0x3CF DUP2 PUSH2 0x678 JUMP JUMPDEST DUP5 ADD SWAP2 POP POP SWAP3 SWAP2 POP POP JUMP JUMPDEST PUSH1 0x0 PUSH2 0x3E7 PUSH1 0x9 DUP4 PUSH2 0x4D7 JUMP JUMPDEST SWAP2 POP PUSH2 0x3F2 DUP3 PUSH2 0x689 JUMP JUMPDEST PUSH1 0x20 DUP3 ADD SWAP1 POP SWAP2 SWAP1 POP JUMP JUMPDEST PUSH2 0x406 DUP2 PUSH2 0x592 JUMP JUMPDEST DUP3 MSTORE POP POP JUMP JUMPDEST PUSH1 0x0 PUSH1 0x20 DUP3 ADD SWAP1 POP PUSH2 0x421 PUSH1 0x0 DUP4 ADD DUP5 PUSH2 0x383 JUMP JUMPDEST SWAP3 SWAP2 POP POP JUMP JUMPDEST PUSH1 0x0 PUSH2 0x100 DUP3 ADD SWAP1 POP PUSH2 0x43D PUSH1 0x0 DUP4 ADD DUP12 PUSH2 0x374 JUMP JUMPDEST PUSH2 0x44A PUSH1 0x20 DUP4 ADD DUP11 PUSH2 0x3FD JUMP JUMPDEST PUSH2 0x457 PUSH1 0x40 DUP4 ADD DUP10 PUSH2 0x3FD JUMP JUMPDEST PUSH2 0x464 PUSH1 0x60 DUP4 ADD DUP9 PUSH2 0x3FD JUMP JUMPDEST PUSH2 0x471 PUSH1 0x80 DUP4 ADD DUP8 PUSH2 0x3FD JUMP JUMPDEST PUSH2 0x47E PUSH1 0xA0 DUP4 ADD DUP7 PUSH2 0x3FD JUMP JUMPDEST DUP2 DUP2 SUB PUSH1 0xC0 DUP4 ADD MSTORE PUSH2 0x490 DUP2 DUP6 PUSH2 0x3A1 JUMP JUMPDEST SWAP1 POP PUSH2 0x49F PUSH1 0xE0 DUP4 ADD DUP5 PUSH2 0x392 JUMP JUMPDEST SWAP10 SWAP9 POP POP POP POP POP POP POP POP POP JUMP JUMPDEST PUSH1 0x0 PUSH1 0x20 DUP3 ADD SWAP1 POP DUP2 DUP2 SUB PUSH1 0x0 DUP4 ADD MSTORE PUSH2 0x4C5 DUP2 PUSH2 0x3DA JUMP JUMPDEST SWAP1 POP SWAP2 SWAP1 POP JUMP JUMPDEST PUSH1 0x0 DUP2 MLOAD SWAP1 POP SWAP2 SWAP1 POP JUMP JUMPDEST PUSH1 0x0 DUP3 DUP3 MSTORE PUSH1 0x20 DUP3 ADD SWAP1 POP SWAP3 SWAP2 POP POP JUMP JUMPDEST PUSH1 0x0 PUSH2 0x4F3 DUP3 PUSH2 0x592 JUMP JUMPDEST SWAP2 POP PUSH2 0x4FE DUP4 PUSH2 0x592 JUMP JUMPDEST SWAP3 POP DUP2 PUSH32 0xFFFFFFFFFFFFFFFFFFFFFFFFFFFFFFFFFFFFFFFFFFFFFFFFFFFFFFFFFFFFFFFF DIV DUP4 GT DUP3 ISZERO ISZERO AND ISZERO PUSH2 0x537 JUMPI PUSH2 0x536 PUSH2 0x601 JUMP JUMPDEST JUMPDEST DUP3 DUP3 MUL SWAP1 POP SWAP3 SWAP2 POP POP JUMP JUMPDEST PUSH1 0x0 PUSH2 0x54D DUP3 PUSH2 0x572 JUMP JUMPDEST SWAP1 POP SWAP2 SWAP1 POP JUMP JUMPDEST PUSH1 0x0 PUSH2 0x55F DUP3 PUSH2 0x572 JUMP JUMPDEST SWAP1 POP SWAP2 SWAP1 POP JUMP JUMPDEST PUSH1 0x0 DUP2 ISZERO ISZERO SWAP1 POP SWAP2 SWAP1 POP JUMP JUMPDEST PUSH1 0x0 PUSH20 0xFFFFFFFFFFFFFFFFFFFFFFFFFFFFFFFFFFFFFFFF DUP3 AND SWAP1 POP SWAP2 SWAP1 POP JUMP JUMPDEST PUSH1 0x0 DUP2 SWAP1 POP SWAP2 SWAP1 POP JUMP JUMPDEST PUSH1 0x0 JUMPDEST DUP4 DUP2 LT ISZERO PUSH2 0x5BA JUMPI DUP1 DUP3 ADD MLOAD DUP2 DUP5 ADD MSTORE PUSH1 0x20 DUP2 ADD SWAP1 POP PUSH2 0x59F JUMP JUMPDEST DUP4 DUP2 GT ISZERO PUSH2 0x5C9 JUMPI PUSH1 0x0 DUP5 DUP5 ADD MSTORE JUMPDEST POP POP POP POP JUMP JUMPDEST PUSH1 0x0 PUSH1 0x2 DUP3 DIV SWAP1 POP PUSH1 0x1 DUP3 AND DUP1 PUSH2 0x5E7 JUMPI PUSH1 0x7F DUP3 AND SWAP2 POP JUMPDEST PUSH1 0x20 DUP3 LT DUP2 EQ ISZERO PUSH2 0x5FB JUMPI PUSH2 0x5FA PUSH2 0x630 JUMP JUMPDEST JUMPDEST POP SWAP2 SWAP1 POP JUMP JUMPDEST PUSH32 0x4E487B7100000000000000000000000000000000000000000000000000000000 PUSH1 0x0 MSTORE PUSH1 0x11 PUSH1 0x4 MSTORE PUSH1 0x24 PUSH1 0x0 REVERT JUMPDEST PUSH32 0x4E487B7100000000000000000000000000000000000000000000000000000000 PUSH1 0x0 MSTORE PUSH1 0x22 PUSH1 0x4 MSTORE PUSH1 0x24 PUSH1 0x0 REVERT JUMPDEST PUSH1 0x0 DUP1 REVERT JUMPDEST PUSH1 0x0 DUP1 REVERT JUMPDEST PUSH1 0x0 DUP1 REVERT JUMPDEST PUSH1 0x0 DUP1 REVERT JUMPDEST PUSH1 0x0 DUP1 REVERT JUMPDEST PUSH1 0x0 PUSH1 0x1F NOT PUSH1 0x1F DUP4 ADD AND SWAP1 POP SWAP2 SWAP1 POP JUMP JUMPDEST PUSH32 0x56657279206C6F77200000000000000000000000000000000000000000000000 PUSH1 0x0 DUP3 ADD MSTORE POP JUMP JUMPDEST PUSH2 0x6BB DUP2 PUSH2 0x592 JUMP JUMPDEST DUP2 EQ PUSH2 0x6C6 JUMPI PUSH1 0x0 DUP1 REVERT JUMPDEST POP JUMP INVALID LOG2 PUSH5 0x6970667358 0x22 SLT KECCAK256 0x4B 0xE6 PUSH3 0x2C4BE8 0xC4 0xB6 0x4C LOG4 SSTORE PUSH15 0xD1713D26820F8200A32B5D7B5AC086 AND GASPRICE SWAP7 SWAP13 0xBA PUSH5 0x736F6C6343 STOP ADDMOD SMOD STOP CALLER "
				},
				"gasEstimates": {
					"creation": {
						"codeDepositCost": "358200",
						"executionCost": "24659",
						"totalCost": "382859"
					},
					"external": {
						"auctions(uint256)": "infinite",
						"createAuction(uint256,uint256,string,uint256)": "infinite",
						"owner()": "2511"
					}
				},
				"methodIdentifiers": {
					"auctions(uint256)": "571a26a0",
					"createAuction(uint256,uint256,string,uint256)": "e9835d15",
					"owner()": "8da5cb5b"
				}
			},
			"storageLayout": {
				"storage": [
					{
						"astId": 3,
						"contract": "contracts/Lesson_5.sol:AucEngine",
						"label": "owner",
						"offset": 0,
						"slot": "0",
						"type": "t_address"
					},
					{
						"astId": 30,
						"contract": "contracts/Lesson_5.sol:AucEngine",
						"label": "auctions",
						"offset": 0,
						"slot": "1",
						"type": "t_array(t_struct(Auction)26_storage)dyn_storage"
					}
				],
				"types": {
					"t_address": {
						"encoding": "inplace",
						"label": "address",
						"numberOfBytes": "20"
					},
					"t_address_payable": {
						"encoding": "inplace",
						"label": "address payable",
						"numberOfBytes": "20"
					},
					"t_array(t_struct(Auction)26_storage)dyn_storage": {
						"base": "t_struct(Auction)26_storage",
						"encoding": "dynamic_array",
						"label": "struct AucEngine.Auction[]",
						"numberOfBytes": "32"
					},
					"t_bool": {
						"encoding": "inplace",
						"label": "bool",
						"numberOfBytes": "1"
					},
					"t_string_storage": {
						"encoding": "bytes",
						"label": "string",
						"numberOfBytes": "32"
					},
					"t_struct(Auction)26_storage": {
						"encoding": "inplace",
						"label": "struct AucEngine.Auction",
						"members": [
							{
								"astId": 11,
								"contract": "contracts/Lesson_5.sol:AucEngine",
								"label": "seller",
								"offset": 0,
								"slot": "0",
								"type": "t_address_payable"
							},
							{
								"astId": 13,
								"contract": "contracts/Lesson_5.sol:AucEngine",
								"label": "startingPrice",
								"offset": 0,
								"slot": "1",
								"type": "t_uint256"
							},
							{
								"astId": 15,
								"contract": "contracts/Lesson_5.sol:AucEngine",
								"label": "finalPrice",
								"offset": 0,
								"slot": "2",
								"type": "t_uint256"
							},
							{
								"astId": 17,
								"contract": "contracts/Lesson_5.sol:AucEngine",
								"label": "startsAt",
								"offset": 0,
								"slot": "3",
								"type": "t_uint256"
							},
							{
								"astId": 19,
								"contract": "contracts/Lesson_5.sol:AucEngine",
								"label": "endsAt",
								"offset": 0,
								"slot": "4",
								"type": "t_uint256"
							},
							{
								"astId": 21,
								"contract": "contracts/Lesson_5.sol:AucEngine",
								"label": "dicountRate",
								"offset": 0,
								"slot": "5",
								"type": "t_uint256"
							},
							{
								"astId": 23,
								"contract": "contracts/Lesson_5.sol:AucEngine",
								"label": "item",
								"offset": 0,
								"slot": "6",
								"type": "t_string_storage"
							},
							{
								"astId": 25,
								"contract": "contracts/Lesson_5.sol:AucEngine",
								"label": "stopped",
								"offset": 0,
								"slot": "7",
								"type": "t_bool"
							}
						],
						"numberOfBytes": "256"
					},
					"t_uint256": {
						"encoding": "inplace",
						"label": "uint256",
						"numberOfBytes": "32"
					}
				}
			},
			"userdoc": {
				"kind": "user",
				"methods": {},
				"version": 1
			}
		}
	}
}