{
	"contracts/Lesson_5.sol": {
		"AucEngine": {
			"abi": [
				{
					"inputs": [],
					"stateMutability": "nonpayable",
					"type": "constructor"
				},
				{
					"anonymous": false,
					"inputs": [
						{
							"indexed": false,
							"internalType": "uint256",
							"name": "index",
							"type": "uint256"
						},
						{
							"indexed": false,
							"internalType": "string",
							"name": "itemName",
							"type": "string"
						},
						{
							"indexed": false,
							"internalType": "uint256",
							"name": "startingprice",
							"type": "uint256"
						},
						{
							"indexed": false,
							"internalType": "uint256",
							"name": "duration",
							"type": "uint256"
						}
					],
					"name": "AuctionCreated",
					"type": "event"
				},
				{
					"inputs": [
						{
							"internalType": "uint256",
							"name": "",
							"type": "uint256"
						}
					],
					"name": "auctions",
					"outputs": [
						{
							"internalType": "address payable",
							"name": "seller",
							"type": "address"
						},
						{
							"internalType": "uint256",
							"name": "startingPrice",
							"type": "uint256"
						},
						{
							"internalType": "uint256",
							"name": "finalPrice",
							"type": "uint256"
						},
						{
							"internalType": "uint256",
							"name": "startsAt",
							"type": "uint256"
						},
						{
							"internalType": "uint256",
							"name": "endsAt",
							"type": "uint256"
						},
						{
							"internalType": "uint256",
							"name": "discountRate",
							"type": "uint256"
						},
						{
							"internalType": "string",
							"name": "item",
							"type": "string"
						},
						{
							"internalType": "bool",
							"name": "stopped",
							"type": "bool"
						}
					],
					"stateMutability": "view",
					"type": "function"
				},
				{
					"inputs": [
						{
							"internalType": "uint256",
							"name": "_startingPrice",
							"type": "uint256"
						},
						{
							"internalType": "uint256",
							"name": "_discountRate",
							"type": "uint256"
						},
						{
							"internalType": "string",
							"name": "_item",
							"type": "string"
						},
						{
							"internalType": "uint256",
							"name": "_duration",
							"type": "uint256"
						}
					],
					"name": "createAuction",
					"outputs": [],
					"stateMutability": "nonpayable",
					"type": "function"
				},
				{
					"inputs": [
						{
							"internalType": "uint256",
							"name": "index",
							"type": "uint256"
						}
					],
					"name": "getPriceFor",
					"outputs": [
						{
							"internalType": "uint256",
							"name": "",
							"type": "uint256"
						}
					],
					"stateMutability": "view",
					"type": "function"
				},
				{
					"inputs": [],
					"name": "owner",
					"outputs": [
						{
							"internalType": "address",
							"name": "",
							"type": "address"
						}
					],
					"stateMutability": "view",
					"type": "function"
				}
			],
			"devdoc": {
				"kind": "dev",
				"methods": {},
				"version": 1
			},
			"evm": {
				"assembly": "    /* \"contracts/Lesson_5.sol\":62:2105  contract AucEngine\r... */\n  mstore(0x40, 0x80)\n    /* \"contracts/Lesson_5.sol\":723:779  constructor()\r... */\n  callvalue\n  dup1\n  iszero\n  tag_1\n  jumpi\n  0x00\n  dup1\n  revert\ntag_1:\n  pop\n    /* \"contracts/Lesson_5.sol\":761:771  msg.sender */\n  caller\n    /* \"contracts/Lesson_5.sol\":753:758  owner */\n  0x00\n  dup1\n    /* \"contracts/Lesson_5.sol\":753:771  owner = msg.sender */\n  0x0100\n  exp\n  dup2\n  sload\n  dup2\n  0xffffffffffffffffffffffffffffffffffffffff\n  mul\n  not\n  and\n  swap1\n  dup4\n  0xffffffffffffffffffffffffffffffffffffffff\n  and\n  mul\n  or\n  swap1\n  sstore\n  pop\n    /* \"contracts/Lesson_5.sol\":62:2105  contract AucEngine\r... */\n  dataSize(sub_0)\n  dup1\n  dataOffset(sub_0)\n  0x00\n  codecopy\n  0x00\n  return\nstop\n\nsub_0: assembly {\n        /* \"contracts/Lesson_5.sol\":62:2105  contract AucEngine\r... */\n      mstore(0x40, 0x80)\n      callvalue\n      dup1\n      iszero\n      tag_1\n      jumpi\n      0x00\n      dup1\n      revert\n    tag_1:\n      pop\n      jumpi(tag_2, lt(calldatasize, 0x04))\n      shr(0xe0, calldataload(0x00))\n      dup1\n      0x4534cd9c\n      eq\n      tag_3\n      jumpi\n      dup1\n      0x571a26a0\n      eq\n      tag_4\n      jumpi\n      dup1\n      0x8da5cb5b\n      eq\n      tag_5\n      jumpi\n      dup1\n      0xe9835d15\n      eq\n      tag_6\n      jumpi\n    tag_2:\n      0x00\n      dup1\n      revert\n        /* \"contracts/Lesson_5.sol\":2020:2102  function getPriceFor(uint index) public view returns(uint)\r... */\n    tag_3:\n      tag_7\n      0x04\n      dup1\n      calldatasize\n      sub\n      dup2\n      add\n      swap1\n      tag_8\n      swap2\n      swap1\n      tag_9\n      jump\t// in\n    tag_8:\n      tag_10\n      jump\t// in\n    tag_7:\n      mload(0x40)\n      tag_11\n      swap2\n      swap1\n      tag_12\n      jump\t// in\n    tag_11:\n      mload(0x40)\n      dup1\n      swap2\n      sub\n      swap1\n      return\n        /* \"contracts/Lesson_5.sol\":540:565  Auction[] public auctions */\n    tag_4:\n      tag_13\n      0x04\n      dup1\n      calldatasize\n      sub\n      dup2\n      add\n      swap1\n      tag_14\n      swap2\n      swap1\n      tag_9\n      jump\t// in\n    tag_14:\n      tag_15\n      jump\t// in\n    tag_13:\n      mload(0x40)\n      tag_16\n      swap9\n      swap8\n      swap7\n      swap6\n      swap5\n      swap4\n      swap3\n      swap2\n      swap1\n      tag_17\n      jump\t// in\n    tag_16:\n      mload(0x40)\n      dup1\n      swap2\n      sub\n      swap1\n      return\n        /* \"contracts/Lesson_5.sol\":89:109  address public owner */\n    tag_5:\n      tag_18\n      tag_19\n      jump\t// in\n    tag_18:\n      mload(0x40)\n      tag_20\n      swap2\n      swap1\n      tag_21\n      jump\t// in\n    tag_20:\n      mload(0x40)\n      dup1\n      swap2\n      sub\n      swap1\n      return\n        /* \"contracts/Lesson_5.sol\":852:2012  function createAuction(uint _startingPrice, uint _discountRate, string calldata _item, uint _duration) external \r... */\n    tag_6:\n      tag_22\n      0x04\n      dup1\n      calldatasize\n      sub\n      dup2\n      add\n      swap1\n      tag_23\n      swap2\n      swap1\n      tag_24\n      jump\t// in\n    tag_23:\n      tag_25\n      jump\t// in\n    tag_22:\n      stop\n        /* \"contracts/Lesson_5.sol\":2020:2102  function getPriceFor(uint index) public view returns(uint)\r... */\n    tag_10:\n        /* \"contracts/Lesson_5.sol\":2073:2077  uint */\n      0x00\n        /* \"contracts/Lesson_5.sol\":2020:2102  function getPriceFor(uint index) public view returns(uint)\r... */\n      swap2\n      swap1\n      pop\n      jump\t// out\n        /* \"contracts/Lesson_5.sol\":540:565  Auction[] public auctions */\n    tag_15:\n      0x01\n      dup2\n      dup2\n      sload\n      dup2\n      lt\n      tag_27\n      jumpi\n      0x00\n      dup1\n      revert\n    tag_27:\n      swap1\n      0x00\n      mstore\n      keccak256(0x00, 0x20)\n      swap1\n      0x08\n      mul\n      add\n      0x00\n      swap2\n      pop\n      swap1\n      pop\n      dup1\n      0x00\n      add\n      0x00\n      swap1\n      sload\n      swap1\n      0x0100\n      exp\n      swap1\n      div\n      0xffffffffffffffffffffffffffffffffffffffff\n      and\n      swap1\n      dup1\n      0x01\n      add\n      sload\n      swap1\n      dup1\n      0x02\n      add\n      sload\n      swap1\n      dup1\n      0x03\n      add\n      sload\n      swap1\n      dup1\n      0x04\n      add\n      sload\n      swap1\n      dup1\n      0x05\n      add\n      sload\n      swap1\n      dup1\n      0x06\n      add\n      dup1\n      sload\n      tag_29\n      swap1\n      tag_30\n      jump\t// in\n    tag_29:\n      dup1\n      0x1f\n      add\n      0x20\n      dup1\n      swap2\n      div\n      mul\n      0x20\n      add\n      mload(0x40)\n      swap1\n      dup2\n      add\n      0x40\n      mstore\n      dup1\n      swap3\n      swap2\n      swap1\n      dup2\n      dup2\n      mstore\n      0x20\n      add\n      dup3\n      dup1\n      sload\n      tag_31\n      swap1\n      tag_30\n      jump\t// in\n    tag_31:\n      dup1\n      iszero\n      tag_32\n      jumpi\n      dup1\n      0x1f\n      lt\n      tag_33\n      jumpi\n      0x0100\n      dup1\n      dup4\n      sload\n      div\n      mul\n      dup4\n      mstore\n      swap2\n      0x20\n      add\n      swap2\n      jump(tag_32)\n    tag_33:\n      dup3\n      add\n      swap2\n      swap1\n      0x00\n      mstore\n      keccak256(0x00, 0x20)\n      swap1\n    tag_34:\n      dup2\n      sload\n      dup2\n      mstore\n      swap1\n      0x01\n      add\n      swap1\n      0x20\n      add\n      dup1\n      dup4\n      gt\n      tag_34\n      jumpi\n      dup3\n      swap1\n      sub\n      0x1f\n      and\n      dup3\n      add\n      swap2\n    tag_32:\n      pop\n      pop\n      pop\n      pop\n      pop\n      swap1\n      dup1\n      0x07\n      add\n      0x00\n      swap1\n      sload\n      swap1\n      0x0100\n      exp\n      swap1\n      div\n      0xff\n      and\n      swap1\n      pop\n      dup9\n      jump\t// out\n        /* \"contracts/Lesson_5.sol\":89:109  address public owner */\n    tag_19:\n      0x00\n      dup1\n      sload\n      swap1\n      0x0100\n      exp\n      swap1\n      div\n      0xffffffffffffffffffffffffffffffffffffffff\n      and\n      dup2\n      jump\t// out\n        /* \"contracts/Lesson_5.sol\":852:2012  function createAuction(uint _startingPrice, uint _discountRate, string calldata _item, uint _duration) external \r... */\n    tag_25:\n        /* \"contracts/Lesson_5.sol\":1029:1042  uint duration */\n      0x00\n        /* \"contracts/Lesson_5.sol\":1058:1059  0 */\n      dup1\n        /* \"contracts/Lesson_5.sol\":1045:1054  _duration */\n      dup3\n        /* \"contracts/Lesson_5.sol\":1045:1059  _duration == 0 */\n      eq\n        /* \"contracts/Lesson_5.sol\":1045:1082  _duration == 0 ? DURATION : _duration */\n      tag_36\n      jumpi\n        /* \"contracts/Lesson_5.sol\":1073:1082  _duration */\n      dup2\n        /* \"contracts/Lesson_5.sol\":1045:1082  _duration == 0 ? DURATION : _duration */\n      jump(tag_37)\n    tag_36:\n        /* \"contracts/Lesson_5.sol\":141:147  2 days */\n      0x02a300\n        /* \"contracts/Lesson_5.sol\":1045:1082  _duration == 0 ? DURATION : _duration */\n    tag_37:\n        /* \"contracts/Lesson_5.sol\":1029:1082  uint duration = _duration == 0 ? DURATION : _duration */\n      swap1\n      pop\n        /* \"contracts/Lesson_5.sol\":1137:1146  _duration */\n      dup2\n        /* \"contracts/Lesson_5.sol\":1121:1134  _discountRate */\n      dup6\n        /* \"contracts/Lesson_5.sol\":1121:1146  _discountRate * _duration */\n      tag_38\n      swap2\n      swap1\n      tag_39\n      jump\t// in\n    tag_38:\n        /* \"contracts/Lesson_5.sol\":1103:1117  _startingPrice */\n      dup7\n        /* \"contracts/Lesson_5.sol\":1103:1146  _startingPrice >= _discountRate * _duration */\n      lt\n      iszero\n        /* \"contracts/Lesson_5.sol\":1095:1176  require(_startingPrice >= _discountRate * _duration, \"Incorrect starting price.\") */\n      tag_40\n      jumpi\n      mload(0x40)\n      0x08c379a000000000000000000000000000000000000000000000000000000000\n      dup2\n      mstore\n      0x04\n      add\n      tag_41\n      swap1\n      tag_42\n      jump\t// in\n    tag_41:\n      mload(0x40)\n      dup1\n      swap2\n      sub\n      swap1\n      revert\n    tag_40:\n        /* \"contracts/Lesson_5.sol\":1246:1271  Auction memory newAuction */\n      0x00\n        /* \"contracts/Lesson_5.sol\":1274:1607  Auction({\r... */\n      mload(0x40)\n      dup1\n      0x0100\n      add\n      0x40\n      mstore\n      dup1\n        /* \"contracts/Lesson_5.sol\":1313:1323  msg.sender */\n      caller\n        /* \"contracts/Lesson_5.sol\":1274:1607  Auction({\r... */\n      0xffffffffffffffffffffffffffffffffffffffff\n      and\n      dup2\n      mstore\n      0x20\n      add\n        /* \"contracts/Lesson_5.sol\":1354:1368  _startingPrice */\n      dup9\n        /* \"contracts/Lesson_5.sol\":1274:1607  Auction({\r... */\n      dup2\n      mstore\n      0x20\n      add\n        /* \"contracts/Lesson_5.sol\":1395:1409  _startingPrice */\n      dup9\n        /* \"contracts/Lesson_5.sol\":1274:1607  Auction({\r... */\n      dup2\n      mstore\n      0x20\n      add\n        /* \"contracts/Lesson_5.sol\":1476:1491  block.timestamp */\n      timestamp\n        /* \"contracts/Lesson_5.sol\":1274:1607  Auction({\r... */\n      dup2\n      mstore\n      0x20\n      add\n        /* \"contracts/Lesson_5.sol\":1532:1540  duration */\n      dup4\n        /* \"contracts/Lesson_5.sol\":1514:1529  block.timestamp */\n      timestamp\n        /* \"contracts/Lesson_5.sol\":1514:1540  block.timestamp + duration */\n      tag_43\n      swap2\n      swap1\n      tag_44\n      jump\t// in\n    tag_43:\n        /* \"contracts/Lesson_5.sol\":1274:1607  Auction({\r... */\n      dup2\n      mstore\n      0x20\n      add\n        /* \"contracts/Lesson_5.sol\":1438:1451  _discountRate */\n      dup8\n        /* \"contracts/Lesson_5.sol\":1274:1607  Auction({\r... */\n      dup2\n      mstore\n      0x20\n      add\n        /* \"contracts/Lesson_5.sol\":1561:1566  _item */\n      dup7\n      dup7\n        /* \"contracts/Lesson_5.sol\":1274:1607  Auction({\r... */\n      dup1\n      dup1\n      0x1f\n      add\n      0x20\n      dup1\n      swap2\n      div\n      mul\n      0x20\n      add\n      mload(0x40)\n      swap1\n      dup2\n      add\n      0x40\n      mstore\n      dup1\n      swap4\n      swap3\n      swap2\n      swap1\n      dup2\n      dup2\n      mstore\n      0x20\n      add\n      dup4\n      dup4\n      dup1\n      dup3\n      dup5\n      calldatacopy\n      0x00\n      dup2\n      dup5\n      add\n      mstore\n      not(0x1f)\n      0x1f\n      dup3\n      add\n      and\n      swap1\n      pop\n      dup1\n      dup4\n      add\n      swap3\n      pop\n      pop\n      pop\n      pop\n      pop\n      pop\n      pop\n      dup2\n      mstore\n      0x20\n      add\n        /* \"contracts/Lesson_5.sol\":1590:1595  false */\n      0x00\n        /* \"contracts/Lesson_5.sol\":1274:1607  Auction({\r... */\n      iszero\n      iszero\n      dup2\n      mstore\n      pop\n        /* \"contracts/Lesson_5.sol\":1246:1607  Auction memory newAuction = Auction({\r... */\n      swap1\n      pop\n        /* \"contracts/Lesson_5.sol\":1739:1747  auctions */\n      0x01\n        /* \"contracts/Lesson_5.sol\":1753:1763  newAuction */\n      dup2\n        /* \"contracts/Lesson_5.sol\":1739:1764  auctions.push(newAuction) */\n      swap1\n      dup1\n      0x01\n      dup2\n      sload\n      add\n      dup1\n      dup3\n      sstore\n      dup1\n      swap2\n      pop\n      pop\n      0x01\n      swap1\n      sub\n      swap1\n      0x00\n      mstore\n      keccak256(0x00, 0x20)\n      swap1\n      0x08\n      mul\n      add\n      0x00\n      swap1\n      swap2\n      swap1\n      swap2\n      swap1\n      swap2\n      pop\n      0x00\n      dup3\n      add\n      mload\n      dup2\n      0x00\n      add\n      exp(0x0100, 0x00)\n      dup2\n      sload\n      dup2\n      0xffffffffffffffffffffffffffffffffffffffff\n      mul\n      not\n      and\n      swap1\n      dup4\n      0xffffffffffffffffffffffffffffffffffffffff\n      and\n      mul\n      or\n      swap1\n      sstore\n      pop\n      0x20\n      dup3\n      add\n      mload\n      dup2\n      0x01\n      add\n      sstore\n      0x40\n      dup3\n      add\n      mload\n      dup2\n      0x02\n      add\n      sstore\n      0x60\n      dup3\n      add\n      mload\n      dup2\n      0x03\n      add\n      sstore\n      0x80\n      dup3\n      add\n      mload\n      dup2\n      0x04\n      add\n      sstore\n      0xa0\n      dup3\n      add\n      mload\n      dup2\n      0x05\n      add\n      sstore\n      0xc0\n      dup3\n      add\n      mload\n      dup2\n      0x06\n      add\n      swap1\n      dup1\n      mload\n      swap1\n      0x20\n      add\n      swap1\n      tag_46\n      swap3\n      swap2\n      swap1\n      tag_47\n      jump\t// in\n    tag_46:\n      pop\n      0xe0\n      dup3\n      add\n      mload\n      dup2\n      0x07\n      add\n      exp(0x0100, 0x00)\n      dup2\n      sload\n      dup2\n      0xff\n      mul\n      not\n      and\n      swap1\n      dup4\n      iszero\n      iszero\n      mul\n      or\n      swap1\n      sstore\n      pop\n      pop\n      pop\n        /* \"contracts/Lesson_5.sol\":1936:2004  AuctionCreated(auctions.length - 1, _item, _startingPrice, duration) */\n      0x5bf34ed94988e5dcdc7d1faaa54eb1d3b55f45d5f11457e235afb21a8ebbe73c\n        /* \"contracts/Lesson_5.sol\":1969:1970  1 */\n      0x01\n        /* \"contracts/Lesson_5.sol\":1951:1959  auctions */\n      dup1\n        /* \"contracts/Lesson_5.sol\":1951:1966  auctions.length */\n      dup1\n      sload\n      swap1\n      pop\n        /* \"contracts/Lesson_5.sol\":1951:1970  auctions.length - 1 */\n      tag_48\n      swap2\n      swap1\n      tag_49\n      jump\t// in\n    tag_48:\n        /* \"contracts/Lesson_5.sol\":1972:1977  _item */\n      dup7\n      dup7\n        /* \"contracts/Lesson_5.sol\":1979:1993  _startingPrice */\n      dup11\n        /* \"contracts/Lesson_5.sol\":1995:2003  duration */\n      dup7\n        /* \"contracts/Lesson_5.sol\":1936:2004  AuctionCreated(auctions.length - 1, _item, _startingPrice, duration) */\n      mload(0x40)\n      tag_50\n      swap6\n      swap5\n      swap4\n      swap3\n      swap2\n      swap1\n      tag_51\n      jump\t// in\n    tag_50:\n      mload(0x40)\n      dup1\n      swap2\n      sub\n      swap1\n      log1\n        /* \"contracts/Lesson_5.sol\":970:2012  {\r... */\n      pop\n      pop\n        /* \"contracts/Lesson_5.sol\":852:2012  function createAuction(uint _startingPrice, uint _discountRate, string calldata _item, uint _duration) external \r... */\n      pop\n      pop\n      pop\n      pop\n      pop\n      jump\t// out\n    tag_47:\n      dup3\n      dup1\n      sload\n      tag_52\n      swap1\n      tag_30\n      jump\t// in\n    tag_52:\n      swap1\n      0x00\n      mstore\n      keccak256(0x00, 0x20)\n      swap1\n      0x1f\n      add\n      0x20\n      swap1\n      div\n      dup2\n      add\n      swap3\n      dup3\n      tag_54\n      jumpi\n      0x00\n      dup6\n      sstore\n      jump(tag_53)\n    tag_54:\n      dup3\n      0x1f\n      lt\n      tag_55\n      jumpi\n      dup1\n      mload\n      not(0xff)\n      and\n      dup4\n      dup1\n      add\n      or\n      dup6\n      sstore\n      jump(tag_53)\n    tag_55:\n      dup3\n      dup1\n      add\n      0x01\n      add\n      dup6\n      sstore\n      dup3\n      iszero\n      tag_53\n      jumpi\n      swap2\n      dup3\n      add\n    tag_56:\n      dup3\n      dup2\n      gt\n      iszero\n      tag_57\n      jumpi\n      dup3\n      mload\n      dup3\n      sstore\n      swap2\n      0x20\n      add\n      swap2\n      swap1\n      0x01\n      add\n      swap1\n      jump(tag_56)\n    tag_57:\n    tag_53:\n      pop\n      swap1\n      pop\n      tag_58\n      swap2\n      swap1\n      tag_59\n      jump\t// in\n    tag_58:\n      pop\n      swap1\n      jump\t// out\n    tag_59:\n    tag_60:\n      dup1\n      dup3\n      gt\n      iszero\n      tag_61\n      jumpi\n      0x00\n      dup2\n      0x00\n      swap1\n      sstore\n      pop\n      0x01\n      add\n      jump(tag_60)\n    tag_61:\n      pop\n      swap1\n      jump\t// out\n        /* \"#utility.yul\":21:574   */\n    tag_63:\n        /* \"#utility.yul\":79:87   */\n      0x00\n        /* \"#utility.yul\":89:95   */\n      dup1\n        /* \"#utility.yul\":139:142   */\n      dup4\n        /* \"#utility.yul\":132:136   */\n      0x1f\n        /* \"#utility.yul\":124:130   */\n      dup5\n        /* \"#utility.yul\":120:137   */\n      add\n        /* \"#utility.yul\":116:143   */\n      slt\n        /* \"#utility.yul\":106:228   */\n      tag_65\n      jumpi\n        /* \"#utility.yul\":147:226   */\n      tag_66\n      tag_67\n      jump\t// in\n    tag_66:\n        /* \"#utility.yul\":106:228   */\n    tag_65:\n        /* \"#utility.yul\":260:266   */\n      dup3\n        /* \"#utility.yul\":247:267   */\n      calldataload\n        /* \"#utility.yul\":237:267   */\n      swap1\n      pop\n        /* \"#utility.yul\":290:308   */\n      0xffffffffffffffff\n        /* \"#utility.yul\":282:288   */\n      dup2\n        /* \"#utility.yul\":279:309   */\n      gt\n        /* \"#utility.yul\":276:393   */\n      iszero\n      tag_68\n      jumpi\n        /* \"#utility.yul\":312:391   */\n      tag_69\n      tag_70\n      jump\t// in\n    tag_69:\n        /* \"#utility.yul\":276:393   */\n    tag_68:\n        /* \"#utility.yul\":426:430   */\n      0x20\n        /* \"#utility.yul\":418:424   */\n      dup4\n        /* \"#utility.yul\":414:431   */\n      add\n        /* \"#utility.yul\":402:431   */\n      swap2\n      pop\n        /* \"#utility.yul\":480:483   */\n      dup4\n        /* \"#utility.yul\":472:476   */\n      0x01\n        /* \"#utility.yul\":464:470   */\n      dup3\n        /* \"#utility.yul\":460:477   */\n      mul\n        /* \"#utility.yul\":450:458   */\n      dup4\n        /* \"#utility.yul\":446:478   */\n      add\n        /* \"#utility.yul\":443:484   */\n      gt\n        /* \"#utility.yul\":440:568   */\n      iszero\n      tag_71\n      jumpi\n        /* \"#utility.yul\":487:566   */\n      tag_72\n      tag_73\n      jump\t// in\n    tag_72:\n        /* \"#utility.yul\":440:568   */\n    tag_71:\n        /* \"#utility.yul\":21:574   */\n      swap3\n      pop\n      swap3\n      swap1\n      pop\n      jump\t// out\n        /* \"#utility.yul\":580:719   */\n    tag_74:\n        /* \"#utility.yul\":626:631   */\n      0x00\n        /* \"#utility.yul\":664:670   */\n      dup2\n        /* \"#utility.yul\":651:671   */\n      calldataload\n        /* \"#utility.yul\":642:671   */\n      swap1\n      pop\n        /* \"#utility.yul\":680:713   */\n      tag_76\n        /* \"#utility.yul\":707:712   */\n      dup2\n        /* \"#utility.yul\":680:713   */\n      tag_77\n      jump\t// in\n    tag_76:\n        /* \"#utility.yul\":580:719   */\n      swap3\n      swap2\n      pop\n      pop\n      jump\t// out\n        /* \"#utility.yul\":725:1054   */\n    tag_9:\n        /* \"#utility.yul\":784:790   */\n      0x00\n        /* \"#utility.yul\":833:835   */\n      0x20\n        /* \"#utility.yul\":821:830   */\n      dup3\n        /* \"#utility.yul\":812:819   */\n      dup5\n        /* \"#utility.yul\":808:831   */\n      sub\n        /* \"#utility.yul\":804:836   */\n      slt\n        /* \"#utility.yul\":801:920   */\n      iszero\n      tag_79\n      jumpi\n        /* \"#utility.yul\":839:918   */\n      tag_80\n      tag_81\n      jump\t// in\n    tag_80:\n        /* \"#utility.yul\":801:920   */\n    tag_79:\n        /* \"#utility.yul\":959:960   */\n      0x00\n        /* \"#utility.yul\":984:1037   */\n      tag_82\n        /* \"#utility.yul\":1029:1036   */\n      dup5\n        /* \"#utility.yul\":1020:1026   */\n      dup3\n        /* \"#utility.yul\":1009:1018   */\n      dup6\n        /* \"#utility.yul\":1005:1027   */\n      add\n        /* \"#utility.yul\":984:1037   */\n      tag_74\n      jump\t// in\n    tag_82:\n        /* \"#utility.yul\":974:1037   */\n      swap2\n      pop\n        /* \"#utility.yul\":930:1047   */\n      pop\n        /* \"#utility.yul\":725:1054   */\n      swap3\n      swap2\n      pop\n      pop\n      jump\t// out\n        /* \"#utility.yul\":1060:2025   */\n    tag_24:\n        /* \"#utility.yul\":1158:1164   */\n      0x00\n        /* \"#utility.yul\":1166:1172   */\n      dup1\n        /* \"#utility.yul\":1174:1180   */\n      0x00\n        /* \"#utility.yul\":1182:1188   */\n      dup1\n        /* \"#utility.yul\":1190:1196   */\n      0x00\n        /* \"#utility.yul\":1239:1242   */\n      0x80\n        /* \"#utility.yul\":1227:1236   */\n      dup7\n        /* \"#utility.yul\":1218:1225   */\n      dup9\n        /* \"#utility.yul\":1214:1237   */\n      sub\n        /* \"#utility.yul\":1210:1243   */\n      slt\n        /* \"#utility.yul\":1207:1327   */\n      iszero\n      tag_84\n      jumpi\n        /* \"#utility.yul\":1246:1325   */\n      tag_85\n      tag_81\n      jump\t// in\n    tag_85:\n        /* \"#utility.yul\":1207:1327   */\n    tag_84:\n        /* \"#utility.yul\":1366:1367   */\n      0x00\n        /* \"#utility.yul\":1391:1444   */\n      tag_86\n        /* \"#utility.yul\":1436:1443   */\n      dup9\n        /* \"#utility.yul\":1427:1433   */\n      dup3\n        /* \"#utility.yul\":1416:1425   */\n      dup10\n        /* \"#utility.yul\":1412:1434   */\n      add\n        /* \"#utility.yul\":1391:1444   */\n      tag_74\n      jump\t// in\n    tag_86:\n        /* \"#utility.yul\":1381:1444   */\n      swap6\n      pop\n        /* \"#utility.yul\":1337:1454   */\n      pop\n        /* \"#utility.yul\":1493:1495   */\n      0x20\n        /* \"#utility.yul\":1519:1572   */\n      tag_87\n        /* \"#utility.yul\":1564:1571   */\n      dup9\n        /* \"#utility.yul\":1555:1561   */\n      dup3\n        /* \"#utility.yul\":1544:1553   */\n      dup10\n        /* \"#utility.yul\":1540:1562   */\n      add\n        /* \"#utility.yul\":1519:1572   */\n      tag_74\n      jump\t// in\n    tag_87:\n        /* \"#utility.yul\":1509:1572   */\n      swap5\n      pop\n        /* \"#utility.yul\":1464:1582   */\n      pop\n        /* \"#utility.yul\":1649:1651   */\n      0x40\n        /* \"#utility.yul\":1638:1647   */\n      dup7\n        /* \"#utility.yul\":1634:1652   */\n      add\n        /* \"#utility.yul\":1621:1653   */\n      calldataload\n        /* \"#utility.yul\":1680:1698   */\n      0xffffffffffffffff\n        /* \"#utility.yul\":1672:1678   */\n      dup2\n        /* \"#utility.yul\":1669:1699   */\n      gt\n        /* \"#utility.yul\":1666:1783   */\n      iszero\n      tag_88\n      jumpi\n        /* \"#utility.yul\":1702:1781   */\n      tag_89\n      tag_90\n      jump\t// in\n    tag_89:\n        /* \"#utility.yul\":1666:1783   */\n    tag_88:\n        /* \"#utility.yul\":1815:1880   */\n      tag_91\n        /* \"#utility.yul\":1872:1879   */\n      dup9\n        /* \"#utility.yul\":1863:1869   */\n      dup3\n        /* \"#utility.yul\":1852:1861   */\n      dup10\n        /* \"#utility.yul\":1848:1870   */\n      add\n        /* \"#utility.yul\":1815:1880   */\n      tag_63\n      jump\t// in\n    tag_91:\n        /* \"#utility.yul\":1797:1880   */\n      swap4\n      pop\n      swap4\n      pop\n        /* \"#utility.yul\":1592:1890   */\n      pop\n        /* \"#utility.yul\":1929:1931   */\n      0x60\n        /* \"#utility.yul\":1955:2008   */\n      tag_92\n        /* \"#utility.yul\":2000:2007   */\n      dup9\n        /* \"#utility.yul\":1991:1997   */\n      dup3\n        /* \"#utility.yul\":1980:1989   */\n      dup10\n        /* \"#utility.yul\":1976:1998   */\n      add\n        /* \"#utility.yul\":1955:2008   */\n      tag_74\n      jump\t// in\n    tag_92:\n        /* \"#utility.yul\":1945:2008   */\n      swap2\n      pop\n        /* \"#utility.yul\":1900:2018   */\n      pop\n        /* \"#utility.yul\":1060:2025   */\n      swap3\n      swap6\n      pop\n      swap3\n      swap6\n      swap1\n      swap4\n      pop\n      jump\t// out\n        /* \"#utility.yul\":2031:2173   */\n    tag_93:\n        /* \"#utility.yul\":2134:2166   */\n      tag_95\n        /* \"#utility.yul\":2160:2165   */\n      dup2\n        /* \"#utility.yul\":2134:2166   */\n      tag_96\n      jump\t// in\n    tag_95:\n        /* \"#utility.yul\":2129:2132   */\n      dup3\n        /* \"#utility.yul\":2122:2167   */\n      mstore\n        /* \"#utility.yul\":2031:2173   */\n      pop\n      pop\n      jump\t// out\n        /* \"#utility.yul\":2179:2297   */\n    tag_97:\n        /* \"#utility.yul\":2266:2290   */\n      tag_99\n        /* \"#utility.yul\":2284:2289   */\n      dup2\n        /* \"#utility.yul\":2266:2290   */\n      tag_100\n      jump\t// in\n    tag_99:\n        /* \"#utility.yul\":2261:2264   */\n      dup3\n        /* \"#utility.yul\":2254:2291   */\n      mstore\n        /* \"#utility.yul\":2179:2297   */\n      pop\n      pop\n      jump\t// out\n        /* \"#utility.yul\":2303:2412   */\n    tag_101:\n        /* \"#utility.yul\":2384:2405   */\n      tag_103\n        /* \"#utility.yul\":2399:2404   */\n      dup2\n        /* \"#utility.yul\":2384:2405   */\n      tag_104\n      jump\t// in\n    tag_103:\n        /* \"#utility.yul\":2379:2382   */\n      dup3\n        /* \"#utility.yul\":2372:2406   */\n      mstore\n        /* \"#utility.yul\":2303:2412   */\n      pop\n      pop\n      jump\t// out\n        /* \"#utility.yul\":2442:2746   */\n    tag_105:\n        /* \"#utility.yul\":2540:2543   */\n      0x00\n        /* \"#utility.yul\":2561:2632   */\n      tag_107\n        /* \"#utility.yul\":2625:2631   */\n      dup4\n        /* \"#utility.yul\":2620:2623   */\n      dup6\n        /* \"#utility.yul\":2561:2632   */\n      tag_108\n      jump\t// in\n    tag_107:\n        /* \"#utility.yul\":2554:2632   */\n      swap4\n      pop\n        /* \"#utility.yul\":2642:2685   */\n      tag_109\n        /* \"#utility.yul\":2678:2684   */\n      dup4\n        /* \"#utility.yul\":2673:2676   */\n      dup6\n        /* \"#utility.yul\":2666:2671   */\n      dup5\n        /* \"#utility.yul\":2642:2685   */\n      tag_110\n      jump\t// in\n    tag_109:\n        /* \"#utility.yul\":2710:2739   */\n      tag_111\n        /* \"#utility.yul\":2732:2738   */\n      dup4\n        /* \"#utility.yul\":2710:2739   */\n      tag_112\n      jump\t// in\n    tag_111:\n        /* \"#utility.yul\":2705:2708   */\n      dup5\n        /* \"#utility.yul\":2701:2740   */\n      add\n        /* \"#utility.yul\":2694:2740   */\n      swap1\n      pop\n        /* \"#utility.yul\":2442:2746   */\n      swap4\n      swap3\n      pop\n      pop\n      pop\n      jump\t// out\n        /* \"#utility.yul\":2752:3116   */\n    tag_113:\n        /* \"#utility.yul\":2840:2843   */\n      0x00\n        /* \"#utility.yul\":2868:2907   */\n      tag_115\n        /* \"#utility.yul\":2901:2906   */\n      dup3\n        /* \"#utility.yul\":2868:2907   */\n      tag_116\n      jump\t// in\n    tag_115:\n        /* \"#utility.yul\":2923:2994   */\n      tag_117\n        /* \"#utility.yul\":2987:2993   */\n      dup2\n        /* \"#utility.yul\":2982:2985   */\n      dup6\n        /* \"#utility.yul\":2923:2994   */\n      tag_108\n      jump\t// in\n    tag_117:\n        /* \"#utility.yul\":2916:2994   */\n      swap4\n      pop\n        /* \"#utility.yul\":3003:3055   */\n      tag_118\n        /* \"#utility.yul\":3048:3054   */\n      dup2\n        /* \"#utility.yul\":3043:3046   */\n      dup6\n        /* \"#utility.yul\":3036:3040   */\n      0x20\n        /* \"#utility.yul\":3029:3034   */\n      dup7\n        /* \"#utility.yul\":3025:3041   */\n      add\n        /* \"#utility.yul\":3003:3055   */\n      tag_119\n      jump\t// in\n    tag_118:\n        /* \"#utility.yul\":3080:3109   */\n      tag_120\n        /* \"#utility.yul\":3102:3108   */\n      dup2\n        /* \"#utility.yul\":3080:3109   */\n      tag_112\n      jump\t// in\n    tag_120:\n        /* \"#utility.yul\":3075:3078   */\n      dup5\n        /* \"#utility.yul\":3071:3110   */\n      add\n        /* \"#utility.yul\":3064:3110   */\n      swap2\n      pop\n        /* \"#utility.yul\":2844:3116   */\n      pop\n        /* \"#utility.yul\":2752:3116   */\n      swap3\n      swap2\n      pop\n      pop\n      jump\t// out\n        /* \"#utility.yul\":3122:3488   */\n    tag_121:\n        /* \"#utility.yul\":3264:3267   */\n      0x00\n        /* \"#utility.yul\":3285:3352   */\n      tag_123\n        /* \"#utility.yul\":3349:3351   */\n      0x19\n        /* \"#utility.yul\":3344:3347   */\n      dup4\n        /* \"#utility.yul\":3285:3352   */\n      tag_108\n      jump\t// in\n    tag_123:\n        /* \"#utility.yul\":3278:3352   */\n      swap2\n      pop\n        /* \"#utility.yul\":3361:3454   */\n      tag_124\n        /* \"#utility.yul\":3450:3453   */\n      dup3\n        /* \"#utility.yul\":3361:3454   */\n      tag_125\n      jump\t// in\n    tag_124:\n        /* \"#utility.yul\":3479:3481   */\n      0x20\n        /* \"#utility.yul\":3474:3477   */\n      dup3\n        /* \"#utility.yul\":3470:3482   */\n      add\n        /* \"#utility.yul\":3463:3482   */\n      swap1\n      pop\n        /* \"#utility.yul\":3122:3488   */\n      swap2\n      swap1\n      pop\n      jump\t// out\n        /* \"#utility.yul\":3494:3612   */\n    tag_126:\n        /* \"#utility.yul\":3581:3605   */\n      tag_128\n        /* \"#utility.yul\":3599:3604   */\n      dup2\n        /* \"#utility.yul\":3581:3605   */\n      tag_129\n      jump\t// in\n    tag_128:\n        /* \"#utility.yul\":3576:3579   */\n      dup3\n        /* \"#utility.yul\":3569:3606   */\n      mstore\n        /* \"#utility.yul\":3494:3612   */\n      pop\n      pop\n      jump\t// out\n        /* \"#utility.yul\":3618:3840   */\n    tag_21:\n        /* \"#utility.yul\":3711:3715   */\n      0x00\n        /* \"#utility.yul\":3749:3751   */\n      0x20\n        /* \"#utility.yul\":3738:3747   */\n      dup3\n        /* \"#utility.yul\":3734:3752   */\n      add\n        /* \"#utility.yul\":3726:3752   */\n      swap1\n      pop\n        /* \"#utility.yul\":3762:3833   */\n      tag_131\n        /* \"#utility.yul\":3830:3831   */\n      0x00\n        /* \"#utility.yul\":3819:3828   */\n      dup4\n        /* \"#utility.yul\":3815:3832   */\n      add\n        /* \"#utility.yul\":3806:3812   */\n      dup5\n        /* \"#utility.yul\":3762:3833   */\n      tag_97\n      jump\t// in\n    tag_131:\n        /* \"#utility.yul\":3618:3840   */\n      swap3\n      swap2\n      pop\n      pop\n      jump\t// out\n        /* \"#utility.yul\":3846:4954   */\n    tag_17:\n        /* \"#utility.yul\":4165:4169   */\n      0x00\n        /* \"#utility.yul\":4203:4206   */\n      0x0100\n        /* \"#utility.yul\":4192:4201   */\n      dup3\n        /* \"#utility.yul\":4188:4207   */\n      add\n        /* \"#utility.yul\":4180:4207   */\n      swap1\n      pop\n        /* \"#utility.yul\":4217:4304   */\n      tag_133\n        /* \"#utility.yul\":4301:4302   */\n      0x00\n        /* \"#utility.yul\":4290:4299   */\n      dup4\n        /* \"#utility.yul\":4286:4303   */\n      add\n        /* \"#utility.yul\":4277:4283   */\n      dup12\n        /* \"#utility.yul\":4217:4304   */\n      tag_93\n      jump\t// in\n    tag_133:\n        /* \"#utility.yul\":4314:4386   */\n      tag_134\n        /* \"#utility.yul\":4382:4384   */\n      0x20\n        /* \"#utility.yul\":4371:4380   */\n      dup4\n        /* \"#utility.yul\":4367:4385   */\n      add\n        /* \"#utility.yul\":4358:4364   */\n      dup11\n        /* \"#utility.yul\":4314:4386   */\n      tag_126\n      jump\t// in\n    tag_134:\n        /* \"#utility.yul\":4396:4468   */\n      tag_135\n        /* \"#utility.yul\":4464:4466   */\n      0x40\n        /* \"#utility.yul\":4453:4462   */\n      dup4\n        /* \"#utility.yul\":4449:4467   */\n      add\n        /* \"#utility.yul\":4440:4446   */\n      dup10\n        /* \"#utility.yul\":4396:4468   */\n      tag_126\n      jump\t// in\n    tag_135:\n        /* \"#utility.yul\":4478:4550   */\n      tag_136\n        /* \"#utility.yul\":4546:4548   */\n      0x60\n        /* \"#utility.yul\":4535:4544   */\n      dup4\n        /* \"#utility.yul\":4531:4549   */\n      add\n        /* \"#utility.yul\":4522:4528   */\n      dup9\n        /* \"#utility.yul\":4478:4550   */\n      tag_126\n      jump\t// in\n    tag_136:\n        /* \"#utility.yul\":4560:4633   */\n      tag_137\n        /* \"#utility.yul\":4628:4631   */\n      0x80\n        /* \"#utility.yul\":4617:4626   */\n      dup4\n        /* \"#utility.yul\":4613:4632   */\n      add\n        /* \"#utility.yul\":4604:4610   */\n      dup8\n        /* \"#utility.yul\":4560:4633   */\n      tag_126\n      jump\t// in\n    tag_137:\n        /* \"#utility.yul\":4643:4716   */\n      tag_138\n        /* \"#utility.yul\":4711:4714   */\n      0xa0\n        /* \"#utility.yul\":4700:4709   */\n      dup4\n        /* \"#utility.yul\":4696:4715   */\n      add\n        /* \"#utility.yul\":4687:4693   */\n      dup7\n        /* \"#utility.yul\":4643:4716   */\n      tag_126\n      jump\t// in\n    tag_138:\n        /* \"#utility.yul\":4764:4773   */\n      dup2\n        /* \"#utility.yul\":4758:4762   */\n      dup2\n        /* \"#utility.yul\":4754:4774   */\n      sub\n        /* \"#utility.yul\":4748:4751   */\n      0xc0\n        /* \"#utility.yul\":4737:4746   */\n      dup4\n        /* \"#utility.yul\":4733:4752   */\n      add\n        /* \"#utility.yul\":4726:4775   */\n      mstore\n        /* \"#utility.yul\":4792:4870   */\n      tag_139\n        /* \"#utility.yul\":4865:4869   */\n      dup2\n        /* \"#utility.yul\":4856:4862   */\n      dup6\n        /* \"#utility.yul\":4792:4870   */\n      tag_113\n      jump\t// in\n    tag_139:\n        /* \"#utility.yul\":4784:4870   */\n      swap1\n      pop\n        /* \"#utility.yul\":4880:4947   */\n      tag_140\n        /* \"#utility.yul\":4942:4945   */\n      0xe0\n        /* \"#utility.yul\":4931:4940   */\n      dup4\n        /* \"#utility.yul\":4927:4946   */\n      add\n        /* \"#utility.yul\":4918:4924   */\n      dup5\n        /* \"#utility.yul\":4880:4947   */\n      tag_101\n      jump\t// in\n    tag_140:\n        /* \"#utility.yul\":3846:4954   */\n      swap10\n      swap9\n      pop\n      pop\n      pop\n      pop\n      pop\n      pop\n      pop\n      pop\n      pop\n      jump\t// out\n        /* \"#utility.yul\":4960:5379   */\n    tag_42:\n        /* \"#utility.yul\":5126:5130   */\n      0x00\n        /* \"#utility.yul\":5164:5166   */\n      0x20\n        /* \"#utility.yul\":5153:5162   */\n      dup3\n        /* \"#utility.yul\":5149:5167   */\n      add\n        /* \"#utility.yul\":5141:5167   */\n      swap1\n      pop\n        /* \"#utility.yul\":5213:5222   */\n      dup2\n        /* \"#utility.yul\":5207:5211   */\n      dup2\n        /* \"#utility.yul\":5203:5223   */\n      sub\n        /* \"#utility.yul\":5199:5200   */\n      0x00\n        /* \"#utility.yul\":5188:5197   */\n      dup4\n        /* \"#utility.yul\":5184:5201   */\n      add\n        /* \"#utility.yul\":5177:5224   */\n      mstore\n        /* \"#utility.yul\":5241:5372   */\n      tag_142\n        /* \"#utility.yul\":5367:5371   */\n      dup2\n        /* \"#utility.yul\":5241:5372   */\n      tag_121\n      jump\t// in\n    tag_142:\n        /* \"#utility.yul\":5233:5372   */\n      swap1\n      pop\n        /* \"#utility.yul\":4960:5379   */\n      swap2\n      swap1\n      pop\n      jump\t// out\n        /* \"#utility.yul\":5385:5607   */\n    tag_12:\n        /* \"#utility.yul\":5478:5482   */\n      0x00\n        /* \"#utility.yul\":5516:5518   */\n      0x20\n        /* \"#utility.yul\":5505:5514   */\n      dup3\n        /* \"#utility.yul\":5501:5519   */\n      add\n        /* \"#utility.yul\":5493:5519   */\n      swap1\n      pop\n        /* \"#utility.yul\":5529:5600   */\n      tag_144\n        /* \"#utility.yul\":5597:5598   */\n      0x00\n        /* \"#utility.yul\":5586:5595   */\n      dup4\n        /* \"#utility.yul\":5582:5599   */\n      add\n        /* \"#utility.yul\":5573:5579   */\n      dup5\n        /* \"#utility.yul\":5529:5600   */\n      tag_126\n      jump\t// in\n    tag_144:\n        /* \"#utility.yul\":5385:5607   */\n      swap3\n      swap2\n      pop\n      pop\n      jump\t// out\n        /* \"#utility.yul\":5613:6277   */\n    tag_51:\n        /* \"#utility.yul\":5820:5824   */\n      0x00\n        /* \"#utility.yul\":5858:5861   */\n      0x80\n        /* \"#utility.yul\":5847:5856   */\n      dup3\n        /* \"#utility.yul\":5843:5862   */\n      add\n        /* \"#utility.yul\":5835:5862   */\n      swap1\n      pop\n        /* \"#utility.yul\":5872:5943   */\n      tag_146\n        /* \"#utility.yul\":5940:5941   */\n      0x00\n        /* \"#utility.yul\":5929:5938   */\n      dup4\n        /* \"#utility.yul\":5925:5942   */\n      add\n        /* \"#utility.yul\":5916:5922   */\n      dup9\n        /* \"#utility.yul\":5872:5943   */\n      tag_126\n      jump\t// in\n    tag_146:\n        /* \"#utility.yul\":5990:5999   */\n      dup2\n        /* \"#utility.yul\":5984:5988   */\n      dup2\n        /* \"#utility.yul\":5980:6000   */\n      sub\n        /* \"#utility.yul\":5975:5977   */\n      0x20\n        /* \"#utility.yul\":5964:5973   */\n      dup4\n        /* \"#utility.yul\":5960:5978   */\n      add\n        /* \"#utility.yul\":5953:6001   */\n      mstore\n        /* \"#utility.yul\":6018:6106   */\n      tag_147\n        /* \"#utility.yul\":6101:6105   */\n      dup2\n        /* \"#utility.yul\":6092:6098   */\n      dup7\n        /* \"#utility.yul\":6084:6090   */\n      dup9\n        /* \"#utility.yul\":6018:6106   */\n      tag_105\n      jump\t// in\n    tag_147:\n        /* \"#utility.yul\":6010:6106   */\n      swap1\n      pop\n        /* \"#utility.yul\":6116:6188   */\n      tag_148\n        /* \"#utility.yul\":6184:6186   */\n      0x40\n        /* \"#utility.yul\":6173:6182   */\n      dup4\n        /* \"#utility.yul\":6169:6187   */\n      add\n        /* \"#utility.yul\":6160:6166   */\n      dup6\n        /* \"#utility.yul\":6116:6188   */\n      tag_126\n      jump\t// in\n    tag_148:\n        /* \"#utility.yul\":6198:6270   */\n      tag_149\n        /* \"#utility.yul\":6266:6268   */\n      0x60\n        /* \"#utility.yul\":6255:6264   */\n      dup4\n        /* \"#utility.yul\":6251:6269   */\n      add\n        /* \"#utility.yul\":6242:6248   */\n      dup5\n        /* \"#utility.yul\":6198:6270   */\n      tag_126\n      jump\t// in\n    tag_149:\n        /* \"#utility.yul\":5613:6277   */\n      swap7\n      swap6\n      pop\n      pop\n      pop\n      pop\n      pop\n      pop\n      jump\t// out\n        /* \"#utility.yul\":6364:6463   */\n    tag_116:\n        /* \"#utility.yul\":6416:6422   */\n      0x00\n        /* \"#utility.yul\":6450:6455   */\n      dup2\n        /* \"#utility.yul\":6444:6456   */\n      mload\n        /* \"#utility.yul\":6434:6456   */\n      swap1\n      pop\n        /* \"#utility.yul\":6364:6463   */\n      swap2\n      swap1\n      pop\n      jump\t// out\n        /* \"#utility.yul\":6469:6638   */\n    tag_108:\n        /* \"#utility.yul\":6553:6564   */\n      0x00\n        /* \"#utility.yul\":6587:6593   */\n      dup3\n        /* \"#utility.yul\":6582:6585   */\n      dup3\n        /* \"#utility.yul\":6575:6594   */\n      mstore\n        /* \"#utility.yul\":6627:6631   */\n      0x20\n        /* \"#utility.yul\":6622:6625   */\n      dup3\n        /* \"#utility.yul\":6618:6632   */\n      add\n        /* \"#utility.yul\":6603:6632   */\n      swap1\n      pop\n        /* \"#utility.yul\":6469:6638   */\n      swap3\n      swap2\n      pop\n      pop\n      jump\t// out\n        /* \"#utility.yul\":6644:6949   */\n    tag_44:\n        /* \"#utility.yul\":6684:6687   */\n      0x00\n        /* \"#utility.yul\":6703:6723   */\n      tag_155\n        /* \"#utility.yul\":6721:6722   */\n      dup3\n        /* \"#utility.yul\":6703:6723   */\n      tag_129\n      jump\t// in\n    tag_155:\n        /* \"#utility.yul\":6698:6723   */\n      swap2\n      pop\n        /* \"#utility.yul\":6737:6757   */\n      tag_156\n        /* \"#utility.yul\":6755:6756   */\n      dup4\n        /* \"#utility.yul\":6737:6757   */\n      tag_129\n      jump\t// in\n    tag_156:\n        /* \"#utility.yul\":6732:6757   */\n      swap3\n      pop\n        /* \"#utility.yul\":6891:6892   */\n      dup3\n        /* \"#utility.yul\":6823:6889   */\n      0xffffffffffffffffffffffffffffffffffffffffffffffffffffffffffffffff\n        /* \"#utility.yul\":6819:6893   */\n      sub\n        /* \"#utility.yul\":6816:6817   */\n      dup3\n        /* \"#utility.yul\":6813:6894   */\n      gt\n        /* \"#utility.yul\":6810:6917   */\n      iszero\n      tag_157\n      jumpi\n        /* \"#utility.yul\":6897:6915   */\n      tag_158\n      tag_159\n      jump\t// in\n    tag_158:\n        /* \"#utility.yul\":6810:6917   */\n    tag_157:\n        /* \"#utility.yul\":6941:6942   */\n      dup3\n        /* \"#utility.yul\":6938:6939   */\n      dup3\n        /* \"#utility.yul\":6934:6943   */\n      add\n        /* \"#utility.yul\":6927:6943   */\n      swap1\n      pop\n        /* \"#utility.yul\":6644:6949   */\n      swap3\n      swap2\n      pop\n      pop\n      jump\t// out\n        /* \"#utility.yul\":6955:7303   */\n    tag_39:\n        /* \"#utility.yul\":6995:7002   */\n      0x00\n        /* \"#utility.yul\":7018:7038   */\n      tag_161\n        /* \"#utility.yul\":7036:7037   */\n      dup3\n        /* \"#utility.yul\":7018:7038   */\n      tag_129\n      jump\t// in\n    tag_161:\n        /* \"#utility.yul\":7013:7038   */\n      swap2\n      pop\n        /* \"#utility.yul\":7052:7072   */\n      tag_162\n        /* \"#utility.yul\":7070:7071   */\n      dup4\n        /* \"#utility.yul\":7052:7072   */\n      tag_129\n      jump\t// in\n    tag_162:\n        /* \"#utility.yul\":7047:7072   */\n      swap3\n      pop\n        /* \"#utility.yul\":7240:7241   */\n      dup2\n        /* \"#utility.yul\":7172:7238   */\n      0xffffffffffffffffffffffffffffffffffffffffffffffffffffffffffffffff\n        /* \"#utility.yul\":7168:7242   */\n      div\n        /* \"#utility.yul\":7165:7166   */\n      dup4\n        /* \"#utility.yul\":7162:7243   */\n      gt\n        /* \"#utility.yul\":7157:7158   */\n      dup3\n        /* \"#utility.yul\":7150:7159   */\n      iszero\n        /* \"#utility.yul\":7143:7160   */\n      iszero\n        /* \"#utility.yul\":7139:7244   */\n      and\n        /* \"#utility.yul\":7136:7267   */\n      iszero\n      tag_163\n      jumpi\n        /* \"#utility.yul\":7247:7265   */\n      tag_164\n      tag_159\n      jump\t// in\n    tag_164:\n        /* \"#utility.yul\":7136:7267   */\n    tag_163:\n        /* \"#utility.yul\":7295:7296   */\n      dup3\n        /* \"#utility.yul\":7292:7293   */\n      dup3\n        /* \"#utility.yul\":7288:7297   */\n      mul\n        /* \"#utility.yul\":7277:7297   */\n      swap1\n      pop\n        /* \"#utility.yul\":6955:7303   */\n      swap3\n      swap2\n      pop\n      pop\n      jump\t// out\n        /* \"#utility.yul\":7309:7500   */\n    tag_49:\n        /* \"#utility.yul\":7349:7353   */\n      0x00\n        /* \"#utility.yul\":7369:7389   */\n      tag_166\n        /* \"#utility.yul\":7387:7388   */\n      dup3\n        /* \"#utility.yul\":7369:7389   */\n      tag_129\n      jump\t// in\n    tag_166:\n        /* \"#utility.yul\":7364:7389   */\n      swap2\n      pop\n        /* \"#utility.yul\":7403:7423   */\n      tag_167\n        /* \"#utility.yul\":7421:7422   */\n      dup4\n        /* \"#utility.yul\":7403:7423   */\n      tag_129\n      jump\t// in\n    tag_167:\n        /* \"#utility.yul\":7398:7423   */\n      swap3\n      pop\n        /* \"#utility.yul\":7442:7443   */\n      dup3\n        /* \"#utility.yul\":7439:7440   */\n      dup3\n        /* \"#utility.yul\":7436:7444   */\n      lt\n        /* \"#utility.yul\":7433:7467   */\n      iszero\n      tag_168\n      jumpi\n        /* \"#utility.yul\":7447:7465   */\n      tag_169\n      tag_159\n      jump\t// in\n    tag_169:\n        /* \"#utility.yul\":7433:7467   */\n    tag_168:\n        /* \"#utility.yul\":7492:7493   */\n      dup3\n        /* \"#utility.yul\":7489:7490   */\n      dup3\n        /* \"#utility.yul\":7485:7494   */\n      sub\n        /* \"#utility.yul\":7477:7494   */\n      swap1\n      pop\n        /* \"#utility.yul\":7309:7500   */\n      swap3\n      swap2\n      pop\n      pop\n      jump\t// out\n        /* \"#utility.yul\":7506:7602   */\n    tag_100:\n        /* \"#utility.yul\":7543:7550   */\n      0x00\n        /* \"#utility.yul\":7572:7596   */\n      tag_171\n        /* \"#utility.yul\":7590:7595   */\n      dup3\n        /* \"#utility.yul\":7572:7596   */\n      tag_172\n      jump\t// in\n    tag_171:\n        /* \"#utility.yul\":7561:7596   */\n      swap1\n      pop\n        /* \"#utility.yul\":7506:7602   */\n      swap2\n      swap1\n      pop\n      jump\t// out\n        /* \"#utility.yul\":7608:7712   */\n    tag_96:\n        /* \"#utility.yul\":7653:7660   */\n      0x00\n        /* \"#utility.yul\":7682:7706   */\n      tag_174\n        /* \"#utility.yul\":7700:7705   */\n      dup3\n        /* \"#utility.yul\":7682:7706   */\n      tag_172\n      jump\t// in\n    tag_174:\n        /* \"#utility.yul\":7671:7706   */\n      swap1\n      pop\n        /* \"#utility.yul\":7608:7712   */\n      swap2\n      swap1\n      pop\n      jump\t// out\n        /* \"#utility.yul\":7718:7808   */\n    tag_104:\n        /* \"#utility.yul\":7752:7759   */\n      0x00\n        /* \"#utility.yul\":7795:7800   */\n      dup2\n        /* \"#utility.yul\":7788:7801   */\n      iszero\n        /* \"#utility.yul\":7781:7802   */\n      iszero\n        /* \"#utility.yul\":7770:7802   */\n      swap1\n      pop\n        /* \"#utility.yul\":7718:7808   */\n      swap2\n      swap1\n      pop\n      jump\t// out\n        /* \"#utility.yul\":7814:7940   */\n    tag_172:\n        /* \"#utility.yul\":7851:7858   */\n      0x00\n        /* \"#utility.yul\":7891:7933   */\n      0xffffffffffffffffffffffffffffffffffffffff\n        /* \"#utility.yul\":7884:7889   */\n      dup3\n        /* \"#utility.yul\":7880:7934   */\n      and\n        /* \"#utility.yul\":7869:7934   */\n      swap1\n      pop\n        /* \"#utility.yul\":7814:7940   */\n      swap2\n      swap1\n      pop\n      jump\t// out\n        /* \"#utility.yul\":7946:8023   */\n    tag_129:\n        /* \"#utility.yul\":7983:7990   */\n      0x00\n        /* \"#utility.yul\":8012:8017   */\n      dup2\n        /* \"#utility.yul\":8001:8017   */\n      swap1\n      pop\n        /* \"#utility.yul\":7946:8023   */\n      swap2\n      swap1\n      pop\n      jump\t// out\n        /* \"#utility.yul\":8029:8183   */\n    tag_110:\n        /* \"#utility.yul\":8113:8119   */\n      dup3\n        /* \"#utility.yul\":8108:8111   */\n      dup2\n        /* \"#utility.yul\":8103:8106   */\n      dup4\n        /* \"#utility.yul\":8090:8120   */\n      calldatacopy\n        /* \"#utility.yul\":8175:8176   */\n      0x00\n        /* \"#utility.yul\":8166:8172   */\n      dup4\n        /* \"#utility.yul\":8161:8164   */\n      dup4\n        /* \"#utility.yul\":8157:8173   */\n      add\n        /* \"#utility.yul\":8150:8177   */\n      mstore\n        /* \"#utility.yul\":8029:8183   */\n      pop\n      pop\n      pop\n      jump\t// out\n        /* \"#utility.yul\":8189:8496   */\n    tag_119:\n        /* \"#utility.yul\":8257:8258   */\n      0x00\n        /* \"#utility.yul\":8267:8380   */\n    tag_180:\n        /* \"#utility.yul\":8281:8287   */\n      dup4\n        /* \"#utility.yul\":8278:8279   */\n      dup2\n        /* \"#utility.yul\":8275:8288   */\n      lt\n        /* \"#utility.yul\":8267:8380   */\n      iszero\n      tag_182\n      jumpi\n        /* \"#utility.yul\":8366:8367   */\n      dup1\n        /* \"#utility.yul\":8361:8364   */\n      dup3\n        /* \"#utility.yul\":8357:8368   */\n      add\n        /* \"#utility.yul\":8351:8369   */\n      mload\n        /* \"#utility.yul\":8347:8348   */\n      dup2\n        /* \"#utility.yul\":8342:8345   */\n      dup5\n        /* \"#utility.yul\":8338:8349   */\n      add\n        /* \"#utility.yul\":8331:8370   */\n      mstore\n        /* \"#utility.yul\":8303:8305   */\n      0x20\n        /* \"#utility.yul\":8300:8301   */\n      dup2\n        /* \"#utility.yul\":8296:8306   */\n      add\n        /* \"#utility.yul\":8291:8306   */\n      swap1\n      pop\n        /* \"#utility.yul\":8267:8380   */\n      jump(tag_180)\n    tag_182:\n        /* \"#utility.yul\":8398:8404   */\n      dup4\n        /* \"#utility.yul\":8395:8396   */\n      dup2\n        /* \"#utility.yul\":8392:8405   */\n      gt\n        /* \"#utility.yul\":8389:8490   */\n      iszero\n      tag_183\n      jumpi\n        /* \"#utility.yul\":8478:8479   */\n      0x00\n        /* \"#utility.yul\":8469:8475   */\n      dup5\n        /* \"#utility.yul\":8464:8467   */\n      dup5\n        /* \"#utility.yul\":8460:8476   */\n      add\n        /* \"#utility.yul\":8453:8480   */\n      mstore\n        /* \"#utility.yul\":8389:8490   */\n    tag_183:\n        /* \"#utility.yul\":8238:8496   */\n      pop\n        /* \"#utility.yul\":8189:8496   */\n      pop\n      pop\n      pop\n      jump\t// out\n        /* \"#utility.yul\":8502:8822   */\n    tag_30:\n        /* \"#utility.yul\":8546:8552   */\n      0x00\n        /* \"#utility.yul\":8583:8584   */\n      0x02\n        /* \"#utility.yul\":8577:8581   */\n      dup3\n        /* \"#utility.yul\":8573:8585   */\n      div\n        /* \"#utility.yul\":8563:8585   */\n      swap1\n      pop\n        /* \"#utility.yul\":8630:8631   */\n      0x01\n        /* \"#utility.yul\":8624:8628   */\n      dup3\n        /* \"#utility.yul\":8620:8632   */\n      and\n        /* \"#utility.yul\":8651:8669   */\n      dup1\n        /* \"#utility.yul\":8641:8722   */\n      tag_185\n      jumpi\n        /* \"#utility.yul\":8707:8711   */\n      0x7f\n        /* \"#utility.yul\":8699:8705   */\n      dup3\n        /* \"#utility.yul\":8695:8712   */\n      and\n        /* \"#utility.yul\":8685:8712   */\n      swap2\n      pop\n        /* \"#utility.yul\":8641:8722   */\n    tag_185:\n        /* \"#utility.yul\":8769:8771   */\n      0x20\n        /* \"#utility.yul\":8761:8767   */\n      dup3\n        /* \"#utility.yul\":8758:8772   */\n      lt\n        /* \"#utility.yul\":8738:8756   */\n      dup2\n        /* \"#utility.yul\":8735:8773   */\n      eq\n        /* \"#utility.yul\":8732:8816   */\n      iszero\n      tag_186\n      jumpi\n        /* \"#utility.yul\":8788:8806   */\n      tag_187\n      tag_188\n      jump\t// in\n    tag_187:\n        /* \"#utility.yul\":8732:8816   */\n    tag_186:\n        /* \"#utility.yul\":8553:8822   */\n      pop\n        /* \"#utility.yul\":8502:8822   */\n      swap2\n      swap1\n      pop\n      jump\t// out\n        /* \"#utility.yul\":8828:9008   */\n    tag_159:\n        /* \"#utility.yul\":8876:8953   */\n      0x4e487b7100000000000000000000000000000000000000000000000000000000\n        /* \"#utility.yul\":8873:8874   */\n      0x00\n        /* \"#utility.yul\":8866:8954   */\n      mstore\n        /* \"#utility.yul\":8973:8977   */\n      0x11\n        /* \"#utility.yul\":8970:8971   */\n      0x04\n        /* \"#utility.yul\":8963:8978   */\n      mstore\n        /* \"#utility.yul\":8997:9001   */\n      0x24\n        /* \"#utility.yul\":8994:8995   */\n      0x00\n        /* \"#utility.yul\":8987:9002   */\n      revert\n        /* \"#utility.yul\":9014:9194   */\n    tag_188:\n        /* \"#utility.yul\":9062:9139   */\n      0x4e487b7100000000000000000000000000000000000000000000000000000000\n        /* \"#utility.yul\":9059:9060   */\n      0x00\n        /* \"#utility.yul\":9052:9140   */\n      mstore\n        /* \"#utility.yul\":9159:9163   */\n      0x22\n        /* \"#utility.yul\":9156:9157   */\n      0x04\n        /* \"#utility.yul\":9149:9164   */\n      mstore\n        /* \"#utility.yul\":9183:9187   */\n      0x24\n        /* \"#utility.yul\":9180:9181   */\n      0x00\n        /* \"#utility.yul\":9173:9188   */\n      revert\n        /* \"#utility.yul\":9200:9317   */\n    tag_70:\n        /* \"#utility.yul\":9309:9310   */\n      0x00\n        /* \"#utility.yul\":9306:9307   */\n      dup1\n        /* \"#utility.yul\":9299:9311   */\n      revert\n        /* \"#utility.yul\":9323:9440   */\n    tag_67:\n        /* \"#utility.yul\":9432:9433   */\n      0x00\n        /* \"#utility.yul\":9429:9430   */\n      dup1\n        /* \"#utility.yul\":9422:9434   */\n      revert\n        /* \"#utility.yul\":9446:9563   */\n    tag_73:\n        /* \"#utility.yul\":9555:9556   */\n      0x00\n        /* \"#utility.yul\":9552:9553   */\n      dup1\n        /* \"#utility.yul\":9545:9557   */\n      revert\n        /* \"#utility.yul\":9569:9686   */\n    tag_90:\n        /* \"#utility.yul\":9678:9679   */\n      0x00\n        /* \"#utility.yul\":9675:9676   */\n      dup1\n        /* \"#utility.yul\":9668:9680   */\n      revert\n        /* \"#utility.yul\":9692:9809   */\n    tag_81:\n        /* \"#utility.yul\":9801:9802   */\n      0x00\n        /* \"#utility.yul\":9798:9799   */\n      dup1\n        /* \"#utility.yul\":9791:9803   */\n      revert\n        /* \"#utility.yul\":9815:9917   */\n    tag_112:\n        /* \"#utility.yul\":9856:9862   */\n      0x00\n        /* \"#utility.yul\":9907:9909   */\n      0x1f\n        /* \"#utility.yul\":9903:9910   */\n      not\n        /* \"#utility.yul\":9898:9900   */\n      0x1f\n        /* \"#utility.yul\":9891:9896   */\n      dup4\n        /* \"#utility.yul\":9887:9901   */\n      add\n        /* \"#utility.yul\":9883:9911   */\n      and\n        /* \"#utility.yul\":9873:9911   */\n      swap1\n      pop\n        /* \"#utility.yul\":9815:9917   */\n      swap2\n      swap1\n      pop\n      jump\t// out\n        /* \"#utility.yul\":9923:10098   */\n    tag_125:\n        /* \"#utility.yul\":10063:10090   */\n      0x496e636f7272656374207374617274696e672070726963652e00000000000000\n        /* \"#utility.yul\":10059:10060   */\n      0x00\n        /* \"#utility.yul\":10051:10057   */\n      dup3\n        /* \"#utility.yul\":10047:10061   */\n      add\n        /* \"#utility.yul\":10040:10091   */\n      mstore\n        /* \"#utility.yul\":9923:10098   */\n      pop\n      jump\t// out\n        /* \"#utility.yul\":10104:10226   */\n    tag_77:\n        /* \"#utility.yul\":10177:10201   */\n      tag_199\n        /* \"#utility.yul\":10195:10200   */\n      dup2\n        /* \"#utility.yul\":10177:10201   */\n      tag_129\n      jump\t// in\n    tag_199:\n        /* \"#utility.yul\":10170:10175   */\n      dup2\n        /* \"#utility.yul\":10167:10202   */\n      eq\n        /* \"#utility.yul\":10157:10220   */\n      tag_200\n      jumpi\n        /* \"#utility.yul\":10216:10217   */\n      0x00\n        /* \"#utility.yul\":10213:10214   */\n      dup1\n        /* \"#utility.yul\":10206:10218   */\n      revert\n        /* \"#utility.yul\":10157:10220   */\n    tag_200:\n        /* \"#utility.yul\":10104:10226   */\n      pop\n      jump\t// out\n\n    auxdata: 0xa26469706673582212205f1f582551affc87c227aa2446bf787a7bdd046515360e2f78057e214d645ec264736f6c63430008070033\n}\n",
				"bytecode": {
					"linkReferences": {},
					"object": "608060405234801561001057600080fd5b50336000806101000a81548173ffffffffffffffffffffffffffffffffffffffff021916908373ffffffffffffffffffffffffffffffffffffffff160217905550610aed806100606000396000f3fe608060405234801561001057600080fd5b506004361061004c5760003560e01c80634534cd9c14610051578063571a26a0146100815780638da5cb5b146100b8578063e9835d15146100d6575b600080fd5b61006b6004803603810190610066919061057e565b6100f2565b60405161007891906107b8565b60405180910390f35b61009b6004803603810190610096919061057e565b6100f9565b6040516100af989796959493929190610713565b60405180910390f35b6100c0610206565b6040516100cd91906106f8565b60405180910390f35b6100f060048036038101906100eb91906105ab565b61022a565b005b6000919050565b6001818154811061010957600080fd5b90600052602060002090600802016000915090508060000160009054906101000a900473ffffffffffffffffffffffffffffffffffffffff1690806001015490806002015490806003015490806004015490806005015490806006018054610170906109bd565b80601f016020809104026020016040519081016040528092919081815260200182805461019c906109bd565b80156101e95780601f106101be576101008083540402835291602001916101e9565b820191906000526020600020905b8154815290600101906020018083116101cc57829003601f168201915b5050505050908060070160009054906101000a900460ff16905088565b60008054906101000a900473ffffffffffffffffffffffffffffffffffffffff1681565b6000808214610239578161023e565b6202a3005b9050818561024c9190610893565b86101561028e576040517f08c379a000000000000000000000000000000000000000000000000000000000815260040161028590610798565b60405180910390fd5b60006040518061010001604052803373ffffffffffffffffffffffffffffffffffffffff16815260200188815260200188815260200142815260200183426102d6919061083d565b815260200187815260200186868080601f016020809104026020016040519081016040528093929190818152602001838380828437600081840152601f19601f820116905080830192505050505050508152602001600015158152509050600181908060018154018082558091505060019003906000526020600020906008020160009091909190915060008201518160000160006101000a81548173ffffffffffffffffffffffffffffffffffffffff021916908373ffffffffffffffffffffffffffffffffffffffff1602179055506020820151816001015560408201518160020155606082015181600301556080820151816004015560a0820151816005015560c08201518160060190805190602001906103f5929190610470565b5060e08201518160070160006101000a81548160ff02191690831515021790555050507f5bf34ed94988e5dcdc7d1faaa54eb1d3b55f45d5f11457e235afb21a8ebbe73c6001808054905061044a91906108ed565b86868a8660405161045f9594939291906107d3565b60405180910390a150505050505050565b82805461047c906109bd565b90600052602060002090601f01602090048101928261049e57600085556104e5565b82601f106104b757805160ff19168380011785556104e5565b828001600101855582156104e5579182015b828111156104e45782518255916020019190600101906104c9565b5b5090506104f291906104f6565b5090565b5b8082111561050f5760008160009055506001016104f7565b5090565b60008083601f84011261052957610528610a52565b5b8235905067ffffffffffffffff81111561054657610545610a4d565b5b60208301915083600182028301111561056257610561610a57565b5b9250929050565b60008135905061057881610aa0565b92915050565b60006020828403121561059457610593610a61565b5b60006105a284828501610569565b91505092915050565b6000806000806000608086880312156105c7576105c6610a61565b5b60006105d588828901610569565b95505060206105e688828901610569565b945050604086013567ffffffffffffffff81111561060757610606610a5c565b5b61061388828901610513565b9350935050606061062688828901610569565b9150509295509295909350565b61063c81610933565b82525050565b61064b81610921565b82525050565b61065a81610945565b82525050565b600061066c838561082c565b935061067983858461097b565b61068283610a66565b840190509392505050565b600061069882610821565b6106a2818561082c565b93506106b281856020860161098a565b6106bb81610a66565b840191505092915050565b60006106d360198361082c565b91506106de82610a77565b602082019050919050565b6106f281610971565b82525050565b600060208201905061070d6000830184610642565b92915050565b600061010082019050610729600083018b610633565b610736602083018a6106e9565b61074360408301896106e9565b61075060608301886106e9565b61075d60808301876106e9565b61076a60a08301866106e9565b81810360c083015261077c818561068d565b905061078b60e0830184610651565b9998505050505050505050565b600060208201905081810360008301526107b1816106c6565b9050919050565b60006020820190506107cd60008301846106e9565b92915050565b60006080820190506107e860008301886106e9565b81810360208301526107fb818688610660565b905061080a60408301856106e9565b61081760608301846106e9565b9695505050505050565b600081519050919050565b600082825260208201905092915050565b600061084882610971565b915061085383610971565b9250827fffffffffffffffffffffffffffffffffffffffffffffffffffffffffffffffff03821115610888576108876109ef565b5b828201905092915050565b600061089e82610971565b91506108a983610971565b9250817fffffffffffffffffffffffffffffffffffffffffffffffffffffffffffffffff04831182151516156108e2576108e16109ef565b5b828202905092915050565b60006108f882610971565b915061090383610971565b925082821015610916576109156109ef565b5b828203905092915050565b600061092c82610951565b9050919050565b600061093e82610951565b9050919050565b60008115159050919050565b600073ffffffffffffffffffffffffffffffffffffffff82169050919050565b6000819050919050565b82818337600083830152505050565b60005b838110156109a857808201518184015260208101905061098d565b838111156109b7576000848401525b50505050565b600060028204905060018216806109d557607f821691505b602082108114156109e9576109e8610a1e565b5b50919050565b7f4e487b7100000000000000000000000000000000000000000000000000000000600052601160045260246000fd5b7f4e487b7100000000000000000000000000000000000000000000000000000000600052602260045260246000fd5b600080fd5b600080fd5b600080fd5b600080fd5b600080fd5b6000601f19601f8301169050919050565b7f496e636f7272656374207374617274696e672070726963652e00000000000000600082015250565b610aa981610971565b8114610ab457600080fd5b5056fea26469706673582212205f1f582551affc87c227aa2446bf787a7bdd046515360e2f78057e214d645ec264736f6c63430008070033",
					"opcodes": "PUSH1 0x80 PUSH1 0x40 MSTORE CALLVALUE DUP1 ISZERO PUSH2 0x10 JUMPI PUSH1 0x0 DUP1 REVERT JUMPDEST POP CALLER PUSH1 0x0 DUP1 PUSH2 0x100 EXP DUP2 SLOAD DUP2 PUSH20 0xFFFFFFFFFFFFFFFFFFFFFFFFFFFFFFFFFFFFFFFF MUL NOT AND SWAP1 DUP4 PUSH20 0xFFFFFFFFFFFFFFFFFFFFFFFFFFFFFFFFFFFFFFFF AND MUL OR SWAP1 SSTORE POP PUSH2 0xAED DUP1 PUSH2 0x60 PUSH1 0x0 CODECOPY PUSH1 0x0 RETURN INVALID PUSH1 0x80 PUSH1 0x40 MSTORE CALLVALUE DUP1 ISZERO PUSH2 0x10 JUMPI PUSH1 0x0 DUP1 REVERT JUMPDEST POP PUSH1 0x4 CALLDATASIZE LT PUSH2 0x4C JUMPI PUSH1 0x0 CALLDATALOAD PUSH1 0xE0 SHR DUP1 PUSH4 0x4534CD9C EQ PUSH2 0x51 JUMPI DUP1 PUSH4 0x571A26A0 EQ PUSH2 0x81 JUMPI DUP1 PUSH4 0x8DA5CB5B EQ PUSH2 0xB8 JUMPI DUP1 PUSH4 0xE9835D15 EQ PUSH2 0xD6 JUMPI JUMPDEST PUSH1 0x0 DUP1 REVERT JUMPDEST PUSH2 0x6B PUSH1 0x4 DUP1 CALLDATASIZE SUB DUP2 ADD SWAP1 PUSH2 0x66 SWAP2 SWAP1 PUSH2 0x57E JUMP JUMPDEST PUSH2 0xF2 JUMP JUMPDEST PUSH1 0x40 MLOAD PUSH2 0x78 SWAP2 SWAP1 PUSH2 0x7B8 JUMP JUMPDEST PUSH1 0x40 MLOAD DUP1 SWAP2 SUB SWAP1 RETURN JUMPDEST PUSH2 0x9B PUSH1 0x4 DUP1 CALLDATASIZE SUB DUP2 ADD SWAP1 PUSH2 0x96 SWAP2 SWAP1 PUSH2 0x57E JUMP JUMPDEST PUSH2 0xF9 JUMP JUMPDEST PUSH1 0x40 MLOAD PUSH2 0xAF SWAP9 SWAP8 SWAP7 SWAP6 SWAP5 SWAP4 SWAP3 SWAP2 SWAP1 PUSH2 0x713 JUMP JUMPDEST PUSH1 0x40 MLOAD DUP1 SWAP2 SUB SWAP1 RETURN JUMPDEST PUSH2 0xC0 PUSH2 0x206 JUMP JUMPDEST PUSH1 0x40 MLOAD PUSH2 0xCD SWAP2 SWAP1 PUSH2 0x6F8 JUMP JUMPDEST PUSH1 0x40 MLOAD DUP1 SWAP2 SUB SWAP1 RETURN JUMPDEST PUSH2 0xF0 PUSH1 0x4 DUP1 CALLDATASIZE SUB DUP2 ADD SWAP1 PUSH2 0xEB SWAP2 SWAP1 PUSH2 0x5AB JUMP JUMPDEST PUSH2 0x22A JUMP JUMPDEST STOP JUMPDEST PUSH1 0x0 SWAP2 SWAP1 POP JUMP JUMPDEST PUSH1 0x1 DUP2 DUP2 SLOAD DUP2 LT PUSH2 0x109 JUMPI PUSH1 0x0 DUP1 REVERT JUMPDEST SWAP1 PUSH1 0x0 MSTORE PUSH1 0x20 PUSH1 0x0 KECCAK256 SWAP1 PUSH1 0x8 MUL ADD PUSH1 0x0 SWAP2 POP SWAP1 POP DUP1 PUSH1 0x0 ADD PUSH1 0x0 SWAP1 SLOAD SWAP1 PUSH2 0x100 EXP SWAP1 DIV PUSH20 0xFFFFFFFFFFFFFFFFFFFFFFFFFFFFFFFFFFFFFFFF AND SWAP1 DUP1 PUSH1 0x1 ADD SLOAD SWAP1 DUP1 PUSH1 0x2 ADD SLOAD SWAP1 DUP1 PUSH1 0x3 ADD SLOAD SWAP1 DUP1 PUSH1 0x4 ADD SLOAD SWAP1 DUP1 PUSH1 0x5 ADD SLOAD SWAP1 DUP1 PUSH1 0x6 ADD DUP1 SLOAD PUSH2 0x170 SWAP1 PUSH2 0x9BD JUMP JUMPDEST DUP1 PUSH1 0x1F ADD PUSH1 0x20 DUP1 SWAP2 DIV MUL PUSH1 0x20 ADD PUSH1 0x40 MLOAD SWAP1 DUP2 ADD PUSH1 0x40 MSTORE DUP1 SWAP3 SWAP2 SWAP1 DUP2 DUP2 MSTORE PUSH1 0x20 ADD DUP3 DUP1 SLOAD PUSH2 0x19C SWAP1 PUSH2 0x9BD JUMP JUMPDEST DUP1 ISZERO PUSH2 0x1E9 JUMPI DUP1 PUSH1 0x1F LT PUSH2 0x1BE JUMPI PUSH2 0x100 DUP1 DUP4 SLOAD DIV MUL DUP4 MSTORE SWAP2 PUSH1 0x20 ADD SWAP2 PUSH2 0x1E9 JUMP JUMPDEST DUP3 ADD SWAP2 SWAP1 PUSH1 0x0 MSTORE PUSH1 0x20 PUSH1 0x0 KECCAK256 SWAP1 JUMPDEST DUP2 SLOAD DUP2 MSTORE SWAP1 PUSH1 0x1 ADD SWAP1 PUSH1 0x20 ADD DUP1 DUP4 GT PUSH2 0x1CC JUMPI DUP3 SWAP1 SUB PUSH1 0x1F AND DUP3 ADD SWAP2 JUMPDEST POP POP POP POP POP SWAP1 DUP1 PUSH1 0x7 ADD PUSH1 0x0 SWAP1 SLOAD SWAP1 PUSH2 0x100 EXP SWAP1 DIV PUSH1 0xFF AND SWAP1 POP DUP9 JUMP JUMPDEST PUSH1 0x0 DUP1 SLOAD SWAP1 PUSH2 0x100 EXP SWAP1 DIV PUSH20 0xFFFFFFFFFFFFFFFFFFFFFFFFFFFFFFFFFFFFFFFF AND DUP2 JUMP JUMPDEST PUSH1 0x0 DUP1 DUP3 EQ PUSH2 0x239 JUMPI DUP2 PUSH2 0x23E JUMP JUMPDEST PUSH3 0x2A300 JUMPDEST SWAP1 POP DUP2 DUP6 PUSH2 0x24C SWAP2 SWAP1 PUSH2 0x893 JUMP JUMPDEST DUP7 LT ISZERO PUSH2 0x28E JUMPI PUSH1 0x40 MLOAD PUSH32 0x8C379A000000000000000000000000000000000000000000000000000000000 DUP2 MSTORE PUSH1 0x4 ADD PUSH2 0x285 SWAP1 PUSH2 0x798 JUMP JUMPDEST PUSH1 0x40 MLOAD DUP1 SWAP2 SUB SWAP1 REVERT JUMPDEST PUSH1 0x0 PUSH1 0x40 MLOAD DUP1 PUSH2 0x100 ADD PUSH1 0x40 MSTORE DUP1 CALLER PUSH20 0xFFFFFFFFFFFFFFFFFFFFFFFFFFFFFFFFFFFFFFFF AND DUP2 MSTORE PUSH1 0x20 ADD DUP9 DUP2 MSTORE PUSH1 0x20 ADD DUP9 DUP2 MSTORE PUSH1 0x20 ADD TIMESTAMP DUP2 MSTORE PUSH1 0x20 ADD DUP4 TIMESTAMP PUSH2 0x2D6 SWAP2 SWAP1 PUSH2 0x83D JUMP JUMPDEST DUP2 MSTORE PUSH1 0x20 ADD DUP8 DUP2 MSTORE PUSH1 0x20 ADD DUP7 DUP7 DUP1 DUP1 PUSH1 0x1F ADD PUSH1 0x20 DUP1 SWAP2 DIV MUL PUSH1 0x20 ADD PUSH1 0x40 MLOAD SWAP1 DUP2 ADD PUSH1 0x40 MSTORE DUP1 SWAP4 SWAP3 SWAP2 SWAP1 DUP2 DUP2 MSTORE PUSH1 0x20 ADD DUP4 DUP4 DUP1 DUP3 DUP5 CALLDATACOPY PUSH1 0x0 DUP2 DUP5 ADD MSTORE PUSH1 0x1F NOT PUSH1 0x1F DUP3 ADD AND SWAP1 POP DUP1 DUP4 ADD SWAP3 POP POP POP POP POP POP POP DUP2 MSTORE PUSH1 0x20 ADD PUSH1 0x0 ISZERO ISZERO DUP2 MSTORE POP SWAP1 POP PUSH1 0x1 DUP2 SWAP1 DUP1 PUSH1 0x1 DUP2 SLOAD ADD DUP1 DUP3 SSTORE DUP1 SWAP2 POP POP PUSH1 0x1 SWAP1 SUB SWAP1 PUSH1 0x0 MSTORE PUSH1 0x20 PUSH1 0x0 KECCAK256 SWAP1 PUSH1 0x8 MUL ADD PUSH1 0x0 SWAP1 SWAP2 SWAP1 SWAP2 SWAP1 SWAP2 POP PUSH1 0x0 DUP3 ADD MLOAD DUP2 PUSH1 0x0 ADD PUSH1 0x0 PUSH2 0x100 EXP DUP2 SLOAD DUP2 PUSH20 0xFFFFFFFFFFFFFFFFFFFFFFFFFFFFFFFFFFFFFFFF MUL NOT AND SWAP1 DUP4 PUSH20 0xFFFFFFFFFFFFFFFFFFFFFFFFFFFFFFFFFFFFFFFF AND MUL OR SWAP1 SSTORE POP PUSH1 0x20 DUP3 ADD MLOAD DUP2 PUSH1 0x1 ADD SSTORE PUSH1 0x40 DUP3 ADD MLOAD DUP2 PUSH1 0x2 ADD SSTORE PUSH1 0x60 DUP3 ADD MLOAD DUP2 PUSH1 0x3 ADD SSTORE PUSH1 0x80 DUP3 ADD MLOAD DUP2 PUSH1 0x4 ADD SSTORE PUSH1 0xA0 DUP3 ADD MLOAD DUP2 PUSH1 0x5 ADD SSTORE PUSH1 0xC0 DUP3 ADD MLOAD DUP2 PUSH1 0x6 ADD SWAP1 DUP1 MLOAD SWAP1 PUSH1 0x20 ADD SWAP1 PUSH2 0x3F5 SWAP3 SWAP2 SWAP1 PUSH2 0x470 JUMP JUMPDEST POP PUSH1 0xE0 DUP3 ADD MLOAD DUP2 PUSH1 0x7 ADD PUSH1 0x0 PUSH2 0x100 EXP DUP2 SLOAD DUP2 PUSH1 0xFF MUL NOT AND SWAP1 DUP4 ISZERO ISZERO MUL OR SWAP1 SSTORE POP POP POP PUSH32 0x5BF34ED94988E5DCDC7D1FAAA54EB1D3B55F45D5F11457E235AFB21A8EBBE73C PUSH1 0x1 DUP1 DUP1 SLOAD SWAP1 POP PUSH2 0x44A SWAP2 SWAP1 PUSH2 0x8ED JUMP JUMPDEST DUP7 DUP7 DUP11 DUP7 PUSH1 0x40 MLOAD PUSH2 0x45F SWAP6 SWAP5 SWAP4 SWAP3 SWAP2 SWAP1 PUSH2 0x7D3 JUMP JUMPDEST PUSH1 0x40 MLOAD DUP1 SWAP2 SUB SWAP1 LOG1 POP POP POP POP POP POP POP JUMP JUMPDEST DUP3 DUP1 SLOAD PUSH2 0x47C SWAP1 PUSH2 0x9BD JUMP JUMPDEST SWAP1 PUSH1 0x0 MSTORE PUSH1 0x20 PUSH1 0x0 KECCAK256 SWAP1 PUSH1 0x1F ADD PUSH1 0x20 SWAP1 DIV DUP2 ADD SWAP3 DUP3 PUSH2 0x49E JUMPI PUSH1 0x0 DUP6 SSTORE PUSH2 0x4E5 JUMP JUMPDEST DUP3 PUSH1 0x1F LT PUSH2 0x4B7 JUMPI DUP1 MLOAD PUSH1 0xFF NOT AND DUP4 DUP1 ADD OR DUP6 SSTORE PUSH2 0x4E5 JUMP JUMPDEST DUP3 DUP1 ADD PUSH1 0x1 ADD DUP6 SSTORE DUP3 ISZERO PUSH2 0x4E5 JUMPI SWAP2 DUP3 ADD JUMPDEST DUP3 DUP2 GT ISZERO PUSH2 0x4E4 JUMPI DUP3 MLOAD DUP3 SSTORE SWAP2 PUSH1 0x20 ADD SWAP2 SWAP1 PUSH1 0x1 ADD SWAP1 PUSH2 0x4C9 JUMP JUMPDEST JUMPDEST POP SWAP1 POP PUSH2 0x4F2 SWAP2 SWAP1 PUSH2 0x4F6 JUMP JUMPDEST POP SWAP1 JUMP JUMPDEST JUMPDEST DUP1 DUP3 GT ISZERO PUSH2 0x50F JUMPI PUSH1 0x0 DUP2 PUSH1 0x0 SWAP1 SSTORE POP PUSH1 0x1 ADD PUSH2 0x4F7 JUMP JUMPDEST POP SWAP1 JUMP JUMPDEST PUSH1 0x0 DUP1 DUP4 PUSH1 0x1F DUP5 ADD SLT PUSH2 0x529 JUMPI PUSH2 0x528 PUSH2 0xA52 JUMP JUMPDEST JUMPDEST DUP3 CALLDATALOAD SWAP1 POP PUSH8 0xFFFFFFFFFFFFFFFF DUP2 GT ISZERO PUSH2 0x546 JUMPI PUSH2 0x545 PUSH2 0xA4D JUMP JUMPDEST JUMPDEST PUSH1 0x20 DUP4 ADD SWAP2 POP DUP4 PUSH1 0x1 DUP3 MUL DUP4 ADD GT ISZERO PUSH2 0x562 JUMPI PUSH2 0x561 PUSH2 0xA57 JUMP JUMPDEST JUMPDEST SWAP3 POP SWAP3 SWAP1 POP JUMP JUMPDEST PUSH1 0x0 DUP2 CALLDATALOAD SWAP1 POP PUSH2 0x578 DUP2 PUSH2 0xAA0 JUMP JUMPDEST SWAP3 SWAP2 POP POP JUMP JUMPDEST PUSH1 0x0 PUSH1 0x20 DUP3 DUP5 SUB SLT ISZERO PUSH2 0x594 JUMPI PUSH2 0x593 PUSH2 0xA61 JUMP JUMPDEST JUMPDEST PUSH1 0x0 PUSH2 0x5A2 DUP5 DUP3 DUP6 ADD PUSH2 0x569 JUMP JUMPDEST SWAP2 POP POP SWAP3 SWAP2 POP POP JUMP JUMPDEST PUSH1 0x0 DUP1 PUSH1 0x0 DUP1 PUSH1 0x0 PUSH1 0x80 DUP7 DUP9 SUB SLT ISZERO PUSH2 0x5C7 JUMPI PUSH2 0x5C6 PUSH2 0xA61 JUMP JUMPDEST JUMPDEST PUSH1 0x0 PUSH2 0x5D5 DUP9 DUP3 DUP10 ADD PUSH2 0x569 JUMP JUMPDEST SWAP6 POP POP PUSH1 0x20 PUSH2 0x5E6 DUP9 DUP3 DUP10 ADD PUSH2 0x569 JUMP JUMPDEST SWAP5 POP POP PUSH1 0x40 DUP7 ADD CALLDATALOAD PUSH8 0xFFFFFFFFFFFFFFFF DUP2 GT ISZERO PUSH2 0x607 JUMPI PUSH2 0x606 PUSH2 0xA5C JUMP JUMPDEST JUMPDEST PUSH2 0x613 DUP9 DUP3 DUP10 ADD PUSH2 0x513 JUMP JUMPDEST SWAP4 POP SWAP4 POP POP PUSH1 0x60 PUSH2 0x626 DUP9 DUP3 DUP10 ADD PUSH2 0x569 JUMP JUMPDEST SWAP2 POP POP SWAP3 SWAP6 POP SWAP3 SWAP6 SWAP1 SWAP4 POP JUMP JUMPDEST PUSH2 0x63C DUP2 PUSH2 0x933 JUMP JUMPDEST DUP3 MSTORE POP POP JUMP JUMPDEST PUSH2 0x64B DUP2 PUSH2 0x921 JUMP JUMPDEST DUP3 MSTORE POP POP JUMP JUMPDEST PUSH2 0x65A DUP2 PUSH2 0x945 JUMP JUMPDEST DUP3 MSTORE POP POP JUMP JUMPDEST PUSH1 0x0 PUSH2 0x66C DUP4 DUP6 PUSH2 0x82C JUMP JUMPDEST SWAP4 POP PUSH2 0x679 DUP4 DUP6 DUP5 PUSH2 0x97B JUMP JUMPDEST PUSH2 0x682 DUP4 PUSH2 0xA66 JUMP JUMPDEST DUP5 ADD SWAP1 POP SWAP4 SWAP3 POP POP POP JUMP JUMPDEST PUSH1 0x0 PUSH2 0x698 DUP3 PUSH2 0x821 JUMP JUMPDEST PUSH2 0x6A2 DUP2 DUP6 PUSH2 0x82C JUMP JUMPDEST SWAP4 POP PUSH2 0x6B2 DUP2 DUP6 PUSH1 0x20 DUP7 ADD PUSH2 0x98A JUMP JUMPDEST PUSH2 0x6BB DUP2 PUSH2 0xA66 JUMP JUMPDEST DUP5 ADD SWAP2 POP POP SWAP3 SWAP2 POP POP JUMP JUMPDEST PUSH1 0x0 PUSH2 0x6D3 PUSH1 0x19 DUP4 PUSH2 0x82C JUMP JUMPDEST SWAP2 POP PUSH2 0x6DE DUP3 PUSH2 0xA77 JUMP JUMPDEST PUSH1 0x20 DUP3 ADD SWAP1 POP SWAP2 SWAP1 POP JUMP JUMPDEST PUSH2 0x6F2 DUP2 PUSH2 0x971 JUMP JUMPDEST DUP3 MSTORE POP POP JUMP JUMPDEST PUSH1 0x0 PUSH1 0x20 DUP3 ADD SWAP1 POP PUSH2 0x70D PUSH1 0x0 DUP4 ADD DUP5 PUSH2 0x642 JUMP JUMPDEST SWAP3 SWAP2 POP POP JUMP JUMPDEST PUSH1 0x0 PUSH2 0x100 DUP3 ADD SWAP1 POP PUSH2 0x729 PUSH1 0x0 DUP4 ADD DUP12 PUSH2 0x633 JUMP JUMPDEST PUSH2 0x736 PUSH1 0x20 DUP4 ADD DUP11 PUSH2 0x6E9 JUMP JUMPDEST PUSH2 0x743 PUSH1 0x40 DUP4 ADD DUP10 PUSH2 0x6E9 JUMP JUMPDEST PUSH2 0x750 PUSH1 0x60 DUP4 ADD DUP9 PUSH2 0x6E9 JUMP JUMPDEST PUSH2 0x75D PUSH1 0x80 DUP4 ADD DUP8 PUSH2 0x6E9 JUMP JUMPDEST PUSH2 0x76A PUSH1 0xA0 DUP4 ADD DUP7 PUSH2 0x6E9 JUMP JUMPDEST DUP2 DUP2 SUB PUSH1 0xC0 DUP4 ADD MSTORE PUSH2 0x77C DUP2 DUP6 PUSH2 0x68D JUMP JUMPDEST SWAP1 POP PUSH2 0x78B PUSH1 0xE0 DUP4 ADD DUP5 PUSH2 0x651 JUMP JUMPDEST SWAP10 SWAP9 POP POP POP POP POP POP POP POP POP JUMP JUMPDEST PUSH1 0x0 PUSH1 0x20 DUP3 ADD SWAP1 POP DUP2 DUP2 SUB PUSH1 0x0 DUP4 ADD MSTORE PUSH2 0x7B1 DUP2 PUSH2 0x6C6 JUMP JUMPDEST SWAP1 POP SWAP2 SWAP1 POP JUMP JUMPDEST PUSH1 0x0 PUSH1 0x20 DUP3 ADD SWAP1 POP PUSH2 0x7CD PUSH1 0x0 DUP4 ADD DUP5 PUSH2 0x6E9 JUMP JUMPDEST SWAP3 SWAP2 POP POP JUMP JUMPDEST PUSH1 0x0 PUSH1 0x80 DUP3 ADD SWAP1 POP PUSH2 0x7E8 PUSH1 0x0 DUP4 ADD DUP9 PUSH2 0x6E9 JUMP JUMPDEST DUP2 DUP2 SUB PUSH1 0x20 DUP4 ADD MSTORE PUSH2 0x7FB DUP2 DUP7 DUP9 PUSH2 0x660 JUMP JUMPDEST SWAP1 POP PUSH2 0x80A PUSH1 0x40 DUP4 ADD DUP6 PUSH2 0x6E9 JUMP JUMPDEST PUSH2 0x817 PUSH1 0x60 DUP4 ADD DUP5 PUSH2 0x6E9 JUMP JUMPDEST SWAP7 SWAP6 POP POP POP POP POP POP JUMP JUMPDEST PUSH1 0x0 DUP2 MLOAD SWAP1 POP SWAP2 SWAP1 POP JUMP JUMPDEST PUSH1 0x0 DUP3 DUP3 MSTORE PUSH1 0x20 DUP3 ADD SWAP1 POP SWAP3 SWAP2 POP POP JUMP JUMPDEST PUSH1 0x0 PUSH2 0x848 DUP3 PUSH2 0x971 JUMP JUMPDEST SWAP2 POP PUSH2 0x853 DUP4 PUSH2 0x971 JUMP JUMPDEST SWAP3 POP DUP3 PUSH32 0xFFFFFFFFFFFFFFFFFFFFFFFFFFFFFFFFFFFFFFFFFFFFFFFFFFFFFFFFFFFFFFFF SUB DUP3 GT ISZERO PUSH2 0x888 JUMPI PUSH2 0x887 PUSH2 0x9EF JUMP JUMPDEST JUMPDEST DUP3 DUP3 ADD SWAP1 POP SWAP3 SWAP2 POP POP JUMP JUMPDEST PUSH1 0x0 PUSH2 0x89E DUP3 PUSH2 0x971 JUMP JUMPDEST SWAP2 POP PUSH2 0x8A9 DUP4 PUSH2 0x971 JUMP JUMPDEST SWAP3 POP DUP2 PUSH32 0xFFFFFFFFFFFFFFFFFFFFFFFFFFFFFFFFFFFFFFFFFFFFFFFFFFFFFFFFFFFFFFFF DIV DUP4 GT DUP3 ISZERO ISZERO AND ISZERO PUSH2 0x8E2 JUMPI PUSH2 0x8E1 PUSH2 0x9EF JUMP JUMPDEST JUMPDEST DUP3 DUP3 MUL SWAP1 POP SWAP3 SWAP2 POP POP JUMP JUMPDEST PUSH1 0x0 PUSH2 0x8F8 DUP3 PUSH2 0x971 JUMP JUMPDEST SWAP2 POP PUSH2 0x903 DUP4 PUSH2 0x971 JUMP JUMPDEST SWAP3 POP DUP3 DUP3 LT ISZERO PUSH2 0x916 JUMPI PUSH2 0x915 PUSH2 0x9EF JUMP JUMPDEST JUMPDEST DUP3 DUP3 SUB SWAP1 POP SWAP3 SWAP2 POP POP JUMP JUMPDEST PUSH1 0x0 PUSH2 0x92C DUP3 PUSH2 0x951 JUMP JUMPDEST SWAP1 POP SWAP2 SWAP1 POP JUMP JUMPDEST PUSH1 0x0 PUSH2 0x93E DUP3 PUSH2 0x951 JUMP JUMPDEST SWAP1 POP SWAP2 SWAP1 POP JUMP JUMPDEST PUSH1 0x0 DUP2 ISZERO ISZERO SWAP1 POP SWAP2 SWAP1 POP JUMP JUMPDEST PUSH1 0x0 PUSH20 0xFFFFFFFFFFFFFFFFFFFFFFFFFFFFFFFFFFFFFFFF DUP3 AND SWAP1 POP SWAP2 SWAP1 POP JUMP JUMPDEST PUSH1 0x0 DUP2 SWAP1 POP SWAP2 SWAP1 POP JUMP JUMPDEST DUP3 DUP2 DUP4 CALLDATACOPY PUSH1 0x0 DUP4 DUP4 ADD MSTORE POP POP POP JUMP JUMPDEST PUSH1 0x0 JUMPDEST DUP4 DUP2 LT ISZERO PUSH2 0x9A8 JUMPI DUP1 DUP3 ADD MLOAD DUP2 DUP5 ADD MSTORE PUSH1 0x20 DUP2 ADD SWAP1 POP PUSH2 0x98D JUMP JUMPDEST DUP4 DUP2 GT ISZERO PUSH2 0x9B7 JUMPI PUSH1 0x0 DUP5 DUP5 ADD MSTORE JUMPDEST POP POP POP POP JUMP JUMPDEST PUSH1 0x0 PUSH1 0x2 DUP3 DIV SWAP1 POP PUSH1 0x1 DUP3 AND DUP1 PUSH2 0x9D5 JUMPI PUSH1 0x7F DUP3 AND SWAP2 POP JUMPDEST PUSH1 0x20 DUP3 LT DUP2 EQ ISZERO PUSH2 0x9E9 JUMPI PUSH2 0x9E8 PUSH2 0xA1E JUMP JUMPDEST JUMPDEST POP SWAP2 SWAP1 POP JUMP JUMPDEST PUSH32 0x4E487B7100000000000000000000000000000000000000000000000000000000 PUSH1 0x0 MSTORE PUSH1 0x11 PUSH1 0x4 MSTORE PUSH1 0x24 PUSH1 0x0 REVERT JUMPDEST PUSH32 0x4E487B7100000000000000000000000000000000000000000000000000000000 PUSH1 0x0 MSTORE PUSH1 0x22 PUSH1 0x4 MSTORE PUSH1 0x24 PUSH1 0x0 REVERT JUMPDEST PUSH1 0x0 DUP1 REVERT JUMPDEST PUSH1 0x0 DUP1 REVERT JUMPDEST PUSH1 0x0 DUP1 REVERT JUMPDEST PUSH1 0x0 DUP1 REVERT JUMPDEST PUSH1 0x0 DUP1 REVERT JUMPDEST PUSH1 0x0 PUSH1 0x1F NOT PUSH1 0x1F DUP4 ADD AND SWAP1 POP SWAP2 SWAP1 POP JUMP JUMPDEST PUSH32 0x496E636F7272656374207374617274696E672070726963652E00000000000000 PUSH1 0x0 DUP3 ADD MSTORE POP JUMP JUMPDEST PUSH2 0xAA9 DUP2 PUSH2 0x971 JUMP JUMPDEST DUP2 EQ PUSH2 0xAB4 JUMPI PUSH1 0x0 DUP1 REVERT JUMPDEST POP JUMP INVALID LOG2 PUSH5 0x6970667358 0x22 SLT KECCAK256 0x5F 0x1F PC 0x25 MLOAD 0xAF 0xFC DUP8 0xC2 0x27 0xAA 0x24 CHAINID 0xBF PUSH25 0x7A7BDD046515360E2F78057E214D645EC264736F6C63430008 SMOD STOP CALLER "
				},
				"gasEstimates": {
					"creation": {
						"codeDepositCost": "559400",
						"executionCost": "24860",
						"totalCost": "584260"
					},
					"external": {
						"auctions(uint256)": "infinite",
						"createAuction(uint256,uint256,string,uint256)": "infinite",
						"getPriceFor(uint256)": "infinite",
						"owner()": "2533"
					}
				},
				"methodIdentifiers": {
					"auctions(uint256)": "571a26a0",
					"createAuction(uint256,uint256,string,uint256)": "e9835d15",
					"getPriceFor(uint256)": "4534cd9c",
					"owner()": "8da5cb5b"
				}
			},
			"storageLayout": {
				"storage": [
					{
						"astId": 3,
						"contract": "contracts/Lesson_5.sol:AucEngine",
						"label": "owner",
						"offset": 0,
						"slot": "0",
						"type": "t_address"
					},
					{
						"astId": 30,
						"contract": "contracts/Lesson_5.sol:AucEngine",
						"label": "auctions",
						"offset": 0,
						"slot": "1",
						"type": "t_array(t_struct(Auction)26_storage)dyn_storage"
					}
				],
				"types": {
					"t_address": {
						"encoding": "inplace",
						"label": "address",
						"numberOfBytes": "20"
					},
					"t_address_payable": {
						"encoding": "inplace",
						"label": "address payable",
						"numberOfBytes": "20"
					},
					"t_array(t_struct(Auction)26_storage)dyn_storage": {
						"base": "t_struct(Auction)26_storage",
						"encoding": "dynamic_array",
						"label": "struct AucEngine.Auction[]",
						"numberOfBytes": "32"
					},
					"t_bool": {
						"encoding": "inplace",
						"label": "bool",
						"numberOfBytes": "1"
					},
					"t_string_storage": {
						"encoding": "bytes",
						"label": "string",
						"numberOfBytes": "32"
					},
					"t_struct(Auction)26_storage": {
						"encoding": "inplace",
						"label": "struct AucEngine.Auction",
						"members": [
							{
								"astId": 11,
								"contract": "contracts/Lesson_5.sol:AucEngine",
								"label": "seller",
								"offset": 0,
								"slot": "0",
								"type": "t_address_payable"
							},
							{
								"astId": 13,
								"contract": "contracts/Lesson_5.sol:AucEngine",
								"label": "startingPrice",
								"offset": 0,
								"slot": "1",
								"type": "t_uint256"
							},
							{
								"astId": 15,
								"contract": "contracts/Lesson_5.sol:AucEngine",
								"label": "finalPrice",
								"offset": 0,
								"slot": "2",
								"type": "t_uint256"
							},
							{
								"astId": 17,
								"contract": "contracts/Lesson_5.sol:AucEngine",
								"label": "startsAt",
								"offset": 0,
								"slot": "3",
								"type": "t_uint256"
							},
							{
								"astId": 19,
								"contract": "contracts/Lesson_5.sol:AucEngine",
								"label": "endsAt",
								"offset": 0,
								"slot": "4",
								"type": "t_uint256"
							},
							{
								"astId": 21,
								"contract": "contracts/Lesson_5.sol:AucEngine",
								"label": "discountRate",
								"offset": 0,
								"slot": "5",
								"type": "t_uint256"
							},
							{
								"astId": 23,
								"contract": "contracts/Lesson_5.sol:AucEngine",
								"label": "item",
								"offset": 0,
								"slot": "6",
								"type": "t_string_storage"
							},
							{
								"astId": 25,
								"contract": "contracts/Lesson_5.sol:AucEngine",
								"label": "stopped",
								"offset": 0,
								"slot": "7",
								"type": "t_bool"
							}
						],
						"numberOfBytes": "256"
					},
					"t_uint256": {
						"encoding": "inplace",
						"label": "uint256",
						"numberOfBytes": "32"
					}
				}
			},
			"userdoc": {
				"kind": "user",
				"methods": {},
				"version": 1
			}
		}
	}
}