{
	"contracts/Lesson_5.sol": {
		"AucEngine": {
			"abi": [
				{
					"inputs": [],
					"stateMutability": "nonpayable",
					"type": "constructor"
				},
				{
					"inputs": [
						{
							"internalType": "uint256",
							"name": "",
							"type": "uint256"
						}
					],
					"name": "auctions",
					"outputs": [
						{
							"internalType": "address payable",
							"name": "seller",
							"type": "address"
						},
						{
							"internalType": "uint256",
							"name": "startingPrice",
							"type": "uint256"
						},
						{
							"internalType": "uint256",
							"name": "finalPrice",
							"type": "uint256"
						},
						{
							"internalType": "uint256",
							"name": "startsAt",
							"type": "uint256"
						},
						{
							"internalType": "uint256",
							"name": "endsAt",
							"type": "uint256"
						},
						{
							"internalType": "uint256",
							"name": "dicountRate",
							"type": "uint256"
						},
						{
							"internalType": "string",
							"name": "item",
							"type": "string"
						},
						{
							"internalType": "bool",
							"name": "stopped",
							"type": "bool"
						}
					],
					"stateMutability": "view",
					"type": "function"
				},
				{
					"inputs": [],
					"name": "owner",
					"outputs": [
						{
							"internalType": "address",
							"name": "",
							"type": "address"
						}
					],
					"stateMutability": "view",
					"type": "function"
				}
			],
			"devdoc": {
				"kind": "dev",
				"methods": {},
				"version": 1
			},
			"evm": {
				"assembly": "    /* \"contracts/Lesson_5.sol\":62:613  contract AucEngine\r... */\n  mstore(0x40, 0x80)\n    /* \"contracts/Lesson_5.sol\":573:610  constructor()\r... */\n  callvalue\n  dup1\n  iszero\n  tag_1\n  jumpi\n  0x00\n  dup1\n  revert\ntag_1:\n  pop\n    /* \"contracts/Lesson_5.sol\":62:613  contract AucEngine\r... */\n  dataSize(sub_0)\n  dup1\n  dataOffset(sub_0)\n  0x00\n  codecopy\n  0x00\n  return\nstop\n\nsub_0: assembly {\n        /* \"contracts/Lesson_5.sol\":62:613  contract AucEngine\r... */\n      mstore(0x40, 0x80)\n      callvalue\n      dup1\n      iszero\n      tag_1\n      jumpi\n      0x00\n      dup1\n      revert\n    tag_1:\n      pop\n      jumpi(tag_2, lt(calldatasize, 0x04))\n      shr(0xe0, calldataload(0x00))\n      dup1\n      0x571a26a0\n      eq\n      tag_3\n      jumpi\n      dup1\n      0x8da5cb5b\n      eq\n      tag_4\n      jumpi\n    tag_2:\n      0x00\n      dup1\n      revert\n        /* \"contracts/Lesson_5.sol\":539:564  Auction[] public auctions */\n    tag_3:\n      tag_5\n      0x04\n      dup1\n      calldatasize\n      sub\n      dup2\n      add\n      swap1\n      tag_6\n      swap2\n      swap1\n      tag_7\n      jump\t// in\n    tag_6:\n      tag_8\n      jump\t// in\n    tag_5:\n      mload(0x40)\n      tag_9\n      swap9\n      swap8\n      swap7\n      swap6\n      swap5\n      swap4\n      swap3\n      swap2\n      swap1\n      tag_10\n      jump\t// in\n    tag_9:\n      mload(0x40)\n      dup1\n      swap2\n      sub\n      swap1\n      return\n        /* \"contracts/Lesson_5.sol\":89:109  address public owner */\n    tag_4:\n      tag_11\n      tag_12\n      jump\t// in\n    tag_11:\n      mload(0x40)\n      tag_13\n      swap2\n      swap1\n      tag_14\n      jump\t// in\n    tag_13:\n      mload(0x40)\n      dup1\n      swap2\n      sub\n      swap1\n      return\n        /* \"contracts/Lesson_5.sol\":539:564  Auction[] public auctions */\n    tag_8:\n      0x01\n      dup2\n      dup2\n      sload\n      dup2\n      lt\n      tag_15\n      jumpi\n      0x00\n      dup1\n      revert\n    tag_15:\n      swap1\n      0x00\n      mstore\n      keccak256(0x00, 0x20)\n      swap1\n      0x08\n      mul\n      add\n      0x00\n      swap2\n      pop\n      swap1\n      pop\n      dup1\n      0x00\n      add\n      0x00\n      swap1\n      sload\n      swap1\n      0x0100\n      exp\n      swap1\n      div\n      0xffffffffffffffffffffffffffffffffffffffff\n      and\n      swap1\n      dup1\n      0x01\n      add\n      sload\n      swap1\n      dup1\n      0x02\n      add\n      sload\n      swap1\n      dup1\n      0x03\n      add\n      sload\n      swap1\n      dup1\n      0x04\n      add\n      sload\n      swap1\n      dup1\n      0x05\n      add\n      sload\n      swap1\n      dup1\n      0x06\n      add\n      dup1\n      sload\n      tag_17\n      swap1\n      tag_18\n      jump\t// in\n    tag_17:\n      dup1\n      0x1f\n      add\n      0x20\n      dup1\n      swap2\n      div\n      mul\n      0x20\n      add\n      mload(0x40)\n      swap1\n      dup2\n      add\n      0x40\n      mstore\n      dup1\n      swap3\n      swap2\n      swap1\n      dup2\n      dup2\n      mstore\n      0x20\n      add\n      dup3\n      dup1\n      sload\n      tag_19\n      swap1\n      tag_18\n      jump\t// in\n    tag_19:\n      dup1\n      iszero\n      tag_20\n      jumpi\n      dup1\n      0x1f\n      lt\n      tag_21\n      jumpi\n      0x0100\n      dup1\n      dup4\n      sload\n      div\n      mul\n      dup4\n      mstore\n      swap2\n      0x20\n      add\n      swap2\n      jump(tag_20)\n    tag_21:\n      dup3\n      add\n      swap2\n      swap1\n      0x00\n      mstore\n      keccak256(0x00, 0x20)\n      swap1\n    tag_22:\n      dup2\n      sload\n      dup2\n      mstore\n      swap1\n      0x01\n      add\n      swap1\n      0x20\n      add\n      dup1\n      dup4\n      gt\n      tag_22\n      jumpi\n      dup3\n      swap1\n      sub\n      0x1f\n      and\n      dup3\n      add\n      swap2\n    tag_20:\n      pop\n      pop\n      pop\n      pop\n      pop\n      swap1\n      dup1\n      0x07\n      add\n      0x00\n      swap1\n      sload\n      swap1\n      0x0100\n      exp\n      swap1\n      div\n      0xff\n      and\n      swap1\n      pop\n      dup9\n      jump\t// out\n        /* \"contracts/Lesson_5.sol\":89:109  address public owner */\n    tag_12:\n      0x00\n      dup1\n      sload\n      swap1\n      0x0100\n      exp\n      swap1\n      div\n      0xffffffffffffffffffffffffffffffffffffffff\n      and\n      dup2\n      jump\t// out\n        /* \"#utility.yul\":7:146   */\n    tag_24:\n        /* \"#utility.yul\":53:58   */\n      0x00\n        /* \"#utility.yul\":91:97   */\n      dup2\n        /* \"#utility.yul\":78:98   */\n      calldataload\n        /* \"#utility.yul\":69:98   */\n      swap1\n      pop\n        /* \"#utility.yul\":107:140   */\n      tag_26\n        /* \"#utility.yul\":134:139   */\n      dup2\n        /* \"#utility.yul\":107:140   */\n      tag_27\n      jump\t// in\n    tag_26:\n        /* \"#utility.yul\":7:146   */\n      swap3\n      swap2\n      pop\n      pop\n      jump\t// out\n        /* \"#utility.yul\":152:481   */\n    tag_7:\n        /* \"#utility.yul\":211:217   */\n      0x00\n        /* \"#utility.yul\":260:262   */\n      0x20\n        /* \"#utility.yul\":248:257   */\n      dup3\n        /* \"#utility.yul\":239:246   */\n      dup5\n        /* \"#utility.yul\":235:258   */\n      sub\n        /* \"#utility.yul\":231:263   */\n      slt\n        /* \"#utility.yul\":228:347   */\n      iszero\n      tag_29\n      jumpi\n        /* \"#utility.yul\":266:345   */\n      tag_30\n      tag_31\n      jump\t// in\n    tag_30:\n        /* \"#utility.yul\":228:347   */\n    tag_29:\n        /* \"#utility.yul\":386:387   */\n      0x00\n        /* \"#utility.yul\":411:464   */\n      tag_32\n        /* \"#utility.yul\":456:463   */\n      dup5\n        /* \"#utility.yul\":447:453   */\n      dup3\n        /* \"#utility.yul\":436:445   */\n      dup6\n        /* \"#utility.yul\":432:454   */\n      add\n        /* \"#utility.yul\":411:464   */\n      tag_24\n      jump\t// in\n    tag_32:\n        /* \"#utility.yul\":401:464   */\n      swap2\n      pop\n        /* \"#utility.yul\":357:474   */\n      pop\n        /* \"#utility.yul\":152:481   */\n      swap3\n      swap2\n      pop\n      pop\n      jump\t// out\n        /* \"#utility.yul\":487:629   */\n    tag_33:\n        /* \"#utility.yul\":590:622   */\n      tag_35\n        /* \"#utility.yul\":616:621   */\n      dup2\n        /* \"#utility.yul\":590:622   */\n      tag_36\n      jump\t// in\n    tag_35:\n        /* \"#utility.yul\":585:588   */\n      dup3\n        /* \"#utility.yul\":578:623   */\n      mstore\n        /* \"#utility.yul\":487:629   */\n      pop\n      pop\n      jump\t// out\n        /* \"#utility.yul\":635:753   */\n    tag_37:\n        /* \"#utility.yul\":722:746   */\n      tag_39\n        /* \"#utility.yul\":740:745   */\n      dup2\n        /* \"#utility.yul\":722:746   */\n      tag_40\n      jump\t// in\n    tag_39:\n        /* \"#utility.yul\":717:720   */\n      dup3\n        /* \"#utility.yul\":710:747   */\n      mstore\n        /* \"#utility.yul\":635:753   */\n      pop\n      pop\n      jump\t// out\n        /* \"#utility.yul\":759:868   */\n    tag_41:\n        /* \"#utility.yul\":840:861   */\n      tag_43\n        /* \"#utility.yul\":855:860   */\n      dup2\n        /* \"#utility.yul\":840:861   */\n      tag_44\n      jump\t// in\n    tag_43:\n        /* \"#utility.yul\":835:838   */\n      dup3\n        /* \"#utility.yul\":828:862   */\n      mstore\n        /* \"#utility.yul\":759:868   */\n      pop\n      pop\n      jump\t// out\n        /* \"#utility.yul\":874:1238   */\n    tag_45:\n        /* \"#utility.yul\":962:965   */\n      0x00\n        /* \"#utility.yul\":990:1029   */\n      tag_47\n        /* \"#utility.yul\":1023:1028   */\n      dup3\n        /* \"#utility.yul\":990:1029   */\n      tag_48\n      jump\t// in\n    tag_47:\n        /* \"#utility.yul\":1045:1116   */\n      tag_49\n        /* \"#utility.yul\":1109:1115   */\n      dup2\n        /* \"#utility.yul\":1104:1107   */\n      dup6\n        /* \"#utility.yul\":1045:1116   */\n      tag_50\n      jump\t// in\n    tag_49:\n        /* \"#utility.yul\":1038:1116   */\n      swap4\n      pop\n        /* \"#utility.yul\":1125:1177   */\n      tag_51\n        /* \"#utility.yul\":1170:1176   */\n      dup2\n        /* \"#utility.yul\":1165:1168   */\n      dup6\n        /* \"#utility.yul\":1158:1162   */\n      0x20\n        /* \"#utility.yul\":1151:1156   */\n      dup7\n        /* \"#utility.yul\":1147:1163   */\n      add\n        /* \"#utility.yul\":1125:1177   */\n      tag_52\n      jump\t// in\n    tag_51:\n        /* \"#utility.yul\":1202:1231   */\n      tag_53\n        /* \"#utility.yul\":1224:1230   */\n      dup2\n        /* \"#utility.yul\":1202:1231   */\n      tag_54\n      jump\t// in\n    tag_53:\n        /* \"#utility.yul\":1197:1200   */\n      dup5\n        /* \"#utility.yul\":1193:1232   */\n      add\n        /* \"#utility.yul\":1186:1232   */\n      swap2\n      pop\n        /* \"#utility.yul\":966:1238   */\n      pop\n        /* \"#utility.yul\":874:1238   */\n      swap3\n      swap2\n      pop\n      pop\n      jump\t// out\n        /* \"#utility.yul\":1244:1362   */\n    tag_55:\n        /* \"#utility.yul\":1331:1355   */\n      tag_57\n        /* \"#utility.yul\":1349:1354   */\n      dup2\n        /* \"#utility.yul\":1331:1355   */\n      tag_58\n      jump\t// in\n    tag_57:\n        /* \"#utility.yul\":1326:1329   */\n      dup3\n        /* \"#utility.yul\":1319:1356   */\n      mstore\n        /* \"#utility.yul\":1244:1362   */\n      pop\n      pop\n      jump\t// out\n        /* \"#utility.yul\":1368:1590   */\n    tag_14:\n        /* \"#utility.yul\":1461:1465   */\n      0x00\n        /* \"#utility.yul\":1499:1501   */\n      0x20\n        /* \"#utility.yul\":1488:1497   */\n      dup3\n        /* \"#utility.yul\":1484:1502   */\n      add\n        /* \"#utility.yul\":1476:1502   */\n      swap1\n      pop\n        /* \"#utility.yul\":1512:1583   */\n      tag_60\n        /* \"#utility.yul\":1580:1581   */\n      0x00\n        /* \"#utility.yul\":1569:1578   */\n      dup4\n        /* \"#utility.yul\":1565:1582   */\n      add\n        /* \"#utility.yul\":1556:1562   */\n      dup5\n        /* \"#utility.yul\":1512:1583   */\n      tag_37\n      jump\t// in\n    tag_60:\n        /* \"#utility.yul\":1368:1590   */\n      swap3\n      swap2\n      pop\n      pop\n      jump\t// out\n        /* \"#utility.yul\":1596:2704   */\n    tag_10:\n        /* \"#utility.yul\":1915:1919   */\n      0x00\n        /* \"#utility.yul\":1953:1956   */\n      0x0100\n        /* \"#utility.yul\":1942:1951   */\n      dup3\n        /* \"#utility.yul\":1938:1957   */\n      add\n        /* \"#utility.yul\":1930:1957   */\n      swap1\n      pop\n        /* \"#utility.yul\":1967:2054   */\n      tag_62\n        /* \"#utility.yul\":2051:2052   */\n      0x00\n        /* \"#utility.yul\":2040:2049   */\n      dup4\n        /* \"#utility.yul\":2036:2053   */\n      add\n        /* \"#utility.yul\":2027:2033   */\n      dup12\n        /* \"#utility.yul\":1967:2054   */\n      tag_33\n      jump\t// in\n    tag_62:\n        /* \"#utility.yul\":2064:2136   */\n      tag_63\n        /* \"#utility.yul\":2132:2134   */\n      0x20\n        /* \"#utility.yul\":2121:2130   */\n      dup4\n        /* \"#utility.yul\":2117:2135   */\n      add\n        /* \"#utility.yul\":2108:2114   */\n      dup11\n        /* \"#utility.yul\":2064:2136   */\n      tag_55\n      jump\t// in\n    tag_63:\n        /* \"#utility.yul\":2146:2218   */\n      tag_64\n        /* \"#utility.yul\":2214:2216   */\n      0x40\n        /* \"#utility.yul\":2203:2212   */\n      dup4\n        /* \"#utility.yul\":2199:2217   */\n      add\n        /* \"#utility.yul\":2190:2196   */\n      dup10\n        /* \"#utility.yul\":2146:2218   */\n      tag_55\n      jump\t// in\n    tag_64:\n        /* \"#utility.yul\":2228:2300   */\n      tag_65\n        /* \"#utility.yul\":2296:2298   */\n      0x60\n        /* \"#utility.yul\":2285:2294   */\n      dup4\n        /* \"#utility.yul\":2281:2299   */\n      add\n        /* \"#utility.yul\":2272:2278   */\n      dup9\n        /* \"#utility.yul\":2228:2300   */\n      tag_55\n      jump\t// in\n    tag_65:\n        /* \"#utility.yul\":2310:2383   */\n      tag_66\n        /* \"#utility.yul\":2378:2381   */\n      0x80\n        /* \"#utility.yul\":2367:2376   */\n      dup4\n        /* \"#utility.yul\":2363:2382   */\n      add\n        /* \"#utility.yul\":2354:2360   */\n      dup8\n        /* \"#utility.yul\":2310:2383   */\n      tag_55\n      jump\t// in\n    tag_66:\n        /* \"#utility.yul\":2393:2466   */\n      tag_67\n        /* \"#utility.yul\":2461:2464   */\n      0xa0\n        /* \"#utility.yul\":2450:2459   */\n      dup4\n        /* \"#utility.yul\":2446:2465   */\n      add\n        /* \"#utility.yul\":2437:2443   */\n      dup7\n        /* \"#utility.yul\":2393:2466   */\n      tag_55\n      jump\t// in\n    tag_67:\n        /* \"#utility.yul\":2514:2523   */\n      dup2\n        /* \"#utility.yul\":2508:2512   */\n      dup2\n        /* \"#utility.yul\":2504:2524   */\n      sub\n        /* \"#utility.yul\":2498:2501   */\n      0xc0\n        /* \"#utility.yul\":2487:2496   */\n      dup4\n        /* \"#utility.yul\":2483:2502   */\n      add\n        /* \"#utility.yul\":2476:2525   */\n      mstore\n        /* \"#utility.yul\":2542:2620   */\n      tag_68\n        /* \"#utility.yul\":2615:2619   */\n      dup2\n        /* \"#utility.yul\":2606:2612   */\n      dup6\n        /* \"#utility.yul\":2542:2620   */\n      tag_45\n      jump\t// in\n    tag_68:\n        /* \"#utility.yul\":2534:2620   */\n      swap1\n      pop\n        /* \"#utility.yul\":2630:2697   */\n      tag_69\n        /* \"#utility.yul\":2692:2695   */\n      0xe0\n        /* \"#utility.yul\":2681:2690   */\n      dup4\n        /* \"#utility.yul\":2677:2696   */\n      add\n        /* \"#utility.yul\":2668:2674   */\n      dup5\n        /* \"#utility.yul\":2630:2697   */\n      tag_41\n      jump\t// in\n    tag_69:\n        /* \"#utility.yul\":1596:2704   */\n      swap10\n      swap9\n      pop\n      pop\n      pop\n      pop\n      pop\n      pop\n      pop\n      pop\n      pop\n      jump\t// out\n        /* \"#utility.yul\":2791:2890   */\n    tag_48:\n        /* \"#utility.yul\":2843:2849   */\n      0x00\n        /* \"#utility.yul\":2877:2882   */\n      dup2\n        /* \"#utility.yul\":2871:2883   */\n      mload\n        /* \"#utility.yul\":2861:2883   */\n      swap1\n      pop\n        /* \"#utility.yul\":2791:2890   */\n      swap2\n      swap1\n      pop\n      jump\t// out\n        /* \"#utility.yul\":2896:3065   */\n    tag_50:\n        /* \"#utility.yul\":2980:2991   */\n      0x00\n        /* \"#utility.yul\":3014:3020   */\n      dup3\n        /* \"#utility.yul\":3009:3012   */\n      dup3\n        /* \"#utility.yul\":3002:3021   */\n      mstore\n        /* \"#utility.yul\":3054:3058   */\n      0x20\n        /* \"#utility.yul\":3049:3052   */\n      dup3\n        /* \"#utility.yul\":3045:3059   */\n      add\n        /* \"#utility.yul\":3030:3059   */\n      swap1\n      pop\n        /* \"#utility.yul\":2896:3065   */\n      swap3\n      swap2\n      pop\n      pop\n      jump\t// out\n        /* \"#utility.yul\":3071:3167   */\n    tag_40:\n        /* \"#utility.yul\":3108:3115   */\n      0x00\n        /* \"#utility.yul\":3137:3161   */\n      tag_75\n        /* \"#utility.yul\":3155:3160   */\n      dup3\n        /* \"#utility.yul\":3137:3161   */\n      tag_76\n      jump\t// in\n    tag_75:\n        /* \"#utility.yul\":3126:3161   */\n      swap1\n      pop\n        /* \"#utility.yul\":3071:3167   */\n      swap2\n      swap1\n      pop\n      jump\t// out\n        /* \"#utility.yul\":3173:3277   */\n    tag_36:\n        /* \"#utility.yul\":3218:3225   */\n      0x00\n        /* \"#utility.yul\":3247:3271   */\n      tag_78\n        /* \"#utility.yul\":3265:3270   */\n      dup3\n        /* \"#utility.yul\":3247:3271   */\n      tag_76\n      jump\t// in\n    tag_78:\n        /* \"#utility.yul\":3236:3271   */\n      swap1\n      pop\n        /* \"#utility.yul\":3173:3277   */\n      swap2\n      swap1\n      pop\n      jump\t// out\n        /* \"#utility.yul\":3283:3373   */\n    tag_44:\n        /* \"#utility.yul\":3317:3324   */\n      0x00\n        /* \"#utility.yul\":3360:3365   */\n      dup2\n        /* \"#utility.yul\":3353:3366   */\n      iszero\n        /* \"#utility.yul\":3346:3367   */\n      iszero\n        /* \"#utility.yul\":3335:3367   */\n      swap1\n      pop\n        /* \"#utility.yul\":3283:3373   */\n      swap2\n      swap1\n      pop\n      jump\t// out\n        /* \"#utility.yul\":3379:3505   */\n    tag_76:\n        /* \"#utility.yul\":3416:3423   */\n      0x00\n        /* \"#utility.yul\":3456:3498   */\n      0xffffffffffffffffffffffffffffffffffffffff\n        /* \"#utility.yul\":3449:3454   */\n      dup3\n        /* \"#utility.yul\":3445:3499   */\n      and\n        /* \"#utility.yul\":3434:3499   */\n      swap1\n      pop\n        /* \"#utility.yul\":3379:3505   */\n      swap2\n      swap1\n      pop\n      jump\t// out\n        /* \"#utility.yul\":3511:3588   */\n    tag_58:\n        /* \"#utility.yul\":3548:3555   */\n      0x00\n        /* \"#utility.yul\":3577:3582   */\n      dup2\n        /* \"#utility.yul\":3566:3582   */\n      swap1\n      pop\n        /* \"#utility.yul\":3511:3588   */\n      swap2\n      swap1\n      pop\n      jump\t// out\n        /* \"#utility.yul\":3594:3901   */\n    tag_52:\n        /* \"#utility.yul\":3662:3663   */\n      0x00\n        /* \"#utility.yul\":3672:3785   */\n    tag_83:\n        /* \"#utility.yul\":3686:3692   */\n      dup4\n        /* \"#utility.yul\":3683:3684   */\n      dup2\n        /* \"#utility.yul\":3680:3693   */\n      lt\n        /* \"#utility.yul\":3672:3785   */\n      iszero\n      tag_85\n      jumpi\n        /* \"#utility.yul\":3771:3772   */\n      dup1\n        /* \"#utility.yul\":3766:3769   */\n      dup3\n        /* \"#utility.yul\":3762:3773   */\n      add\n        /* \"#utility.yul\":3756:3774   */\n      mload\n        /* \"#utility.yul\":3752:3753   */\n      dup2\n        /* \"#utility.yul\":3747:3750   */\n      dup5\n        /* \"#utility.yul\":3743:3754   */\n      add\n        /* \"#utility.yul\":3736:3775   */\n      mstore\n        /* \"#utility.yul\":3708:3710   */\n      0x20\n        /* \"#utility.yul\":3705:3706   */\n      dup2\n        /* \"#utility.yul\":3701:3711   */\n      add\n        /* \"#utility.yul\":3696:3711   */\n      swap1\n      pop\n        /* \"#utility.yul\":3672:3785   */\n      jump(tag_83)\n    tag_85:\n        /* \"#utility.yul\":3803:3809   */\n      dup4\n        /* \"#utility.yul\":3800:3801   */\n      dup2\n        /* \"#utility.yul\":3797:3810   */\n      gt\n        /* \"#utility.yul\":3794:3895   */\n      iszero\n      tag_86\n      jumpi\n        /* \"#utility.yul\":3883:3884   */\n      0x00\n        /* \"#utility.yul\":3874:3880   */\n      dup5\n        /* \"#utility.yul\":3869:3872   */\n      dup5\n        /* \"#utility.yul\":3865:3881   */\n      add\n        /* \"#utility.yul\":3858:3885   */\n      mstore\n        /* \"#utility.yul\":3794:3895   */\n    tag_86:\n        /* \"#utility.yul\":3643:3901   */\n      pop\n        /* \"#utility.yul\":3594:3901   */\n      pop\n      pop\n      pop\n      jump\t// out\n        /* \"#utility.yul\":3907:4227   */\n    tag_18:\n        /* \"#utility.yul\":3951:3957   */\n      0x00\n        /* \"#utility.yul\":3988:3989   */\n      0x02\n        /* \"#utility.yul\":3982:3986   */\n      dup3\n        /* \"#utility.yul\":3978:3990   */\n      div\n        /* \"#utility.yul\":3968:3990   */\n      swap1\n      pop\n        /* \"#utility.yul\":4035:4036   */\n      0x01\n        /* \"#utility.yul\":4029:4033   */\n      dup3\n        /* \"#utility.yul\":4025:4037   */\n      and\n        /* \"#utility.yul\":4056:4074   */\n      dup1\n        /* \"#utility.yul\":4046:4127   */\n      tag_88\n      jumpi\n        /* \"#utility.yul\":4112:4116   */\n      0x7f\n        /* \"#utility.yul\":4104:4110   */\n      dup3\n        /* \"#utility.yul\":4100:4117   */\n      and\n        /* \"#utility.yul\":4090:4117   */\n      swap2\n      pop\n        /* \"#utility.yul\":4046:4127   */\n    tag_88:\n        /* \"#utility.yul\":4174:4176   */\n      0x20\n        /* \"#utility.yul\":4166:4172   */\n      dup3\n        /* \"#utility.yul\":4163:4177   */\n      lt\n        /* \"#utility.yul\":4143:4161   */\n      dup2\n        /* \"#utility.yul\":4140:4178   */\n      eq\n        /* \"#utility.yul\":4137:4221   */\n      iszero\n      tag_89\n      jumpi\n        /* \"#utility.yul\":4193:4211   */\n      tag_90\n      tag_91\n      jump\t// in\n    tag_90:\n        /* \"#utility.yul\":4137:4221   */\n    tag_89:\n        /* \"#utility.yul\":3958:4227   */\n      pop\n        /* \"#utility.yul\":3907:4227   */\n      swap2\n      swap1\n      pop\n      jump\t// out\n        /* \"#utility.yul\":4233:4413   */\n    tag_91:\n        /* \"#utility.yul\":4281:4358   */\n      0x4e487b7100000000000000000000000000000000000000000000000000000000\n        /* \"#utility.yul\":4278:4279   */\n      0x00\n        /* \"#utility.yul\":4271:4359   */\n      mstore\n        /* \"#utility.yul\":4378:4382   */\n      0x22\n        /* \"#utility.yul\":4375:4376   */\n      0x04\n        /* \"#utility.yul\":4368:4383   */\n      mstore\n        /* \"#utility.yul\":4402:4406   */\n      0x24\n        /* \"#utility.yul\":4399:4400   */\n      0x00\n        /* \"#utility.yul\":4392:4407   */\n      revert\n        /* \"#utility.yul\":4542:4659   */\n    tag_31:\n        /* \"#utility.yul\":4651:4652   */\n      0x00\n        /* \"#utility.yul\":4648:4649   */\n      dup1\n        /* \"#utility.yul\":4641:4653   */\n      revert\n        /* \"#utility.yul\":4665:4767   */\n    tag_54:\n        /* \"#utility.yul\":4706:4712   */\n      0x00\n        /* \"#utility.yul\":4757:4759   */\n      0x1f\n        /* \"#utility.yul\":4753:4760   */\n      not\n        /* \"#utility.yul\":4748:4750   */\n      0x1f\n        /* \"#utility.yul\":4741:4746   */\n      dup4\n        /* \"#utility.yul\":4737:4751   */\n      add\n        /* \"#utility.yul\":4733:4761   */\n      and\n        /* \"#utility.yul\":4723:4761   */\n      swap1\n      pop\n        /* \"#utility.yul\":4665:4767   */\n      swap2\n      swap1\n      pop\n      jump\t// out\n        /* \"#utility.yul\":4773:4895   */\n    tag_27:\n        /* \"#utility.yul\":4846:4870   */\n      tag_98\n        /* \"#utility.yul\":4864:4869   */\n      dup2\n        /* \"#utility.yul\":4846:4870   */\n      tag_58\n      jump\t// in\n    tag_98:\n        /* \"#utility.yul\":4839:4844   */\n      dup2\n        /* \"#utility.yul\":4836:4871   */\n      eq\n        /* \"#utility.yul\":4826:4889   */\n      tag_99\n      jumpi\n        /* \"#utility.yul\":4885:4886   */\n      0x00\n        /* \"#utility.yul\":4882:4883   */\n      dup1\n        /* \"#utility.yul\":4875:4887   */\n      revert\n        /* \"#utility.yul\":4826:4889   */\n    tag_99:\n        /* \"#utility.yul\":4773:4895   */\n      pop\n      jump\t// out\n\n    auxdata: 0xa264697066735822122008c497138e37330ca19eeb1222c2b8170d2d294a7a95b75683a3f73cbb45be1364736f6c63430008070033\n}\n",
				"bytecode": {
					"linkReferences": {},
					"object": "608060405234801561001057600080fd5b50610485806100206000396000f3fe608060405234801561001057600080fd5b50600436106100365760003560e01c8063571a26a01461003b5780638da5cb5b14610072575b600080fd5b610055600480360381019061005091906101d6565b610090565b604051610069989796959493929190610293565b60405180910390f35b61007a61019d565b6040516100879190610278565b60405180910390f35b600181815481106100a057600080fd5b90600052602060002090600802016000915090508060000160009054906101000a900473ffffffffffffffffffffffffffffffffffffffff1690806001015490806002015490806003015490806004015490806005015490806006018054610107906103c1565b80601f0160208091040260200160405190810160405280929190818152602001828054610133906103c1565b80156101805780601f1061015557610100808354040283529160200191610180565b820191906000526020600020905b81548152906001019060200180831161016357829003601f168201915b5050505050908060070160009054906101000a900460ff16905088565b60008054906101000a900473ffffffffffffffffffffffffffffffffffffffff1681565b6000813590506101d081610438565b92915050565b6000602082840312156101ec576101eb610422565b5b60006101fa848285016101c1565b91505092915050565b61020c81610346565b82525050565b61021b81610334565b82525050565b61022a81610358565b82525050565b600061023b82610318565b6102458185610323565b935061025581856020860161038e565b61025e81610427565b840191505092915050565b61027281610384565b82525050565b600060208201905061028d6000830184610212565b92915050565b6000610100820190506102a9600083018b610203565b6102b6602083018a610269565b6102c36040830189610269565b6102d06060830188610269565b6102dd6080830187610269565b6102ea60a0830186610269565b81810360c08301526102fc8185610230565b905061030b60e0830184610221565b9998505050505050505050565b600081519050919050565b600082825260208201905092915050565b600061033f82610364565b9050919050565b600061035182610364565b9050919050565b60008115159050919050565b600073ffffffffffffffffffffffffffffffffffffffff82169050919050565b6000819050919050565b60005b838110156103ac578082015181840152602081019050610391565b838111156103bb576000848401525b50505050565b600060028204905060018216806103d957607f821691505b602082108114156103ed576103ec6103f3565b5b50919050565b7f4e487b7100000000000000000000000000000000000000000000000000000000600052602260045260246000fd5b600080fd5b6000601f19601f8301169050919050565b61044181610384565b811461044c57600080fd5b5056fea264697066735822122008c497138e37330ca19eeb1222c2b8170d2d294a7a95b75683a3f73cbb45be1364736f6c63430008070033",
					"opcodes": "PUSH1 0x80 PUSH1 0x40 MSTORE CALLVALUE DUP1 ISZERO PUSH2 0x10 JUMPI PUSH1 0x0 DUP1 REVERT JUMPDEST POP PUSH2 0x485 DUP1 PUSH2 0x20 PUSH1 0x0 CODECOPY PUSH1 0x0 RETURN INVALID PUSH1 0x80 PUSH1 0x40 MSTORE CALLVALUE DUP1 ISZERO PUSH2 0x10 JUMPI PUSH1 0x0 DUP1 REVERT JUMPDEST POP PUSH1 0x4 CALLDATASIZE LT PUSH2 0x36 JUMPI PUSH1 0x0 CALLDATALOAD PUSH1 0xE0 SHR DUP1 PUSH4 0x571A26A0 EQ PUSH2 0x3B JUMPI DUP1 PUSH4 0x8DA5CB5B EQ PUSH2 0x72 JUMPI JUMPDEST PUSH1 0x0 DUP1 REVERT JUMPDEST PUSH2 0x55 PUSH1 0x4 DUP1 CALLDATASIZE SUB DUP2 ADD SWAP1 PUSH2 0x50 SWAP2 SWAP1 PUSH2 0x1D6 JUMP JUMPDEST PUSH2 0x90 JUMP JUMPDEST PUSH1 0x40 MLOAD PUSH2 0x69 SWAP9 SWAP8 SWAP7 SWAP6 SWAP5 SWAP4 SWAP3 SWAP2 SWAP1 PUSH2 0x293 JUMP JUMPDEST PUSH1 0x40 MLOAD DUP1 SWAP2 SUB SWAP1 RETURN JUMPDEST PUSH2 0x7A PUSH2 0x19D JUMP JUMPDEST PUSH1 0x40 MLOAD PUSH2 0x87 SWAP2 SWAP1 PUSH2 0x278 JUMP JUMPDEST PUSH1 0x40 MLOAD DUP1 SWAP2 SUB SWAP1 RETURN JUMPDEST PUSH1 0x1 DUP2 DUP2 SLOAD DUP2 LT PUSH2 0xA0 JUMPI PUSH1 0x0 DUP1 REVERT JUMPDEST SWAP1 PUSH1 0x0 MSTORE PUSH1 0x20 PUSH1 0x0 KECCAK256 SWAP1 PUSH1 0x8 MUL ADD PUSH1 0x0 SWAP2 POP SWAP1 POP DUP1 PUSH1 0x0 ADD PUSH1 0x0 SWAP1 SLOAD SWAP1 PUSH2 0x100 EXP SWAP1 DIV PUSH20 0xFFFFFFFFFFFFFFFFFFFFFFFFFFFFFFFFFFFFFFFF AND SWAP1 DUP1 PUSH1 0x1 ADD SLOAD SWAP1 DUP1 PUSH1 0x2 ADD SLOAD SWAP1 DUP1 PUSH1 0x3 ADD SLOAD SWAP1 DUP1 PUSH1 0x4 ADD SLOAD SWAP1 DUP1 PUSH1 0x5 ADD SLOAD SWAP1 DUP1 PUSH1 0x6 ADD DUP1 SLOAD PUSH2 0x107 SWAP1 PUSH2 0x3C1 JUMP JUMPDEST DUP1 PUSH1 0x1F ADD PUSH1 0x20 DUP1 SWAP2 DIV MUL PUSH1 0x20 ADD PUSH1 0x40 MLOAD SWAP1 DUP2 ADD PUSH1 0x40 MSTORE DUP1 SWAP3 SWAP2 SWAP1 DUP2 DUP2 MSTORE PUSH1 0x20 ADD DUP3 DUP1 SLOAD PUSH2 0x133 SWAP1 PUSH2 0x3C1 JUMP JUMPDEST DUP1 ISZERO PUSH2 0x180 JUMPI DUP1 PUSH1 0x1F LT PUSH2 0x155 JUMPI PUSH2 0x100 DUP1 DUP4 SLOAD DIV MUL DUP4 MSTORE SWAP2 PUSH1 0x20 ADD SWAP2 PUSH2 0x180 JUMP JUMPDEST DUP3 ADD SWAP2 SWAP1 PUSH1 0x0 MSTORE PUSH1 0x20 PUSH1 0x0 KECCAK256 SWAP1 JUMPDEST DUP2 SLOAD DUP2 MSTORE SWAP1 PUSH1 0x1 ADD SWAP1 PUSH1 0x20 ADD DUP1 DUP4 GT PUSH2 0x163 JUMPI DUP3 SWAP1 SUB PUSH1 0x1F AND DUP3 ADD SWAP2 JUMPDEST POP POP POP POP POP SWAP1 DUP1 PUSH1 0x7 ADD PUSH1 0x0 SWAP1 SLOAD SWAP1 PUSH2 0x100 EXP SWAP1 DIV PUSH1 0xFF AND SWAP1 POP DUP9 JUMP JUMPDEST PUSH1 0x0 DUP1 SLOAD SWAP1 PUSH2 0x100 EXP SWAP1 DIV PUSH20 0xFFFFFFFFFFFFFFFFFFFFFFFFFFFFFFFFFFFFFFFF AND DUP2 JUMP JUMPDEST PUSH1 0x0 DUP2 CALLDATALOAD SWAP1 POP PUSH2 0x1D0 DUP2 PUSH2 0x438 JUMP JUMPDEST SWAP3 SWAP2 POP POP JUMP JUMPDEST PUSH1 0x0 PUSH1 0x20 DUP3 DUP5 SUB SLT ISZERO PUSH2 0x1EC JUMPI PUSH2 0x1EB PUSH2 0x422 JUMP JUMPDEST JUMPDEST PUSH1 0x0 PUSH2 0x1FA DUP5 DUP3 DUP6 ADD PUSH2 0x1C1 JUMP JUMPDEST SWAP2 POP POP SWAP3 SWAP2 POP POP JUMP JUMPDEST PUSH2 0x20C DUP2 PUSH2 0x346 JUMP JUMPDEST DUP3 MSTORE POP POP JUMP JUMPDEST PUSH2 0x21B DUP2 PUSH2 0x334 JUMP JUMPDEST DUP3 MSTORE POP POP JUMP JUMPDEST PUSH2 0x22A DUP2 PUSH2 0x358 JUMP JUMPDEST DUP3 MSTORE POP POP JUMP JUMPDEST PUSH1 0x0 PUSH2 0x23B DUP3 PUSH2 0x318 JUMP JUMPDEST PUSH2 0x245 DUP2 DUP6 PUSH2 0x323 JUMP JUMPDEST SWAP4 POP PUSH2 0x255 DUP2 DUP6 PUSH1 0x20 DUP7 ADD PUSH2 0x38E JUMP JUMPDEST PUSH2 0x25E DUP2 PUSH2 0x427 JUMP JUMPDEST DUP5 ADD SWAP2 POP POP SWAP3 SWAP2 POP POP JUMP JUMPDEST PUSH2 0x272 DUP2 PUSH2 0x384 JUMP JUMPDEST DUP3 MSTORE POP POP JUMP JUMPDEST PUSH1 0x0 PUSH1 0x20 DUP3 ADD SWAP1 POP PUSH2 0x28D PUSH1 0x0 DUP4 ADD DUP5 PUSH2 0x212 JUMP JUMPDEST SWAP3 SWAP2 POP POP JUMP JUMPDEST PUSH1 0x0 PUSH2 0x100 DUP3 ADD SWAP1 POP PUSH2 0x2A9 PUSH1 0x0 DUP4 ADD DUP12 PUSH2 0x203 JUMP JUMPDEST PUSH2 0x2B6 PUSH1 0x20 DUP4 ADD DUP11 PUSH2 0x269 JUMP JUMPDEST PUSH2 0x2C3 PUSH1 0x40 DUP4 ADD DUP10 PUSH2 0x269 JUMP JUMPDEST PUSH2 0x2D0 PUSH1 0x60 DUP4 ADD DUP9 PUSH2 0x269 JUMP JUMPDEST PUSH2 0x2DD PUSH1 0x80 DUP4 ADD DUP8 PUSH2 0x269 JUMP JUMPDEST PUSH2 0x2EA PUSH1 0xA0 DUP4 ADD DUP7 PUSH2 0x269 JUMP JUMPDEST DUP2 DUP2 SUB PUSH1 0xC0 DUP4 ADD MSTORE PUSH2 0x2FC DUP2 DUP6 PUSH2 0x230 JUMP JUMPDEST SWAP1 POP PUSH2 0x30B PUSH1 0xE0 DUP4 ADD DUP5 PUSH2 0x221 JUMP JUMPDEST SWAP10 SWAP9 POP POP POP POP POP POP POP POP POP JUMP JUMPDEST PUSH1 0x0 DUP2 MLOAD SWAP1 POP SWAP2 SWAP1 POP JUMP JUMPDEST PUSH1 0x0 DUP3 DUP3 MSTORE PUSH1 0x20 DUP3 ADD SWAP1 POP SWAP3 SWAP2 POP POP JUMP JUMPDEST PUSH1 0x0 PUSH2 0x33F DUP3 PUSH2 0x364 JUMP JUMPDEST SWAP1 POP SWAP2 SWAP1 POP JUMP JUMPDEST PUSH1 0x0 PUSH2 0x351 DUP3 PUSH2 0x364 JUMP JUMPDEST SWAP1 POP SWAP2 SWAP1 POP JUMP JUMPDEST PUSH1 0x0 DUP2 ISZERO ISZERO SWAP1 POP SWAP2 SWAP1 POP JUMP JUMPDEST PUSH1 0x0 PUSH20 0xFFFFFFFFFFFFFFFFFFFFFFFFFFFFFFFFFFFFFFFF DUP3 AND SWAP1 POP SWAP2 SWAP1 POP JUMP JUMPDEST PUSH1 0x0 DUP2 SWAP1 POP SWAP2 SWAP1 POP JUMP JUMPDEST PUSH1 0x0 JUMPDEST DUP4 DUP2 LT ISZERO PUSH2 0x3AC JUMPI DUP1 DUP3 ADD MLOAD DUP2 DUP5 ADD MSTORE PUSH1 0x20 DUP2 ADD SWAP1 POP PUSH2 0x391 JUMP JUMPDEST DUP4 DUP2 GT ISZERO PUSH2 0x3BB JUMPI PUSH1 0x0 DUP5 DUP5 ADD MSTORE JUMPDEST POP POP POP POP JUMP JUMPDEST PUSH1 0x0 PUSH1 0x2 DUP3 DIV SWAP1 POP PUSH1 0x1 DUP3 AND DUP1 PUSH2 0x3D9 JUMPI PUSH1 0x7F DUP3 AND SWAP2 POP JUMPDEST PUSH1 0x20 DUP3 LT DUP2 EQ ISZERO PUSH2 0x3ED JUMPI PUSH2 0x3EC PUSH2 0x3F3 JUMP JUMPDEST JUMPDEST POP SWAP2 SWAP1 POP JUMP JUMPDEST PUSH32 0x4E487B7100000000000000000000000000000000000000000000000000000000 PUSH1 0x0 MSTORE PUSH1 0x22 PUSH1 0x4 MSTORE PUSH1 0x24 PUSH1 0x0 REVERT JUMPDEST PUSH1 0x0 DUP1 REVERT JUMPDEST PUSH1 0x0 PUSH1 0x1F NOT PUSH1 0x1F DUP4 ADD AND SWAP1 POP SWAP2 SWAP1 POP JUMP JUMPDEST PUSH2 0x441 DUP2 PUSH2 0x384 JUMP JUMPDEST DUP2 EQ PUSH2 0x44C JUMPI PUSH1 0x0 DUP1 REVERT JUMPDEST POP JUMP INVALID LOG2 PUSH5 0x6970667358 0x22 SLT KECCAK256 ADDMOD 0xC4 SWAP8 SGT DUP15 CALLDATACOPY CALLER 0xC LOG1 SWAP15 0xEB SLT 0x22 0xC2 0xB8 OR 0xD 0x2D 0x29 0x4A PUSH27 0x95B75683A3F73CBB45BE1364736F6C634300080700330000000000 "
				},
				"gasEstimates": {
					"creation": {
						"codeDepositCost": "231400",
						"executionCost": "275",
						"totalCost": "231675"
					},
					"external": {
						"auctions(uint256)": "infinite",
						"owner()": "2511"
					}
				},
				"methodIdentifiers": {
					"auctions(uint256)": "571a26a0",
					"owner()": "8da5cb5b"
				}
			},
			"storageLayout": {
				"storage": [
					{
						"astId": 3,
						"contract": "contracts/Lesson_5.sol:AucEngine",
						"label": "owner",
						"offset": 0,
						"slot": "0",
						"type": "t_address"
					},
					{
						"astId": 30,
						"contract": "contracts/Lesson_5.sol:AucEngine",
						"label": "auctions",
						"offset": 0,
						"slot": "1",
						"type": "t_array(t_struct(Auction)26_storage)dyn_storage"
					}
				],
				"types": {
					"t_address": {
						"encoding": "inplace",
						"label": "address",
						"numberOfBytes": "20"
					},
					"t_address_payable": {
						"encoding": "inplace",
						"label": "address payable",
						"numberOfBytes": "20"
					},
					"t_array(t_struct(Auction)26_storage)dyn_storage": {
						"base": "t_struct(Auction)26_storage",
						"encoding": "dynamic_array",
						"label": "struct AucEngine.Auction[]",
						"numberOfBytes": "32"
					},
					"t_bool": {
						"encoding": "inplace",
						"label": "bool",
						"numberOfBytes": "1"
					},
					"t_string_storage": {
						"encoding": "bytes",
						"label": "string",
						"numberOfBytes": "32"
					},
					"t_struct(Auction)26_storage": {
						"encoding": "inplace",
						"label": "struct AucEngine.Auction",
						"members": [
							{
								"astId": 11,
								"contract": "contracts/Lesson_5.sol:AucEngine",
								"label": "seller",
								"offset": 0,
								"slot": "0",
								"type": "t_address_payable"
							},
							{
								"astId": 13,
								"contract": "contracts/Lesson_5.sol:AucEngine",
								"label": "startingPrice",
								"offset": 0,
								"slot": "1",
								"type": "t_uint256"
							},
							{
								"astId": 15,
								"contract": "contracts/Lesson_5.sol:AucEngine",
								"label": "finalPrice",
								"offset": 0,
								"slot": "2",
								"type": "t_uint256"
							},
							{
								"astId": 17,
								"contract": "contracts/Lesson_5.sol:AucEngine",
								"label": "startsAt",
								"offset": 0,
								"slot": "3",
								"type": "t_uint256"
							},
							{
								"astId": 19,
								"contract": "contracts/Lesson_5.sol:AucEngine",
								"label": "endsAt",
								"offset": 0,
								"slot": "4",
								"type": "t_uint256"
							},
							{
								"astId": 21,
								"contract": "contracts/Lesson_5.sol:AucEngine",
								"label": "dicountRate",
								"offset": 0,
								"slot": "5",
								"type": "t_uint256"
							},
							{
								"astId": 23,
								"contract": "contracts/Lesson_5.sol:AucEngine",
								"label": "item",
								"offset": 0,
								"slot": "6",
								"type": "t_string_storage"
							},
							{
								"astId": 25,
								"contract": "contracts/Lesson_5.sol:AucEngine",
								"label": "stopped",
								"offset": 0,
								"slot": "7",
								"type": "t_bool"
							}
						],
						"numberOfBytes": "256"
					},
					"t_uint256": {
						"encoding": "inplace",
						"label": "uint256",
						"numberOfBytes": "32"
					}
				}
			},
			"userdoc": {
				"kind": "user",
				"methods": {},
				"version": 1
			}
		}
	}
}