{
	"contracts/Lesson_5.sol": {
		"AucEngine": {
			"abi": [
				{
					"inputs": [],
					"stateMutability": "nonpayable",
					"type": "constructor"
				},
				{
					"anonymous": false,
					"inputs": [
						{
							"indexed": false,
							"internalType": "uint256",
							"name": "index",
							"type": "uint256"
						},
						{
							"indexed": false,
							"internalType": "string",
							"name": "itemName",
							"type": "string"
						},
						{
							"indexed": false,
							"internalType": "uint256",
							"name": "startingprice",
							"type": "uint256"
						},
						{
							"indexed": false,
							"internalType": "uint256",
							"name": "duration",
							"type": "uint256"
						}
					],
					"name": "AuctionCreated",
					"type": "event"
				},
				{
					"inputs": [
						{
							"internalType": "uint256",
							"name": "",
							"type": "uint256"
						}
					],
					"name": "auctions",
					"outputs": [
						{
							"internalType": "address payable",
							"name": "seller",
							"type": "address"
						},
						{
							"internalType": "uint256",
							"name": "startingPrice",
							"type": "uint256"
						},
						{
							"internalType": "uint256",
							"name": "finalPrice",
							"type": "uint256"
						},
						{
							"internalType": "uint256",
							"name": "startsAt",
							"type": "uint256"
						},
						{
							"internalType": "uint256",
							"name": "endsAt",
							"type": "uint256"
						},
						{
							"internalType": "uint256",
							"name": "discountRate",
							"type": "uint256"
						},
						{
							"internalType": "string",
							"name": "item",
							"type": "string"
						},
						{
							"internalType": "bool",
							"name": "stopped",
							"type": "bool"
						}
					],
					"stateMutability": "view",
					"type": "function"
				},
				{
					"inputs": [
						{
							"internalType": "uint256",
							"name": "index",
							"type": "uint256"
						}
					],
					"name": "buy",
					"outputs": [],
					"stateMutability": "payable",
					"type": "function"
				},
				{
					"inputs": [
						{
							"internalType": "uint256",
							"name": "_startingPrice",
							"type": "uint256"
						},
						{
							"internalType": "uint256",
							"name": "_discountRate",
							"type": "uint256"
						},
						{
							"internalType": "string",
							"name": "_item",
							"type": "string"
						},
						{
							"internalType": "uint256",
							"name": "_duration",
							"type": "uint256"
						}
					],
					"name": "createAuction",
					"outputs": [],
					"stateMutability": "nonpayable",
					"type": "function"
				},
				{
					"inputs": [
						{
							"internalType": "uint256",
							"name": "index",
							"type": "uint256"
						}
					],
					"name": "getPriceFor",
					"outputs": [
						{
							"internalType": "uint256",
							"name": "",
							"type": "uint256"
						}
					],
					"stateMutability": "view",
					"type": "function"
				},
				{
					"inputs": [],
					"name": "owner",
					"outputs": [
						{
							"internalType": "address",
							"name": "",
							"type": "address"
						}
					],
					"stateMutability": "view",
					"type": "function"
				}
			],
			"devdoc": {
				"kind": "dev",
				"methods": {},
				"version": 1
			},
			"evm": {
				"assembly": "    /* \"contracts/Lesson_5.sol\":62:3729  contract AucEngine\r... */\n  mstore(0x40, 0x80)\n    /* \"contracts/Lesson_5.sol\":723:779  constructor()\r... */\n  callvalue\n  dup1\n  iszero\n  tag_1\n  jumpi\n  0x00\n  dup1\n  revert\ntag_1:\n  pop\n    /* \"contracts/Lesson_5.sol\":761:771  msg.sender */\n  caller\n    /* \"contracts/Lesson_5.sol\":753:758  owner */\n  0x00\n  dup1\n    /* \"contracts/Lesson_5.sol\":753:771  owner = msg.sender */\n  0x0100\n  exp\n  dup2\n  sload\n  dup2\n  0xffffffffffffffffffffffffffffffffffffffff\n  mul\n  not\n  and\n  swap1\n  dup4\n  0xffffffffffffffffffffffffffffffffffffffff\n  and\n  mul\n  or\n  swap1\n  sstore\n  pop\n    /* \"contracts/Lesson_5.sol\":62:3729  contract AucEngine\r... */\n  dataSize(sub_0)\n  dup1\n  dataOffset(sub_0)\n  0x00\n  codecopy\n  0x00\n  return\nstop\n\nsub_0: assembly {\n        /* \"contracts/Lesson_5.sol\":62:3729  contract AucEngine\r... */\n      mstore(0x40, 0x80)\n      jumpi(tag_1, lt(calldatasize, 0x04))\n      shr(0xe0, calldataload(0x00))\n      dup1\n      0x4534cd9c\n      eq\n      tag_2\n      jumpi\n      dup1\n      0x571a26a0\n      eq\n      tag_3\n      jumpi\n      dup1\n      0x8da5cb5b\n      eq\n      tag_4\n      jumpi\n      dup1\n      0xd96a094a\n      eq\n      tag_5\n      jumpi\n      dup1\n      0xe9835d15\n      eq\n      tag_6\n      jumpi\n    tag_1:\n      0x00\n      dup1\n      revert\n        /* \"contracts/Lesson_5.sol\":2020:2928  function getPriceFor(uint index) public view returns(uint)\r... */\n    tag_2:\n      callvalue\n      dup1\n      iszero\n      tag_7\n      jumpi\n      0x00\n      dup1\n      revert\n    tag_7:\n      pop\n      tag_8\n      0x04\n      dup1\n      calldatasize\n      sub\n      dup2\n      add\n      swap1\n      tag_9\n      swap2\n      swap1\n      tag_10\n      jump\t// in\n    tag_9:\n      tag_11\n      jump\t// in\n    tag_8:\n      mload(0x40)\n      tag_12\n      swap2\n      swap1\n      tag_13\n      jump\t// in\n    tag_12:\n      mload(0x40)\n      dup1\n      swap2\n      sub\n      swap1\n      return\n        /* \"contracts/Lesson_5.sol\":540:565  Auction[] public auctions */\n    tag_3:\n      callvalue\n      dup1\n      iszero\n      tag_14\n      jumpi\n      0x00\n      dup1\n      revert\n    tag_14:\n      pop\n      tag_15\n      0x04\n      dup1\n      calldatasize\n      sub\n      dup2\n      add\n      swap1\n      tag_16\n      swap2\n      swap1\n      tag_10\n      jump\t// in\n    tag_16:\n      tag_17\n      jump\t// in\n    tag_15:\n      mload(0x40)\n      tag_18\n      swap9\n      swap8\n      swap7\n      swap6\n      swap5\n      swap4\n      swap3\n      swap2\n      swap1\n      tag_19\n      jump\t// in\n    tag_18:\n      mload(0x40)\n      dup1\n      swap2\n      sub\n      swap1\n      return\n        /* \"contracts/Lesson_5.sol\":89:109  address public owner */\n    tag_4:\n      callvalue\n      dup1\n      iszero\n      tag_20\n      jumpi\n      0x00\n      dup1\n      revert\n    tag_20:\n      pop\n      tag_21\n      tag_22\n      jump\t// in\n    tag_21:\n      mload(0x40)\n      tag_23\n      swap2\n      swap1\n      tag_24\n      jump\t// in\n    tag_23:\n      mload(0x40)\n      dup1\n      swap2\n      sub\n      swap1\n      return\n        /* \"contracts/Lesson_5.sol\":2936:3726  function buy(uint index) external payable \r... */\n    tag_5:\n      tag_25\n      0x04\n      dup1\n      calldatasize\n      sub\n      dup2\n      add\n      swap1\n      tag_26\n      swap2\n      swap1\n      tag_10\n      jump\t// in\n    tag_26:\n      tag_27\n      jump\t// in\n    tag_25:\n      stop\n        /* \"contracts/Lesson_5.sol\":852:2012  function createAuction(uint _startingPrice, uint _discountRate, string calldata _item, uint _duration) external \r... */\n    tag_6:\n      callvalue\n      dup1\n      iszero\n      tag_28\n      jumpi\n      0x00\n      dup1\n      revert\n    tag_28:\n      pop\n      tag_29\n      0x04\n      dup1\n      calldatasize\n      sub\n      dup2\n      add\n      swap1\n      tag_30\n      swap2\n      swap1\n      tag_31\n      jump\t// in\n    tag_30:\n      tag_32\n      jump\t// in\n    tag_29:\n      stop\n        /* \"contracts/Lesson_5.sol\":2020:2928  function getPriceFor(uint index) public view returns(uint)\r... */\n    tag_11:\n        /* \"contracts/Lesson_5.sol\":2073:2077  uint */\n      0x00\n        /* \"contracts/Lesson_5.sol\":2264:2293  Auction memory currentAuction */\n      dup1\n        /* \"contracts/Lesson_5.sol\":2296:2304  auctions */\n      0x01\n        /* \"contracts/Lesson_5.sol\":2305:2310  index */\n      dup4\n        /* \"contracts/Lesson_5.sol\":2296:2311  auctions[index] */\n      dup2\n      sload\n      dup2\n      lt\n      tag_34\n      jumpi\n      tag_35\n      tag_36\n      jump\t// in\n    tag_35:\n    tag_34:\n      swap1\n      0x00\n      mstore\n      keccak256(0x00, 0x20)\n      swap1\n      0x08\n      mul\n      add\n        /* \"contracts/Lesson_5.sol\":2264:2311  Auction memory currentAuction = auctions[index] */\n      mload(0x40)\n      dup1\n      0x0100\n      add\n      0x40\n      mstore\n      swap1\n      dup2\n      0x00\n      dup3\n      add\n      0x00\n      swap1\n      sload\n      swap1\n      0x0100\n      exp\n      swap1\n      div\n      0xffffffffffffffffffffffffffffffffffffffff\n      and\n      0xffffffffffffffffffffffffffffffffffffffff\n      and\n      0xffffffffffffffffffffffffffffffffffffffff\n      and\n      dup2\n      mstore\n      0x20\n      add\n      0x01\n      dup3\n      add\n      sload\n      dup2\n      mstore\n      0x20\n      add\n      0x02\n      dup3\n      add\n      sload\n      dup2\n      mstore\n      0x20\n      add\n      0x03\n      dup3\n      add\n      sload\n      dup2\n      mstore\n      0x20\n      add\n      0x04\n      dup3\n      add\n      sload\n      dup2\n      mstore\n      0x20\n      add\n      0x05\n      dup3\n      add\n      sload\n      dup2\n      mstore\n      0x20\n      add\n      0x06\n      dup3\n      add\n      dup1\n      sload\n      tag_38\n      swap1\n      tag_39\n      jump\t// in\n    tag_38:\n      dup1\n      0x1f\n      add\n      0x20\n      dup1\n      swap2\n      div\n      mul\n      0x20\n      add\n      mload(0x40)\n      swap1\n      dup2\n      add\n      0x40\n      mstore\n      dup1\n      swap3\n      swap2\n      swap1\n      dup2\n      dup2\n      mstore\n      0x20\n      add\n      dup3\n      dup1\n      sload\n      tag_40\n      swap1\n      tag_39\n      jump\t// in\n    tag_40:\n      dup1\n      iszero\n      tag_41\n      jumpi\n      dup1\n      0x1f\n      lt\n      tag_42\n      jumpi\n      0x0100\n      dup1\n      dup4\n      sload\n      div\n      mul\n      dup4\n      mstore\n      swap2\n      0x20\n      add\n      swap2\n      jump(tag_41)\n    tag_42:\n      dup3\n      add\n      swap2\n      swap1\n      0x00\n      mstore\n      keccak256(0x00, 0x20)\n      swap1\n    tag_43:\n      dup2\n      sload\n      dup2\n      mstore\n      swap1\n      0x01\n      add\n      swap1\n      0x20\n      add\n      dup1\n      dup4\n      gt\n      tag_43\n      jumpi\n      dup3\n      swap1\n      sub\n      0x1f\n      and\n      dup3\n      add\n      swap2\n    tag_41:\n      pop\n      pop\n      pop\n      pop\n      pop\n      dup2\n      mstore\n      0x20\n      add\n      0x07\n      dup3\n      add\n      0x00\n      swap1\n      sload\n      swap1\n      0x0100\n      exp\n      swap1\n      div\n      0xff\n      and\n      iszero\n      iszero\n      iszero\n      iszero\n      dup2\n      mstore\n      pop\n      pop\n      swap1\n      pop\n        /* \"contracts/Lesson_5.sol\":2419:2433  currentAuction */\n      dup1\n        /* \"contracts/Lesson_5.sol\":2419:2441  currentAuction.stopped */\n      0xe0\n      add\n      mload\n        /* \"contracts/Lesson_5.sol\":2418:2441  !currentAuction.stopped */\n      iszero\n        /* \"contracts/Lesson_5.sol\":2410:2465  require(!currentAuction.stopped, \"Auction is stopped.\") */\n      tag_44\n      jumpi\n      mload(0x40)\n      0x08c379a000000000000000000000000000000000000000000000000000000000\n      dup2\n      mstore\n      0x04\n      add\n      tag_45\n      swap1\n      tag_46\n      jump\t// in\n    tag_45:\n      mload(0x40)\n      dup1\n      swap2\n      sub\n      swap1\n      revert\n    tag_44:\n        /* \"contracts/Lesson_5.sol\":2591:2603  uint elapsed */\n      0x00\n        /* \"contracts/Lesson_5.sol\":2624:2638  currentAuction */\n      dup2\n        /* \"contracts/Lesson_5.sol\":2624:2647  currentAuction.startsAt */\n      0x60\n      add\n      mload\n        /* \"contracts/Lesson_5.sol\":2606:2621  block.timestamp */\n      timestamp\n        /* \"contracts/Lesson_5.sol\":2606:2647  block.timestamp - currentAuction.startsAt */\n      tag_47\n      swap2\n      swap1\n      tag_48\n      jump\t// in\n    tag_47:\n        /* \"contracts/Lesson_5.sol\":2591:2647  uint elapsed = block.timestamp - currentAuction.startsAt */\n      swap1\n      pop\n        /* \"contracts/Lesson_5.sol\":2739:2752  uint discount */\n      0x00\n        /* \"contracts/Lesson_5.sol\":2785:2792  elapsed */\n      dup2\n        /* \"contracts/Lesson_5.sol\":2755:2769  currentAuction */\n      dup4\n        /* \"contracts/Lesson_5.sol\":2755:2782  currentAuction.discountRate */\n      0xa0\n      add\n      mload\n        /* \"contracts/Lesson_5.sol\":2755:2792  currentAuction.discountRate * elapsed */\n      tag_49\n      swap2\n      swap1\n      tag_50\n      jump\t// in\n    tag_49:\n        /* \"contracts/Lesson_5.sol\":2739:2792  uint discount = currentAuction.discountRate * elapsed */\n      swap1\n      pop\n        /* \"contracts/Lesson_5.sol\":2912:2920  discount */\n      dup1\n        /* \"contracts/Lesson_5.sol\":2881:2895  currentAuction */\n      dup4\n        /* \"contracts/Lesson_5.sol\":2881:2909  currentAuction.startingPrice */\n      0x20\n      add\n      mload\n        /* \"contracts/Lesson_5.sol\":2881:2920  currentAuction.startingPrice - discount */\n      tag_51\n      swap2\n      swap1\n      tag_48\n      jump\t// in\n    tag_51:\n        /* \"contracts/Lesson_5.sol\":2874:2920  return currentAuction.startingPrice - discount */\n      swap4\n      pop\n      pop\n      pop\n      pop\n        /* \"contracts/Lesson_5.sol\":2020:2928  function getPriceFor(uint index) public view returns(uint)\r... */\n      swap2\n      swap1\n      pop\n      jump\t// out\n        /* \"contracts/Lesson_5.sol\":540:565  Auction[] public auctions */\n    tag_17:\n      0x01\n      dup2\n      dup2\n      sload\n      dup2\n      lt\n      tag_52\n      jumpi\n      0x00\n      dup1\n      revert\n    tag_52:\n      swap1\n      0x00\n      mstore\n      keccak256(0x00, 0x20)\n      swap1\n      0x08\n      mul\n      add\n      0x00\n      swap2\n      pop\n      swap1\n      pop\n      dup1\n      0x00\n      add\n      0x00\n      swap1\n      sload\n      swap1\n      0x0100\n      exp\n      swap1\n      div\n      0xffffffffffffffffffffffffffffffffffffffff\n      and\n      swap1\n      dup1\n      0x01\n      add\n      sload\n      swap1\n      dup1\n      0x02\n      add\n      sload\n      swap1\n      dup1\n      0x03\n      add\n      sload\n      swap1\n      dup1\n      0x04\n      add\n      sload\n      swap1\n      dup1\n      0x05\n      add\n      sload\n      swap1\n      dup1\n      0x06\n      add\n      dup1\n      sload\n      tag_54\n      swap1\n      tag_39\n      jump\t// in\n    tag_54:\n      dup1\n      0x1f\n      add\n      0x20\n      dup1\n      swap2\n      div\n      mul\n      0x20\n      add\n      mload(0x40)\n      swap1\n      dup2\n      add\n      0x40\n      mstore\n      dup1\n      swap3\n      swap2\n      swap1\n      dup2\n      dup2\n      mstore\n      0x20\n      add\n      dup3\n      dup1\n      sload\n      tag_55\n      swap1\n      tag_39\n      jump\t// in\n    tag_55:\n      dup1\n      iszero\n      tag_56\n      jumpi\n      dup1\n      0x1f\n      lt\n      tag_57\n      jumpi\n      0x0100\n      dup1\n      dup4\n      sload\n      div\n      mul\n      dup4\n      mstore\n      swap2\n      0x20\n      add\n      swap2\n      jump(tag_56)\n    tag_57:\n      dup3\n      add\n      swap2\n      swap1\n      0x00\n      mstore\n      keccak256(0x00, 0x20)\n      swap1\n    tag_58:\n      dup2\n      sload\n      dup2\n      mstore\n      swap1\n      0x01\n      add\n      swap1\n      0x20\n      add\n      dup1\n      dup4\n      gt\n      tag_58\n      jumpi\n      dup3\n      swap1\n      sub\n      0x1f\n      and\n      dup3\n      add\n      swap2\n    tag_56:\n      pop\n      pop\n      pop\n      pop\n      pop\n      swap1\n      dup1\n      0x07\n      add\n      0x00\n      swap1\n      sload\n      swap1\n      0x0100\n      exp\n      swap1\n      div\n      0xff\n      and\n      swap1\n      pop\n      dup9\n      jump\t// out\n        /* \"contracts/Lesson_5.sol\":89:109  address public owner */\n    tag_22:\n      0x00\n      dup1\n      sload\n      swap1\n      0x0100\n      exp\n      swap1\n      div\n      0xffffffffffffffffffffffffffffffffffffffff\n      and\n      dup2\n      jump\t// out\n        /* \"contracts/Lesson_5.sol\":2936:3726  function buy(uint index) external payable \r... */\n    tag_27:\n        /* \"contracts/Lesson_5.sol\":3164:3193  Auction memory currentAuction */\n      0x00\n        /* \"contracts/Lesson_5.sol\":3196:3204  auctions */\n      0x01\n        /* \"contracts/Lesson_5.sol\":3205:3210  index */\n      dup3\n        /* \"contracts/Lesson_5.sol\":3196:3211  auctions[index] */\n      dup2\n      sload\n      dup2\n      lt\n      tag_60\n      jumpi\n      tag_61\n      tag_36\n      jump\t// in\n    tag_61:\n    tag_60:\n      swap1\n      0x00\n      mstore\n      keccak256(0x00, 0x20)\n      swap1\n      0x08\n      mul\n      add\n        /* \"contracts/Lesson_5.sol\":3164:3211  Auction memory currentAuction = auctions[index] */\n      mload(0x40)\n      dup1\n      0x0100\n      add\n      0x40\n      mstore\n      swap1\n      dup2\n      0x00\n      dup3\n      add\n      0x00\n      swap1\n      sload\n      swap1\n      0x0100\n      exp\n      swap1\n      div\n      0xffffffffffffffffffffffffffffffffffffffff\n      and\n      0xffffffffffffffffffffffffffffffffffffffff\n      and\n      0xffffffffffffffffffffffffffffffffffffffff\n      and\n      dup2\n      mstore\n      0x20\n      add\n      0x01\n      dup3\n      add\n      sload\n      dup2\n      mstore\n      0x20\n      add\n      0x02\n      dup3\n      add\n      sload\n      dup2\n      mstore\n      0x20\n      add\n      0x03\n      dup3\n      add\n      sload\n      dup2\n      mstore\n      0x20\n      add\n      0x04\n      dup3\n      add\n      sload\n      dup2\n      mstore\n      0x20\n      add\n      0x05\n      dup3\n      add\n      sload\n      dup2\n      mstore\n      0x20\n      add\n      0x06\n      dup3\n      add\n      dup1\n      sload\n      tag_63\n      swap1\n      tag_39\n      jump\t// in\n    tag_63:\n      dup1\n      0x1f\n      add\n      0x20\n      dup1\n      swap2\n      div\n      mul\n      0x20\n      add\n      mload(0x40)\n      swap1\n      dup2\n      add\n      0x40\n      mstore\n      dup1\n      swap3\n      swap2\n      swap1\n      dup2\n      dup2\n      mstore\n      0x20\n      add\n      dup3\n      dup1\n      sload\n      tag_64\n      swap1\n      tag_39\n      jump\t// in\n    tag_64:\n      dup1\n      iszero\n      tag_65\n      jumpi\n      dup1\n      0x1f\n      lt\n      tag_66\n      jumpi\n      0x0100\n      dup1\n      dup4\n      sload\n      div\n      mul\n      dup4\n      mstore\n      swap2\n      0x20\n      add\n      swap2\n      jump(tag_65)\n    tag_66:\n      dup3\n      add\n      swap2\n      swap1\n      0x00\n      mstore\n      keccak256(0x00, 0x20)\n      swap1\n    tag_67:\n      dup2\n      sload\n      dup2\n      mstore\n      swap1\n      0x01\n      add\n      swap1\n      0x20\n      add\n      dup1\n      dup4\n      gt\n      tag_67\n      jumpi\n      dup3\n      swap1\n      sub\n      0x1f\n      and\n      dup3\n      add\n      swap2\n    tag_65:\n      pop\n      pop\n      pop\n      pop\n      pop\n      dup2\n      mstore\n      0x20\n      add\n      0x07\n      dup3\n      add\n      0x00\n      swap1\n      sload\n      swap1\n      0x0100\n      exp\n      swap1\n      div\n      0xff\n      and\n      iszero\n      iszero\n      iszero\n      iszero\n      dup2\n      mstore\n      pop\n      pop\n      swap1\n      pop\n        /* \"contracts/Lesson_5.sol\":3319:3333  currentAuction */\n      dup1\n        /* \"contracts/Lesson_5.sol\":3319:3341  currentAuction.stopped */\n      0xe0\n      add\n      mload\n        /* \"contracts/Lesson_5.sol\":3318:3341  !currentAuction.stopped */\n      iszero\n        /* \"contracts/Lesson_5.sol\":3310:3365  require(!currentAuction.stopped, \"Auction is stopped.\") */\n      tag_68\n      jumpi\n      mload(0x40)\n      0x08c379a000000000000000000000000000000000000000000000000000000000\n      dup2\n      mstore\n      0x04\n      add\n      tag_69\n      swap1\n      tag_46\n      jump\t// in\n    tag_69:\n      mload(0x40)\n      dup1\n      swap2\n      sub\n      swap1\n      revert\n    tag_68:\n        /* \"contracts/Lesson_5.sol\":3508:3522  currentAuction */\n      dup1\n        /* \"contracts/Lesson_5.sol\":3508:3529  currentAuction.endsAt */\n      0x80\n      add\n      mload\n        /* \"contracts/Lesson_5.sol\":3490:3505  block.timestamp */\n      timestamp\n        /* \"contracts/Lesson_5.sol\":3490:3529  block.timestamp < currentAuction.endsAt */\n      lt\n        /* \"contracts/Lesson_5.sol\":3482:3552  require(block.timestamp < currentAuction.endsAt, \"Auction has ended.\") */\n      tag_70\n      jumpi\n      mload(0x40)\n      0x08c379a000000000000000000000000000000000000000000000000000000000\n      dup2\n      mstore\n      0x04\n      add\n      tag_71\n      swap1\n      tag_72\n      jump\t// in\n    tag_71:\n      mload(0x40)\n      dup1\n      swap2\n      sub\n      swap1\n      revert\n    tag_70:\n        /* \"contracts/Lesson_5.sol\":3680:3697  uint currentPrice */\n      0x00\n        /* \"contracts/Lesson_5.sol\":3700:3718  getPriceFor(index) */\n      tag_73\n        /* \"contracts/Lesson_5.sol\":3712:3717  index */\n      dup4\n        /* \"contracts/Lesson_5.sol\":3700:3711  getPriceFor */\n      tag_11\n        /* \"contracts/Lesson_5.sol\":3700:3718  getPriceFor(index) */\n      jump\t// in\n    tag_73:\n        /* \"contracts/Lesson_5.sol\":3680:3718  uint currentPrice = getPriceFor(index) */\n      swap1\n      pop\n        /* \"contracts/Lesson_5.sol\":2984:3726  {\r... */\n      pop\n      pop\n        /* \"contracts/Lesson_5.sol\":2936:3726  function buy(uint index) external payable \r... */\n      pop\n      jump\t// out\n        /* \"contracts/Lesson_5.sol\":852:2012  function createAuction(uint _startingPrice, uint _discountRate, string calldata _item, uint _duration) external \r... */\n    tag_32:\n        /* \"contracts/Lesson_5.sol\":1029:1042  uint duration */\n      0x00\n        /* \"contracts/Lesson_5.sol\":1058:1059  0 */\n      dup1\n        /* \"contracts/Lesson_5.sol\":1045:1054  _duration */\n      dup3\n        /* \"contracts/Lesson_5.sol\":1045:1059  _duration == 0 */\n      eq\n        /* \"contracts/Lesson_5.sol\":1045:1082  _duration == 0 ? DURATION : _duration */\n      tag_75\n      jumpi\n        /* \"contracts/Lesson_5.sol\":1073:1082  _duration */\n      dup2\n        /* \"contracts/Lesson_5.sol\":1045:1082  _duration == 0 ? DURATION : _duration */\n      jump(tag_76)\n    tag_75:\n        /* \"contracts/Lesson_5.sol\":141:147  2 days */\n      0x02a300\n        /* \"contracts/Lesson_5.sol\":1045:1082  _duration == 0 ? DURATION : _duration */\n    tag_76:\n        /* \"contracts/Lesson_5.sol\":1029:1082  uint duration = _duration == 0 ? DURATION : _duration */\n      swap1\n      pop\n        /* \"contracts/Lesson_5.sol\":1137:1146  _duration */\n      dup2\n        /* \"contracts/Lesson_5.sol\":1121:1134  _discountRate */\n      dup6\n        /* \"contracts/Lesson_5.sol\":1121:1146  _discountRate * _duration */\n      tag_77\n      swap2\n      swap1\n      tag_50\n      jump\t// in\n    tag_77:\n        /* \"contracts/Lesson_5.sol\":1103:1117  _startingPrice */\n      dup7\n        /* \"contracts/Lesson_5.sol\":1103:1146  _startingPrice >= _discountRate * _duration */\n      lt\n      iszero\n        /* \"contracts/Lesson_5.sol\":1095:1176  require(_startingPrice >= _discountRate * _duration, \"Incorrect starting price.\") */\n      tag_78\n      jumpi\n      mload(0x40)\n      0x08c379a000000000000000000000000000000000000000000000000000000000\n      dup2\n      mstore\n      0x04\n      add\n      tag_79\n      swap1\n      tag_80\n      jump\t// in\n    tag_79:\n      mload(0x40)\n      dup1\n      swap2\n      sub\n      swap1\n      revert\n    tag_78:\n        /* \"contracts/Lesson_5.sol\":1246:1271  Auction memory newAuction */\n      0x00\n        /* \"contracts/Lesson_5.sol\":1274:1607  Auction({\r... */\n      mload(0x40)\n      dup1\n      0x0100\n      add\n      0x40\n      mstore\n      dup1\n        /* \"contracts/Lesson_5.sol\":1313:1323  msg.sender */\n      caller\n        /* \"contracts/Lesson_5.sol\":1274:1607  Auction({\r... */\n      0xffffffffffffffffffffffffffffffffffffffff\n      and\n      dup2\n      mstore\n      0x20\n      add\n        /* \"contracts/Lesson_5.sol\":1354:1368  _startingPrice */\n      dup9\n        /* \"contracts/Lesson_5.sol\":1274:1607  Auction({\r... */\n      dup2\n      mstore\n      0x20\n      add\n        /* \"contracts/Lesson_5.sol\":1395:1409  _startingPrice */\n      dup9\n        /* \"contracts/Lesson_5.sol\":1274:1607  Auction({\r... */\n      dup2\n      mstore\n      0x20\n      add\n        /* \"contracts/Lesson_5.sol\":1476:1491  block.timestamp */\n      timestamp\n        /* \"contracts/Lesson_5.sol\":1274:1607  Auction({\r... */\n      dup2\n      mstore\n      0x20\n      add\n        /* \"contracts/Lesson_5.sol\":1532:1540  duration */\n      dup4\n        /* \"contracts/Lesson_5.sol\":1514:1529  block.timestamp */\n      timestamp\n        /* \"contracts/Lesson_5.sol\":1514:1540  block.timestamp + duration */\n      tag_81\n      swap2\n      swap1\n      tag_82\n      jump\t// in\n    tag_81:\n        /* \"contracts/Lesson_5.sol\":1274:1607  Auction({\r... */\n      dup2\n      mstore\n      0x20\n      add\n        /* \"contracts/Lesson_5.sol\":1438:1451  _discountRate */\n      dup8\n        /* \"contracts/Lesson_5.sol\":1274:1607  Auction({\r... */\n      dup2\n      mstore\n      0x20\n      add\n        /* \"contracts/Lesson_5.sol\":1561:1566  _item */\n      dup7\n      dup7\n        /* \"contracts/Lesson_5.sol\":1274:1607  Auction({\r... */\n      dup1\n      dup1\n      0x1f\n      add\n      0x20\n      dup1\n      swap2\n      div\n      mul\n      0x20\n      add\n      mload(0x40)\n      swap1\n      dup2\n      add\n      0x40\n      mstore\n      dup1\n      swap4\n      swap3\n      swap2\n      swap1\n      dup2\n      dup2\n      mstore\n      0x20\n      add\n      dup4\n      dup4\n      dup1\n      dup3\n      dup5\n      calldatacopy\n      0x00\n      dup2\n      dup5\n      add\n      mstore\n      not(0x1f)\n      0x1f\n      dup3\n      add\n      and\n      swap1\n      pop\n      dup1\n      dup4\n      add\n      swap3\n      pop\n      pop\n      pop\n      pop\n      pop\n      pop\n      pop\n      dup2\n      mstore\n      0x20\n      add\n        /* \"contracts/Lesson_5.sol\":1590:1595  false */\n      0x00\n        /* \"contracts/Lesson_5.sol\":1274:1607  Auction({\r... */\n      iszero\n      iszero\n      dup2\n      mstore\n      pop\n        /* \"contracts/Lesson_5.sol\":1246:1607  Auction memory newAuction = Auction({\r... */\n      swap1\n      pop\n        /* \"contracts/Lesson_5.sol\":1739:1747  auctions */\n      0x01\n        /* \"contracts/Lesson_5.sol\":1753:1763  newAuction */\n      dup2\n        /* \"contracts/Lesson_5.sol\":1739:1764  auctions.push(newAuction) */\n      swap1\n      dup1\n      0x01\n      dup2\n      sload\n      add\n      dup1\n      dup3\n      sstore\n      dup1\n      swap2\n      pop\n      pop\n      0x01\n      swap1\n      sub\n      swap1\n      0x00\n      mstore\n      keccak256(0x00, 0x20)\n      swap1\n      0x08\n      mul\n      add\n      0x00\n      swap1\n      swap2\n      swap1\n      swap2\n      swap1\n      swap2\n      pop\n      0x00\n      dup3\n      add\n      mload\n      dup2\n      0x00\n      add\n      exp(0x0100, 0x00)\n      dup2\n      sload\n      dup2\n      0xffffffffffffffffffffffffffffffffffffffff\n      mul\n      not\n      and\n      swap1\n      dup4\n      0xffffffffffffffffffffffffffffffffffffffff\n      and\n      mul\n      or\n      swap1\n      sstore\n      pop\n      0x20\n      dup3\n      add\n      mload\n      dup2\n      0x01\n      add\n      sstore\n      0x40\n      dup3\n      add\n      mload\n      dup2\n      0x02\n      add\n      sstore\n      0x60\n      dup3\n      add\n      mload\n      dup2\n      0x03\n      add\n      sstore\n      0x80\n      dup3\n      add\n      mload\n      dup2\n      0x04\n      add\n      sstore\n      0xa0\n      dup3\n      add\n      mload\n      dup2\n      0x05\n      add\n      sstore\n      0xc0\n      dup3\n      add\n      mload\n      dup2\n      0x06\n      add\n      swap1\n      dup1\n      mload\n      swap1\n      0x20\n      add\n      swap1\n      tag_84\n      swap3\n      swap2\n      swap1\n      tag_85\n      jump\t// in\n    tag_84:\n      pop\n      0xe0\n      dup3\n      add\n      mload\n      dup2\n      0x07\n      add\n      exp(0x0100, 0x00)\n      dup2\n      sload\n      dup2\n      0xff\n      mul\n      not\n      and\n      swap1\n      dup4\n      iszero\n      iszero\n      mul\n      or\n      swap1\n      sstore\n      pop\n      pop\n      pop\n        /* \"contracts/Lesson_5.sol\":1936:2004  AuctionCreated(auctions.length - 1, _item, _startingPrice, duration) */\n      0x5bf34ed94988e5dcdc7d1faaa54eb1d3b55f45d5f11457e235afb21a8ebbe73c\n        /* \"contracts/Lesson_5.sol\":1969:1970  1 */\n      0x01\n        /* \"contracts/Lesson_5.sol\":1951:1959  auctions */\n      dup1\n        /* \"contracts/Lesson_5.sol\":1951:1966  auctions.length */\n      dup1\n      sload\n      swap1\n      pop\n        /* \"contracts/Lesson_5.sol\":1951:1970  auctions.length - 1 */\n      tag_86\n      swap2\n      swap1\n      tag_48\n      jump\t// in\n    tag_86:\n        /* \"contracts/Lesson_5.sol\":1972:1977  _item */\n      dup7\n      dup7\n        /* \"contracts/Lesson_5.sol\":1979:1993  _startingPrice */\n      dup11\n        /* \"contracts/Lesson_5.sol\":1995:2003  duration */\n      dup7\n        /* \"contracts/Lesson_5.sol\":1936:2004  AuctionCreated(auctions.length - 1, _item, _startingPrice, duration) */\n      mload(0x40)\n      tag_87\n      swap6\n      swap5\n      swap4\n      swap3\n      swap2\n      swap1\n      tag_88\n      jump\t// in\n    tag_87:\n      mload(0x40)\n      dup1\n      swap2\n      sub\n      swap1\n      log1\n        /* \"contracts/Lesson_5.sol\":970:2012  {\r... */\n      pop\n      pop\n        /* \"contracts/Lesson_5.sol\":852:2012  function createAuction(uint _startingPrice, uint _discountRate, string calldata _item, uint _duration) external \r... */\n      pop\n      pop\n      pop\n      pop\n      pop\n      jump\t// out\n    tag_85:\n      dup3\n      dup1\n      sload\n      tag_89\n      swap1\n      tag_39\n      jump\t// in\n    tag_89:\n      swap1\n      0x00\n      mstore\n      keccak256(0x00, 0x20)\n      swap1\n      0x1f\n      add\n      0x20\n      swap1\n      div\n      dup2\n      add\n      swap3\n      dup3\n      tag_91\n      jumpi\n      0x00\n      dup6\n      sstore\n      jump(tag_90)\n    tag_91:\n      dup3\n      0x1f\n      lt\n      tag_92\n      jumpi\n      dup1\n      mload\n      not(0xff)\n      and\n      dup4\n      dup1\n      add\n      or\n      dup6\n      sstore\n      jump(tag_90)\n    tag_92:\n      dup3\n      dup1\n      add\n      0x01\n      add\n      dup6\n      sstore\n      dup3\n      iszero\n      tag_90\n      jumpi\n      swap2\n      dup3\n      add\n    tag_93:\n      dup3\n      dup2\n      gt\n      iszero\n      tag_94\n      jumpi\n      dup3\n      mload\n      dup3\n      sstore\n      swap2\n      0x20\n      add\n      swap2\n      swap1\n      0x01\n      add\n      swap1\n      jump(tag_93)\n    tag_94:\n    tag_90:\n      pop\n      swap1\n      pop\n      tag_95\n      swap2\n      swap1\n      tag_96\n      jump\t// in\n    tag_95:\n      pop\n      swap1\n      jump\t// out\n    tag_96:\n    tag_97:\n      dup1\n      dup3\n      gt\n      iszero\n      tag_98\n      jumpi\n      0x00\n      dup2\n      0x00\n      swap1\n      sstore\n      pop\n      0x01\n      add\n      jump(tag_97)\n    tag_98:\n      pop\n      swap1\n      jump\t// out\n        /* \"#utility.yul\":21:574   */\n    tag_100:\n        /* \"#utility.yul\":79:87   */\n      0x00\n        /* \"#utility.yul\":89:95   */\n      dup1\n        /* \"#utility.yul\":139:142   */\n      dup4\n        /* \"#utility.yul\":132:136   */\n      0x1f\n        /* \"#utility.yul\":124:130   */\n      dup5\n        /* \"#utility.yul\":120:137   */\n      add\n        /* \"#utility.yul\":116:143   */\n      slt\n        /* \"#utility.yul\":106:228   */\n      tag_102\n      jumpi\n        /* \"#utility.yul\":147:226   */\n      tag_103\n      tag_104\n      jump\t// in\n    tag_103:\n        /* \"#utility.yul\":106:228   */\n    tag_102:\n        /* \"#utility.yul\":260:266   */\n      dup3\n        /* \"#utility.yul\":247:267   */\n      calldataload\n        /* \"#utility.yul\":237:267   */\n      swap1\n      pop\n        /* \"#utility.yul\":290:308   */\n      0xffffffffffffffff\n        /* \"#utility.yul\":282:288   */\n      dup2\n        /* \"#utility.yul\":279:309   */\n      gt\n        /* \"#utility.yul\":276:393   */\n      iszero\n      tag_105\n      jumpi\n        /* \"#utility.yul\":312:391   */\n      tag_106\n      tag_107\n      jump\t// in\n    tag_106:\n        /* \"#utility.yul\":276:393   */\n    tag_105:\n        /* \"#utility.yul\":426:430   */\n      0x20\n        /* \"#utility.yul\":418:424   */\n      dup4\n        /* \"#utility.yul\":414:431   */\n      add\n        /* \"#utility.yul\":402:431   */\n      swap2\n      pop\n        /* \"#utility.yul\":480:483   */\n      dup4\n        /* \"#utility.yul\":472:476   */\n      0x01\n        /* \"#utility.yul\":464:470   */\n      dup3\n        /* \"#utility.yul\":460:477   */\n      mul\n        /* \"#utility.yul\":450:458   */\n      dup4\n        /* \"#utility.yul\":446:478   */\n      add\n        /* \"#utility.yul\":443:484   */\n      gt\n        /* \"#utility.yul\":440:568   */\n      iszero\n      tag_108\n      jumpi\n        /* \"#utility.yul\":487:566   */\n      tag_109\n      tag_110\n      jump\t// in\n    tag_109:\n        /* \"#utility.yul\":440:568   */\n    tag_108:\n        /* \"#utility.yul\":21:574   */\n      swap3\n      pop\n      swap3\n      swap1\n      pop\n      jump\t// out\n        /* \"#utility.yul\":580:719   */\n    tag_111:\n        /* \"#utility.yul\":626:631   */\n      0x00\n        /* \"#utility.yul\":664:670   */\n      dup2\n        /* \"#utility.yul\":651:671   */\n      calldataload\n        /* \"#utility.yul\":642:671   */\n      swap1\n      pop\n        /* \"#utility.yul\":680:713   */\n      tag_113\n        /* \"#utility.yul\":707:712   */\n      dup2\n        /* \"#utility.yul\":680:713   */\n      tag_114\n      jump\t// in\n    tag_113:\n        /* \"#utility.yul\":580:719   */\n      swap3\n      swap2\n      pop\n      pop\n      jump\t// out\n        /* \"#utility.yul\":725:1054   */\n    tag_10:\n        /* \"#utility.yul\":784:790   */\n      0x00\n        /* \"#utility.yul\":833:835   */\n      0x20\n        /* \"#utility.yul\":821:830   */\n      dup3\n        /* \"#utility.yul\":812:819   */\n      dup5\n        /* \"#utility.yul\":808:831   */\n      sub\n        /* \"#utility.yul\":804:836   */\n      slt\n        /* \"#utility.yul\":801:920   */\n      iszero\n      tag_116\n      jumpi\n        /* \"#utility.yul\":839:918   */\n      tag_117\n      tag_118\n      jump\t// in\n    tag_117:\n        /* \"#utility.yul\":801:920   */\n    tag_116:\n        /* \"#utility.yul\":959:960   */\n      0x00\n        /* \"#utility.yul\":984:1037   */\n      tag_119\n        /* \"#utility.yul\":1029:1036   */\n      dup5\n        /* \"#utility.yul\":1020:1026   */\n      dup3\n        /* \"#utility.yul\":1009:1018   */\n      dup6\n        /* \"#utility.yul\":1005:1027   */\n      add\n        /* \"#utility.yul\":984:1037   */\n      tag_111\n      jump\t// in\n    tag_119:\n        /* \"#utility.yul\":974:1037   */\n      swap2\n      pop\n        /* \"#utility.yul\":930:1047   */\n      pop\n        /* \"#utility.yul\":725:1054   */\n      swap3\n      swap2\n      pop\n      pop\n      jump\t// out\n        /* \"#utility.yul\":1060:2025   */\n    tag_31:\n        /* \"#utility.yul\":1158:1164   */\n      0x00\n        /* \"#utility.yul\":1166:1172   */\n      dup1\n        /* \"#utility.yul\":1174:1180   */\n      0x00\n        /* \"#utility.yul\":1182:1188   */\n      dup1\n        /* \"#utility.yul\":1190:1196   */\n      0x00\n        /* \"#utility.yul\":1239:1242   */\n      0x80\n        /* \"#utility.yul\":1227:1236   */\n      dup7\n        /* \"#utility.yul\":1218:1225   */\n      dup9\n        /* \"#utility.yul\":1214:1237   */\n      sub\n        /* \"#utility.yul\":1210:1243   */\n      slt\n        /* \"#utility.yul\":1207:1327   */\n      iszero\n      tag_121\n      jumpi\n        /* \"#utility.yul\":1246:1325   */\n      tag_122\n      tag_118\n      jump\t// in\n    tag_122:\n        /* \"#utility.yul\":1207:1327   */\n    tag_121:\n        /* \"#utility.yul\":1366:1367   */\n      0x00\n        /* \"#utility.yul\":1391:1444   */\n      tag_123\n        /* \"#utility.yul\":1436:1443   */\n      dup9\n        /* \"#utility.yul\":1427:1433   */\n      dup3\n        /* \"#utility.yul\":1416:1425   */\n      dup10\n        /* \"#utility.yul\":1412:1434   */\n      add\n        /* \"#utility.yul\":1391:1444   */\n      tag_111\n      jump\t// in\n    tag_123:\n        /* \"#utility.yul\":1381:1444   */\n      swap6\n      pop\n        /* \"#utility.yul\":1337:1454   */\n      pop\n        /* \"#utility.yul\":1493:1495   */\n      0x20\n        /* \"#utility.yul\":1519:1572   */\n      tag_124\n        /* \"#utility.yul\":1564:1571   */\n      dup9\n        /* \"#utility.yul\":1555:1561   */\n      dup3\n        /* \"#utility.yul\":1544:1553   */\n      dup10\n        /* \"#utility.yul\":1540:1562   */\n      add\n        /* \"#utility.yul\":1519:1572   */\n      tag_111\n      jump\t// in\n    tag_124:\n        /* \"#utility.yul\":1509:1572   */\n      swap5\n      pop\n        /* \"#utility.yul\":1464:1582   */\n      pop\n        /* \"#utility.yul\":1649:1651   */\n      0x40\n        /* \"#utility.yul\":1638:1647   */\n      dup7\n        /* \"#utility.yul\":1634:1652   */\n      add\n        /* \"#utility.yul\":1621:1653   */\n      calldataload\n        /* \"#utility.yul\":1680:1698   */\n      0xffffffffffffffff\n        /* \"#utility.yul\":1672:1678   */\n      dup2\n        /* \"#utility.yul\":1669:1699   */\n      gt\n        /* \"#utility.yul\":1666:1783   */\n      iszero\n      tag_125\n      jumpi\n        /* \"#utility.yul\":1702:1781   */\n      tag_126\n      tag_127\n      jump\t// in\n    tag_126:\n        /* \"#utility.yul\":1666:1783   */\n    tag_125:\n        /* \"#utility.yul\":1815:1880   */\n      tag_128\n        /* \"#utility.yul\":1872:1879   */\n      dup9\n        /* \"#utility.yul\":1863:1869   */\n      dup3\n        /* \"#utility.yul\":1852:1861   */\n      dup10\n        /* \"#utility.yul\":1848:1870   */\n      add\n        /* \"#utility.yul\":1815:1880   */\n      tag_100\n      jump\t// in\n    tag_128:\n        /* \"#utility.yul\":1797:1880   */\n      swap4\n      pop\n      swap4\n      pop\n        /* \"#utility.yul\":1592:1890   */\n      pop\n        /* \"#utility.yul\":1929:1931   */\n      0x60\n        /* \"#utility.yul\":1955:2008   */\n      tag_129\n        /* \"#utility.yul\":2000:2007   */\n      dup9\n        /* \"#utility.yul\":1991:1997   */\n      dup3\n        /* \"#utility.yul\":1980:1989   */\n      dup10\n        /* \"#utility.yul\":1976:1998   */\n      add\n        /* \"#utility.yul\":1955:2008   */\n      tag_111\n      jump\t// in\n    tag_129:\n        /* \"#utility.yul\":1945:2008   */\n      swap2\n      pop\n        /* \"#utility.yul\":1900:2018   */\n      pop\n        /* \"#utility.yul\":1060:2025   */\n      swap3\n      swap6\n      pop\n      swap3\n      swap6\n      swap1\n      swap4\n      pop\n      jump\t// out\n        /* \"#utility.yul\":2031:2173   */\n    tag_130:\n        /* \"#utility.yul\":2134:2166   */\n      tag_132\n        /* \"#utility.yul\":2160:2165   */\n      dup2\n        /* \"#utility.yul\":2134:2166   */\n      tag_133\n      jump\t// in\n    tag_132:\n        /* \"#utility.yul\":2129:2132   */\n      dup3\n        /* \"#utility.yul\":2122:2167   */\n      mstore\n        /* \"#utility.yul\":2031:2173   */\n      pop\n      pop\n      jump\t// out\n        /* \"#utility.yul\":2179:2297   */\n    tag_134:\n        /* \"#utility.yul\":2266:2290   */\n      tag_136\n        /* \"#utility.yul\":2284:2289   */\n      dup2\n        /* \"#utility.yul\":2266:2290   */\n      tag_137\n      jump\t// in\n    tag_136:\n        /* \"#utility.yul\":2261:2264   */\n      dup3\n        /* \"#utility.yul\":2254:2291   */\n      mstore\n        /* \"#utility.yul\":2179:2297   */\n      pop\n      pop\n      jump\t// out\n        /* \"#utility.yul\":2303:2412   */\n    tag_138:\n        /* \"#utility.yul\":2384:2405   */\n      tag_140\n        /* \"#utility.yul\":2399:2404   */\n      dup2\n        /* \"#utility.yul\":2384:2405   */\n      tag_141\n      jump\t// in\n    tag_140:\n        /* \"#utility.yul\":2379:2382   */\n      dup3\n        /* \"#utility.yul\":2372:2406   */\n      mstore\n        /* \"#utility.yul\":2303:2412   */\n      pop\n      pop\n      jump\t// out\n        /* \"#utility.yul\":2442:2746   */\n    tag_142:\n        /* \"#utility.yul\":2540:2543   */\n      0x00\n        /* \"#utility.yul\":2561:2632   */\n      tag_144\n        /* \"#utility.yul\":2625:2631   */\n      dup4\n        /* \"#utility.yul\":2620:2623   */\n      dup6\n        /* \"#utility.yul\":2561:2632   */\n      tag_145\n      jump\t// in\n    tag_144:\n        /* \"#utility.yul\":2554:2632   */\n      swap4\n      pop\n        /* \"#utility.yul\":2642:2685   */\n      tag_146\n        /* \"#utility.yul\":2678:2684   */\n      dup4\n        /* \"#utility.yul\":2673:2676   */\n      dup6\n        /* \"#utility.yul\":2666:2671   */\n      dup5\n        /* \"#utility.yul\":2642:2685   */\n      tag_147\n      jump\t// in\n    tag_146:\n        /* \"#utility.yul\":2710:2739   */\n      tag_148\n        /* \"#utility.yul\":2732:2738   */\n      dup4\n        /* \"#utility.yul\":2710:2739   */\n      tag_149\n      jump\t// in\n    tag_148:\n        /* \"#utility.yul\":2705:2708   */\n      dup5\n        /* \"#utility.yul\":2701:2740   */\n      add\n        /* \"#utility.yul\":2694:2740   */\n      swap1\n      pop\n        /* \"#utility.yul\":2442:2746   */\n      swap4\n      swap3\n      pop\n      pop\n      pop\n      jump\t// out\n        /* \"#utility.yul\":2752:3116   */\n    tag_150:\n        /* \"#utility.yul\":2840:2843   */\n      0x00\n        /* \"#utility.yul\":2868:2907   */\n      tag_152\n        /* \"#utility.yul\":2901:2906   */\n      dup3\n        /* \"#utility.yul\":2868:2907   */\n      tag_153\n      jump\t// in\n    tag_152:\n        /* \"#utility.yul\":2923:2994   */\n      tag_154\n        /* \"#utility.yul\":2987:2993   */\n      dup2\n        /* \"#utility.yul\":2982:2985   */\n      dup6\n        /* \"#utility.yul\":2923:2994   */\n      tag_145\n      jump\t// in\n    tag_154:\n        /* \"#utility.yul\":2916:2994   */\n      swap4\n      pop\n        /* \"#utility.yul\":3003:3055   */\n      tag_155\n        /* \"#utility.yul\":3048:3054   */\n      dup2\n        /* \"#utility.yul\":3043:3046   */\n      dup6\n        /* \"#utility.yul\":3036:3040   */\n      0x20\n        /* \"#utility.yul\":3029:3034   */\n      dup7\n        /* \"#utility.yul\":3025:3041   */\n      add\n        /* \"#utility.yul\":3003:3055   */\n      tag_156\n      jump\t// in\n    tag_155:\n        /* \"#utility.yul\":3080:3109   */\n      tag_157\n        /* \"#utility.yul\":3102:3108   */\n      dup2\n        /* \"#utility.yul\":3080:3109   */\n      tag_149\n      jump\t// in\n    tag_157:\n        /* \"#utility.yul\":3075:3078   */\n      dup5\n        /* \"#utility.yul\":3071:3110   */\n      add\n        /* \"#utility.yul\":3064:3110   */\n      swap2\n      pop\n        /* \"#utility.yul\":2844:3116   */\n      pop\n        /* \"#utility.yul\":2752:3116   */\n      swap3\n      swap2\n      pop\n      pop\n      jump\t// out\n        /* \"#utility.yul\":3122:3488   */\n    tag_158:\n        /* \"#utility.yul\":3264:3267   */\n      0x00\n        /* \"#utility.yul\":3285:3352   */\n      tag_160\n        /* \"#utility.yul\":3349:3351   */\n      0x19\n        /* \"#utility.yul\":3344:3347   */\n      dup4\n        /* \"#utility.yul\":3285:3352   */\n      tag_145\n      jump\t// in\n    tag_160:\n        /* \"#utility.yul\":3278:3352   */\n      swap2\n      pop\n        /* \"#utility.yul\":3361:3454   */\n      tag_161\n        /* \"#utility.yul\":3450:3453   */\n      dup3\n        /* \"#utility.yul\":3361:3454   */\n      tag_162\n      jump\t// in\n    tag_161:\n        /* \"#utility.yul\":3479:3481   */\n      0x20\n        /* \"#utility.yul\":3474:3477   */\n      dup3\n        /* \"#utility.yul\":3470:3482   */\n      add\n        /* \"#utility.yul\":3463:3482   */\n      swap1\n      pop\n        /* \"#utility.yul\":3122:3488   */\n      swap2\n      swap1\n      pop\n      jump\t// out\n        /* \"#utility.yul\":3494:3860   */\n    tag_163:\n        /* \"#utility.yul\":3636:3639   */\n      0x00\n        /* \"#utility.yul\":3657:3724   */\n      tag_165\n        /* \"#utility.yul\":3721:3723   */\n      0x13\n        /* \"#utility.yul\":3716:3719   */\n      dup4\n        /* \"#utility.yul\":3657:3724   */\n      tag_145\n      jump\t// in\n    tag_165:\n        /* \"#utility.yul\":3650:3724   */\n      swap2\n      pop\n        /* \"#utility.yul\":3733:3826   */\n      tag_166\n        /* \"#utility.yul\":3822:3825   */\n      dup3\n        /* \"#utility.yul\":3733:3826   */\n      tag_167\n      jump\t// in\n    tag_166:\n        /* \"#utility.yul\":3851:3853   */\n      0x20\n        /* \"#utility.yul\":3846:3849   */\n      dup3\n        /* \"#utility.yul\":3842:3854   */\n      add\n        /* \"#utility.yul\":3835:3854   */\n      swap1\n      pop\n        /* \"#utility.yul\":3494:3860   */\n      swap2\n      swap1\n      pop\n      jump\t// out\n        /* \"#utility.yul\":3866:4232   */\n    tag_168:\n        /* \"#utility.yul\":4008:4011   */\n      0x00\n        /* \"#utility.yul\":4029:4096   */\n      tag_170\n        /* \"#utility.yul\":4093:4095   */\n      0x12\n        /* \"#utility.yul\":4088:4091   */\n      dup4\n        /* \"#utility.yul\":4029:4096   */\n      tag_145\n      jump\t// in\n    tag_170:\n        /* \"#utility.yul\":4022:4096   */\n      swap2\n      pop\n        /* \"#utility.yul\":4105:4198   */\n      tag_171\n        /* \"#utility.yul\":4194:4197   */\n      dup3\n        /* \"#utility.yul\":4105:4198   */\n      tag_172\n      jump\t// in\n    tag_171:\n        /* \"#utility.yul\":4223:4225   */\n      0x20\n        /* \"#utility.yul\":4218:4221   */\n      dup3\n        /* \"#utility.yul\":4214:4226   */\n      add\n        /* \"#utility.yul\":4207:4226   */\n      swap1\n      pop\n        /* \"#utility.yul\":3866:4232   */\n      swap2\n      swap1\n      pop\n      jump\t// out\n        /* \"#utility.yul\":4238:4356   */\n    tag_173:\n        /* \"#utility.yul\":4325:4349   */\n      tag_175\n        /* \"#utility.yul\":4343:4348   */\n      dup2\n        /* \"#utility.yul\":4325:4349   */\n      tag_176\n      jump\t// in\n    tag_175:\n        /* \"#utility.yul\":4320:4323   */\n      dup3\n        /* \"#utility.yul\":4313:4350   */\n      mstore\n        /* \"#utility.yul\":4238:4356   */\n      pop\n      pop\n      jump\t// out\n        /* \"#utility.yul\":4362:4584   */\n    tag_24:\n        /* \"#utility.yul\":4455:4459   */\n      0x00\n        /* \"#utility.yul\":4493:4495   */\n      0x20\n        /* \"#utility.yul\":4482:4491   */\n      dup3\n        /* \"#utility.yul\":4478:4496   */\n      add\n        /* \"#utility.yul\":4470:4496   */\n      swap1\n      pop\n        /* \"#utility.yul\":4506:4577   */\n      tag_178\n        /* \"#utility.yul\":4574:4575   */\n      0x00\n        /* \"#utility.yul\":4563:4572   */\n      dup4\n        /* \"#utility.yul\":4559:4576   */\n      add\n        /* \"#utility.yul\":4550:4556   */\n      dup5\n        /* \"#utility.yul\":4506:4577   */\n      tag_134\n      jump\t// in\n    tag_178:\n        /* \"#utility.yul\":4362:4584   */\n      swap3\n      swap2\n      pop\n      pop\n      jump\t// out\n        /* \"#utility.yul\":4590:5698   */\n    tag_19:\n        /* \"#utility.yul\":4909:4913   */\n      0x00\n        /* \"#utility.yul\":4947:4950   */\n      0x0100\n        /* \"#utility.yul\":4936:4945   */\n      dup3\n        /* \"#utility.yul\":4932:4951   */\n      add\n        /* \"#utility.yul\":4924:4951   */\n      swap1\n      pop\n        /* \"#utility.yul\":4961:5048   */\n      tag_180\n        /* \"#utility.yul\":5045:5046   */\n      0x00\n        /* \"#utility.yul\":5034:5043   */\n      dup4\n        /* \"#utility.yul\":5030:5047   */\n      add\n        /* \"#utility.yul\":5021:5027   */\n      dup12\n        /* \"#utility.yul\":4961:5048   */\n      tag_130\n      jump\t// in\n    tag_180:\n        /* \"#utility.yul\":5058:5130   */\n      tag_181\n        /* \"#utility.yul\":5126:5128   */\n      0x20\n        /* \"#utility.yul\":5115:5124   */\n      dup4\n        /* \"#utility.yul\":5111:5129   */\n      add\n        /* \"#utility.yul\":5102:5108   */\n      dup11\n        /* \"#utility.yul\":5058:5130   */\n      tag_173\n      jump\t// in\n    tag_181:\n        /* \"#utility.yul\":5140:5212   */\n      tag_182\n        /* \"#utility.yul\":5208:5210   */\n      0x40\n        /* \"#utility.yul\":5197:5206   */\n      dup4\n        /* \"#utility.yul\":5193:5211   */\n      add\n        /* \"#utility.yul\":5184:5190   */\n      dup10\n        /* \"#utility.yul\":5140:5212   */\n      tag_173\n      jump\t// in\n    tag_182:\n        /* \"#utility.yul\":5222:5294   */\n      tag_183\n        /* \"#utility.yul\":5290:5292   */\n      0x60\n        /* \"#utility.yul\":5279:5288   */\n      dup4\n        /* \"#utility.yul\":5275:5293   */\n      add\n        /* \"#utility.yul\":5266:5272   */\n      dup9\n        /* \"#utility.yul\":5222:5294   */\n      tag_173\n      jump\t// in\n    tag_183:\n        /* \"#utility.yul\":5304:5377   */\n      tag_184\n        /* \"#utility.yul\":5372:5375   */\n      0x80\n        /* \"#utility.yul\":5361:5370   */\n      dup4\n        /* \"#utility.yul\":5357:5376   */\n      add\n        /* \"#utility.yul\":5348:5354   */\n      dup8\n        /* \"#utility.yul\":5304:5377   */\n      tag_173\n      jump\t// in\n    tag_184:\n        /* \"#utility.yul\":5387:5460   */\n      tag_185\n        /* \"#utility.yul\":5455:5458   */\n      0xa0\n        /* \"#utility.yul\":5444:5453   */\n      dup4\n        /* \"#utility.yul\":5440:5459   */\n      add\n        /* \"#utility.yul\":5431:5437   */\n      dup7\n        /* \"#utility.yul\":5387:5460   */\n      tag_173\n      jump\t// in\n    tag_185:\n        /* \"#utility.yul\":5508:5517   */\n      dup2\n        /* \"#utility.yul\":5502:5506   */\n      dup2\n        /* \"#utility.yul\":5498:5518   */\n      sub\n        /* \"#utility.yul\":5492:5495   */\n      0xc0\n        /* \"#utility.yul\":5481:5490   */\n      dup4\n        /* \"#utility.yul\":5477:5496   */\n      add\n        /* \"#utility.yul\":5470:5519   */\n      mstore\n        /* \"#utility.yul\":5536:5614   */\n      tag_186\n        /* \"#utility.yul\":5609:5613   */\n      dup2\n        /* \"#utility.yul\":5600:5606   */\n      dup6\n        /* \"#utility.yul\":5536:5614   */\n      tag_150\n      jump\t// in\n    tag_186:\n        /* \"#utility.yul\":5528:5614   */\n      swap1\n      pop\n        /* \"#utility.yul\":5624:5691   */\n      tag_187\n        /* \"#utility.yul\":5686:5689   */\n      0xe0\n        /* \"#utility.yul\":5675:5684   */\n      dup4\n        /* \"#utility.yul\":5671:5690   */\n      add\n        /* \"#utility.yul\":5662:5668   */\n      dup5\n        /* \"#utility.yul\":5624:5691   */\n      tag_138\n      jump\t// in\n    tag_187:\n        /* \"#utility.yul\":4590:5698   */\n      swap10\n      swap9\n      pop\n      pop\n      pop\n      pop\n      pop\n      pop\n      pop\n      pop\n      pop\n      jump\t// out\n        /* \"#utility.yul\":5704:6123   */\n    tag_80:\n        /* \"#utility.yul\":5870:5874   */\n      0x00\n        /* \"#utility.yul\":5908:5910   */\n      0x20\n        /* \"#utility.yul\":5897:5906   */\n      dup3\n        /* \"#utility.yul\":5893:5911   */\n      add\n        /* \"#utility.yul\":5885:5911   */\n      swap1\n      pop\n        /* \"#utility.yul\":5957:5966   */\n      dup2\n        /* \"#utility.yul\":5951:5955   */\n      dup2\n        /* \"#utility.yul\":5947:5967   */\n      sub\n        /* \"#utility.yul\":5943:5944   */\n      0x00\n        /* \"#utility.yul\":5932:5941   */\n      dup4\n        /* \"#utility.yul\":5928:5945   */\n      add\n        /* \"#utility.yul\":5921:5968   */\n      mstore\n        /* \"#utility.yul\":5985:6116   */\n      tag_189\n        /* \"#utility.yul\":6111:6115   */\n      dup2\n        /* \"#utility.yul\":5985:6116   */\n      tag_158\n      jump\t// in\n    tag_189:\n        /* \"#utility.yul\":5977:6116   */\n      swap1\n      pop\n        /* \"#utility.yul\":5704:6123   */\n      swap2\n      swap1\n      pop\n      jump\t// out\n        /* \"#utility.yul\":6129:6548   */\n    tag_46:\n        /* \"#utility.yul\":6295:6299   */\n      0x00\n        /* \"#utility.yul\":6333:6335   */\n      0x20\n        /* \"#utility.yul\":6322:6331   */\n      dup3\n        /* \"#utility.yul\":6318:6336   */\n      add\n        /* \"#utility.yul\":6310:6336   */\n      swap1\n      pop\n        /* \"#utility.yul\":6382:6391   */\n      dup2\n        /* \"#utility.yul\":6376:6380   */\n      dup2\n        /* \"#utility.yul\":6372:6392   */\n      sub\n        /* \"#utility.yul\":6368:6369   */\n      0x00\n        /* \"#utility.yul\":6357:6366   */\n      dup4\n        /* \"#utility.yul\":6353:6370   */\n      add\n        /* \"#utility.yul\":6346:6393   */\n      mstore\n        /* \"#utility.yul\":6410:6541   */\n      tag_191\n        /* \"#utility.yul\":6536:6540   */\n      dup2\n        /* \"#utility.yul\":6410:6541   */\n      tag_163\n      jump\t// in\n    tag_191:\n        /* \"#utility.yul\":6402:6541   */\n      swap1\n      pop\n        /* \"#utility.yul\":6129:6548   */\n      swap2\n      swap1\n      pop\n      jump\t// out\n        /* \"#utility.yul\":6554:6973   */\n    tag_72:\n        /* \"#utility.yul\":6720:6724   */\n      0x00\n        /* \"#utility.yul\":6758:6760   */\n      0x20\n        /* \"#utility.yul\":6747:6756   */\n      dup3\n        /* \"#utility.yul\":6743:6761   */\n      add\n        /* \"#utility.yul\":6735:6761   */\n      swap1\n      pop\n        /* \"#utility.yul\":6807:6816   */\n      dup2\n        /* \"#utility.yul\":6801:6805   */\n      dup2\n        /* \"#utility.yul\":6797:6817   */\n      sub\n        /* \"#utility.yul\":6793:6794   */\n      0x00\n        /* \"#utility.yul\":6782:6791   */\n      dup4\n        /* \"#utility.yul\":6778:6795   */\n      add\n        /* \"#utility.yul\":6771:6818   */\n      mstore\n        /* \"#utility.yul\":6835:6966   */\n      tag_193\n        /* \"#utility.yul\":6961:6965   */\n      dup2\n        /* \"#utility.yul\":6835:6966   */\n      tag_168\n      jump\t// in\n    tag_193:\n        /* \"#utility.yul\":6827:6966   */\n      swap1\n      pop\n        /* \"#utility.yul\":6554:6973   */\n      swap2\n      swap1\n      pop\n      jump\t// out\n        /* \"#utility.yul\":6979:7201   */\n    tag_13:\n        /* \"#utility.yul\":7072:7076   */\n      0x00\n        /* \"#utility.yul\":7110:7112   */\n      0x20\n        /* \"#utility.yul\":7099:7108   */\n      dup3\n        /* \"#utility.yul\":7095:7113   */\n      add\n        /* \"#utility.yul\":7087:7113   */\n      swap1\n      pop\n        /* \"#utility.yul\":7123:7194   */\n      tag_195\n        /* \"#utility.yul\":7191:7192   */\n      0x00\n        /* \"#utility.yul\":7180:7189   */\n      dup4\n        /* \"#utility.yul\":7176:7193   */\n      add\n        /* \"#utility.yul\":7167:7173   */\n      dup5\n        /* \"#utility.yul\":7123:7194   */\n      tag_173\n      jump\t// in\n    tag_195:\n        /* \"#utility.yul\":6979:7201   */\n      swap3\n      swap2\n      pop\n      pop\n      jump\t// out\n        /* \"#utility.yul\":7207:7871   */\n    tag_88:\n        /* \"#utility.yul\":7414:7418   */\n      0x00\n        /* \"#utility.yul\":7452:7455   */\n      0x80\n        /* \"#utility.yul\":7441:7450   */\n      dup3\n        /* \"#utility.yul\":7437:7456   */\n      add\n        /* \"#utility.yul\":7429:7456   */\n      swap1\n      pop\n        /* \"#utility.yul\":7466:7537   */\n      tag_197\n        /* \"#utility.yul\":7534:7535   */\n      0x00\n        /* \"#utility.yul\":7523:7532   */\n      dup4\n        /* \"#utility.yul\":7519:7536   */\n      add\n        /* \"#utility.yul\":7510:7516   */\n      dup9\n        /* \"#utility.yul\":7466:7537   */\n      tag_173\n      jump\t// in\n    tag_197:\n        /* \"#utility.yul\":7584:7593   */\n      dup2\n        /* \"#utility.yul\":7578:7582   */\n      dup2\n        /* \"#utility.yul\":7574:7594   */\n      sub\n        /* \"#utility.yul\":7569:7571   */\n      0x20\n        /* \"#utility.yul\":7558:7567   */\n      dup4\n        /* \"#utility.yul\":7554:7572   */\n      add\n        /* \"#utility.yul\":7547:7595   */\n      mstore\n        /* \"#utility.yul\":7612:7700   */\n      tag_198\n        /* \"#utility.yul\":7695:7699   */\n      dup2\n        /* \"#utility.yul\":7686:7692   */\n      dup7\n        /* \"#utility.yul\":7678:7684   */\n      dup9\n        /* \"#utility.yul\":7612:7700   */\n      tag_142\n      jump\t// in\n    tag_198:\n        /* \"#utility.yul\":7604:7700   */\n      swap1\n      pop\n        /* \"#utility.yul\":7710:7782   */\n      tag_199\n        /* \"#utility.yul\":7778:7780   */\n      0x40\n        /* \"#utility.yul\":7767:7776   */\n      dup4\n        /* \"#utility.yul\":7763:7781   */\n      add\n        /* \"#utility.yul\":7754:7760   */\n      dup6\n        /* \"#utility.yul\":7710:7782   */\n      tag_173\n      jump\t// in\n    tag_199:\n        /* \"#utility.yul\":7792:7864   */\n      tag_200\n        /* \"#utility.yul\":7860:7862   */\n      0x60\n        /* \"#utility.yul\":7849:7858   */\n      dup4\n        /* \"#utility.yul\":7845:7863   */\n      add\n        /* \"#utility.yul\":7836:7842   */\n      dup5\n        /* \"#utility.yul\":7792:7864   */\n      tag_173\n      jump\t// in\n    tag_200:\n        /* \"#utility.yul\":7207:7871   */\n      swap7\n      swap6\n      pop\n      pop\n      pop\n      pop\n      pop\n      pop\n      jump\t// out\n        /* \"#utility.yul\":7958:8057   */\n    tag_153:\n        /* \"#utility.yul\":8010:8016   */\n      0x00\n        /* \"#utility.yul\":8044:8049   */\n      dup2\n        /* \"#utility.yul\":8038:8050   */\n      mload\n        /* \"#utility.yul\":8028:8050   */\n      swap1\n      pop\n        /* \"#utility.yul\":7958:8057   */\n      swap2\n      swap1\n      pop\n      jump\t// out\n        /* \"#utility.yul\":8063:8232   */\n    tag_145:\n        /* \"#utility.yul\":8147:8158   */\n      0x00\n        /* \"#utility.yul\":8181:8187   */\n      dup3\n        /* \"#utility.yul\":8176:8179   */\n      dup3\n        /* \"#utility.yul\":8169:8188   */\n      mstore\n        /* \"#utility.yul\":8221:8225   */\n      0x20\n        /* \"#utility.yul\":8216:8219   */\n      dup3\n        /* \"#utility.yul\":8212:8226   */\n      add\n        /* \"#utility.yul\":8197:8226   */\n      swap1\n      pop\n        /* \"#utility.yul\":8063:8232   */\n      swap3\n      swap2\n      pop\n      pop\n      jump\t// out\n        /* \"#utility.yul\":8238:8543   */\n    tag_82:\n        /* \"#utility.yul\":8278:8281   */\n      0x00\n        /* \"#utility.yul\":8297:8317   */\n      tag_206\n        /* \"#utility.yul\":8315:8316   */\n      dup3\n        /* \"#utility.yul\":8297:8317   */\n      tag_176\n      jump\t// in\n    tag_206:\n        /* \"#utility.yul\":8292:8317   */\n      swap2\n      pop\n        /* \"#utility.yul\":8331:8351   */\n      tag_207\n        /* \"#utility.yul\":8349:8350   */\n      dup4\n        /* \"#utility.yul\":8331:8351   */\n      tag_176\n      jump\t// in\n    tag_207:\n        /* \"#utility.yul\":8326:8351   */\n      swap3\n      pop\n        /* \"#utility.yul\":8485:8486   */\n      dup3\n        /* \"#utility.yul\":8417:8483   */\n      0xffffffffffffffffffffffffffffffffffffffffffffffffffffffffffffffff\n        /* \"#utility.yul\":8413:8487   */\n      sub\n        /* \"#utility.yul\":8410:8411   */\n      dup3\n        /* \"#utility.yul\":8407:8488   */\n      gt\n        /* \"#utility.yul\":8404:8511   */\n      iszero\n      tag_208\n      jumpi\n        /* \"#utility.yul\":8491:8509   */\n      tag_209\n      tag_210\n      jump\t// in\n    tag_209:\n        /* \"#utility.yul\":8404:8511   */\n    tag_208:\n        /* \"#utility.yul\":8535:8536   */\n      dup3\n        /* \"#utility.yul\":8532:8533   */\n      dup3\n        /* \"#utility.yul\":8528:8537   */\n      add\n        /* \"#utility.yul\":8521:8537   */\n      swap1\n      pop\n        /* \"#utility.yul\":8238:8543   */\n      swap3\n      swap2\n      pop\n      pop\n      jump\t// out\n        /* \"#utility.yul\":8549:8897   */\n    tag_50:\n        /* \"#utility.yul\":8589:8596   */\n      0x00\n        /* \"#utility.yul\":8612:8632   */\n      tag_212\n        /* \"#utility.yul\":8630:8631   */\n      dup3\n        /* \"#utility.yul\":8612:8632   */\n      tag_176\n      jump\t// in\n    tag_212:\n        /* \"#utility.yul\":8607:8632   */\n      swap2\n      pop\n        /* \"#utility.yul\":8646:8666   */\n      tag_213\n        /* \"#utility.yul\":8664:8665   */\n      dup4\n        /* \"#utility.yul\":8646:8666   */\n      tag_176\n      jump\t// in\n    tag_213:\n        /* \"#utility.yul\":8641:8666   */\n      swap3\n      pop\n        /* \"#utility.yul\":8834:8835   */\n      dup2\n        /* \"#utility.yul\":8766:8832   */\n      0xffffffffffffffffffffffffffffffffffffffffffffffffffffffffffffffff\n        /* \"#utility.yul\":8762:8836   */\n      div\n        /* \"#utility.yul\":8759:8760   */\n      dup4\n        /* \"#utility.yul\":8756:8837   */\n      gt\n        /* \"#utility.yul\":8751:8752   */\n      dup3\n        /* \"#utility.yul\":8744:8753   */\n      iszero\n        /* \"#utility.yul\":8737:8754   */\n      iszero\n        /* \"#utility.yul\":8733:8838   */\n      and\n        /* \"#utility.yul\":8730:8861   */\n      iszero\n      tag_214\n      jumpi\n        /* \"#utility.yul\":8841:8859   */\n      tag_215\n      tag_210\n      jump\t// in\n    tag_215:\n        /* \"#utility.yul\":8730:8861   */\n    tag_214:\n        /* \"#utility.yul\":8889:8890   */\n      dup3\n        /* \"#utility.yul\":8886:8887   */\n      dup3\n        /* \"#utility.yul\":8882:8891   */\n      mul\n        /* \"#utility.yul\":8871:8891   */\n      swap1\n      pop\n        /* \"#utility.yul\":8549:8897   */\n      swap3\n      swap2\n      pop\n      pop\n      jump\t// out\n        /* \"#utility.yul\":8903:9094   */\n    tag_48:\n        /* \"#utility.yul\":8943:8947   */\n      0x00\n        /* \"#utility.yul\":8963:8983   */\n      tag_217\n        /* \"#utility.yul\":8981:8982   */\n      dup3\n        /* \"#utility.yul\":8963:8983   */\n      tag_176\n      jump\t// in\n    tag_217:\n        /* \"#utility.yul\":8958:8983   */\n      swap2\n      pop\n        /* \"#utility.yul\":8997:9017   */\n      tag_218\n        /* \"#utility.yul\":9015:9016   */\n      dup4\n        /* \"#utility.yul\":8997:9017   */\n      tag_176\n      jump\t// in\n    tag_218:\n        /* \"#utility.yul\":8992:9017   */\n      swap3\n      pop\n        /* \"#utility.yul\":9036:9037   */\n      dup3\n        /* \"#utility.yul\":9033:9034   */\n      dup3\n        /* \"#utility.yul\":9030:9038   */\n      lt\n        /* \"#utility.yul\":9027:9061   */\n      iszero\n      tag_219\n      jumpi\n        /* \"#utility.yul\":9041:9059   */\n      tag_220\n      tag_210\n      jump\t// in\n    tag_220:\n        /* \"#utility.yul\":9027:9061   */\n    tag_219:\n        /* \"#utility.yul\":9086:9087   */\n      dup3\n        /* \"#utility.yul\":9083:9084   */\n      dup3\n        /* \"#utility.yul\":9079:9088   */\n      sub\n        /* \"#utility.yul\":9071:9088   */\n      swap1\n      pop\n        /* \"#utility.yul\":8903:9094   */\n      swap3\n      swap2\n      pop\n      pop\n      jump\t// out\n        /* \"#utility.yul\":9100:9196   */\n    tag_137:\n        /* \"#utility.yul\":9137:9144   */\n      0x00\n        /* \"#utility.yul\":9166:9190   */\n      tag_222\n        /* \"#utility.yul\":9184:9189   */\n      dup3\n        /* \"#utility.yul\":9166:9190   */\n      tag_223\n      jump\t// in\n    tag_222:\n        /* \"#utility.yul\":9155:9190   */\n      swap1\n      pop\n        /* \"#utility.yul\":9100:9196   */\n      swap2\n      swap1\n      pop\n      jump\t// out\n        /* \"#utility.yul\":9202:9306   */\n    tag_133:\n        /* \"#utility.yul\":9247:9254   */\n      0x00\n        /* \"#utility.yul\":9276:9300   */\n      tag_225\n        /* \"#utility.yul\":9294:9299   */\n      dup3\n        /* \"#utility.yul\":9276:9300   */\n      tag_223\n      jump\t// in\n    tag_225:\n        /* \"#utility.yul\":9265:9300   */\n      swap1\n      pop\n        /* \"#utility.yul\":9202:9306   */\n      swap2\n      swap1\n      pop\n      jump\t// out\n        /* \"#utility.yul\":9312:9402   */\n    tag_141:\n        /* \"#utility.yul\":9346:9353   */\n      0x00\n        /* \"#utility.yul\":9389:9394   */\n      dup2\n        /* \"#utility.yul\":9382:9395   */\n      iszero\n        /* \"#utility.yul\":9375:9396   */\n      iszero\n        /* \"#utility.yul\":9364:9396   */\n      swap1\n      pop\n        /* \"#utility.yul\":9312:9402   */\n      swap2\n      swap1\n      pop\n      jump\t// out\n        /* \"#utility.yul\":9408:9534   */\n    tag_223:\n        /* \"#utility.yul\":9445:9452   */\n      0x00\n        /* \"#utility.yul\":9485:9527   */\n      0xffffffffffffffffffffffffffffffffffffffff\n        /* \"#utility.yul\":9478:9483   */\n      dup3\n        /* \"#utility.yul\":9474:9528   */\n      and\n        /* \"#utility.yul\":9463:9528   */\n      swap1\n      pop\n        /* \"#utility.yul\":9408:9534   */\n      swap2\n      swap1\n      pop\n      jump\t// out\n        /* \"#utility.yul\":9540:9617   */\n    tag_176:\n        /* \"#utility.yul\":9577:9584   */\n      0x00\n        /* \"#utility.yul\":9606:9611   */\n      dup2\n        /* \"#utility.yul\":9595:9611   */\n      swap1\n      pop\n        /* \"#utility.yul\":9540:9617   */\n      swap2\n      swap1\n      pop\n      jump\t// out\n        /* \"#utility.yul\":9623:9777   */\n    tag_147:\n        /* \"#utility.yul\":9707:9713   */\n      dup3\n        /* \"#utility.yul\":9702:9705   */\n      dup2\n        /* \"#utility.yul\":9697:9700   */\n      dup4\n        /* \"#utility.yul\":9684:9714   */\n      calldatacopy\n        /* \"#utility.yul\":9769:9770   */\n      0x00\n        /* \"#utility.yul\":9760:9766   */\n      dup4\n        /* \"#utility.yul\":9755:9758   */\n      dup4\n        /* \"#utility.yul\":9751:9767   */\n      add\n        /* \"#utility.yul\":9744:9771   */\n      mstore\n        /* \"#utility.yul\":9623:9777   */\n      pop\n      pop\n      pop\n      jump\t// out\n        /* \"#utility.yul\":9783:10090   */\n    tag_156:\n        /* \"#utility.yul\":9851:9852   */\n      0x00\n        /* \"#utility.yul\":9861:9974   */\n    tag_231:\n        /* \"#utility.yul\":9875:9881   */\n      dup4\n        /* \"#utility.yul\":9872:9873   */\n      dup2\n        /* \"#utility.yul\":9869:9882   */\n      lt\n        /* \"#utility.yul\":9861:9974   */\n      iszero\n      tag_233\n      jumpi\n        /* \"#utility.yul\":9960:9961   */\n      dup1\n        /* \"#utility.yul\":9955:9958   */\n      dup3\n        /* \"#utility.yul\":9951:9962   */\n      add\n        /* \"#utility.yul\":9945:9963   */\n      mload\n        /* \"#utility.yul\":9941:9942   */\n      dup2\n        /* \"#utility.yul\":9936:9939   */\n      dup5\n        /* \"#utility.yul\":9932:9943   */\n      add\n        /* \"#utility.yul\":9925:9964   */\n      mstore\n        /* \"#utility.yul\":9897:9899   */\n      0x20\n        /* \"#utility.yul\":9894:9895   */\n      dup2\n        /* \"#utility.yul\":9890:9900   */\n      add\n        /* \"#utility.yul\":9885:9900   */\n      swap1\n      pop\n        /* \"#utility.yul\":9861:9974   */\n      jump(tag_231)\n    tag_233:\n        /* \"#utility.yul\":9992:9998   */\n      dup4\n        /* \"#utility.yul\":9989:9990   */\n      dup2\n        /* \"#utility.yul\":9986:9999   */\n      gt\n        /* \"#utility.yul\":9983:10084   */\n      iszero\n      tag_234\n      jumpi\n        /* \"#utility.yul\":10072:10073   */\n      0x00\n        /* \"#utility.yul\":10063:10069   */\n      dup5\n        /* \"#utility.yul\":10058:10061   */\n      dup5\n        /* \"#utility.yul\":10054:10070   */\n      add\n        /* \"#utility.yul\":10047:10074   */\n      mstore\n        /* \"#utility.yul\":9983:10084   */\n    tag_234:\n        /* \"#utility.yul\":9832:10090   */\n      pop\n        /* \"#utility.yul\":9783:10090   */\n      pop\n      pop\n      pop\n      jump\t// out\n        /* \"#utility.yul\":10096:10416   */\n    tag_39:\n        /* \"#utility.yul\":10140:10146   */\n      0x00\n        /* \"#utility.yul\":10177:10178   */\n      0x02\n        /* \"#utility.yul\":10171:10175   */\n      dup3\n        /* \"#utility.yul\":10167:10179   */\n      div\n        /* \"#utility.yul\":10157:10179   */\n      swap1\n      pop\n        /* \"#utility.yul\":10224:10225   */\n      0x01\n        /* \"#utility.yul\":10218:10222   */\n      dup3\n        /* \"#utility.yul\":10214:10226   */\n      and\n        /* \"#utility.yul\":10245:10263   */\n      dup1\n        /* \"#utility.yul\":10235:10316   */\n      tag_236\n      jumpi\n        /* \"#utility.yul\":10301:10305   */\n      0x7f\n        /* \"#utility.yul\":10293:10299   */\n      dup3\n        /* \"#utility.yul\":10289:10306   */\n      and\n        /* \"#utility.yul\":10279:10306   */\n      swap2\n      pop\n        /* \"#utility.yul\":10235:10316   */\n    tag_236:\n        /* \"#utility.yul\":10363:10365   */\n      0x20\n        /* \"#utility.yul\":10355:10361   */\n      dup3\n        /* \"#utility.yul\":10352:10366   */\n      lt\n        /* \"#utility.yul\":10332:10350   */\n      dup2\n        /* \"#utility.yul\":10329:10367   */\n      eq\n        /* \"#utility.yul\":10326:10410   */\n      iszero\n      tag_237\n      jumpi\n        /* \"#utility.yul\":10382:10400   */\n      tag_238\n      tag_239\n      jump\t// in\n    tag_238:\n        /* \"#utility.yul\":10326:10410   */\n    tag_237:\n        /* \"#utility.yul\":10147:10416   */\n      pop\n        /* \"#utility.yul\":10096:10416   */\n      swap2\n      swap1\n      pop\n      jump\t// out\n        /* \"#utility.yul\":10422:10602   */\n    tag_210:\n        /* \"#utility.yul\":10470:10547   */\n      0x4e487b7100000000000000000000000000000000000000000000000000000000\n        /* \"#utility.yul\":10467:10468   */\n      0x00\n        /* \"#utility.yul\":10460:10548   */\n      mstore\n        /* \"#utility.yul\":10567:10571   */\n      0x11\n        /* \"#utility.yul\":10564:10565   */\n      0x04\n        /* \"#utility.yul\":10557:10572   */\n      mstore\n        /* \"#utility.yul\":10591:10595   */\n      0x24\n        /* \"#utility.yul\":10588:10589   */\n      0x00\n        /* \"#utility.yul\":10581:10596   */\n      revert\n        /* \"#utility.yul\":10608:10788   */\n    tag_239:\n        /* \"#utility.yul\":10656:10733   */\n      0x4e487b7100000000000000000000000000000000000000000000000000000000\n        /* \"#utility.yul\":10653:10654   */\n      0x00\n        /* \"#utility.yul\":10646:10734   */\n      mstore\n        /* \"#utility.yul\":10753:10757   */\n      0x22\n        /* \"#utility.yul\":10750:10751   */\n      0x04\n        /* \"#utility.yul\":10743:10758   */\n      mstore\n        /* \"#utility.yul\":10777:10781   */\n      0x24\n        /* \"#utility.yul\":10774:10775   */\n      0x00\n        /* \"#utility.yul\":10767:10782   */\n      revert\n        /* \"#utility.yul\":10794:10974   */\n    tag_36:\n        /* \"#utility.yul\":10842:10919   */\n      0x4e487b7100000000000000000000000000000000000000000000000000000000\n        /* \"#utility.yul\":10839:10840   */\n      0x00\n        /* \"#utility.yul\":10832:10920   */\n      mstore\n        /* \"#utility.yul\":10939:10943   */\n      0x32\n        /* \"#utility.yul\":10936:10937   */\n      0x04\n        /* \"#utility.yul\":10929:10944   */\n      mstore\n        /* \"#utility.yul\":10963:10967   */\n      0x24\n        /* \"#utility.yul\":10960:10961   */\n      0x00\n        /* \"#utility.yul\":10953:10968   */\n      revert\n        /* \"#utility.yul\":10980:11097   */\n    tag_107:\n        /* \"#utility.yul\":11089:11090   */\n      0x00\n        /* \"#utility.yul\":11086:11087   */\n      dup1\n        /* \"#utility.yul\":11079:11091   */\n      revert\n        /* \"#utility.yul\":11103:11220   */\n    tag_104:\n        /* \"#utility.yul\":11212:11213   */\n      0x00\n        /* \"#utility.yul\":11209:11210   */\n      dup1\n        /* \"#utility.yul\":11202:11214   */\n      revert\n        /* \"#utility.yul\":11226:11343   */\n    tag_110:\n        /* \"#utility.yul\":11335:11336   */\n      0x00\n        /* \"#utility.yul\":11332:11333   */\n      dup1\n        /* \"#utility.yul\":11325:11337   */\n      revert\n        /* \"#utility.yul\":11349:11466   */\n    tag_127:\n        /* \"#utility.yul\":11458:11459   */\n      0x00\n        /* \"#utility.yul\":11455:11456   */\n      dup1\n        /* \"#utility.yul\":11448:11460   */\n      revert\n        /* \"#utility.yul\":11472:11589   */\n    tag_118:\n        /* \"#utility.yul\":11581:11582   */\n      0x00\n        /* \"#utility.yul\":11578:11579   */\n      dup1\n        /* \"#utility.yul\":11571:11583   */\n      revert\n        /* \"#utility.yul\":11595:11697   */\n    tag_149:\n        /* \"#utility.yul\":11636:11642   */\n      0x00\n        /* \"#utility.yul\":11687:11689   */\n      0x1f\n        /* \"#utility.yul\":11683:11690   */\n      not\n        /* \"#utility.yul\":11678:11680   */\n      0x1f\n        /* \"#utility.yul\":11671:11676   */\n      dup4\n        /* \"#utility.yul\":11667:11681   */\n      add\n        /* \"#utility.yul\":11663:11691   */\n      and\n        /* \"#utility.yul\":11653:11691   */\n      swap1\n      pop\n        /* \"#utility.yul\":11595:11697   */\n      swap2\n      swap1\n      pop\n      jump\t// out\n        /* \"#utility.yul\":11703:11878   */\n    tag_162:\n        /* \"#utility.yul\":11843:11870   */\n      0x496e636f7272656374207374617274696e672070726963652e00000000000000\n        /* \"#utility.yul\":11839:11840   */\n      0x00\n        /* \"#utility.yul\":11831:11837   */\n      dup3\n        /* \"#utility.yul\":11827:11841   */\n      add\n        /* \"#utility.yul\":11820:11871   */\n      mstore\n        /* \"#utility.yul\":11703:11878   */\n      pop\n      jump\t// out\n        /* \"#utility.yul\":11884:12053   */\n    tag_167:\n        /* \"#utility.yul\":12024:12045   */\n      0x41756374696f6e2069732073746f707065642e00000000000000000000000000\n        /* \"#utility.yul\":12020:12021   */\n      0x00\n        /* \"#utility.yul\":12012:12018   */\n      dup3\n        /* \"#utility.yul\":12008:12022   */\n      add\n        /* \"#utility.yul\":12001:12046   */\n      mstore\n        /* \"#utility.yul\":11884:12053   */\n      pop\n      jump\t// out\n        /* \"#utility.yul\":12059:12227   */\n    tag_172:\n        /* \"#utility.yul\":12199:12219   */\n      0x41756374696f6e2068617320656e6465642e0000000000000000000000000000\n        /* \"#utility.yul\":12195:12196   */\n      0x00\n        /* \"#utility.yul\":12187:12193   */\n      dup3\n        /* \"#utility.yul\":12183:12197   */\n      add\n        /* \"#utility.yul\":12176:12220   */\n      mstore\n        /* \"#utility.yul\":12059:12227   */\n      pop\n      jump\t// out\n        /* \"#utility.yul\":12233:12355   */\n    tag_114:\n        /* \"#utility.yul\":12306:12330   */\n      tag_253\n        /* \"#utility.yul\":12324:12329   */\n      dup2\n        /* \"#utility.yul\":12306:12330   */\n      tag_176\n      jump\t// in\n    tag_253:\n        /* \"#utility.yul\":12299:12304   */\n      dup2\n        /* \"#utility.yul\":12296:12331   */\n      eq\n        /* \"#utility.yul\":12286:12349   */\n      tag_254\n      jumpi\n        /* \"#utility.yul\":12345:12346   */\n      0x00\n        /* \"#utility.yul\":12342:12343   */\n      dup1\n        /* \"#utility.yul\":12335:12347   */\n      revert\n        /* \"#utility.yul\":12286:12349   */\n    tag_254:\n        /* \"#utility.yul\":12233:12355   */\n      pop\n      jump\t// out\n\n    auxdata: 0xa264697066735822122076b058bdef9ce8b39d6dfc5c4e2bf342b411ab4e8d570cbe278b6c0f447900ef64736f6c63430008070033\n}\n",
				"bytecode": {
					"linkReferences": {},
					"object": "608060405234801561001057600080fd5b50336000806101000a81548173ffffffffffffffffffffffffffffffffffffffff021916908373ffffffffffffffffffffffffffffffffffffffff16021790555061102e806100606000396000f3fe60806040526004361061004a5760003560e01c80634534cd9c1461004f578063571a26a01461008c5780638da5cb5b146100d0578063d96a094a146100fb578063e9835d1514610117575b600080fd5b34801561005b57600080fd5b50610076600480360381019061007191906109b8565b610140565b6040516100839190610c78565b60405180910390f35b34801561009857600080fd5b506100b360048036038101906100ae91906109b8565b61032f565b6040516100c7989796959493929190610b93565b60405180910390f35b3480156100dc57600080fd5b506100e561043c565b6040516100f29190610b78565b60405180910390f35b610115600480360381019061011091906109b8565b610460565b005b34801561012357600080fd5b5061013e600480360381019061013991906109e5565b610664565b005b6000806001838154811061015757610156610f0d565b5b9060005260206000209060080201604051806101000160405290816000820160009054906101000a900473ffffffffffffffffffffffffffffffffffffffff1673ffffffffffffffffffffffffffffffffffffffff1673ffffffffffffffffffffffffffffffffffffffff168152602001600182015481526020016002820154815260200160038201548152602001600482015481526020016005820154815260200160068201805461020990610e7d565b80601f016020809104026020016040519081016040528092919081815260200182805461023590610e7d565b80156102825780601f1061025757610100808354040283529160200191610282565b820191906000526020600020905b81548152906001019060200180831161026557829003601f168201915b505050505081526020016007820160009054906101000a900460ff16151515158152505090508060e00151156102ed576040517f08c379a00000000000000000000000000000000000000000000000000000000081526004016102e490610c38565b60405180910390fd5b60008160600151426102ff9190610dad565b90506000818360a001516103139190610d53565b90508083602001516103259190610dad565b9350505050919050565b6001818154811061033f57600080fd5b90600052602060002090600802016000915090508060000160009054906101000a900473ffffffffffffffffffffffffffffffffffffffff16908060010154908060020154908060030154908060040154908060050154908060060180546103a690610e7d565b80601f01602080910402602001604051908101604052809291908181526020018280546103d290610e7d565b801561041f5780601f106103f45761010080835404028352916020019161041f565b820191906000526020600020905b81548152906001019060200180831161040257829003601f168201915b5050505050908060070160009054906101000a900460ff16905088565b60008054906101000a900473ffffffffffffffffffffffffffffffffffffffff1681565b60006001828154811061047657610475610f0d565b5b9060005260206000209060080201604051806101000160405290816000820160009054906101000a900473ffffffffffffffffffffffffffffffffffffffff1673ffffffffffffffffffffffffffffffffffffffff1673ffffffffffffffffffffffffffffffffffffffff168152602001600182015481526020016002820154815260200160038201548152602001600482015481526020016005820154815260200160068201805461052890610e7d565b80601f016020809104026020016040519081016040528092919081815260200182805461055490610e7d565b80156105a15780601f10610576576101008083540402835291602001916105a1565b820191906000526020600020905b81548152906001019060200180831161058457829003601f168201915b505050505081526020016007820160009054906101000a900460ff16151515158152505090508060e001511561060c576040517f08c379a000000000000000000000000000000000000000000000000000000000815260040161060390610c38565b60405180910390fd5b80608001514210610652576040517f08c379a000000000000000000000000000000000000000000000000000000000815260040161064990610c58565b60405180910390fd5b600061065d83610140565b9050505050565b60008082146106735781610678565b6202a3005b905081856106869190610d53565b8610156106c8576040517f08c379a00000000000000000000000000000000000000000000000000000000081526004016106bf90610c18565b60405180910390fd5b60006040518061010001604052803373ffffffffffffffffffffffffffffffffffffffff16815260200188815260200188815260200142815260200183426107109190610cfd565b815260200187815260200186868080601f016020809104026020016040519081016040528093929190818152602001838380828437600081840152601f19601f820116905080830192505050505050508152602001600015158152509050600181908060018154018082558091505060019003906000526020600020906008020160009091909190915060008201518160000160006101000a81548173ffffffffffffffffffffffffffffffffffffffff021916908373ffffffffffffffffffffffffffffffffffffffff1602179055506020820151816001015560408201518160020155606082015181600301556080820151816004015560a0820151816005015560c082015181600601908051906020019061082f9291906108aa565b5060e08201518160070160006101000a81548160ff02191690831515021790555050507f5bf34ed94988e5dcdc7d1faaa54eb1d3b55f45d5f11457e235afb21a8ebbe73c600180805490506108849190610dad565b86868a86604051610899959493929190610c93565b60405180910390a150505050505050565b8280546108b690610e7d565b90600052602060002090601f0160209004810192826108d8576000855561091f565b82601f106108f157805160ff191683800117855561091f565b8280016001018555821561091f579182015b8281111561091e578251825591602001919060010190610903565b5b50905061092c9190610930565b5090565b5b80821115610949576000816000905550600101610931565b5090565b60008083601f84011261096357610962610f41565b5b8235905067ffffffffffffffff8111156109805761097f610f3c565b5b60208301915083600182028301111561099c5761099b610f46565b5b9250929050565b6000813590506109b281610fe1565b92915050565b6000602082840312156109ce576109cd610f50565b5b60006109dc848285016109a3565b91505092915050565b600080600080600060808688031215610a0157610a00610f50565b5b6000610a0f888289016109a3565b9550506020610a20888289016109a3565b945050604086013567ffffffffffffffff811115610a4157610a40610f4b565b5b610a4d8882890161094d565b93509350506060610a60888289016109a3565b9150509295509295909350565b610a7681610df3565b82525050565b610a8581610de1565b82525050565b610a9481610e05565b82525050565b6000610aa68385610cec565b9350610ab3838584610e3b565b610abc83610f55565b840190509392505050565b6000610ad282610ce1565b610adc8185610cec565b9350610aec818560208601610e4a565b610af581610f55565b840191505092915050565b6000610b0d601983610cec565b9150610b1882610f66565b602082019050919050565b6000610b30601383610cec565b9150610b3b82610f8f565b602082019050919050565b6000610b53601283610cec565b9150610b5e82610fb8565b602082019050919050565b610b7281610e31565b82525050565b6000602082019050610b8d6000830184610a7c565b92915050565b600061010082019050610ba9600083018b610a6d565b610bb6602083018a610b69565b610bc36040830189610b69565b610bd06060830188610b69565b610bdd6080830187610b69565b610bea60a0830186610b69565b81810360c0830152610bfc8185610ac7565b9050610c0b60e0830184610a8b565b9998505050505050505050565b60006020820190508181036000830152610c3181610b00565b9050919050565b60006020820190508181036000830152610c5181610b23565b9050919050565b60006020820190508181036000830152610c7181610b46565b9050919050565b6000602082019050610c8d6000830184610b69565b92915050565b6000608082019050610ca86000830188610b69565b8181036020830152610cbb818688610a9a565b9050610cca6040830185610b69565b610cd76060830184610b69565b9695505050505050565b600081519050919050565b600082825260208201905092915050565b6000610d0882610e31565b9150610d1383610e31565b9250827fffffffffffffffffffffffffffffffffffffffffffffffffffffffffffffffff03821115610d4857610d47610eaf565b5b828201905092915050565b6000610d5e82610e31565b9150610d6983610e31565b9250817fffffffffffffffffffffffffffffffffffffffffffffffffffffffffffffffff0483118215151615610da257610da1610eaf565b5b828202905092915050565b6000610db882610e31565b9150610dc383610e31565b925082821015610dd657610dd5610eaf565b5b828203905092915050565b6000610dec82610e11565b9050919050565b6000610dfe82610e11565b9050919050565b60008115159050919050565b600073ffffffffffffffffffffffffffffffffffffffff82169050919050565b6000819050919050565b82818337600083830152505050565b60005b83811015610e68578082015181840152602081019050610e4d565b83811115610e77576000848401525b50505050565b60006002820490506001821680610e9557607f821691505b60208210811415610ea957610ea8610ede565b5b50919050565b7f4e487b7100000000000000000000000000000000000000000000000000000000600052601160045260246000fd5b7f4e487b7100000000000000000000000000000000000000000000000000000000600052602260045260246000fd5b7f4e487b7100000000000000000000000000000000000000000000000000000000600052603260045260246000fd5b600080fd5b600080fd5b600080fd5b600080fd5b600080fd5b6000601f19601f8301169050919050565b7f496e636f7272656374207374617274696e672070726963652e00000000000000600082015250565b7f41756374696f6e2069732073746f707065642e00000000000000000000000000600082015250565b7f41756374696f6e2068617320656e6465642e0000000000000000000000000000600082015250565b610fea81610e31565b8114610ff557600080fd5b5056fea264697066735822122076b058bdef9ce8b39d6dfc5c4e2bf342b411ab4e8d570cbe278b6c0f447900ef64736f6c63430008070033",
					"opcodes": "PUSH1 0x80 PUSH1 0x40 MSTORE CALLVALUE DUP1 ISZERO PUSH2 0x10 JUMPI PUSH1 0x0 DUP1 REVERT JUMPDEST POP CALLER PUSH1 0x0 DUP1 PUSH2 0x100 EXP DUP2 SLOAD DUP2 PUSH20 0xFFFFFFFFFFFFFFFFFFFFFFFFFFFFFFFFFFFFFFFF MUL NOT AND SWAP1 DUP4 PUSH20 0xFFFFFFFFFFFFFFFFFFFFFFFFFFFFFFFFFFFFFFFF AND MUL OR SWAP1 SSTORE POP PUSH2 0x102E DUP1 PUSH2 0x60 PUSH1 0x0 CODECOPY PUSH1 0x0 RETURN INVALID PUSH1 0x80 PUSH1 0x40 MSTORE PUSH1 0x4 CALLDATASIZE LT PUSH2 0x4A JUMPI PUSH1 0x0 CALLDATALOAD PUSH1 0xE0 SHR DUP1 PUSH4 0x4534CD9C EQ PUSH2 0x4F JUMPI DUP1 PUSH4 0x571A26A0 EQ PUSH2 0x8C JUMPI DUP1 PUSH4 0x8DA5CB5B EQ PUSH2 0xD0 JUMPI DUP1 PUSH4 0xD96A094A EQ PUSH2 0xFB JUMPI DUP1 PUSH4 0xE9835D15 EQ PUSH2 0x117 JUMPI JUMPDEST PUSH1 0x0 DUP1 REVERT JUMPDEST CALLVALUE DUP1 ISZERO PUSH2 0x5B JUMPI PUSH1 0x0 DUP1 REVERT JUMPDEST POP PUSH2 0x76 PUSH1 0x4 DUP1 CALLDATASIZE SUB DUP2 ADD SWAP1 PUSH2 0x71 SWAP2 SWAP1 PUSH2 0x9B8 JUMP JUMPDEST PUSH2 0x140 JUMP JUMPDEST PUSH1 0x40 MLOAD PUSH2 0x83 SWAP2 SWAP1 PUSH2 0xC78 JUMP JUMPDEST PUSH1 0x40 MLOAD DUP1 SWAP2 SUB SWAP1 RETURN JUMPDEST CALLVALUE DUP1 ISZERO PUSH2 0x98 JUMPI PUSH1 0x0 DUP1 REVERT JUMPDEST POP PUSH2 0xB3 PUSH1 0x4 DUP1 CALLDATASIZE SUB DUP2 ADD SWAP1 PUSH2 0xAE SWAP2 SWAP1 PUSH2 0x9B8 JUMP JUMPDEST PUSH2 0x32F JUMP JUMPDEST PUSH1 0x40 MLOAD PUSH2 0xC7 SWAP9 SWAP8 SWAP7 SWAP6 SWAP5 SWAP4 SWAP3 SWAP2 SWAP1 PUSH2 0xB93 JUMP JUMPDEST PUSH1 0x40 MLOAD DUP1 SWAP2 SUB SWAP1 RETURN JUMPDEST CALLVALUE DUP1 ISZERO PUSH2 0xDC JUMPI PUSH1 0x0 DUP1 REVERT JUMPDEST POP PUSH2 0xE5 PUSH2 0x43C JUMP JUMPDEST PUSH1 0x40 MLOAD PUSH2 0xF2 SWAP2 SWAP1 PUSH2 0xB78 JUMP JUMPDEST PUSH1 0x40 MLOAD DUP1 SWAP2 SUB SWAP1 RETURN JUMPDEST PUSH2 0x115 PUSH1 0x4 DUP1 CALLDATASIZE SUB DUP2 ADD SWAP1 PUSH2 0x110 SWAP2 SWAP1 PUSH2 0x9B8 JUMP JUMPDEST PUSH2 0x460 JUMP JUMPDEST STOP JUMPDEST CALLVALUE DUP1 ISZERO PUSH2 0x123 JUMPI PUSH1 0x0 DUP1 REVERT JUMPDEST POP PUSH2 0x13E PUSH1 0x4 DUP1 CALLDATASIZE SUB DUP2 ADD SWAP1 PUSH2 0x139 SWAP2 SWAP1 PUSH2 0x9E5 JUMP JUMPDEST PUSH2 0x664 JUMP JUMPDEST STOP JUMPDEST PUSH1 0x0 DUP1 PUSH1 0x1 DUP4 DUP2 SLOAD DUP2 LT PUSH2 0x157 JUMPI PUSH2 0x156 PUSH2 0xF0D JUMP JUMPDEST JUMPDEST SWAP1 PUSH1 0x0 MSTORE PUSH1 0x20 PUSH1 0x0 KECCAK256 SWAP1 PUSH1 0x8 MUL ADD PUSH1 0x40 MLOAD DUP1 PUSH2 0x100 ADD PUSH1 0x40 MSTORE SWAP1 DUP2 PUSH1 0x0 DUP3 ADD PUSH1 0x0 SWAP1 SLOAD SWAP1 PUSH2 0x100 EXP SWAP1 DIV PUSH20 0xFFFFFFFFFFFFFFFFFFFFFFFFFFFFFFFFFFFFFFFF AND PUSH20 0xFFFFFFFFFFFFFFFFFFFFFFFFFFFFFFFFFFFFFFFF AND PUSH20 0xFFFFFFFFFFFFFFFFFFFFFFFFFFFFFFFFFFFFFFFF AND DUP2 MSTORE PUSH1 0x20 ADD PUSH1 0x1 DUP3 ADD SLOAD DUP2 MSTORE PUSH1 0x20 ADD PUSH1 0x2 DUP3 ADD SLOAD DUP2 MSTORE PUSH1 0x20 ADD PUSH1 0x3 DUP3 ADD SLOAD DUP2 MSTORE PUSH1 0x20 ADD PUSH1 0x4 DUP3 ADD SLOAD DUP2 MSTORE PUSH1 0x20 ADD PUSH1 0x5 DUP3 ADD SLOAD DUP2 MSTORE PUSH1 0x20 ADD PUSH1 0x6 DUP3 ADD DUP1 SLOAD PUSH2 0x209 SWAP1 PUSH2 0xE7D JUMP JUMPDEST DUP1 PUSH1 0x1F ADD PUSH1 0x20 DUP1 SWAP2 DIV MUL PUSH1 0x20 ADD PUSH1 0x40 MLOAD SWAP1 DUP2 ADD PUSH1 0x40 MSTORE DUP1 SWAP3 SWAP2 SWAP1 DUP2 DUP2 MSTORE PUSH1 0x20 ADD DUP3 DUP1 SLOAD PUSH2 0x235 SWAP1 PUSH2 0xE7D JUMP JUMPDEST DUP1 ISZERO PUSH2 0x282 JUMPI DUP1 PUSH1 0x1F LT PUSH2 0x257 JUMPI PUSH2 0x100 DUP1 DUP4 SLOAD DIV MUL DUP4 MSTORE SWAP2 PUSH1 0x20 ADD SWAP2 PUSH2 0x282 JUMP JUMPDEST DUP3 ADD SWAP2 SWAP1 PUSH1 0x0 MSTORE PUSH1 0x20 PUSH1 0x0 KECCAK256 SWAP1 JUMPDEST DUP2 SLOAD DUP2 MSTORE SWAP1 PUSH1 0x1 ADD SWAP1 PUSH1 0x20 ADD DUP1 DUP4 GT PUSH2 0x265 JUMPI DUP3 SWAP1 SUB PUSH1 0x1F AND DUP3 ADD SWAP2 JUMPDEST POP POP POP POP POP DUP2 MSTORE PUSH1 0x20 ADD PUSH1 0x7 DUP3 ADD PUSH1 0x0 SWAP1 SLOAD SWAP1 PUSH2 0x100 EXP SWAP1 DIV PUSH1 0xFF AND ISZERO ISZERO ISZERO ISZERO DUP2 MSTORE POP POP SWAP1 POP DUP1 PUSH1 0xE0 ADD MLOAD ISZERO PUSH2 0x2ED JUMPI PUSH1 0x40 MLOAD PUSH32 0x8C379A000000000000000000000000000000000000000000000000000000000 DUP2 MSTORE PUSH1 0x4 ADD PUSH2 0x2E4 SWAP1 PUSH2 0xC38 JUMP JUMPDEST PUSH1 0x40 MLOAD DUP1 SWAP2 SUB SWAP1 REVERT JUMPDEST PUSH1 0x0 DUP2 PUSH1 0x60 ADD MLOAD TIMESTAMP PUSH2 0x2FF SWAP2 SWAP1 PUSH2 0xDAD JUMP JUMPDEST SWAP1 POP PUSH1 0x0 DUP2 DUP4 PUSH1 0xA0 ADD MLOAD PUSH2 0x313 SWAP2 SWAP1 PUSH2 0xD53 JUMP JUMPDEST SWAP1 POP DUP1 DUP4 PUSH1 0x20 ADD MLOAD PUSH2 0x325 SWAP2 SWAP1 PUSH2 0xDAD JUMP JUMPDEST SWAP4 POP POP POP POP SWAP2 SWAP1 POP JUMP JUMPDEST PUSH1 0x1 DUP2 DUP2 SLOAD DUP2 LT PUSH2 0x33F JUMPI PUSH1 0x0 DUP1 REVERT JUMPDEST SWAP1 PUSH1 0x0 MSTORE PUSH1 0x20 PUSH1 0x0 KECCAK256 SWAP1 PUSH1 0x8 MUL ADD PUSH1 0x0 SWAP2 POP SWAP1 POP DUP1 PUSH1 0x0 ADD PUSH1 0x0 SWAP1 SLOAD SWAP1 PUSH2 0x100 EXP SWAP1 DIV PUSH20 0xFFFFFFFFFFFFFFFFFFFFFFFFFFFFFFFFFFFFFFFF AND SWAP1 DUP1 PUSH1 0x1 ADD SLOAD SWAP1 DUP1 PUSH1 0x2 ADD SLOAD SWAP1 DUP1 PUSH1 0x3 ADD SLOAD SWAP1 DUP1 PUSH1 0x4 ADD SLOAD SWAP1 DUP1 PUSH1 0x5 ADD SLOAD SWAP1 DUP1 PUSH1 0x6 ADD DUP1 SLOAD PUSH2 0x3A6 SWAP1 PUSH2 0xE7D JUMP JUMPDEST DUP1 PUSH1 0x1F ADD PUSH1 0x20 DUP1 SWAP2 DIV MUL PUSH1 0x20 ADD PUSH1 0x40 MLOAD SWAP1 DUP2 ADD PUSH1 0x40 MSTORE DUP1 SWAP3 SWAP2 SWAP1 DUP2 DUP2 MSTORE PUSH1 0x20 ADD DUP3 DUP1 SLOAD PUSH2 0x3D2 SWAP1 PUSH2 0xE7D JUMP JUMPDEST DUP1 ISZERO PUSH2 0x41F JUMPI DUP1 PUSH1 0x1F LT PUSH2 0x3F4 JUMPI PUSH2 0x100 DUP1 DUP4 SLOAD DIV MUL DUP4 MSTORE SWAP2 PUSH1 0x20 ADD SWAP2 PUSH2 0x41F JUMP JUMPDEST DUP3 ADD SWAP2 SWAP1 PUSH1 0x0 MSTORE PUSH1 0x20 PUSH1 0x0 KECCAK256 SWAP1 JUMPDEST DUP2 SLOAD DUP2 MSTORE SWAP1 PUSH1 0x1 ADD SWAP1 PUSH1 0x20 ADD DUP1 DUP4 GT PUSH2 0x402 JUMPI DUP3 SWAP1 SUB PUSH1 0x1F AND DUP3 ADD SWAP2 JUMPDEST POP POP POP POP POP SWAP1 DUP1 PUSH1 0x7 ADD PUSH1 0x0 SWAP1 SLOAD SWAP1 PUSH2 0x100 EXP SWAP1 DIV PUSH1 0xFF AND SWAP1 POP DUP9 JUMP JUMPDEST PUSH1 0x0 DUP1 SLOAD SWAP1 PUSH2 0x100 EXP SWAP1 DIV PUSH20 0xFFFFFFFFFFFFFFFFFFFFFFFFFFFFFFFFFFFFFFFF AND DUP2 JUMP JUMPDEST PUSH1 0x0 PUSH1 0x1 DUP3 DUP2 SLOAD DUP2 LT PUSH2 0x476 JUMPI PUSH2 0x475 PUSH2 0xF0D JUMP JUMPDEST JUMPDEST SWAP1 PUSH1 0x0 MSTORE PUSH1 0x20 PUSH1 0x0 KECCAK256 SWAP1 PUSH1 0x8 MUL ADD PUSH1 0x40 MLOAD DUP1 PUSH2 0x100 ADD PUSH1 0x40 MSTORE SWAP1 DUP2 PUSH1 0x0 DUP3 ADD PUSH1 0x0 SWAP1 SLOAD SWAP1 PUSH2 0x100 EXP SWAP1 DIV PUSH20 0xFFFFFFFFFFFFFFFFFFFFFFFFFFFFFFFFFFFFFFFF AND PUSH20 0xFFFFFFFFFFFFFFFFFFFFFFFFFFFFFFFFFFFFFFFF AND PUSH20 0xFFFFFFFFFFFFFFFFFFFFFFFFFFFFFFFFFFFFFFFF AND DUP2 MSTORE PUSH1 0x20 ADD PUSH1 0x1 DUP3 ADD SLOAD DUP2 MSTORE PUSH1 0x20 ADD PUSH1 0x2 DUP3 ADD SLOAD DUP2 MSTORE PUSH1 0x20 ADD PUSH1 0x3 DUP3 ADD SLOAD DUP2 MSTORE PUSH1 0x20 ADD PUSH1 0x4 DUP3 ADD SLOAD DUP2 MSTORE PUSH1 0x20 ADD PUSH1 0x5 DUP3 ADD SLOAD DUP2 MSTORE PUSH1 0x20 ADD PUSH1 0x6 DUP3 ADD DUP1 SLOAD PUSH2 0x528 SWAP1 PUSH2 0xE7D JUMP JUMPDEST DUP1 PUSH1 0x1F ADD PUSH1 0x20 DUP1 SWAP2 DIV MUL PUSH1 0x20 ADD PUSH1 0x40 MLOAD SWAP1 DUP2 ADD PUSH1 0x40 MSTORE DUP1 SWAP3 SWAP2 SWAP1 DUP2 DUP2 MSTORE PUSH1 0x20 ADD DUP3 DUP1 SLOAD PUSH2 0x554 SWAP1 PUSH2 0xE7D JUMP JUMPDEST DUP1 ISZERO PUSH2 0x5A1 JUMPI DUP1 PUSH1 0x1F LT PUSH2 0x576 JUMPI PUSH2 0x100 DUP1 DUP4 SLOAD DIV MUL DUP4 MSTORE SWAP2 PUSH1 0x20 ADD SWAP2 PUSH2 0x5A1 JUMP JUMPDEST DUP3 ADD SWAP2 SWAP1 PUSH1 0x0 MSTORE PUSH1 0x20 PUSH1 0x0 KECCAK256 SWAP1 JUMPDEST DUP2 SLOAD DUP2 MSTORE SWAP1 PUSH1 0x1 ADD SWAP1 PUSH1 0x20 ADD DUP1 DUP4 GT PUSH2 0x584 JUMPI DUP3 SWAP1 SUB PUSH1 0x1F AND DUP3 ADD SWAP2 JUMPDEST POP POP POP POP POP DUP2 MSTORE PUSH1 0x20 ADD PUSH1 0x7 DUP3 ADD PUSH1 0x0 SWAP1 SLOAD SWAP1 PUSH2 0x100 EXP SWAP1 DIV PUSH1 0xFF AND ISZERO ISZERO ISZERO ISZERO DUP2 MSTORE POP POP SWAP1 POP DUP1 PUSH1 0xE0 ADD MLOAD ISZERO PUSH2 0x60C JUMPI PUSH1 0x40 MLOAD PUSH32 0x8C379A000000000000000000000000000000000000000000000000000000000 DUP2 MSTORE PUSH1 0x4 ADD PUSH2 0x603 SWAP1 PUSH2 0xC38 JUMP JUMPDEST PUSH1 0x40 MLOAD DUP1 SWAP2 SUB SWAP1 REVERT JUMPDEST DUP1 PUSH1 0x80 ADD MLOAD TIMESTAMP LT PUSH2 0x652 JUMPI PUSH1 0x40 MLOAD PUSH32 0x8C379A000000000000000000000000000000000000000000000000000000000 DUP2 MSTORE PUSH1 0x4 ADD PUSH2 0x649 SWAP1 PUSH2 0xC58 JUMP JUMPDEST PUSH1 0x40 MLOAD DUP1 SWAP2 SUB SWAP1 REVERT JUMPDEST PUSH1 0x0 PUSH2 0x65D DUP4 PUSH2 0x140 JUMP JUMPDEST SWAP1 POP POP POP POP JUMP JUMPDEST PUSH1 0x0 DUP1 DUP3 EQ PUSH2 0x673 JUMPI DUP2 PUSH2 0x678 JUMP JUMPDEST PUSH3 0x2A300 JUMPDEST SWAP1 POP DUP2 DUP6 PUSH2 0x686 SWAP2 SWAP1 PUSH2 0xD53 JUMP JUMPDEST DUP7 LT ISZERO PUSH2 0x6C8 JUMPI PUSH1 0x40 MLOAD PUSH32 0x8C379A000000000000000000000000000000000000000000000000000000000 DUP2 MSTORE PUSH1 0x4 ADD PUSH2 0x6BF SWAP1 PUSH2 0xC18 JUMP JUMPDEST PUSH1 0x40 MLOAD DUP1 SWAP2 SUB SWAP1 REVERT JUMPDEST PUSH1 0x0 PUSH1 0x40 MLOAD DUP1 PUSH2 0x100 ADD PUSH1 0x40 MSTORE DUP1 CALLER PUSH20 0xFFFFFFFFFFFFFFFFFFFFFFFFFFFFFFFFFFFFFFFF AND DUP2 MSTORE PUSH1 0x20 ADD DUP9 DUP2 MSTORE PUSH1 0x20 ADD DUP9 DUP2 MSTORE PUSH1 0x20 ADD TIMESTAMP DUP2 MSTORE PUSH1 0x20 ADD DUP4 TIMESTAMP PUSH2 0x710 SWAP2 SWAP1 PUSH2 0xCFD JUMP JUMPDEST DUP2 MSTORE PUSH1 0x20 ADD DUP8 DUP2 MSTORE PUSH1 0x20 ADD DUP7 DUP7 DUP1 DUP1 PUSH1 0x1F ADD PUSH1 0x20 DUP1 SWAP2 DIV MUL PUSH1 0x20 ADD PUSH1 0x40 MLOAD SWAP1 DUP2 ADD PUSH1 0x40 MSTORE DUP1 SWAP4 SWAP3 SWAP2 SWAP1 DUP2 DUP2 MSTORE PUSH1 0x20 ADD DUP4 DUP4 DUP1 DUP3 DUP5 CALLDATACOPY PUSH1 0x0 DUP2 DUP5 ADD MSTORE PUSH1 0x1F NOT PUSH1 0x1F DUP3 ADD AND SWAP1 POP DUP1 DUP4 ADD SWAP3 POP POP POP POP POP POP POP DUP2 MSTORE PUSH1 0x20 ADD PUSH1 0x0 ISZERO ISZERO DUP2 MSTORE POP SWAP1 POP PUSH1 0x1 DUP2 SWAP1 DUP1 PUSH1 0x1 DUP2 SLOAD ADD DUP1 DUP3 SSTORE DUP1 SWAP2 POP POP PUSH1 0x1 SWAP1 SUB SWAP1 PUSH1 0x0 MSTORE PUSH1 0x20 PUSH1 0x0 KECCAK256 SWAP1 PUSH1 0x8 MUL ADD PUSH1 0x0 SWAP1 SWAP2 SWAP1 SWAP2 SWAP1 SWAP2 POP PUSH1 0x0 DUP3 ADD MLOAD DUP2 PUSH1 0x0 ADD PUSH1 0x0 PUSH2 0x100 EXP DUP2 SLOAD DUP2 PUSH20 0xFFFFFFFFFFFFFFFFFFFFFFFFFFFFFFFFFFFFFFFF MUL NOT AND SWAP1 DUP4 PUSH20 0xFFFFFFFFFFFFFFFFFFFFFFFFFFFFFFFFFFFFFFFF AND MUL OR SWAP1 SSTORE POP PUSH1 0x20 DUP3 ADD MLOAD DUP2 PUSH1 0x1 ADD SSTORE PUSH1 0x40 DUP3 ADD MLOAD DUP2 PUSH1 0x2 ADD SSTORE PUSH1 0x60 DUP3 ADD MLOAD DUP2 PUSH1 0x3 ADD SSTORE PUSH1 0x80 DUP3 ADD MLOAD DUP2 PUSH1 0x4 ADD SSTORE PUSH1 0xA0 DUP3 ADD MLOAD DUP2 PUSH1 0x5 ADD SSTORE PUSH1 0xC0 DUP3 ADD MLOAD DUP2 PUSH1 0x6 ADD SWAP1 DUP1 MLOAD SWAP1 PUSH1 0x20 ADD SWAP1 PUSH2 0x82F SWAP3 SWAP2 SWAP1 PUSH2 0x8AA JUMP JUMPDEST POP PUSH1 0xE0 DUP3 ADD MLOAD DUP2 PUSH1 0x7 ADD PUSH1 0x0 PUSH2 0x100 EXP DUP2 SLOAD DUP2 PUSH1 0xFF MUL NOT AND SWAP1 DUP4 ISZERO ISZERO MUL OR SWAP1 SSTORE POP POP POP PUSH32 0x5BF34ED94988E5DCDC7D1FAAA54EB1D3B55F45D5F11457E235AFB21A8EBBE73C PUSH1 0x1 DUP1 DUP1 SLOAD SWAP1 POP PUSH2 0x884 SWAP2 SWAP1 PUSH2 0xDAD JUMP JUMPDEST DUP7 DUP7 DUP11 DUP7 PUSH1 0x40 MLOAD PUSH2 0x899 SWAP6 SWAP5 SWAP4 SWAP3 SWAP2 SWAP1 PUSH2 0xC93 JUMP JUMPDEST PUSH1 0x40 MLOAD DUP1 SWAP2 SUB SWAP1 LOG1 POP POP POP POP POP POP POP JUMP JUMPDEST DUP3 DUP1 SLOAD PUSH2 0x8B6 SWAP1 PUSH2 0xE7D JUMP JUMPDEST SWAP1 PUSH1 0x0 MSTORE PUSH1 0x20 PUSH1 0x0 KECCAK256 SWAP1 PUSH1 0x1F ADD PUSH1 0x20 SWAP1 DIV DUP2 ADD SWAP3 DUP3 PUSH2 0x8D8 JUMPI PUSH1 0x0 DUP6 SSTORE PUSH2 0x91F JUMP JUMPDEST DUP3 PUSH1 0x1F LT PUSH2 0x8F1 JUMPI DUP1 MLOAD PUSH1 0xFF NOT AND DUP4 DUP1 ADD OR DUP6 SSTORE PUSH2 0x91F JUMP JUMPDEST DUP3 DUP1 ADD PUSH1 0x1 ADD DUP6 SSTORE DUP3 ISZERO PUSH2 0x91F JUMPI SWAP2 DUP3 ADD JUMPDEST DUP3 DUP2 GT ISZERO PUSH2 0x91E JUMPI DUP3 MLOAD DUP3 SSTORE SWAP2 PUSH1 0x20 ADD SWAP2 SWAP1 PUSH1 0x1 ADD SWAP1 PUSH2 0x903 JUMP JUMPDEST JUMPDEST POP SWAP1 POP PUSH2 0x92C SWAP2 SWAP1 PUSH2 0x930 JUMP JUMPDEST POP SWAP1 JUMP JUMPDEST JUMPDEST DUP1 DUP3 GT ISZERO PUSH2 0x949 JUMPI PUSH1 0x0 DUP2 PUSH1 0x0 SWAP1 SSTORE POP PUSH1 0x1 ADD PUSH2 0x931 JUMP JUMPDEST POP SWAP1 JUMP JUMPDEST PUSH1 0x0 DUP1 DUP4 PUSH1 0x1F DUP5 ADD SLT PUSH2 0x963 JUMPI PUSH2 0x962 PUSH2 0xF41 JUMP JUMPDEST JUMPDEST DUP3 CALLDATALOAD SWAP1 POP PUSH8 0xFFFFFFFFFFFFFFFF DUP2 GT ISZERO PUSH2 0x980 JUMPI PUSH2 0x97F PUSH2 0xF3C JUMP JUMPDEST JUMPDEST PUSH1 0x20 DUP4 ADD SWAP2 POP DUP4 PUSH1 0x1 DUP3 MUL DUP4 ADD GT ISZERO PUSH2 0x99C JUMPI PUSH2 0x99B PUSH2 0xF46 JUMP JUMPDEST JUMPDEST SWAP3 POP SWAP3 SWAP1 POP JUMP JUMPDEST PUSH1 0x0 DUP2 CALLDATALOAD SWAP1 POP PUSH2 0x9B2 DUP2 PUSH2 0xFE1 JUMP JUMPDEST SWAP3 SWAP2 POP POP JUMP JUMPDEST PUSH1 0x0 PUSH1 0x20 DUP3 DUP5 SUB SLT ISZERO PUSH2 0x9CE JUMPI PUSH2 0x9CD PUSH2 0xF50 JUMP JUMPDEST JUMPDEST PUSH1 0x0 PUSH2 0x9DC DUP5 DUP3 DUP6 ADD PUSH2 0x9A3 JUMP JUMPDEST SWAP2 POP POP SWAP3 SWAP2 POP POP JUMP JUMPDEST PUSH1 0x0 DUP1 PUSH1 0x0 DUP1 PUSH1 0x0 PUSH1 0x80 DUP7 DUP9 SUB SLT ISZERO PUSH2 0xA01 JUMPI PUSH2 0xA00 PUSH2 0xF50 JUMP JUMPDEST JUMPDEST PUSH1 0x0 PUSH2 0xA0F DUP9 DUP3 DUP10 ADD PUSH2 0x9A3 JUMP JUMPDEST SWAP6 POP POP PUSH1 0x20 PUSH2 0xA20 DUP9 DUP3 DUP10 ADD PUSH2 0x9A3 JUMP JUMPDEST SWAP5 POP POP PUSH1 0x40 DUP7 ADD CALLDATALOAD PUSH8 0xFFFFFFFFFFFFFFFF DUP2 GT ISZERO PUSH2 0xA41 JUMPI PUSH2 0xA40 PUSH2 0xF4B JUMP JUMPDEST JUMPDEST PUSH2 0xA4D DUP9 DUP3 DUP10 ADD PUSH2 0x94D JUMP JUMPDEST SWAP4 POP SWAP4 POP POP PUSH1 0x60 PUSH2 0xA60 DUP9 DUP3 DUP10 ADD PUSH2 0x9A3 JUMP JUMPDEST SWAP2 POP POP SWAP3 SWAP6 POP SWAP3 SWAP6 SWAP1 SWAP4 POP JUMP JUMPDEST PUSH2 0xA76 DUP2 PUSH2 0xDF3 JUMP JUMPDEST DUP3 MSTORE POP POP JUMP JUMPDEST PUSH2 0xA85 DUP2 PUSH2 0xDE1 JUMP JUMPDEST DUP3 MSTORE POP POP JUMP JUMPDEST PUSH2 0xA94 DUP2 PUSH2 0xE05 JUMP JUMPDEST DUP3 MSTORE POP POP JUMP JUMPDEST PUSH1 0x0 PUSH2 0xAA6 DUP4 DUP6 PUSH2 0xCEC JUMP JUMPDEST SWAP4 POP PUSH2 0xAB3 DUP4 DUP6 DUP5 PUSH2 0xE3B JUMP JUMPDEST PUSH2 0xABC DUP4 PUSH2 0xF55 JUMP JUMPDEST DUP5 ADD SWAP1 POP SWAP4 SWAP3 POP POP POP JUMP JUMPDEST PUSH1 0x0 PUSH2 0xAD2 DUP3 PUSH2 0xCE1 JUMP JUMPDEST PUSH2 0xADC DUP2 DUP6 PUSH2 0xCEC JUMP JUMPDEST SWAP4 POP PUSH2 0xAEC DUP2 DUP6 PUSH1 0x20 DUP7 ADD PUSH2 0xE4A JUMP JUMPDEST PUSH2 0xAF5 DUP2 PUSH2 0xF55 JUMP JUMPDEST DUP5 ADD SWAP2 POP POP SWAP3 SWAP2 POP POP JUMP JUMPDEST PUSH1 0x0 PUSH2 0xB0D PUSH1 0x19 DUP4 PUSH2 0xCEC JUMP JUMPDEST SWAP2 POP PUSH2 0xB18 DUP3 PUSH2 0xF66 JUMP JUMPDEST PUSH1 0x20 DUP3 ADD SWAP1 POP SWAP2 SWAP1 POP JUMP JUMPDEST PUSH1 0x0 PUSH2 0xB30 PUSH1 0x13 DUP4 PUSH2 0xCEC JUMP JUMPDEST SWAP2 POP PUSH2 0xB3B DUP3 PUSH2 0xF8F JUMP JUMPDEST PUSH1 0x20 DUP3 ADD SWAP1 POP SWAP2 SWAP1 POP JUMP JUMPDEST PUSH1 0x0 PUSH2 0xB53 PUSH1 0x12 DUP4 PUSH2 0xCEC JUMP JUMPDEST SWAP2 POP PUSH2 0xB5E DUP3 PUSH2 0xFB8 JUMP JUMPDEST PUSH1 0x20 DUP3 ADD SWAP1 POP SWAP2 SWAP1 POP JUMP JUMPDEST PUSH2 0xB72 DUP2 PUSH2 0xE31 JUMP JUMPDEST DUP3 MSTORE POP POP JUMP JUMPDEST PUSH1 0x0 PUSH1 0x20 DUP3 ADD SWAP1 POP PUSH2 0xB8D PUSH1 0x0 DUP4 ADD DUP5 PUSH2 0xA7C JUMP JUMPDEST SWAP3 SWAP2 POP POP JUMP JUMPDEST PUSH1 0x0 PUSH2 0x100 DUP3 ADD SWAP1 POP PUSH2 0xBA9 PUSH1 0x0 DUP4 ADD DUP12 PUSH2 0xA6D JUMP JUMPDEST PUSH2 0xBB6 PUSH1 0x20 DUP4 ADD DUP11 PUSH2 0xB69 JUMP JUMPDEST PUSH2 0xBC3 PUSH1 0x40 DUP4 ADD DUP10 PUSH2 0xB69 JUMP JUMPDEST PUSH2 0xBD0 PUSH1 0x60 DUP4 ADD DUP9 PUSH2 0xB69 JUMP JUMPDEST PUSH2 0xBDD PUSH1 0x80 DUP4 ADD DUP8 PUSH2 0xB69 JUMP JUMPDEST PUSH2 0xBEA PUSH1 0xA0 DUP4 ADD DUP7 PUSH2 0xB69 JUMP JUMPDEST DUP2 DUP2 SUB PUSH1 0xC0 DUP4 ADD MSTORE PUSH2 0xBFC DUP2 DUP6 PUSH2 0xAC7 JUMP JUMPDEST SWAP1 POP PUSH2 0xC0B PUSH1 0xE0 DUP4 ADD DUP5 PUSH2 0xA8B JUMP JUMPDEST SWAP10 SWAP9 POP POP POP POP POP POP POP POP POP JUMP JUMPDEST PUSH1 0x0 PUSH1 0x20 DUP3 ADD SWAP1 POP DUP2 DUP2 SUB PUSH1 0x0 DUP4 ADD MSTORE PUSH2 0xC31 DUP2 PUSH2 0xB00 JUMP JUMPDEST SWAP1 POP SWAP2 SWAP1 POP JUMP JUMPDEST PUSH1 0x0 PUSH1 0x20 DUP3 ADD SWAP1 POP DUP2 DUP2 SUB PUSH1 0x0 DUP4 ADD MSTORE PUSH2 0xC51 DUP2 PUSH2 0xB23 JUMP JUMPDEST SWAP1 POP SWAP2 SWAP1 POP JUMP JUMPDEST PUSH1 0x0 PUSH1 0x20 DUP3 ADD SWAP1 POP DUP2 DUP2 SUB PUSH1 0x0 DUP4 ADD MSTORE PUSH2 0xC71 DUP2 PUSH2 0xB46 JUMP JUMPDEST SWAP1 POP SWAP2 SWAP1 POP JUMP JUMPDEST PUSH1 0x0 PUSH1 0x20 DUP3 ADD SWAP1 POP PUSH2 0xC8D PUSH1 0x0 DUP4 ADD DUP5 PUSH2 0xB69 JUMP JUMPDEST SWAP3 SWAP2 POP POP JUMP JUMPDEST PUSH1 0x0 PUSH1 0x80 DUP3 ADD SWAP1 POP PUSH2 0xCA8 PUSH1 0x0 DUP4 ADD DUP9 PUSH2 0xB69 JUMP JUMPDEST DUP2 DUP2 SUB PUSH1 0x20 DUP4 ADD MSTORE PUSH2 0xCBB DUP2 DUP7 DUP9 PUSH2 0xA9A JUMP JUMPDEST SWAP1 POP PUSH2 0xCCA PUSH1 0x40 DUP4 ADD DUP6 PUSH2 0xB69 JUMP JUMPDEST PUSH2 0xCD7 PUSH1 0x60 DUP4 ADD DUP5 PUSH2 0xB69 JUMP JUMPDEST SWAP7 SWAP6 POP POP POP POP POP POP JUMP JUMPDEST PUSH1 0x0 DUP2 MLOAD SWAP1 POP SWAP2 SWAP1 POP JUMP JUMPDEST PUSH1 0x0 DUP3 DUP3 MSTORE PUSH1 0x20 DUP3 ADD SWAP1 POP SWAP3 SWAP2 POP POP JUMP JUMPDEST PUSH1 0x0 PUSH2 0xD08 DUP3 PUSH2 0xE31 JUMP JUMPDEST SWAP2 POP PUSH2 0xD13 DUP4 PUSH2 0xE31 JUMP JUMPDEST SWAP3 POP DUP3 PUSH32 0xFFFFFFFFFFFFFFFFFFFFFFFFFFFFFFFFFFFFFFFFFFFFFFFFFFFFFFFFFFFFFFFF SUB DUP3 GT ISZERO PUSH2 0xD48 JUMPI PUSH2 0xD47 PUSH2 0xEAF JUMP JUMPDEST JUMPDEST DUP3 DUP3 ADD SWAP1 POP SWAP3 SWAP2 POP POP JUMP JUMPDEST PUSH1 0x0 PUSH2 0xD5E DUP3 PUSH2 0xE31 JUMP JUMPDEST SWAP2 POP PUSH2 0xD69 DUP4 PUSH2 0xE31 JUMP JUMPDEST SWAP3 POP DUP2 PUSH32 0xFFFFFFFFFFFFFFFFFFFFFFFFFFFFFFFFFFFFFFFFFFFFFFFFFFFFFFFFFFFFFFFF DIV DUP4 GT DUP3 ISZERO ISZERO AND ISZERO PUSH2 0xDA2 JUMPI PUSH2 0xDA1 PUSH2 0xEAF JUMP JUMPDEST JUMPDEST DUP3 DUP3 MUL SWAP1 POP SWAP3 SWAP2 POP POP JUMP JUMPDEST PUSH1 0x0 PUSH2 0xDB8 DUP3 PUSH2 0xE31 JUMP JUMPDEST SWAP2 POP PUSH2 0xDC3 DUP4 PUSH2 0xE31 JUMP JUMPDEST SWAP3 POP DUP3 DUP3 LT ISZERO PUSH2 0xDD6 JUMPI PUSH2 0xDD5 PUSH2 0xEAF JUMP JUMPDEST JUMPDEST DUP3 DUP3 SUB SWAP1 POP SWAP3 SWAP2 POP POP JUMP JUMPDEST PUSH1 0x0 PUSH2 0xDEC DUP3 PUSH2 0xE11 JUMP JUMPDEST SWAP1 POP SWAP2 SWAP1 POP JUMP JUMPDEST PUSH1 0x0 PUSH2 0xDFE DUP3 PUSH2 0xE11 JUMP JUMPDEST SWAP1 POP SWAP2 SWAP1 POP JUMP JUMPDEST PUSH1 0x0 DUP2 ISZERO ISZERO SWAP1 POP SWAP2 SWAP1 POP JUMP JUMPDEST PUSH1 0x0 PUSH20 0xFFFFFFFFFFFFFFFFFFFFFFFFFFFFFFFFFFFFFFFF DUP3 AND SWAP1 POP SWAP2 SWAP1 POP JUMP JUMPDEST PUSH1 0x0 DUP2 SWAP1 POP SWAP2 SWAP1 POP JUMP JUMPDEST DUP3 DUP2 DUP4 CALLDATACOPY PUSH1 0x0 DUP4 DUP4 ADD MSTORE POP POP POP JUMP JUMPDEST PUSH1 0x0 JUMPDEST DUP4 DUP2 LT ISZERO PUSH2 0xE68 JUMPI DUP1 DUP3 ADD MLOAD DUP2 DUP5 ADD MSTORE PUSH1 0x20 DUP2 ADD SWAP1 POP PUSH2 0xE4D JUMP JUMPDEST DUP4 DUP2 GT ISZERO PUSH2 0xE77 JUMPI PUSH1 0x0 DUP5 DUP5 ADD MSTORE JUMPDEST POP POP POP POP JUMP JUMPDEST PUSH1 0x0 PUSH1 0x2 DUP3 DIV SWAP1 POP PUSH1 0x1 DUP3 AND DUP1 PUSH2 0xE95 JUMPI PUSH1 0x7F DUP3 AND SWAP2 POP JUMPDEST PUSH1 0x20 DUP3 LT DUP2 EQ ISZERO PUSH2 0xEA9 JUMPI PUSH2 0xEA8 PUSH2 0xEDE JUMP JUMPDEST JUMPDEST POP SWAP2 SWAP1 POP JUMP JUMPDEST PUSH32 0x4E487B7100000000000000000000000000000000000000000000000000000000 PUSH1 0x0 MSTORE PUSH1 0x11 PUSH1 0x4 MSTORE PUSH1 0x24 PUSH1 0x0 REVERT JUMPDEST PUSH32 0x4E487B7100000000000000000000000000000000000000000000000000000000 PUSH1 0x0 MSTORE PUSH1 0x22 PUSH1 0x4 MSTORE PUSH1 0x24 PUSH1 0x0 REVERT JUMPDEST PUSH32 0x4E487B7100000000000000000000000000000000000000000000000000000000 PUSH1 0x0 MSTORE PUSH1 0x32 PUSH1 0x4 MSTORE PUSH1 0x24 PUSH1 0x0 REVERT JUMPDEST PUSH1 0x0 DUP1 REVERT JUMPDEST PUSH1 0x0 DUP1 REVERT JUMPDEST PUSH1 0x0 DUP1 REVERT JUMPDEST PUSH1 0x0 DUP1 REVERT JUMPDEST PUSH1 0x0 DUP1 REVERT JUMPDEST PUSH1 0x0 PUSH1 0x1F NOT PUSH1 0x1F DUP4 ADD AND SWAP1 POP SWAP2 SWAP1 POP JUMP JUMPDEST PUSH32 0x496E636F7272656374207374617274696E672070726963652E00000000000000 PUSH1 0x0 DUP3 ADD MSTORE POP JUMP JUMPDEST PUSH32 0x41756374696F6E2069732073746F707065642E00000000000000000000000000 PUSH1 0x0 DUP3 ADD MSTORE POP JUMP JUMPDEST PUSH32 0x41756374696F6E2068617320656E6465642E0000000000000000000000000000 PUSH1 0x0 DUP3 ADD MSTORE POP JUMP JUMPDEST PUSH2 0xFEA DUP2 PUSH2 0xE31 JUMP JUMPDEST DUP2 EQ PUSH2 0xFF5 JUMPI PUSH1 0x0 DUP1 REVERT JUMPDEST POP JUMP INVALID LOG2 PUSH5 0x6970667358 0x22 SLT KECCAK256 PUSH23 0xB058BDEF9CE8B39D6DFC5C4E2BF342B411AB4E8D570CBE 0x27 DUP12 PUSH13 0xF447900EF64736F6C63430008 SMOD STOP CALLER "
				},
				"gasEstimates": {
					"creation": {
						"codeDepositCost": "828400",
						"executionCost": "25130",
						"totalCost": "853530"
					},
					"external": {
						"auctions(uint256)": "infinite",
						"buy(uint256)": "infinite",
						"createAuction(uint256,uint256,string,uint256)": "infinite",
						"getPriceFor(uint256)": "infinite",
						"owner()": "2533"
					}
				},
				"methodIdentifiers": {
					"auctions(uint256)": "571a26a0",
					"buy(uint256)": "d96a094a",
					"createAuction(uint256,uint256,string,uint256)": "e9835d15",
					"getPriceFor(uint256)": "4534cd9c",
					"owner()": "8da5cb5b"
				}
			},
			"storageLayout": {
				"storage": [
					{
						"astId": 3,
						"contract": "contracts/Lesson_5.sol:AucEngine",
						"label": "owner",
						"offset": 0,
						"slot": "0",
						"type": "t_address"
					},
					{
						"astId": 30,
						"contract": "contracts/Lesson_5.sol:AucEngine",
						"label": "auctions",
						"offset": 0,
						"slot": "1",
						"type": "t_array(t_struct(Auction)26_storage)dyn_storage"
					}
				],
				"types": {
					"t_address": {
						"encoding": "inplace",
						"label": "address",
						"numberOfBytes": "20"
					},
					"t_address_payable": {
						"encoding": "inplace",
						"label": "address payable",
						"numberOfBytes": "20"
					},
					"t_array(t_struct(Auction)26_storage)dyn_storage": {
						"base": "t_struct(Auction)26_storage",
						"encoding": "dynamic_array",
						"label": "struct AucEngine.Auction[]",
						"numberOfBytes": "32"
					},
					"t_bool": {
						"encoding": "inplace",
						"label": "bool",
						"numberOfBytes": "1"
					},
					"t_string_storage": {
						"encoding": "bytes",
						"label": "string",
						"numberOfBytes": "32"
					},
					"t_struct(Auction)26_storage": {
						"encoding": "inplace",
						"label": "struct AucEngine.Auction",
						"members": [
							{
								"astId": 11,
								"contract": "contracts/Lesson_5.sol:AucEngine",
								"label": "seller",
								"offset": 0,
								"slot": "0",
								"type": "t_address_payable"
							},
							{
								"astId": 13,
								"contract": "contracts/Lesson_5.sol:AucEngine",
								"label": "startingPrice",
								"offset": 0,
								"slot": "1",
								"type": "t_uint256"
							},
							{
								"astId": 15,
								"contract": "contracts/Lesson_5.sol:AucEngine",
								"label": "finalPrice",
								"offset": 0,
								"slot": "2",
								"type": "t_uint256"
							},
							{
								"astId": 17,
								"contract": "contracts/Lesson_5.sol:AucEngine",
								"label": "startsAt",
								"offset": 0,
								"slot": "3",
								"type": "t_uint256"
							},
							{
								"astId": 19,
								"contract": "contracts/Lesson_5.sol:AucEngine",
								"label": "endsAt",
								"offset": 0,
								"slot": "4",
								"type": "t_uint256"
							},
							{
								"astId": 21,
								"contract": "contracts/Lesson_5.sol:AucEngine",
								"label": "discountRate",
								"offset": 0,
								"slot": "5",
								"type": "t_uint256"
							},
							{
								"astId": 23,
								"contract": "contracts/Lesson_5.sol:AucEngine",
								"label": "item",
								"offset": 0,
								"slot": "6",
								"type": "t_string_storage"
							},
							{
								"astId": 25,
								"contract": "contracts/Lesson_5.sol:AucEngine",
								"label": "stopped",
								"offset": 0,
								"slot": "7",
								"type": "t_bool"
							}
						],
						"numberOfBytes": "256"
					},
					"t_uint256": {
						"encoding": "inplace",
						"label": "uint256",
						"numberOfBytes": "32"
					}
				}
			},
			"userdoc": {
				"kind": "user",
				"methods": {},
				"version": 1
			}
		}
	}
}