{
	"contracts/Lesson_5.sol": {
		"AucEngine": {
			"abi": [
				{
					"inputs": [],
					"stateMutability": "nonpayable",
					"type": "constructor"
				},
				{
					"anonymous": false,
					"inputs": [
						{
							"indexed": false,
							"internalType": "uint256",
							"name": "index",
							"type": "uint256"
						},
						{
							"indexed": false,
							"internalType": "string",
							"name": "itemName",
							"type": "string"
						},
						{
							"indexed": false,
							"internalType": "uint256",
							"name": "startingprice",
							"type": "uint256"
						},
						{
							"indexed": false,
							"internalType": "uint256",
							"name": "duration",
							"type": "uint256"
						}
					],
					"name": "AuctionCreated",
					"type": "event"
				},
				{
					"inputs": [
						{
							"internalType": "uint256",
							"name": "",
							"type": "uint256"
						}
					],
					"name": "auctions",
					"outputs": [
						{
							"internalType": "address payable",
							"name": "seller",
							"type": "address"
						},
						{
							"internalType": "uint256",
							"name": "startingPrice",
							"type": "uint256"
						},
						{
							"internalType": "uint256",
							"name": "finalPrice",
							"type": "uint256"
						},
						{
							"internalType": "uint256",
							"name": "startsAt",
							"type": "uint256"
						},
						{
							"internalType": "uint256",
							"name": "endsAt",
							"type": "uint256"
						},
						{
							"internalType": "uint256",
							"name": "discountRate",
							"type": "uint256"
						},
						{
							"internalType": "string",
							"name": "item",
							"type": "string"
						},
						{
							"internalType": "bool",
							"name": "stopped",
							"type": "bool"
						}
					],
					"stateMutability": "view",
					"type": "function"
				},
				{
					"inputs": [
						{
							"internalType": "uint256",
							"name": "_startingPrice",
							"type": "uint256"
						},
						{
							"internalType": "uint256",
							"name": "_discountRate",
							"type": "uint256"
						},
						{
							"internalType": "string",
							"name": "_item",
							"type": "string"
						},
						{
							"internalType": "uint256",
							"name": "_duration",
							"type": "uint256"
						}
					],
					"name": "createAuction",
					"outputs": [],
					"stateMutability": "nonpayable",
					"type": "function"
				},
				{
					"inputs": [],
					"name": "owner",
					"outputs": [
						{
							"internalType": "address",
							"name": "",
							"type": "address"
						}
					],
					"stateMutability": "view",
					"type": "function"
				}
			],
			"devdoc": {
				"kind": "dev",
				"methods": {},
				"version": 1
			},
			"evm": {
				"assembly": "    /* \"contracts/Lesson_5.sol\":62:1714  contract AucEngine\r... */\n  mstore(0x40, 0x80)\n    /* \"contracts/Lesson_5.sol\":723:779  constructor()\r... */\n  callvalue\n  dup1\n  iszero\n  tag_1\n  jumpi\n  0x00\n  dup1\n  revert\ntag_1:\n  pop\n    /* \"contracts/Lesson_5.sol\":761:771  msg.sender */\n  caller\n    /* \"contracts/Lesson_5.sol\":753:758  owner */\n  0x00\n  dup1\n    /* \"contracts/Lesson_5.sol\":753:771  owner = msg.sender */\n  0x0100\n  exp\n  dup2\n  sload\n  dup2\n  0xffffffffffffffffffffffffffffffffffffffff\n  mul\n  not\n  and\n  swap1\n  dup4\n  0xffffffffffffffffffffffffffffffffffffffff\n  and\n  mul\n  or\n  swap1\n  sstore\n  pop\n    /* \"contracts/Lesson_5.sol\":62:1714  contract AucEngine\r... */\n  dataSize(sub_0)\n  dup1\n  dataOffset(sub_0)\n  0x00\n  codecopy\n  0x00\n  return\nstop\n\nsub_0: assembly {\n        /* \"contracts/Lesson_5.sol\":62:1714  contract AucEngine\r... */\n      mstore(0x40, 0x80)\n      callvalue\n      dup1\n      iszero\n      tag_1\n      jumpi\n      0x00\n      dup1\n      revert\n    tag_1:\n      pop\n      jumpi(tag_2, lt(calldatasize, 0x04))\n      shr(0xe0, calldataload(0x00))\n      dup1\n      0x571a26a0\n      eq\n      tag_3\n      jumpi\n      dup1\n      0x8da5cb5b\n      eq\n      tag_4\n      jumpi\n      dup1\n      0xe9835d15\n      eq\n      tag_5\n      jumpi\n    tag_2:\n      0x00\n      dup1\n      revert\n        /* \"contracts/Lesson_5.sol\":540:565  Auction[] public auctions */\n    tag_3:\n      tag_6\n      0x04\n      dup1\n      calldatasize\n      sub\n      dup2\n      add\n      swap1\n      tag_7\n      swap2\n      swap1\n      tag_8\n      jump\t// in\n    tag_7:\n      tag_9\n      jump\t// in\n    tag_6:\n      mload(0x40)\n      tag_10\n      swap9\n      swap8\n      swap7\n      swap6\n      swap5\n      swap4\n      swap3\n      swap2\n      swap1\n      tag_11\n      jump\t// in\n    tag_10:\n      mload(0x40)\n      dup1\n      swap2\n      sub\n      swap1\n      return\n        /* \"contracts/Lesson_5.sol\":89:109  address public owner */\n    tag_4:\n      tag_12\n      tag_13\n      jump\t// in\n    tag_12:\n      mload(0x40)\n      tag_14\n      swap2\n      swap1\n      tag_15\n      jump\t// in\n    tag_14:\n      mload(0x40)\n      dup1\n      swap2\n      sub\n      swap1\n      return\n        /* \"contracts/Lesson_5.sol\":852:1711  function createAuction(uint _startingPrice, uint _discountRate, string calldata _item, uint _duration) external \r... */\n    tag_5:\n      tag_16\n      0x04\n      dup1\n      calldatasize\n      sub\n      dup2\n      add\n      swap1\n      tag_17\n      swap2\n      swap1\n      tag_18\n      jump\t// in\n    tag_17:\n      tag_19\n      jump\t// in\n    tag_16:\n      stop\n        /* \"contracts/Lesson_5.sol\":540:565  Auction[] public auctions */\n    tag_9:\n      0x01\n      dup2\n      dup2\n      sload\n      dup2\n      lt\n      tag_20\n      jumpi\n      0x00\n      dup1\n      revert\n    tag_20:\n      swap1\n      0x00\n      mstore\n      keccak256(0x00, 0x20)\n      swap1\n      0x08\n      mul\n      add\n      0x00\n      swap2\n      pop\n      swap1\n      pop\n      dup1\n      0x00\n      add\n      0x00\n      swap1\n      sload\n      swap1\n      0x0100\n      exp\n      swap1\n      div\n      0xffffffffffffffffffffffffffffffffffffffff\n      and\n      swap1\n      dup1\n      0x01\n      add\n      sload\n      swap1\n      dup1\n      0x02\n      add\n      sload\n      swap1\n      dup1\n      0x03\n      add\n      sload\n      swap1\n      dup1\n      0x04\n      add\n      sload\n      swap1\n      dup1\n      0x05\n      add\n      sload\n      swap1\n      dup1\n      0x06\n      add\n      dup1\n      sload\n      tag_22\n      swap1\n      tag_23\n      jump\t// in\n    tag_22:\n      dup1\n      0x1f\n      add\n      0x20\n      dup1\n      swap2\n      div\n      mul\n      0x20\n      add\n      mload(0x40)\n      swap1\n      dup2\n      add\n      0x40\n      mstore\n      dup1\n      swap3\n      swap2\n      swap1\n      dup2\n      dup2\n      mstore\n      0x20\n      add\n      dup3\n      dup1\n      sload\n      tag_24\n      swap1\n      tag_23\n      jump\t// in\n    tag_24:\n      dup1\n      iszero\n      tag_25\n      jumpi\n      dup1\n      0x1f\n      lt\n      tag_26\n      jumpi\n      0x0100\n      dup1\n      dup4\n      sload\n      div\n      mul\n      dup4\n      mstore\n      swap2\n      0x20\n      add\n      swap2\n      jump(tag_25)\n    tag_26:\n      dup3\n      add\n      swap2\n      swap1\n      0x00\n      mstore\n      keccak256(0x00, 0x20)\n      swap1\n    tag_27:\n      dup2\n      sload\n      dup2\n      mstore\n      swap1\n      0x01\n      add\n      swap1\n      0x20\n      add\n      dup1\n      dup4\n      gt\n      tag_27\n      jumpi\n      dup3\n      swap1\n      sub\n      0x1f\n      and\n      dup3\n      add\n      swap2\n    tag_25:\n      pop\n      pop\n      pop\n      pop\n      pop\n      swap1\n      dup1\n      0x07\n      add\n      0x00\n      swap1\n      sload\n      swap1\n      0x0100\n      exp\n      swap1\n      div\n      0xff\n      and\n      swap1\n      pop\n      dup9\n      jump\t// out\n        /* \"contracts/Lesson_5.sol\":89:109  address public owner */\n    tag_13:\n      0x00\n      dup1\n      sload\n      swap1\n      0x0100\n      exp\n      swap1\n      div\n      0xffffffffffffffffffffffffffffffffffffffff\n      and\n      dup2\n      jump\t// out\n        /* \"contracts/Lesson_5.sol\":852:1711  function createAuction(uint _startingPrice, uint _discountRate, string calldata _item, uint _duration) external \r... */\n    tag_19:\n        /* \"contracts/Lesson_5.sol\":1029:1042  uint duration */\n      0x00\n        /* \"contracts/Lesson_5.sol\":1058:1059  0 */\n      dup1\n        /* \"contracts/Lesson_5.sol\":1045:1054  _duration */\n      dup3\n        /* \"contracts/Lesson_5.sol\":1045:1059  _duration == 0 */\n      eq\n        /* \"contracts/Lesson_5.sol\":1045:1082  _duration == 0 ? DURATION : _duration */\n      tag_29\n      jumpi\n        /* \"contracts/Lesson_5.sol\":1073:1082  _duration */\n      dup2\n        /* \"contracts/Lesson_5.sol\":1045:1082  _duration == 0 ? DURATION : _duration */\n      jump(tag_30)\n    tag_29:\n        /* \"contracts/Lesson_5.sol\":141:147  2 days */\n      0x02a300\n        /* \"contracts/Lesson_5.sol\":1045:1082  _duration == 0 ? DURATION : _duration */\n    tag_30:\n        /* \"contracts/Lesson_5.sol\":1029:1082  uint duration = _duration == 0 ? DURATION : _duration */\n      swap1\n      pop\n        /* \"contracts/Lesson_5.sol\":1137:1146  _duration */\n      dup2\n        /* \"contracts/Lesson_5.sol\":1121:1134  _discountRate */\n      dup6\n        /* \"contracts/Lesson_5.sol\":1121:1146  _discountRate * _duration */\n      tag_31\n      swap2\n      swap1\n      tag_32\n      jump\t// in\n    tag_31:\n        /* \"contracts/Lesson_5.sol\":1103:1117  _startingPrice */\n      dup7\n        /* \"contracts/Lesson_5.sol\":1103:1146  _startingPrice >= _discountRate * _duration */\n      lt\n      iszero\n        /* \"contracts/Lesson_5.sol\":1095:1176  require(_startingPrice >= _discountRate * _duration, \"Incorrect starting price.\") */\n      tag_33\n      jumpi\n      mload(0x40)\n      0x08c379a000000000000000000000000000000000000000000000000000000000\n      dup2\n      mstore\n      0x04\n      add\n      tag_34\n      swap1\n      tag_35\n      jump\t// in\n    tag_34:\n      mload(0x40)\n      dup1\n      swap2\n      sub\n      swap1\n      revert\n    tag_33:\n        /* \"contracts/Lesson_5.sol\":1189:1214  Auction memory newAuction */\n      0x00\n        /* \"contracts/Lesson_5.sol\":1217:1550  Auction({\r... */\n      mload(0x40)\n      dup1\n      0x0100\n      add\n      0x40\n      mstore\n      dup1\n        /* \"contracts/Lesson_5.sol\":1256:1266  msg.sender */\n      caller\n        /* \"contracts/Lesson_5.sol\":1217:1550  Auction({\r... */\n      0xffffffffffffffffffffffffffffffffffffffff\n      and\n      dup2\n      mstore\n      0x20\n      add\n        /* \"contracts/Lesson_5.sol\":1297:1311  _startingPrice */\n      dup9\n        /* \"contracts/Lesson_5.sol\":1217:1550  Auction({\r... */\n      dup2\n      mstore\n      0x20\n      add\n        /* \"contracts/Lesson_5.sol\":1338:1352  _startingPrice */\n      dup9\n        /* \"contracts/Lesson_5.sol\":1217:1550  Auction({\r... */\n      dup2\n      mstore\n      0x20\n      add\n        /* \"contracts/Lesson_5.sol\":1419:1434  block.timestamp */\n      timestamp\n        /* \"contracts/Lesson_5.sol\":1217:1550  Auction({\r... */\n      dup2\n      mstore\n      0x20\n      add\n        /* \"contracts/Lesson_5.sol\":1475:1483  duration */\n      dup4\n        /* \"contracts/Lesson_5.sol\":1457:1472  block.timestamp */\n      timestamp\n        /* \"contracts/Lesson_5.sol\":1457:1483  block.timestamp + duration */\n      tag_36\n      swap2\n      swap1\n      tag_37\n      jump\t// in\n    tag_36:\n        /* \"contracts/Lesson_5.sol\":1217:1550  Auction({\r... */\n      dup2\n      mstore\n      0x20\n      add\n        /* \"contracts/Lesson_5.sol\":1381:1394  _discountRate */\n      dup8\n        /* \"contracts/Lesson_5.sol\":1217:1550  Auction({\r... */\n      dup2\n      mstore\n      0x20\n      add\n        /* \"contracts/Lesson_5.sol\":1504:1509  _item */\n      dup7\n      dup7\n        /* \"contracts/Lesson_5.sol\":1217:1550  Auction({\r... */\n      dup1\n      dup1\n      0x1f\n      add\n      0x20\n      dup1\n      swap2\n      div\n      mul\n      0x20\n      add\n      mload(0x40)\n      swap1\n      dup2\n      add\n      0x40\n      mstore\n      dup1\n      swap4\n      swap3\n      swap2\n      swap1\n      dup2\n      dup2\n      mstore\n      0x20\n      add\n      dup4\n      dup4\n      dup1\n      dup3\n      dup5\n      calldatacopy\n      0x00\n      dup2\n      dup5\n      add\n      mstore\n      not(0x1f)\n      0x1f\n      dup3\n      add\n      and\n      swap1\n      pop\n      dup1\n      dup4\n      add\n      swap3\n      pop\n      pop\n      pop\n      pop\n      pop\n      pop\n      pop\n      dup2\n      mstore\n      0x20\n      add\n        /* \"contracts/Lesson_5.sol\":1533:1538  false */\n      0x00\n        /* \"contracts/Lesson_5.sol\":1217:1550  Auction({\r... */\n      iszero\n      iszero\n      dup2\n      mstore\n      pop\n        /* \"contracts/Lesson_5.sol\":1189:1550  Auction memory newAuction = Auction({\r... */\n      swap1\n      pop\n        /* \"contracts/Lesson_5.sol\":1563:1571  auctions */\n      0x01\n        /* \"contracts/Lesson_5.sol\":1577:1587  newAuction */\n      dup2\n        /* \"contracts/Lesson_5.sol\":1563:1588  auctions.push(newAuction) */\n      swap1\n      dup1\n      0x01\n      dup2\n      sload\n      add\n      dup1\n      dup3\n      sstore\n      dup1\n      swap2\n      pop\n      pop\n      0x01\n      swap1\n      sub\n      swap1\n      0x00\n      mstore\n      keccak256(0x00, 0x20)\n      swap1\n      0x08\n      mul\n      add\n      0x00\n      swap1\n      swap2\n      swap1\n      swap2\n      swap1\n      swap2\n      pop\n      0x00\n      dup3\n      add\n      mload\n      dup2\n      0x00\n      add\n      exp(0x0100, 0x00)\n      dup2\n      sload\n      dup2\n      0xffffffffffffffffffffffffffffffffffffffff\n      mul\n      not\n      and\n      swap1\n      dup4\n      0xffffffffffffffffffffffffffffffffffffffff\n      and\n      mul\n      or\n      swap1\n      sstore\n      pop\n      0x20\n      dup3\n      add\n      mload\n      dup2\n      0x01\n      add\n      sstore\n      0x40\n      dup3\n      add\n      mload\n      dup2\n      0x02\n      add\n      sstore\n      0x60\n      dup3\n      add\n      mload\n      dup2\n      0x03\n      add\n      sstore\n      0x80\n      dup3\n      add\n      mload\n      dup2\n      0x04\n      add\n      sstore\n      0xa0\n      dup3\n      add\n      mload\n      dup2\n      0x05\n      add\n      sstore\n      0xc0\n      dup3\n      add\n      mload\n      dup2\n      0x06\n      add\n      swap1\n      dup1\n      mload\n      swap1\n      0x20\n      add\n      swap1\n      tag_39\n      swap3\n      swap2\n      swap1\n      tag_40\n      jump\t// in\n    tag_39:\n      pop\n      0xe0\n      dup3\n      add\n      mload\n      dup2\n      0x07\n      add\n      exp(0x0100, 0x00)\n      dup2\n      sload\n      dup2\n      0xff\n      mul\n      not\n      and\n      swap1\n      dup4\n      iszero\n      iszero\n      mul\n      or\n      swap1\n      sstore\n      pop\n      pop\n      pop\n        /* \"contracts/Lesson_5.sol\":1635:1703  AuctionCreated(auctions.length - 1, _item, _startingPrice, duration) */\n      0x5bf34ed94988e5dcdc7d1faaa54eb1d3b55f45d5f11457e235afb21a8ebbe73c\n        /* \"contracts/Lesson_5.sol\":1668:1669  1 */\n      0x01\n        /* \"contracts/Lesson_5.sol\":1650:1658  auctions */\n      dup1\n        /* \"contracts/Lesson_5.sol\":1650:1665  auctions.length */\n      dup1\n      sload\n      swap1\n      pop\n        /* \"contracts/Lesson_5.sol\":1650:1669  auctions.length - 1 */\n      tag_41\n      swap2\n      swap1\n      tag_42\n      jump\t// in\n    tag_41:\n        /* \"contracts/Lesson_5.sol\":1671:1676  _item */\n      dup7\n      dup7\n        /* \"contracts/Lesson_5.sol\":1678:1692  _startingPrice */\n      dup11\n        /* \"contracts/Lesson_5.sol\":1694:1702  duration */\n      dup7\n        /* \"contracts/Lesson_5.sol\":1635:1703  AuctionCreated(auctions.length - 1, _item, _startingPrice, duration) */\n      mload(0x40)\n      tag_43\n      swap6\n      swap5\n      swap4\n      swap3\n      swap2\n      swap1\n      tag_44\n      jump\t// in\n    tag_43:\n      mload(0x40)\n      dup1\n      swap2\n      sub\n      swap1\n      log1\n        /* \"contracts/Lesson_5.sol\":970:1711  {\r... */\n      pop\n      pop\n        /* \"contracts/Lesson_5.sol\":852:1711  function createAuction(uint _startingPrice, uint _discountRate, string calldata _item, uint _duration) external \r... */\n      pop\n      pop\n      pop\n      pop\n      pop\n      jump\t// out\n    tag_40:\n      dup3\n      dup1\n      sload\n      tag_45\n      swap1\n      tag_23\n      jump\t// in\n    tag_45:\n      swap1\n      0x00\n      mstore\n      keccak256(0x00, 0x20)\n      swap1\n      0x1f\n      add\n      0x20\n      swap1\n      div\n      dup2\n      add\n      swap3\n      dup3\n      tag_47\n      jumpi\n      0x00\n      dup6\n      sstore\n      jump(tag_46)\n    tag_47:\n      dup3\n      0x1f\n      lt\n      tag_48\n      jumpi\n      dup1\n      mload\n      not(0xff)\n      and\n      dup4\n      dup1\n      add\n      or\n      dup6\n      sstore\n      jump(tag_46)\n    tag_48:\n      dup3\n      dup1\n      add\n      0x01\n      add\n      dup6\n      sstore\n      dup3\n      iszero\n      tag_46\n      jumpi\n      swap2\n      dup3\n      add\n    tag_49:\n      dup3\n      dup2\n      gt\n      iszero\n      tag_50\n      jumpi\n      dup3\n      mload\n      dup3\n      sstore\n      swap2\n      0x20\n      add\n      swap2\n      swap1\n      0x01\n      add\n      swap1\n      jump(tag_49)\n    tag_50:\n    tag_46:\n      pop\n      swap1\n      pop\n      tag_51\n      swap2\n      swap1\n      tag_52\n      jump\t// in\n    tag_51:\n      pop\n      swap1\n      jump\t// out\n    tag_52:\n    tag_53:\n      dup1\n      dup3\n      gt\n      iszero\n      tag_54\n      jumpi\n      0x00\n      dup2\n      0x00\n      swap1\n      sstore\n      pop\n      0x01\n      add\n      jump(tag_53)\n    tag_54:\n      pop\n      swap1\n      jump\t// out\n        /* \"#utility.yul\":21:574   */\n    tag_56:\n        /* \"#utility.yul\":79:87   */\n      0x00\n        /* \"#utility.yul\":89:95   */\n      dup1\n        /* \"#utility.yul\":139:142   */\n      dup4\n        /* \"#utility.yul\":132:136   */\n      0x1f\n        /* \"#utility.yul\":124:130   */\n      dup5\n        /* \"#utility.yul\":120:137   */\n      add\n        /* \"#utility.yul\":116:143   */\n      slt\n        /* \"#utility.yul\":106:228   */\n      tag_58\n      jumpi\n        /* \"#utility.yul\":147:226   */\n      tag_59\n      tag_60\n      jump\t// in\n    tag_59:\n        /* \"#utility.yul\":106:228   */\n    tag_58:\n        /* \"#utility.yul\":260:266   */\n      dup3\n        /* \"#utility.yul\":247:267   */\n      calldataload\n        /* \"#utility.yul\":237:267   */\n      swap1\n      pop\n        /* \"#utility.yul\":290:308   */\n      0xffffffffffffffff\n        /* \"#utility.yul\":282:288   */\n      dup2\n        /* \"#utility.yul\":279:309   */\n      gt\n        /* \"#utility.yul\":276:393   */\n      iszero\n      tag_61\n      jumpi\n        /* \"#utility.yul\":312:391   */\n      tag_62\n      tag_63\n      jump\t// in\n    tag_62:\n        /* \"#utility.yul\":276:393   */\n    tag_61:\n        /* \"#utility.yul\":426:430   */\n      0x20\n        /* \"#utility.yul\":418:424   */\n      dup4\n        /* \"#utility.yul\":414:431   */\n      add\n        /* \"#utility.yul\":402:431   */\n      swap2\n      pop\n        /* \"#utility.yul\":480:483   */\n      dup4\n        /* \"#utility.yul\":472:476   */\n      0x01\n        /* \"#utility.yul\":464:470   */\n      dup3\n        /* \"#utility.yul\":460:477   */\n      mul\n        /* \"#utility.yul\":450:458   */\n      dup4\n        /* \"#utility.yul\":446:478   */\n      add\n        /* \"#utility.yul\":443:484   */\n      gt\n        /* \"#utility.yul\":440:568   */\n      iszero\n      tag_64\n      jumpi\n        /* \"#utility.yul\":487:566   */\n      tag_65\n      tag_66\n      jump\t// in\n    tag_65:\n        /* \"#utility.yul\":440:568   */\n    tag_64:\n        /* \"#utility.yul\":21:574   */\n      swap3\n      pop\n      swap3\n      swap1\n      pop\n      jump\t// out\n        /* \"#utility.yul\":580:719   */\n    tag_67:\n        /* \"#utility.yul\":626:631   */\n      0x00\n        /* \"#utility.yul\":664:670   */\n      dup2\n        /* \"#utility.yul\":651:671   */\n      calldataload\n        /* \"#utility.yul\":642:671   */\n      swap1\n      pop\n        /* \"#utility.yul\":680:713   */\n      tag_69\n        /* \"#utility.yul\":707:712   */\n      dup2\n        /* \"#utility.yul\":680:713   */\n      tag_70\n      jump\t// in\n    tag_69:\n        /* \"#utility.yul\":580:719   */\n      swap3\n      swap2\n      pop\n      pop\n      jump\t// out\n        /* \"#utility.yul\":725:1054   */\n    tag_8:\n        /* \"#utility.yul\":784:790   */\n      0x00\n        /* \"#utility.yul\":833:835   */\n      0x20\n        /* \"#utility.yul\":821:830   */\n      dup3\n        /* \"#utility.yul\":812:819   */\n      dup5\n        /* \"#utility.yul\":808:831   */\n      sub\n        /* \"#utility.yul\":804:836   */\n      slt\n        /* \"#utility.yul\":801:920   */\n      iszero\n      tag_72\n      jumpi\n        /* \"#utility.yul\":839:918   */\n      tag_73\n      tag_74\n      jump\t// in\n    tag_73:\n        /* \"#utility.yul\":801:920   */\n    tag_72:\n        /* \"#utility.yul\":959:960   */\n      0x00\n        /* \"#utility.yul\":984:1037   */\n      tag_75\n        /* \"#utility.yul\":1029:1036   */\n      dup5\n        /* \"#utility.yul\":1020:1026   */\n      dup3\n        /* \"#utility.yul\":1009:1018   */\n      dup6\n        /* \"#utility.yul\":1005:1027   */\n      add\n        /* \"#utility.yul\":984:1037   */\n      tag_67\n      jump\t// in\n    tag_75:\n        /* \"#utility.yul\":974:1037   */\n      swap2\n      pop\n        /* \"#utility.yul\":930:1047   */\n      pop\n        /* \"#utility.yul\":725:1054   */\n      swap3\n      swap2\n      pop\n      pop\n      jump\t// out\n        /* \"#utility.yul\":1060:2025   */\n    tag_18:\n        /* \"#utility.yul\":1158:1164   */\n      0x00\n        /* \"#utility.yul\":1166:1172   */\n      dup1\n        /* \"#utility.yul\":1174:1180   */\n      0x00\n        /* \"#utility.yul\":1182:1188   */\n      dup1\n        /* \"#utility.yul\":1190:1196   */\n      0x00\n        /* \"#utility.yul\":1239:1242   */\n      0x80\n        /* \"#utility.yul\":1227:1236   */\n      dup7\n        /* \"#utility.yul\":1218:1225   */\n      dup9\n        /* \"#utility.yul\":1214:1237   */\n      sub\n        /* \"#utility.yul\":1210:1243   */\n      slt\n        /* \"#utility.yul\":1207:1327   */\n      iszero\n      tag_77\n      jumpi\n        /* \"#utility.yul\":1246:1325   */\n      tag_78\n      tag_74\n      jump\t// in\n    tag_78:\n        /* \"#utility.yul\":1207:1327   */\n    tag_77:\n        /* \"#utility.yul\":1366:1367   */\n      0x00\n        /* \"#utility.yul\":1391:1444   */\n      tag_79\n        /* \"#utility.yul\":1436:1443   */\n      dup9\n        /* \"#utility.yul\":1427:1433   */\n      dup3\n        /* \"#utility.yul\":1416:1425   */\n      dup10\n        /* \"#utility.yul\":1412:1434   */\n      add\n        /* \"#utility.yul\":1391:1444   */\n      tag_67\n      jump\t// in\n    tag_79:\n        /* \"#utility.yul\":1381:1444   */\n      swap6\n      pop\n        /* \"#utility.yul\":1337:1454   */\n      pop\n        /* \"#utility.yul\":1493:1495   */\n      0x20\n        /* \"#utility.yul\":1519:1572   */\n      tag_80\n        /* \"#utility.yul\":1564:1571   */\n      dup9\n        /* \"#utility.yul\":1555:1561   */\n      dup3\n        /* \"#utility.yul\":1544:1553   */\n      dup10\n        /* \"#utility.yul\":1540:1562   */\n      add\n        /* \"#utility.yul\":1519:1572   */\n      tag_67\n      jump\t// in\n    tag_80:\n        /* \"#utility.yul\":1509:1572   */\n      swap5\n      pop\n        /* \"#utility.yul\":1464:1582   */\n      pop\n        /* \"#utility.yul\":1649:1651   */\n      0x40\n        /* \"#utility.yul\":1638:1647   */\n      dup7\n        /* \"#utility.yul\":1634:1652   */\n      add\n        /* \"#utility.yul\":1621:1653   */\n      calldataload\n        /* \"#utility.yul\":1680:1698   */\n      0xffffffffffffffff\n        /* \"#utility.yul\":1672:1678   */\n      dup2\n        /* \"#utility.yul\":1669:1699   */\n      gt\n        /* \"#utility.yul\":1666:1783   */\n      iszero\n      tag_81\n      jumpi\n        /* \"#utility.yul\":1702:1781   */\n      tag_82\n      tag_83\n      jump\t// in\n    tag_82:\n        /* \"#utility.yul\":1666:1783   */\n    tag_81:\n        /* \"#utility.yul\":1815:1880   */\n      tag_84\n        /* \"#utility.yul\":1872:1879   */\n      dup9\n        /* \"#utility.yul\":1863:1869   */\n      dup3\n        /* \"#utility.yul\":1852:1861   */\n      dup10\n        /* \"#utility.yul\":1848:1870   */\n      add\n        /* \"#utility.yul\":1815:1880   */\n      tag_56\n      jump\t// in\n    tag_84:\n        /* \"#utility.yul\":1797:1880   */\n      swap4\n      pop\n      swap4\n      pop\n        /* \"#utility.yul\":1592:1890   */\n      pop\n        /* \"#utility.yul\":1929:1931   */\n      0x60\n        /* \"#utility.yul\":1955:2008   */\n      tag_85\n        /* \"#utility.yul\":2000:2007   */\n      dup9\n        /* \"#utility.yul\":1991:1997   */\n      dup3\n        /* \"#utility.yul\":1980:1989   */\n      dup10\n        /* \"#utility.yul\":1976:1998   */\n      add\n        /* \"#utility.yul\":1955:2008   */\n      tag_67\n      jump\t// in\n    tag_85:\n        /* \"#utility.yul\":1945:2008   */\n      swap2\n      pop\n        /* \"#utility.yul\":1900:2018   */\n      pop\n        /* \"#utility.yul\":1060:2025   */\n      swap3\n      swap6\n      pop\n      swap3\n      swap6\n      swap1\n      swap4\n      pop\n      jump\t// out\n        /* \"#utility.yul\":2031:2173   */\n    tag_86:\n        /* \"#utility.yul\":2134:2166   */\n      tag_88\n        /* \"#utility.yul\":2160:2165   */\n      dup2\n        /* \"#utility.yul\":2134:2166   */\n      tag_89\n      jump\t// in\n    tag_88:\n        /* \"#utility.yul\":2129:2132   */\n      dup3\n        /* \"#utility.yul\":2122:2167   */\n      mstore\n        /* \"#utility.yul\":2031:2173   */\n      pop\n      pop\n      jump\t// out\n        /* \"#utility.yul\":2179:2297   */\n    tag_90:\n        /* \"#utility.yul\":2266:2290   */\n      tag_92\n        /* \"#utility.yul\":2284:2289   */\n      dup2\n        /* \"#utility.yul\":2266:2290   */\n      tag_93\n      jump\t// in\n    tag_92:\n        /* \"#utility.yul\":2261:2264   */\n      dup3\n        /* \"#utility.yul\":2254:2291   */\n      mstore\n        /* \"#utility.yul\":2179:2297   */\n      pop\n      pop\n      jump\t// out\n        /* \"#utility.yul\":2303:2412   */\n    tag_94:\n        /* \"#utility.yul\":2384:2405   */\n      tag_96\n        /* \"#utility.yul\":2399:2404   */\n      dup2\n        /* \"#utility.yul\":2384:2405   */\n      tag_97\n      jump\t// in\n    tag_96:\n        /* \"#utility.yul\":2379:2382   */\n      dup3\n        /* \"#utility.yul\":2372:2406   */\n      mstore\n        /* \"#utility.yul\":2303:2412   */\n      pop\n      pop\n      jump\t// out\n        /* \"#utility.yul\":2442:2746   */\n    tag_98:\n        /* \"#utility.yul\":2540:2543   */\n      0x00\n        /* \"#utility.yul\":2561:2632   */\n      tag_100\n        /* \"#utility.yul\":2625:2631   */\n      dup4\n        /* \"#utility.yul\":2620:2623   */\n      dup6\n        /* \"#utility.yul\":2561:2632   */\n      tag_101\n      jump\t// in\n    tag_100:\n        /* \"#utility.yul\":2554:2632   */\n      swap4\n      pop\n        /* \"#utility.yul\":2642:2685   */\n      tag_102\n        /* \"#utility.yul\":2678:2684   */\n      dup4\n        /* \"#utility.yul\":2673:2676   */\n      dup6\n        /* \"#utility.yul\":2666:2671   */\n      dup5\n        /* \"#utility.yul\":2642:2685   */\n      tag_103\n      jump\t// in\n    tag_102:\n        /* \"#utility.yul\":2710:2739   */\n      tag_104\n        /* \"#utility.yul\":2732:2738   */\n      dup4\n        /* \"#utility.yul\":2710:2739   */\n      tag_105\n      jump\t// in\n    tag_104:\n        /* \"#utility.yul\":2705:2708   */\n      dup5\n        /* \"#utility.yul\":2701:2740   */\n      add\n        /* \"#utility.yul\":2694:2740   */\n      swap1\n      pop\n        /* \"#utility.yul\":2442:2746   */\n      swap4\n      swap3\n      pop\n      pop\n      pop\n      jump\t// out\n        /* \"#utility.yul\":2752:3116   */\n    tag_106:\n        /* \"#utility.yul\":2840:2843   */\n      0x00\n        /* \"#utility.yul\":2868:2907   */\n      tag_108\n        /* \"#utility.yul\":2901:2906   */\n      dup3\n        /* \"#utility.yul\":2868:2907   */\n      tag_109\n      jump\t// in\n    tag_108:\n        /* \"#utility.yul\":2923:2994   */\n      tag_110\n        /* \"#utility.yul\":2987:2993   */\n      dup2\n        /* \"#utility.yul\":2982:2985   */\n      dup6\n        /* \"#utility.yul\":2923:2994   */\n      tag_101\n      jump\t// in\n    tag_110:\n        /* \"#utility.yul\":2916:2994   */\n      swap4\n      pop\n        /* \"#utility.yul\":3003:3055   */\n      tag_111\n        /* \"#utility.yul\":3048:3054   */\n      dup2\n        /* \"#utility.yul\":3043:3046   */\n      dup6\n        /* \"#utility.yul\":3036:3040   */\n      0x20\n        /* \"#utility.yul\":3029:3034   */\n      dup7\n        /* \"#utility.yul\":3025:3041   */\n      add\n        /* \"#utility.yul\":3003:3055   */\n      tag_112\n      jump\t// in\n    tag_111:\n        /* \"#utility.yul\":3080:3109   */\n      tag_113\n        /* \"#utility.yul\":3102:3108   */\n      dup2\n        /* \"#utility.yul\":3080:3109   */\n      tag_105\n      jump\t// in\n    tag_113:\n        /* \"#utility.yul\":3075:3078   */\n      dup5\n        /* \"#utility.yul\":3071:3110   */\n      add\n        /* \"#utility.yul\":3064:3110   */\n      swap2\n      pop\n        /* \"#utility.yul\":2844:3116   */\n      pop\n        /* \"#utility.yul\":2752:3116   */\n      swap3\n      swap2\n      pop\n      pop\n      jump\t// out\n        /* \"#utility.yul\":3122:3488   */\n    tag_114:\n        /* \"#utility.yul\":3264:3267   */\n      0x00\n        /* \"#utility.yul\":3285:3352   */\n      tag_116\n        /* \"#utility.yul\":3349:3351   */\n      0x19\n        /* \"#utility.yul\":3344:3347   */\n      dup4\n        /* \"#utility.yul\":3285:3352   */\n      tag_101\n      jump\t// in\n    tag_116:\n        /* \"#utility.yul\":3278:3352   */\n      swap2\n      pop\n        /* \"#utility.yul\":3361:3454   */\n      tag_117\n        /* \"#utility.yul\":3450:3453   */\n      dup3\n        /* \"#utility.yul\":3361:3454   */\n      tag_118\n      jump\t// in\n    tag_117:\n        /* \"#utility.yul\":3479:3481   */\n      0x20\n        /* \"#utility.yul\":3474:3477   */\n      dup3\n        /* \"#utility.yul\":3470:3482   */\n      add\n        /* \"#utility.yul\":3463:3482   */\n      swap1\n      pop\n        /* \"#utility.yul\":3122:3488   */\n      swap2\n      swap1\n      pop\n      jump\t// out\n        /* \"#utility.yul\":3494:3612   */\n    tag_119:\n        /* \"#utility.yul\":3581:3605   */\n      tag_121\n        /* \"#utility.yul\":3599:3604   */\n      dup2\n        /* \"#utility.yul\":3581:3605   */\n      tag_122\n      jump\t// in\n    tag_121:\n        /* \"#utility.yul\":3576:3579   */\n      dup3\n        /* \"#utility.yul\":3569:3606   */\n      mstore\n        /* \"#utility.yul\":3494:3612   */\n      pop\n      pop\n      jump\t// out\n        /* \"#utility.yul\":3618:3840   */\n    tag_15:\n        /* \"#utility.yul\":3711:3715   */\n      0x00\n        /* \"#utility.yul\":3749:3751   */\n      0x20\n        /* \"#utility.yul\":3738:3747   */\n      dup3\n        /* \"#utility.yul\":3734:3752   */\n      add\n        /* \"#utility.yul\":3726:3752   */\n      swap1\n      pop\n        /* \"#utility.yul\":3762:3833   */\n      tag_124\n        /* \"#utility.yul\":3830:3831   */\n      0x00\n        /* \"#utility.yul\":3819:3828   */\n      dup4\n        /* \"#utility.yul\":3815:3832   */\n      add\n        /* \"#utility.yul\":3806:3812   */\n      dup5\n        /* \"#utility.yul\":3762:3833   */\n      tag_90\n      jump\t// in\n    tag_124:\n        /* \"#utility.yul\":3618:3840   */\n      swap3\n      swap2\n      pop\n      pop\n      jump\t// out\n        /* \"#utility.yul\":3846:4954   */\n    tag_11:\n        /* \"#utility.yul\":4165:4169   */\n      0x00\n        /* \"#utility.yul\":4203:4206   */\n      0x0100\n        /* \"#utility.yul\":4192:4201   */\n      dup3\n        /* \"#utility.yul\":4188:4207   */\n      add\n        /* \"#utility.yul\":4180:4207   */\n      swap1\n      pop\n        /* \"#utility.yul\":4217:4304   */\n      tag_126\n        /* \"#utility.yul\":4301:4302   */\n      0x00\n        /* \"#utility.yul\":4290:4299   */\n      dup4\n        /* \"#utility.yul\":4286:4303   */\n      add\n        /* \"#utility.yul\":4277:4283   */\n      dup12\n        /* \"#utility.yul\":4217:4304   */\n      tag_86\n      jump\t// in\n    tag_126:\n        /* \"#utility.yul\":4314:4386   */\n      tag_127\n        /* \"#utility.yul\":4382:4384   */\n      0x20\n        /* \"#utility.yul\":4371:4380   */\n      dup4\n        /* \"#utility.yul\":4367:4385   */\n      add\n        /* \"#utility.yul\":4358:4364   */\n      dup11\n        /* \"#utility.yul\":4314:4386   */\n      tag_119\n      jump\t// in\n    tag_127:\n        /* \"#utility.yul\":4396:4468   */\n      tag_128\n        /* \"#utility.yul\":4464:4466   */\n      0x40\n        /* \"#utility.yul\":4453:4462   */\n      dup4\n        /* \"#utility.yul\":4449:4467   */\n      add\n        /* \"#utility.yul\":4440:4446   */\n      dup10\n        /* \"#utility.yul\":4396:4468   */\n      tag_119\n      jump\t// in\n    tag_128:\n        /* \"#utility.yul\":4478:4550   */\n      tag_129\n        /* \"#utility.yul\":4546:4548   */\n      0x60\n        /* \"#utility.yul\":4535:4544   */\n      dup4\n        /* \"#utility.yul\":4531:4549   */\n      add\n        /* \"#utility.yul\":4522:4528   */\n      dup9\n        /* \"#utility.yul\":4478:4550   */\n      tag_119\n      jump\t// in\n    tag_129:\n        /* \"#utility.yul\":4560:4633   */\n      tag_130\n        /* \"#utility.yul\":4628:4631   */\n      0x80\n        /* \"#utility.yul\":4617:4626   */\n      dup4\n        /* \"#utility.yul\":4613:4632   */\n      add\n        /* \"#utility.yul\":4604:4610   */\n      dup8\n        /* \"#utility.yul\":4560:4633   */\n      tag_119\n      jump\t// in\n    tag_130:\n        /* \"#utility.yul\":4643:4716   */\n      tag_131\n        /* \"#utility.yul\":4711:4714   */\n      0xa0\n        /* \"#utility.yul\":4700:4709   */\n      dup4\n        /* \"#utility.yul\":4696:4715   */\n      add\n        /* \"#utility.yul\":4687:4693   */\n      dup7\n        /* \"#utility.yul\":4643:4716   */\n      tag_119\n      jump\t// in\n    tag_131:\n        /* \"#utility.yul\":4764:4773   */\n      dup2\n        /* \"#utility.yul\":4758:4762   */\n      dup2\n        /* \"#utility.yul\":4754:4774   */\n      sub\n        /* \"#utility.yul\":4748:4751   */\n      0xc0\n        /* \"#utility.yul\":4737:4746   */\n      dup4\n        /* \"#utility.yul\":4733:4752   */\n      add\n        /* \"#utility.yul\":4726:4775   */\n      mstore\n        /* \"#utility.yul\":4792:4870   */\n      tag_132\n        /* \"#utility.yul\":4865:4869   */\n      dup2\n        /* \"#utility.yul\":4856:4862   */\n      dup6\n        /* \"#utility.yul\":4792:4870   */\n      tag_106\n      jump\t// in\n    tag_132:\n        /* \"#utility.yul\":4784:4870   */\n      swap1\n      pop\n        /* \"#utility.yul\":4880:4947   */\n      tag_133\n        /* \"#utility.yul\":4942:4945   */\n      0xe0\n        /* \"#utility.yul\":4931:4940   */\n      dup4\n        /* \"#utility.yul\":4927:4946   */\n      add\n        /* \"#utility.yul\":4918:4924   */\n      dup5\n        /* \"#utility.yul\":4880:4947   */\n      tag_94\n      jump\t// in\n    tag_133:\n        /* \"#utility.yul\":3846:4954   */\n      swap10\n      swap9\n      pop\n      pop\n      pop\n      pop\n      pop\n      pop\n      pop\n      pop\n      pop\n      jump\t// out\n        /* \"#utility.yul\":4960:5379   */\n    tag_35:\n        /* \"#utility.yul\":5126:5130   */\n      0x00\n        /* \"#utility.yul\":5164:5166   */\n      0x20\n        /* \"#utility.yul\":5153:5162   */\n      dup3\n        /* \"#utility.yul\":5149:5167   */\n      add\n        /* \"#utility.yul\":5141:5167   */\n      swap1\n      pop\n        /* \"#utility.yul\":5213:5222   */\n      dup2\n        /* \"#utility.yul\":5207:5211   */\n      dup2\n        /* \"#utility.yul\":5203:5223   */\n      sub\n        /* \"#utility.yul\":5199:5200   */\n      0x00\n        /* \"#utility.yul\":5188:5197   */\n      dup4\n        /* \"#utility.yul\":5184:5201   */\n      add\n        /* \"#utility.yul\":5177:5224   */\n      mstore\n        /* \"#utility.yul\":5241:5372   */\n      tag_135\n        /* \"#utility.yul\":5367:5371   */\n      dup2\n        /* \"#utility.yul\":5241:5372   */\n      tag_114\n      jump\t// in\n    tag_135:\n        /* \"#utility.yul\":5233:5372   */\n      swap1\n      pop\n        /* \"#utility.yul\":4960:5379   */\n      swap2\n      swap1\n      pop\n      jump\t// out\n        /* \"#utility.yul\":5385:6049   */\n    tag_44:\n        /* \"#utility.yul\":5592:5596   */\n      0x00\n        /* \"#utility.yul\":5630:5633   */\n      0x80\n        /* \"#utility.yul\":5619:5628   */\n      dup3\n        /* \"#utility.yul\":5615:5634   */\n      add\n        /* \"#utility.yul\":5607:5634   */\n      swap1\n      pop\n        /* \"#utility.yul\":5644:5715   */\n      tag_137\n        /* \"#utility.yul\":5712:5713   */\n      0x00\n        /* \"#utility.yul\":5701:5710   */\n      dup4\n        /* \"#utility.yul\":5697:5714   */\n      add\n        /* \"#utility.yul\":5688:5694   */\n      dup9\n        /* \"#utility.yul\":5644:5715   */\n      tag_119\n      jump\t// in\n    tag_137:\n        /* \"#utility.yul\":5762:5771   */\n      dup2\n        /* \"#utility.yul\":5756:5760   */\n      dup2\n        /* \"#utility.yul\":5752:5772   */\n      sub\n        /* \"#utility.yul\":5747:5749   */\n      0x20\n        /* \"#utility.yul\":5736:5745   */\n      dup4\n        /* \"#utility.yul\":5732:5750   */\n      add\n        /* \"#utility.yul\":5725:5773   */\n      mstore\n        /* \"#utility.yul\":5790:5878   */\n      tag_138\n        /* \"#utility.yul\":5873:5877   */\n      dup2\n        /* \"#utility.yul\":5864:5870   */\n      dup7\n        /* \"#utility.yul\":5856:5862   */\n      dup9\n        /* \"#utility.yul\":5790:5878   */\n      tag_98\n      jump\t// in\n    tag_138:\n        /* \"#utility.yul\":5782:5878   */\n      swap1\n      pop\n        /* \"#utility.yul\":5888:5960   */\n      tag_139\n        /* \"#utility.yul\":5956:5958   */\n      0x40\n        /* \"#utility.yul\":5945:5954   */\n      dup4\n        /* \"#utility.yul\":5941:5959   */\n      add\n        /* \"#utility.yul\":5932:5938   */\n      dup6\n        /* \"#utility.yul\":5888:5960   */\n      tag_119\n      jump\t// in\n    tag_139:\n        /* \"#utility.yul\":5970:6042   */\n      tag_140\n        /* \"#utility.yul\":6038:6040   */\n      0x60\n        /* \"#utility.yul\":6027:6036   */\n      dup4\n        /* \"#utility.yul\":6023:6041   */\n      add\n        /* \"#utility.yul\":6014:6020   */\n      dup5\n        /* \"#utility.yul\":5970:6042   */\n      tag_119\n      jump\t// in\n    tag_140:\n        /* \"#utility.yul\":5385:6049   */\n      swap7\n      swap6\n      pop\n      pop\n      pop\n      pop\n      pop\n      pop\n      jump\t// out\n        /* \"#utility.yul\":6136:6235   */\n    tag_109:\n        /* \"#utility.yul\":6188:6194   */\n      0x00\n        /* \"#utility.yul\":6222:6227   */\n      dup2\n        /* \"#utility.yul\":6216:6228   */\n      mload\n        /* \"#utility.yul\":6206:6228   */\n      swap1\n      pop\n        /* \"#utility.yul\":6136:6235   */\n      swap2\n      swap1\n      pop\n      jump\t// out\n        /* \"#utility.yul\":6241:6410   */\n    tag_101:\n        /* \"#utility.yul\":6325:6336   */\n      0x00\n        /* \"#utility.yul\":6359:6365   */\n      dup3\n        /* \"#utility.yul\":6354:6357   */\n      dup3\n        /* \"#utility.yul\":6347:6366   */\n      mstore\n        /* \"#utility.yul\":6399:6403   */\n      0x20\n        /* \"#utility.yul\":6394:6397   */\n      dup3\n        /* \"#utility.yul\":6390:6404   */\n      add\n        /* \"#utility.yul\":6375:6404   */\n      swap1\n      pop\n        /* \"#utility.yul\":6241:6410   */\n      swap3\n      swap2\n      pop\n      pop\n      jump\t// out\n        /* \"#utility.yul\":6416:6721   */\n    tag_37:\n        /* \"#utility.yul\":6456:6459   */\n      0x00\n        /* \"#utility.yul\":6475:6495   */\n      tag_146\n        /* \"#utility.yul\":6493:6494   */\n      dup3\n        /* \"#utility.yul\":6475:6495   */\n      tag_122\n      jump\t// in\n    tag_146:\n        /* \"#utility.yul\":6470:6495   */\n      swap2\n      pop\n        /* \"#utility.yul\":6509:6529   */\n      tag_147\n        /* \"#utility.yul\":6527:6528   */\n      dup4\n        /* \"#utility.yul\":6509:6529   */\n      tag_122\n      jump\t// in\n    tag_147:\n        /* \"#utility.yul\":6504:6529   */\n      swap3\n      pop\n        /* \"#utility.yul\":6663:6664   */\n      dup3\n        /* \"#utility.yul\":6595:6661   */\n      0xffffffffffffffffffffffffffffffffffffffffffffffffffffffffffffffff\n        /* \"#utility.yul\":6591:6665   */\n      sub\n        /* \"#utility.yul\":6588:6589   */\n      dup3\n        /* \"#utility.yul\":6585:6666   */\n      gt\n        /* \"#utility.yul\":6582:6689   */\n      iszero\n      tag_148\n      jumpi\n        /* \"#utility.yul\":6669:6687   */\n      tag_149\n      tag_150\n      jump\t// in\n    tag_149:\n        /* \"#utility.yul\":6582:6689   */\n    tag_148:\n        /* \"#utility.yul\":6713:6714   */\n      dup3\n        /* \"#utility.yul\":6710:6711   */\n      dup3\n        /* \"#utility.yul\":6706:6715   */\n      add\n        /* \"#utility.yul\":6699:6715   */\n      swap1\n      pop\n        /* \"#utility.yul\":6416:6721   */\n      swap3\n      swap2\n      pop\n      pop\n      jump\t// out\n        /* \"#utility.yul\":6727:7075   */\n    tag_32:\n        /* \"#utility.yul\":6767:6774   */\n      0x00\n        /* \"#utility.yul\":6790:6810   */\n      tag_152\n        /* \"#utility.yul\":6808:6809   */\n      dup3\n        /* \"#utility.yul\":6790:6810   */\n      tag_122\n      jump\t// in\n    tag_152:\n        /* \"#utility.yul\":6785:6810   */\n      swap2\n      pop\n        /* \"#utility.yul\":6824:6844   */\n      tag_153\n        /* \"#utility.yul\":6842:6843   */\n      dup4\n        /* \"#utility.yul\":6824:6844   */\n      tag_122\n      jump\t// in\n    tag_153:\n        /* \"#utility.yul\":6819:6844   */\n      swap3\n      pop\n        /* \"#utility.yul\":7012:7013   */\n      dup2\n        /* \"#utility.yul\":6944:7010   */\n      0xffffffffffffffffffffffffffffffffffffffffffffffffffffffffffffffff\n        /* \"#utility.yul\":6940:7014   */\n      div\n        /* \"#utility.yul\":6937:6938   */\n      dup4\n        /* \"#utility.yul\":6934:7015   */\n      gt\n        /* \"#utility.yul\":6929:6930   */\n      dup3\n        /* \"#utility.yul\":6922:6931   */\n      iszero\n        /* \"#utility.yul\":6915:6932   */\n      iszero\n        /* \"#utility.yul\":6911:7016   */\n      and\n        /* \"#utility.yul\":6908:7039   */\n      iszero\n      tag_154\n      jumpi\n        /* \"#utility.yul\":7019:7037   */\n      tag_155\n      tag_150\n      jump\t// in\n    tag_155:\n        /* \"#utility.yul\":6908:7039   */\n    tag_154:\n        /* \"#utility.yul\":7067:7068   */\n      dup3\n        /* \"#utility.yul\":7064:7065   */\n      dup3\n        /* \"#utility.yul\":7060:7069   */\n      mul\n        /* \"#utility.yul\":7049:7069   */\n      swap1\n      pop\n        /* \"#utility.yul\":6727:7075   */\n      swap3\n      swap2\n      pop\n      pop\n      jump\t// out\n        /* \"#utility.yul\":7081:7272   */\n    tag_42:\n        /* \"#utility.yul\":7121:7125   */\n      0x00\n        /* \"#utility.yul\":7141:7161   */\n      tag_157\n        /* \"#utility.yul\":7159:7160   */\n      dup3\n        /* \"#utility.yul\":7141:7161   */\n      tag_122\n      jump\t// in\n    tag_157:\n        /* \"#utility.yul\":7136:7161   */\n      swap2\n      pop\n        /* \"#utility.yul\":7175:7195   */\n      tag_158\n        /* \"#utility.yul\":7193:7194   */\n      dup4\n        /* \"#utility.yul\":7175:7195   */\n      tag_122\n      jump\t// in\n    tag_158:\n        /* \"#utility.yul\":7170:7195   */\n      swap3\n      pop\n        /* \"#utility.yul\":7214:7215   */\n      dup3\n        /* \"#utility.yul\":7211:7212   */\n      dup3\n        /* \"#utility.yul\":7208:7216   */\n      lt\n        /* \"#utility.yul\":7205:7239   */\n      iszero\n      tag_159\n      jumpi\n        /* \"#utility.yul\":7219:7237   */\n      tag_160\n      tag_150\n      jump\t// in\n    tag_160:\n        /* \"#utility.yul\":7205:7239   */\n    tag_159:\n        /* \"#utility.yul\":7264:7265   */\n      dup3\n        /* \"#utility.yul\":7261:7262   */\n      dup3\n        /* \"#utility.yul\":7257:7266   */\n      sub\n        /* \"#utility.yul\":7249:7266   */\n      swap1\n      pop\n        /* \"#utility.yul\":7081:7272   */\n      swap3\n      swap2\n      pop\n      pop\n      jump\t// out\n        /* \"#utility.yul\":7278:7374   */\n    tag_93:\n        /* \"#utility.yul\":7315:7322   */\n      0x00\n        /* \"#utility.yul\":7344:7368   */\n      tag_162\n        /* \"#utility.yul\":7362:7367   */\n      dup3\n        /* \"#utility.yul\":7344:7368   */\n      tag_163\n      jump\t// in\n    tag_162:\n        /* \"#utility.yul\":7333:7368   */\n      swap1\n      pop\n        /* \"#utility.yul\":7278:7374   */\n      swap2\n      swap1\n      pop\n      jump\t// out\n        /* \"#utility.yul\":7380:7484   */\n    tag_89:\n        /* \"#utility.yul\":7425:7432   */\n      0x00\n        /* \"#utility.yul\":7454:7478   */\n      tag_165\n        /* \"#utility.yul\":7472:7477   */\n      dup3\n        /* \"#utility.yul\":7454:7478   */\n      tag_163\n      jump\t// in\n    tag_165:\n        /* \"#utility.yul\":7443:7478   */\n      swap1\n      pop\n        /* \"#utility.yul\":7380:7484   */\n      swap2\n      swap1\n      pop\n      jump\t// out\n        /* \"#utility.yul\":7490:7580   */\n    tag_97:\n        /* \"#utility.yul\":7524:7531   */\n      0x00\n        /* \"#utility.yul\":7567:7572   */\n      dup2\n        /* \"#utility.yul\":7560:7573   */\n      iszero\n        /* \"#utility.yul\":7553:7574   */\n      iszero\n        /* \"#utility.yul\":7542:7574   */\n      swap1\n      pop\n        /* \"#utility.yul\":7490:7580   */\n      swap2\n      swap1\n      pop\n      jump\t// out\n        /* \"#utility.yul\":7586:7712   */\n    tag_163:\n        /* \"#utility.yul\":7623:7630   */\n      0x00\n        /* \"#utility.yul\":7663:7705   */\n      0xffffffffffffffffffffffffffffffffffffffff\n        /* \"#utility.yul\":7656:7661   */\n      dup3\n        /* \"#utility.yul\":7652:7706   */\n      and\n        /* \"#utility.yul\":7641:7706   */\n      swap1\n      pop\n        /* \"#utility.yul\":7586:7712   */\n      swap2\n      swap1\n      pop\n      jump\t// out\n        /* \"#utility.yul\":7718:7795   */\n    tag_122:\n        /* \"#utility.yul\":7755:7762   */\n      0x00\n        /* \"#utility.yul\":7784:7789   */\n      dup2\n        /* \"#utility.yul\":7773:7789   */\n      swap1\n      pop\n        /* \"#utility.yul\":7718:7795   */\n      swap2\n      swap1\n      pop\n      jump\t// out\n        /* \"#utility.yul\":7801:7955   */\n    tag_103:\n        /* \"#utility.yul\":7885:7891   */\n      dup3\n        /* \"#utility.yul\":7880:7883   */\n      dup2\n        /* \"#utility.yul\":7875:7878   */\n      dup4\n        /* \"#utility.yul\":7862:7892   */\n      calldatacopy\n        /* \"#utility.yul\":7947:7948   */\n      0x00\n        /* \"#utility.yul\":7938:7944   */\n      dup4\n        /* \"#utility.yul\":7933:7936   */\n      dup4\n        /* \"#utility.yul\":7929:7945   */\n      add\n        /* \"#utility.yul\":7922:7949   */\n      mstore\n        /* \"#utility.yul\":7801:7955   */\n      pop\n      pop\n      pop\n      jump\t// out\n        /* \"#utility.yul\":7961:8268   */\n    tag_112:\n        /* \"#utility.yul\":8029:8030   */\n      0x00\n        /* \"#utility.yul\":8039:8152   */\n    tag_171:\n        /* \"#utility.yul\":8053:8059   */\n      dup4\n        /* \"#utility.yul\":8050:8051   */\n      dup2\n        /* \"#utility.yul\":8047:8060   */\n      lt\n        /* \"#utility.yul\":8039:8152   */\n      iszero\n      tag_173\n      jumpi\n        /* \"#utility.yul\":8138:8139   */\n      dup1\n        /* \"#utility.yul\":8133:8136   */\n      dup3\n        /* \"#utility.yul\":8129:8140   */\n      add\n        /* \"#utility.yul\":8123:8141   */\n      mload\n        /* \"#utility.yul\":8119:8120   */\n      dup2\n        /* \"#utility.yul\":8114:8117   */\n      dup5\n        /* \"#utility.yul\":8110:8121   */\n      add\n        /* \"#utility.yul\":8103:8142   */\n      mstore\n        /* \"#utility.yul\":8075:8077   */\n      0x20\n        /* \"#utility.yul\":8072:8073   */\n      dup2\n        /* \"#utility.yul\":8068:8078   */\n      add\n        /* \"#utility.yul\":8063:8078   */\n      swap1\n      pop\n        /* \"#utility.yul\":8039:8152   */\n      jump(tag_171)\n    tag_173:\n        /* \"#utility.yul\":8170:8176   */\n      dup4\n        /* \"#utility.yul\":8167:8168   */\n      dup2\n        /* \"#utility.yul\":8164:8177   */\n      gt\n        /* \"#utility.yul\":8161:8262   */\n      iszero\n      tag_174\n      jumpi\n        /* \"#utility.yul\":8250:8251   */\n      0x00\n        /* \"#utility.yul\":8241:8247   */\n      dup5\n        /* \"#utility.yul\":8236:8239   */\n      dup5\n        /* \"#utility.yul\":8232:8248   */\n      add\n        /* \"#utility.yul\":8225:8252   */\n      mstore\n        /* \"#utility.yul\":8161:8262   */\n    tag_174:\n        /* \"#utility.yul\":8010:8268   */\n      pop\n        /* \"#utility.yul\":7961:8268   */\n      pop\n      pop\n      pop\n      jump\t// out\n        /* \"#utility.yul\":8274:8594   */\n    tag_23:\n        /* \"#utility.yul\":8318:8324   */\n      0x00\n        /* \"#utility.yul\":8355:8356   */\n      0x02\n        /* \"#utility.yul\":8349:8353   */\n      dup3\n        /* \"#utility.yul\":8345:8357   */\n      div\n        /* \"#utility.yul\":8335:8357   */\n      swap1\n      pop\n        /* \"#utility.yul\":8402:8403   */\n      0x01\n        /* \"#utility.yul\":8396:8400   */\n      dup3\n        /* \"#utility.yul\":8392:8404   */\n      and\n        /* \"#utility.yul\":8423:8441   */\n      dup1\n        /* \"#utility.yul\":8413:8494   */\n      tag_176\n      jumpi\n        /* \"#utility.yul\":8479:8483   */\n      0x7f\n        /* \"#utility.yul\":8471:8477   */\n      dup3\n        /* \"#utility.yul\":8467:8484   */\n      and\n        /* \"#utility.yul\":8457:8484   */\n      swap2\n      pop\n        /* \"#utility.yul\":8413:8494   */\n    tag_176:\n        /* \"#utility.yul\":8541:8543   */\n      0x20\n        /* \"#utility.yul\":8533:8539   */\n      dup3\n        /* \"#utility.yul\":8530:8544   */\n      lt\n        /* \"#utility.yul\":8510:8528   */\n      dup2\n        /* \"#utility.yul\":8507:8545   */\n      eq\n        /* \"#utility.yul\":8504:8588   */\n      iszero\n      tag_177\n      jumpi\n        /* \"#utility.yul\":8560:8578   */\n      tag_178\n      tag_179\n      jump\t// in\n    tag_178:\n        /* \"#utility.yul\":8504:8588   */\n    tag_177:\n        /* \"#utility.yul\":8325:8594   */\n      pop\n        /* \"#utility.yul\":8274:8594   */\n      swap2\n      swap1\n      pop\n      jump\t// out\n        /* \"#utility.yul\":8600:8780   */\n    tag_150:\n        /* \"#utility.yul\":8648:8725   */\n      0x4e487b7100000000000000000000000000000000000000000000000000000000\n        /* \"#utility.yul\":8645:8646   */\n      0x00\n        /* \"#utility.yul\":8638:8726   */\n      mstore\n        /* \"#utility.yul\":8745:8749   */\n      0x11\n        /* \"#utility.yul\":8742:8743   */\n      0x04\n        /* \"#utility.yul\":8735:8750   */\n      mstore\n        /* \"#utility.yul\":8769:8773   */\n      0x24\n        /* \"#utility.yul\":8766:8767   */\n      0x00\n        /* \"#utility.yul\":8759:8774   */\n      revert\n        /* \"#utility.yul\":8786:8966   */\n    tag_179:\n        /* \"#utility.yul\":8834:8911   */\n      0x4e487b7100000000000000000000000000000000000000000000000000000000\n        /* \"#utility.yul\":8831:8832   */\n      0x00\n        /* \"#utility.yul\":8824:8912   */\n      mstore\n        /* \"#utility.yul\":8931:8935   */\n      0x22\n        /* \"#utility.yul\":8928:8929   */\n      0x04\n        /* \"#utility.yul\":8921:8936   */\n      mstore\n        /* \"#utility.yul\":8955:8959   */\n      0x24\n        /* \"#utility.yul\":8952:8953   */\n      0x00\n        /* \"#utility.yul\":8945:8960   */\n      revert\n        /* \"#utility.yul\":8972:9089   */\n    tag_63:\n        /* \"#utility.yul\":9081:9082   */\n      0x00\n        /* \"#utility.yul\":9078:9079   */\n      dup1\n        /* \"#utility.yul\":9071:9083   */\n      revert\n        /* \"#utility.yul\":9095:9212   */\n    tag_60:\n        /* \"#utility.yul\":9204:9205   */\n      0x00\n        /* \"#utility.yul\":9201:9202   */\n      dup1\n        /* \"#utility.yul\":9194:9206   */\n      revert\n        /* \"#utility.yul\":9218:9335   */\n    tag_66:\n        /* \"#utility.yul\":9327:9328   */\n      0x00\n        /* \"#utility.yul\":9324:9325   */\n      dup1\n        /* \"#utility.yul\":9317:9329   */\n      revert\n        /* \"#utility.yul\":9341:9458   */\n    tag_83:\n        /* \"#utility.yul\":9450:9451   */\n      0x00\n        /* \"#utility.yul\":9447:9448   */\n      dup1\n        /* \"#utility.yul\":9440:9452   */\n      revert\n        /* \"#utility.yul\":9464:9581   */\n    tag_74:\n        /* \"#utility.yul\":9573:9574   */\n      0x00\n        /* \"#utility.yul\":9570:9571   */\n      dup1\n        /* \"#utility.yul\":9563:9575   */\n      revert\n        /* \"#utility.yul\":9587:9689   */\n    tag_105:\n        /* \"#utility.yul\":9628:9634   */\n      0x00\n        /* \"#utility.yul\":9679:9681   */\n      0x1f\n        /* \"#utility.yul\":9675:9682   */\n      not\n        /* \"#utility.yul\":9670:9672   */\n      0x1f\n        /* \"#utility.yul\":9663:9668   */\n      dup4\n        /* \"#utility.yul\":9659:9673   */\n      add\n        /* \"#utility.yul\":9655:9683   */\n      and\n        /* \"#utility.yul\":9645:9683   */\n      swap1\n      pop\n        /* \"#utility.yul\":9587:9689   */\n      swap2\n      swap1\n      pop\n      jump\t// out\n        /* \"#utility.yul\":9695:9870   */\n    tag_118:\n        /* \"#utility.yul\":9835:9862   */\n      0x496e636f7272656374207374617274696e672070726963652e00000000000000\n        /* \"#utility.yul\":9831:9832   */\n      0x00\n        /* \"#utility.yul\":9823:9829   */\n      dup3\n        /* \"#utility.yul\":9819:9833   */\n      add\n        /* \"#utility.yul\":9812:9863   */\n      mstore\n        /* \"#utility.yul\":9695:9870   */\n      pop\n      jump\t// out\n        /* \"#utility.yul\":9876:9998   */\n    tag_70:\n        /* \"#utility.yul\":9949:9973   */\n      tag_190\n        /* \"#utility.yul\":9967:9972   */\n      dup2\n        /* \"#utility.yul\":9949:9973   */\n      tag_122\n      jump\t// in\n    tag_190:\n        /* \"#utility.yul\":9942:9947   */\n      dup2\n        /* \"#utility.yul\":9939:9974   */\n      eq\n        /* \"#utility.yul\":9929:9992   */\n      tag_191\n      jumpi\n        /* \"#utility.yul\":9988:9989   */\n      0x00\n        /* \"#utility.yul\":9985:9986   */\n      dup1\n        /* \"#utility.yul\":9978:9990   */\n      revert\n        /* \"#utility.yul\":9929:9992   */\n    tag_191:\n        /* \"#utility.yul\":9876:9998   */\n      pop\n      jump\t// out\n\n    auxdata: 0xa2646970667358221220e288f0f5875f7e091ee664f2e7f813b6fcdf30f923d94e25285e2463715c473f64736f6c63430008070033\n}\n",
				"bytecode": {
					"linkReferences": {},
					"object": "608060405234801561001057600080fd5b50336000806101000a81548173ffffffffffffffffffffffffffffffffffffffff021916908373ffffffffffffffffffffffffffffffffffffffff160217905550610a90806100606000396000f3fe608060405234801561001057600080fd5b50600436106100415760003560e01c8063571a26a0146100465780638da5cb5b1461007d578063e9835d151461009b575b600080fd5b610060600480360381019061005b919061053c565b6100b7565b6040516100749897969594939291906106d1565b60405180910390f35b6100856101c4565b60405161009291906106b6565b60405180910390f35b6100b560048036038101906100b09190610569565b6101e8565b005b600181815481106100c757600080fd5b90600052602060002090600802016000915090508060000160009054906101000a900473ffffffffffffffffffffffffffffffffffffffff169080600101549080600201549080600301549080600401549080600501549080600601805461012e90610960565b80601f016020809104026020016040519081016040528092919081815260200182805461015a90610960565b80156101a75780601f1061017c576101008083540402835291602001916101a7565b820191906000526020600020905b81548152906001019060200180831161018a57829003601f168201915b5050505050908060070160009054906101000a900460ff16905088565b60008054906101000a900473ffffffffffffffffffffffffffffffffffffffff1681565b60008082146101f757816101fc565b6202a3005b9050818561020a9190610836565b86101561024c576040517f08c379a000000000000000000000000000000000000000000000000000000000815260040161024390610756565b60405180910390fd5b60006040518061010001604052803373ffffffffffffffffffffffffffffffffffffffff168152602001888152602001888152602001428152602001834261029491906107e0565b815260200187815260200186868080601f016020809104026020016040519081016040528093929190818152602001838380828437600081840152601f19601f820116905080830192505050505050508152602001600015158152509050600181908060018154018082558091505060019003906000526020600020906008020160009091909190915060008201518160000160006101000a81548173ffffffffffffffffffffffffffffffffffffffff021916908373ffffffffffffffffffffffffffffffffffffffff1602179055506020820151816001015560408201518160020155606082015181600301556080820151816004015560a0820151816005015560c08201518160060190805190602001906103b392919061042e565b5060e08201518160070160006101000a81548160ff02191690831515021790555050507f5bf34ed94988e5dcdc7d1faaa54eb1d3b55f45d5f11457e235afb21a8ebbe73c600180805490506104089190610890565b86868a8660405161041d959493929190610776565b60405180910390a150505050505050565b82805461043a90610960565b90600052602060002090601f01602090048101928261045c57600085556104a3565b82601f1061047557805160ff19168380011785556104a3565b828001600101855582156104a3579182015b828111156104a2578251825591602001919060010190610487565b5b5090506104b091906104b4565b5090565b5b808211156104cd5760008160009055506001016104b5565b5090565b60008083601f8401126104e7576104e66109f5565b5b8235905067ffffffffffffffff811115610504576105036109f0565b5b6020830191508360018202830111156105205761051f6109fa565b5b9250929050565b60008135905061053681610a43565b92915050565b60006020828403121561055257610551610a04565b5b600061056084828501610527565b91505092915050565b60008060008060006080868803121561058557610584610a04565b5b600061059388828901610527565b95505060206105a488828901610527565b945050604086013567ffffffffffffffff8111156105c5576105c46109ff565b5b6105d1888289016104d1565b935093505060606105e488828901610527565b9150509295509295909350565b6105fa816108d6565b82525050565b610609816108c4565b82525050565b610618816108e8565b82525050565b600061062a83856107cf565b935061063783858461091e565b61064083610a09565b840190509392505050565b6000610656826107c4565b61066081856107cf565b935061067081856020860161092d565b61067981610a09565b840191505092915050565b60006106916019836107cf565b915061069c82610a1a565b602082019050919050565b6106b081610914565b82525050565b60006020820190506106cb6000830184610600565b92915050565b6000610100820190506106e7600083018b6105f1565b6106f4602083018a6106a7565b61070160408301896106a7565b61070e60608301886106a7565b61071b60808301876106a7565b61072860a08301866106a7565b81810360c083015261073a818561064b565b905061074960e083018461060f565b9998505050505050505050565b6000602082019050818103600083015261076f81610684565b9050919050565b600060808201905061078b60008301886106a7565b818103602083015261079e81868861061e565b90506107ad60408301856106a7565b6107ba60608301846106a7565b9695505050505050565b600081519050919050565b600082825260208201905092915050565b60006107eb82610914565b91506107f683610914565b9250827fffffffffffffffffffffffffffffffffffffffffffffffffffffffffffffffff0382111561082b5761082a610992565b5b828201905092915050565b600061084182610914565b915061084c83610914565b9250817fffffffffffffffffffffffffffffffffffffffffffffffffffffffffffffffff048311821515161561088557610884610992565b5b828202905092915050565b600061089b82610914565b91506108a683610914565b9250828210156108b9576108b8610992565b5b828203905092915050565b60006108cf826108f4565b9050919050565b60006108e1826108f4565b9050919050565b60008115159050919050565b600073ffffffffffffffffffffffffffffffffffffffff82169050919050565b6000819050919050565b82818337600083830152505050565b60005b8381101561094b578082015181840152602081019050610930565b8381111561095a576000848401525b50505050565b6000600282049050600182168061097857607f821691505b6020821081141561098c5761098b6109c1565b5b50919050565b7f4e487b7100000000000000000000000000000000000000000000000000000000600052601160045260246000fd5b7f4e487b7100000000000000000000000000000000000000000000000000000000600052602260045260246000fd5b600080fd5b600080fd5b600080fd5b600080fd5b600080fd5b6000601f19601f8301169050919050565b7f496e636f7272656374207374617274696e672070726963652e00000000000000600082015250565b610a4c81610914565b8114610a5757600080fd5b5056fea2646970667358221220e288f0f5875f7e091ee664f2e7f813b6fcdf30f923d94e25285e2463715c473f64736f6c63430008070033",
					"opcodes": "PUSH1 0x80 PUSH1 0x40 MSTORE CALLVALUE DUP1 ISZERO PUSH2 0x10 JUMPI PUSH1 0x0 DUP1 REVERT JUMPDEST POP CALLER PUSH1 0x0 DUP1 PUSH2 0x100 EXP DUP2 SLOAD DUP2 PUSH20 0xFFFFFFFFFFFFFFFFFFFFFFFFFFFFFFFFFFFFFFFF MUL NOT AND SWAP1 DUP4 PUSH20 0xFFFFFFFFFFFFFFFFFFFFFFFFFFFFFFFFFFFFFFFF AND MUL OR SWAP1 SSTORE POP PUSH2 0xA90 DUP1 PUSH2 0x60 PUSH1 0x0 CODECOPY PUSH1 0x0 RETURN INVALID PUSH1 0x80 PUSH1 0x40 MSTORE CALLVALUE DUP1 ISZERO PUSH2 0x10 JUMPI PUSH1 0x0 DUP1 REVERT JUMPDEST POP PUSH1 0x4 CALLDATASIZE LT PUSH2 0x41 JUMPI PUSH1 0x0 CALLDATALOAD PUSH1 0xE0 SHR DUP1 PUSH4 0x571A26A0 EQ PUSH2 0x46 JUMPI DUP1 PUSH4 0x8DA5CB5B EQ PUSH2 0x7D JUMPI DUP1 PUSH4 0xE9835D15 EQ PUSH2 0x9B JUMPI JUMPDEST PUSH1 0x0 DUP1 REVERT JUMPDEST PUSH2 0x60 PUSH1 0x4 DUP1 CALLDATASIZE SUB DUP2 ADD SWAP1 PUSH2 0x5B SWAP2 SWAP1 PUSH2 0x53C JUMP JUMPDEST PUSH2 0xB7 JUMP JUMPDEST PUSH1 0x40 MLOAD PUSH2 0x74 SWAP9 SWAP8 SWAP7 SWAP6 SWAP5 SWAP4 SWAP3 SWAP2 SWAP1 PUSH2 0x6D1 JUMP JUMPDEST PUSH1 0x40 MLOAD DUP1 SWAP2 SUB SWAP1 RETURN JUMPDEST PUSH2 0x85 PUSH2 0x1C4 JUMP JUMPDEST PUSH1 0x40 MLOAD PUSH2 0x92 SWAP2 SWAP1 PUSH2 0x6B6 JUMP JUMPDEST PUSH1 0x40 MLOAD DUP1 SWAP2 SUB SWAP1 RETURN JUMPDEST PUSH2 0xB5 PUSH1 0x4 DUP1 CALLDATASIZE SUB DUP2 ADD SWAP1 PUSH2 0xB0 SWAP2 SWAP1 PUSH2 0x569 JUMP JUMPDEST PUSH2 0x1E8 JUMP JUMPDEST STOP JUMPDEST PUSH1 0x1 DUP2 DUP2 SLOAD DUP2 LT PUSH2 0xC7 JUMPI PUSH1 0x0 DUP1 REVERT JUMPDEST SWAP1 PUSH1 0x0 MSTORE PUSH1 0x20 PUSH1 0x0 KECCAK256 SWAP1 PUSH1 0x8 MUL ADD PUSH1 0x0 SWAP2 POP SWAP1 POP DUP1 PUSH1 0x0 ADD PUSH1 0x0 SWAP1 SLOAD SWAP1 PUSH2 0x100 EXP SWAP1 DIV PUSH20 0xFFFFFFFFFFFFFFFFFFFFFFFFFFFFFFFFFFFFFFFF AND SWAP1 DUP1 PUSH1 0x1 ADD SLOAD SWAP1 DUP1 PUSH1 0x2 ADD SLOAD SWAP1 DUP1 PUSH1 0x3 ADD SLOAD SWAP1 DUP1 PUSH1 0x4 ADD SLOAD SWAP1 DUP1 PUSH1 0x5 ADD SLOAD SWAP1 DUP1 PUSH1 0x6 ADD DUP1 SLOAD PUSH2 0x12E SWAP1 PUSH2 0x960 JUMP JUMPDEST DUP1 PUSH1 0x1F ADD PUSH1 0x20 DUP1 SWAP2 DIV MUL PUSH1 0x20 ADD PUSH1 0x40 MLOAD SWAP1 DUP2 ADD PUSH1 0x40 MSTORE DUP1 SWAP3 SWAP2 SWAP1 DUP2 DUP2 MSTORE PUSH1 0x20 ADD DUP3 DUP1 SLOAD PUSH2 0x15A SWAP1 PUSH2 0x960 JUMP JUMPDEST DUP1 ISZERO PUSH2 0x1A7 JUMPI DUP1 PUSH1 0x1F LT PUSH2 0x17C JUMPI PUSH2 0x100 DUP1 DUP4 SLOAD DIV MUL DUP4 MSTORE SWAP2 PUSH1 0x20 ADD SWAP2 PUSH2 0x1A7 JUMP JUMPDEST DUP3 ADD SWAP2 SWAP1 PUSH1 0x0 MSTORE PUSH1 0x20 PUSH1 0x0 KECCAK256 SWAP1 JUMPDEST DUP2 SLOAD DUP2 MSTORE SWAP1 PUSH1 0x1 ADD SWAP1 PUSH1 0x20 ADD DUP1 DUP4 GT PUSH2 0x18A JUMPI DUP3 SWAP1 SUB PUSH1 0x1F AND DUP3 ADD SWAP2 JUMPDEST POP POP POP POP POP SWAP1 DUP1 PUSH1 0x7 ADD PUSH1 0x0 SWAP1 SLOAD SWAP1 PUSH2 0x100 EXP SWAP1 DIV PUSH1 0xFF AND SWAP1 POP DUP9 JUMP JUMPDEST PUSH1 0x0 DUP1 SLOAD SWAP1 PUSH2 0x100 EXP SWAP1 DIV PUSH20 0xFFFFFFFFFFFFFFFFFFFFFFFFFFFFFFFFFFFFFFFF AND DUP2 JUMP JUMPDEST PUSH1 0x0 DUP1 DUP3 EQ PUSH2 0x1F7 JUMPI DUP2 PUSH2 0x1FC JUMP JUMPDEST PUSH3 0x2A300 JUMPDEST SWAP1 POP DUP2 DUP6 PUSH2 0x20A SWAP2 SWAP1 PUSH2 0x836 JUMP JUMPDEST DUP7 LT ISZERO PUSH2 0x24C JUMPI PUSH1 0x40 MLOAD PUSH32 0x8C379A000000000000000000000000000000000000000000000000000000000 DUP2 MSTORE PUSH1 0x4 ADD PUSH2 0x243 SWAP1 PUSH2 0x756 JUMP JUMPDEST PUSH1 0x40 MLOAD DUP1 SWAP2 SUB SWAP1 REVERT JUMPDEST PUSH1 0x0 PUSH1 0x40 MLOAD DUP1 PUSH2 0x100 ADD PUSH1 0x40 MSTORE DUP1 CALLER PUSH20 0xFFFFFFFFFFFFFFFFFFFFFFFFFFFFFFFFFFFFFFFF AND DUP2 MSTORE PUSH1 0x20 ADD DUP9 DUP2 MSTORE PUSH1 0x20 ADD DUP9 DUP2 MSTORE PUSH1 0x20 ADD TIMESTAMP DUP2 MSTORE PUSH1 0x20 ADD DUP4 TIMESTAMP PUSH2 0x294 SWAP2 SWAP1 PUSH2 0x7E0 JUMP JUMPDEST DUP2 MSTORE PUSH1 0x20 ADD DUP8 DUP2 MSTORE PUSH1 0x20 ADD DUP7 DUP7 DUP1 DUP1 PUSH1 0x1F ADD PUSH1 0x20 DUP1 SWAP2 DIV MUL PUSH1 0x20 ADD PUSH1 0x40 MLOAD SWAP1 DUP2 ADD PUSH1 0x40 MSTORE DUP1 SWAP4 SWAP3 SWAP2 SWAP1 DUP2 DUP2 MSTORE PUSH1 0x20 ADD DUP4 DUP4 DUP1 DUP3 DUP5 CALLDATACOPY PUSH1 0x0 DUP2 DUP5 ADD MSTORE PUSH1 0x1F NOT PUSH1 0x1F DUP3 ADD AND SWAP1 POP DUP1 DUP4 ADD SWAP3 POP POP POP POP POP POP POP DUP2 MSTORE PUSH1 0x20 ADD PUSH1 0x0 ISZERO ISZERO DUP2 MSTORE POP SWAP1 POP PUSH1 0x1 DUP2 SWAP1 DUP1 PUSH1 0x1 DUP2 SLOAD ADD DUP1 DUP3 SSTORE DUP1 SWAP2 POP POP PUSH1 0x1 SWAP1 SUB SWAP1 PUSH1 0x0 MSTORE PUSH1 0x20 PUSH1 0x0 KECCAK256 SWAP1 PUSH1 0x8 MUL ADD PUSH1 0x0 SWAP1 SWAP2 SWAP1 SWAP2 SWAP1 SWAP2 POP PUSH1 0x0 DUP3 ADD MLOAD DUP2 PUSH1 0x0 ADD PUSH1 0x0 PUSH2 0x100 EXP DUP2 SLOAD DUP2 PUSH20 0xFFFFFFFFFFFFFFFFFFFFFFFFFFFFFFFFFFFFFFFF MUL NOT AND SWAP1 DUP4 PUSH20 0xFFFFFFFFFFFFFFFFFFFFFFFFFFFFFFFFFFFFFFFF AND MUL OR SWAP1 SSTORE POP PUSH1 0x20 DUP3 ADD MLOAD DUP2 PUSH1 0x1 ADD SSTORE PUSH1 0x40 DUP3 ADD MLOAD DUP2 PUSH1 0x2 ADD SSTORE PUSH1 0x60 DUP3 ADD MLOAD DUP2 PUSH1 0x3 ADD SSTORE PUSH1 0x80 DUP3 ADD MLOAD DUP2 PUSH1 0x4 ADD SSTORE PUSH1 0xA0 DUP3 ADD MLOAD DUP2 PUSH1 0x5 ADD SSTORE PUSH1 0xC0 DUP3 ADD MLOAD DUP2 PUSH1 0x6 ADD SWAP1 DUP1 MLOAD SWAP1 PUSH1 0x20 ADD SWAP1 PUSH2 0x3B3 SWAP3 SWAP2 SWAP1 PUSH2 0x42E JUMP JUMPDEST POP PUSH1 0xE0 DUP3 ADD MLOAD DUP2 PUSH1 0x7 ADD PUSH1 0x0 PUSH2 0x100 EXP DUP2 SLOAD DUP2 PUSH1 0xFF MUL NOT AND SWAP1 DUP4 ISZERO ISZERO MUL OR SWAP1 SSTORE POP POP POP PUSH32 0x5BF34ED94988E5DCDC7D1FAAA54EB1D3B55F45D5F11457E235AFB21A8EBBE73C PUSH1 0x1 DUP1 DUP1 SLOAD SWAP1 POP PUSH2 0x408 SWAP2 SWAP1 PUSH2 0x890 JUMP JUMPDEST DUP7 DUP7 DUP11 DUP7 PUSH1 0x40 MLOAD PUSH2 0x41D SWAP6 SWAP5 SWAP4 SWAP3 SWAP2 SWAP1 PUSH2 0x776 JUMP JUMPDEST PUSH1 0x40 MLOAD DUP1 SWAP2 SUB SWAP1 LOG1 POP POP POP POP POP POP POP JUMP JUMPDEST DUP3 DUP1 SLOAD PUSH2 0x43A SWAP1 PUSH2 0x960 JUMP JUMPDEST SWAP1 PUSH1 0x0 MSTORE PUSH1 0x20 PUSH1 0x0 KECCAK256 SWAP1 PUSH1 0x1F ADD PUSH1 0x20 SWAP1 DIV DUP2 ADD SWAP3 DUP3 PUSH2 0x45C JUMPI PUSH1 0x0 DUP6 SSTORE PUSH2 0x4A3 JUMP JUMPDEST DUP3 PUSH1 0x1F LT PUSH2 0x475 JUMPI DUP1 MLOAD PUSH1 0xFF NOT AND DUP4 DUP1 ADD OR DUP6 SSTORE PUSH2 0x4A3 JUMP JUMPDEST DUP3 DUP1 ADD PUSH1 0x1 ADD DUP6 SSTORE DUP3 ISZERO PUSH2 0x4A3 JUMPI SWAP2 DUP3 ADD JUMPDEST DUP3 DUP2 GT ISZERO PUSH2 0x4A2 JUMPI DUP3 MLOAD DUP3 SSTORE SWAP2 PUSH1 0x20 ADD SWAP2 SWAP1 PUSH1 0x1 ADD SWAP1 PUSH2 0x487 JUMP JUMPDEST JUMPDEST POP SWAP1 POP PUSH2 0x4B0 SWAP2 SWAP1 PUSH2 0x4B4 JUMP JUMPDEST POP SWAP1 JUMP JUMPDEST JUMPDEST DUP1 DUP3 GT ISZERO PUSH2 0x4CD JUMPI PUSH1 0x0 DUP2 PUSH1 0x0 SWAP1 SSTORE POP PUSH1 0x1 ADD PUSH2 0x4B5 JUMP JUMPDEST POP SWAP1 JUMP JUMPDEST PUSH1 0x0 DUP1 DUP4 PUSH1 0x1F DUP5 ADD SLT PUSH2 0x4E7 JUMPI PUSH2 0x4E6 PUSH2 0x9F5 JUMP JUMPDEST JUMPDEST DUP3 CALLDATALOAD SWAP1 POP PUSH8 0xFFFFFFFFFFFFFFFF DUP2 GT ISZERO PUSH2 0x504 JUMPI PUSH2 0x503 PUSH2 0x9F0 JUMP JUMPDEST JUMPDEST PUSH1 0x20 DUP4 ADD SWAP2 POP DUP4 PUSH1 0x1 DUP3 MUL DUP4 ADD GT ISZERO PUSH2 0x520 JUMPI PUSH2 0x51F PUSH2 0x9FA JUMP JUMPDEST JUMPDEST SWAP3 POP SWAP3 SWAP1 POP JUMP JUMPDEST PUSH1 0x0 DUP2 CALLDATALOAD SWAP1 POP PUSH2 0x536 DUP2 PUSH2 0xA43 JUMP JUMPDEST SWAP3 SWAP2 POP POP JUMP JUMPDEST PUSH1 0x0 PUSH1 0x20 DUP3 DUP5 SUB SLT ISZERO PUSH2 0x552 JUMPI PUSH2 0x551 PUSH2 0xA04 JUMP JUMPDEST JUMPDEST PUSH1 0x0 PUSH2 0x560 DUP5 DUP3 DUP6 ADD PUSH2 0x527 JUMP JUMPDEST SWAP2 POP POP SWAP3 SWAP2 POP POP JUMP JUMPDEST PUSH1 0x0 DUP1 PUSH1 0x0 DUP1 PUSH1 0x0 PUSH1 0x80 DUP7 DUP9 SUB SLT ISZERO PUSH2 0x585 JUMPI PUSH2 0x584 PUSH2 0xA04 JUMP JUMPDEST JUMPDEST PUSH1 0x0 PUSH2 0x593 DUP9 DUP3 DUP10 ADD PUSH2 0x527 JUMP JUMPDEST SWAP6 POP POP PUSH1 0x20 PUSH2 0x5A4 DUP9 DUP3 DUP10 ADD PUSH2 0x527 JUMP JUMPDEST SWAP5 POP POP PUSH1 0x40 DUP7 ADD CALLDATALOAD PUSH8 0xFFFFFFFFFFFFFFFF DUP2 GT ISZERO PUSH2 0x5C5 JUMPI PUSH2 0x5C4 PUSH2 0x9FF JUMP JUMPDEST JUMPDEST PUSH2 0x5D1 DUP9 DUP3 DUP10 ADD PUSH2 0x4D1 JUMP JUMPDEST SWAP4 POP SWAP4 POP POP PUSH1 0x60 PUSH2 0x5E4 DUP9 DUP3 DUP10 ADD PUSH2 0x527 JUMP JUMPDEST SWAP2 POP POP SWAP3 SWAP6 POP SWAP3 SWAP6 SWAP1 SWAP4 POP JUMP JUMPDEST PUSH2 0x5FA DUP2 PUSH2 0x8D6 JUMP JUMPDEST DUP3 MSTORE POP POP JUMP JUMPDEST PUSH2 0x609 DUP2 PUSH2 0x8C4 JUMP JUMPDEST DUP3 MSTORE POP POP JUMP JUMPDEST PUSH2 0x618 DUP2 PUSH2 0x8E8 JUMP JUMPDEST DUP3 MSTORE POP POP JUMP JUMPDEST PUSH1 0x0 PUSH2 0x62A DUP4 DUP6 PUSH2 0x7CF JUMP JUMPDEST SWAP4 POP PUSH2 0x637 DUP4 DUP6 DUP5 PUSH2 0x91E JUMP JUMPDEST PUSH2 0x640 DUP4 PUSH2 0xA09 JUMP JUMPDEST DUP5 ADD SWAP1 POP SWAP4 SWAP3 POP POP POP JUMP JUMPDEST PUSH1 0x0 PUSH2 0x656 DUP3 PUSH2 0x7C4 JUMP JUMPDEST PUSH2 0x660 DUP2 DUP6 PUSH2 0x7CF JUMP JUMPDEST SWAP4 POP PUSH2 0x670 DUP2 DUP6 PUSH1 0x20 DUP7 ADD PUSH2 0x92D JUMP JUMPDEST PUSH2 0x679 DUP2 PUSH2 0xA09 JUMP JUMPDEST DUP5 ADD SWAP2 POP POP SWAP3 SWAP2 POP POP JUMP JUMPDEST PUSH1 0x0 PUSH2 0x691 PUSH1 0x19 DUP4 PUSH2 0x7CF JUMP JUMPDEST SWAP2 POP PUSH2 0x69C DUP3 PUSH2 0xA1A JUMP JUMPDEST PUSH1 0x20 DUP3 ADD SWAP1 POP SWAP2 SWAP1 POP JUMP JUMPDEST PUSH2 0x6B0 DUP2 PUSH2 0x914 JUMP JUMPDEST DUP3 MSTORE POP POP JUMP JUMPDEST PUSH1 0x0 PUSH1 0x20 DUP3 ADD SWAP1 POP PUSH2 0x6CB PUSH1 0x0 DUP4 ADD DUP5 PUSH2 0x600 JUMP JUMPDEST SWAP3 SWAP2 POP POP JUMP JUMPDEST PUSH1 0x0 PUSH2 0x100 DUP3 ADD SWAP1 POP PUSH2 0x6E7 PUSH1 0x0 DUP4 ADD DUP12 PUSH2 0x5F1 JUMP JUMPDEST PUSH2 0x6F4 PUSH1 0x20 DUP4 ADD DUP11 PUSH2 0x6A7 JUMP JUMPDEST PUSH2 0x701 PUSH1 0x40 DUP4 ADD DUP10 PUSH2 0x6A7 JUMP JUMPDEST PUSH2 0x70E PUSH1 0x60 DUP4 ADD DUP9 PUSH2 0x6A7 JUMP JUMPDEST PUSH2 0x71B PUSH1 0x80 DUP4 ADD DUP8 PUSH2 0x6A7 JUMP JUMPDEST PUSH2 0x728 PUSH1 0xA0 DUP4 ADD DUP7 PUSH2 0x6A7 JUMP JUMPDEST DUP2 DUP2 SUB PUSH1 0xC0 DUP4 ADD MSTORE PUSH2 0x73A DUP2 DUP6 PUSH2 0x64B JUMP JUMPDEST SWAP1 POP PUSH2 0x749 PUSH1 0xE0 DUP4 ADD DUP5 PUSH2 0x60F JUMP JUMPDEST SWAP10 SWAP9 POP POP POP POP POP POP POP POP POP JUMP JUMPDEST PUSH1 0x0 PUSH1 0x20 DUP3 ADD SWAP1 POP DUP2 DUP2 SUB PUSH1 0x0 DUP4 ADD MSTORE PUSH2 0x76F DUP2 PUSH2 0x684 JUMP JUMPDEST SWAP1 POP SWAP2 SWAP1 POP JUMP JUMPDEST PUSH1 0x0 PUSH1 0x80 DUP3 ADD SWAP1 POP PUSH2 0x78B PUSH1 0x0 DUP4 ADD DUP9 PUSH2 0x6A7 JUMP JUMPDEST DUP2 DUP2 SUB PUSH1 0x20 DUP4 ADD MSTORE PUSH2 0x79E DUP2 DUP7 DUP9 PUSH2 0x61E JUMP JUMPDEST SWAP1 POP PUSH2 0x7AD PUSH1 0x40 DUP4 ADD DUP6 PUSH2 0x6A7 JUMP JUMPDEST PUSH2 0x7BA PUSH1 0x60 DUP4 ADD DUP5 PUSH2 0x6A7 JUMP JUMPDEST SWAP7 SWAP6 POP POP POP POP POP POP JUMP JUMPDEST PUSH1 0x0 DUP2 MLOAD SWAP1 POP SWAP2 SWAP1 POP JUMP JUMPDEST PUSH1 0x0 DUP3 DUP3 MSTORE PUSH1 0x20 DUP3 ADD SWAP1 POP SWAP3 SWAP2 POP POP JUMP JUMPDEST PUSH1 0x0 PUSH2 0x7EB DUP3 PUSH2 0x914 JUMP JUMPDEST SWAP2 POP PUSH2 0x7F6 DUP4 PUSH2 0x914 JUMP JUMPDEST SWAP3 POP DUP3 PUSH32 0xFFFFFFFFFFFFFFFFFFFFFFFFFFFFFFFFFFFFFFFFFFFFFFFFFFFFFFFFFFFFFFFF SUB DUP3 GT ISZERO PUSH2 0x82B JUMPI PUSH2 0x82A PUSH2 0x992 JUMP JUMPDEST JUMPDEST DUP3 DUP3 ADD SWAP1 POP SWAP3 SWAP2 POP POP JUMP JUMPDEST PUSH1 0x0 PUSH2 0x841 DUP3 PUSH2 0x914 JUMP JUMPDEST SWAP2 POP PUSH2 0x84C DUP4 PUSH2 0x914 JUMP JUMPDEST SWAP3 POP DUP2 PUSH32 0xFFFFFFFFFFFFFFFFFFFFFFFFFFFFFFFFFFFFFFFFFFFFFFFFFFFFFFFFFFFFFFFF DIV DUP4 GT DUP3 ISZERO ISZERO AND ISZERO PUSH2 0x885 JUMPI PUSH2 0x884 PUSH2 0x992 JUMP JUMPDEST JUMPDEST DUP3 DUP3 MUL SWAP1 POP SWAP3 SWAP2 POP POP JUMP JUMPDEST PUSH1 0x0 PUSH2 0x89B DUP3 PUSH2 0x914 JUMP JUMPDEST SWAP2 POP PUSH2 0x8A6 DUP4 PUSH2 0x914 JUMP JUMPDEST SWAP3 POP DUP3 DUP3 LT ISZERO PUSH2 0x8B9 JUMPI PUSH2 0x8B8 PUSH2 0x992 JUMP JUMPDEST JUMPDEST DUP3 DUP3 SUB SWAP1 POP SWAP3 SWAP2 POP POP JUMP JUMPDEST PUSH1 0x0 PUSH2 0x8CF DUP3 PUSH2 0x8F4 JUMP JUMPDEST SWAP1 POP SWAP2 SWAP1 POP JUMP JUMPDEST PUSH1 0x0 PUSH2 0x8E1 DUP3 PUSH2 0x8F4 JUMP JUMPDEST SWAP1 POP SWAP2 SWAP1 POP JUMP JUMPDEST PUSH1 0x0 DUP2 ISZERO ISZERO SWAP1 POP SWAP2 SWAP1 POP JUMP JUMPDEST PUSH1 0x0 PUSH20 0xFFFFFFFFFFFFFFFFFFFFFFFFFFFFFFFFFFFFFFFF DUP3 AND SWAP1 POP SWAP2 SWAP1 POP JUMP JUMPDEST PUSH1 0x0 DUP2 SWAP1 POP SWAP2 SWAP1 POP JUMP JUMPDEST DUP3 DUP2 DUP4 CALLDATACOPY PUSH1 0x0 DUP4 DUP4 ADD MSTORE POP POP POP JUMP JUMPDEST PUSH1 0x0 JUMPDEST DUP4 DUP2 LT ISZERO PUSH2 0x94B JUMPI DUP1 DUP3 ADD MLOAD DUP2 DUP5 ADD MSTORE PUSH1 0x20 DUP2 ADD SWAP1 POP PUSH2 0x930 JUMP JUMPDEST DUP4 DUP2 GT ISZERO PUSH2 0x95A JUMPI PUSH1 0x0 DUP5 DUP5 ADD MSTORE JUMPDEST POP POP POP POP JUMP JUMPDEST PUSH1 0x0 PUSH1 0x2 DUP3 DIV SWAP1 POP PUSH1 0x1 DUP3 AND DUP1 PUSH2 0x978 JUMPI PUSH1 0x7F DUP3 AND SWAP2 POP JUMPDEST PUSH1 0x20 DUP3 LT DUP2 EQ ISZERO PUSH2 0x98C JUMPI PUSH2 0x98B PUSH2 0x9C1 JUMP JUMPDEST JUMPDEST POP SWAP2 SWAP1 POP JUMP JUMPDEST PUSH32 0x4E487B7100000000000000000000000000000000000000000000000000000000 PUSH1 0x0 MSTORE PUSH1 0x11 PUSH1 0x4 MSTORE PUSH1 0x24 PUSH1 0x0 REVERT JUMPDEST PUSH32 0x4E487B7100000000000000000000000000000000000000000000000000000000 PUSH1 0x0 MSTORE PUSH1 0x22 PUSH1 0x4 MSTORE PUSH1 0x24 PUSH1 0x0 REVERT JUMPDEST PUSH1 0x0 DUP1 REVERT JUMPDEST PUSH1 0x0 DUP1 REVERT JUMPDEST PUSH1 0x0 DUP1 REVERT JUMPDEST PUSH1 0x0 DUP1 REVERT JUMPDEST PUSH1 0x0 DUP1 REVERT JUMPDEST PUSH1 0x0 PUSH1 0x1F NOT PUSH1 0x1F DUP4 ADD AND SWAP1 POP SWAP2 SWAP1 POP JUMP JUMPDEST PUSH32 0x496E636F7272656374207374617274696E672070726963652E00000000000000 PUSH1 0x0 DUP3 ADD MSTORE POP JUMP JUMPDEST PUSH2 0xA4C DUP2 PUSH2 0x914 JUMP JUMPDEST DUP2 EQ PUSH2 0xA57 JUMPI PUSH1 0x0 DUP1 REVERT JUMPDEST POP JUMP INVALID LOG2 PUSH5 0x6970667358 0x22 SLT KECCAK256 0xE2 DUP9 CREATE CREATE2 DUP8 0x5F PUSH31 0x91EE664F2E7F813B6FCDF30F923D94E25285E2463715C473F64736F6C6343 STOP ADDMOD SMOD STOP CALLER "
				},
				"gasEstimates": {
					"creation": {
						"codeDepositCost": "540800",
						"executionCost": "24841",
						"totalCost": "565641"
					},
					"external": {
						"auctions(uint256)": "infinite",
						"createAuction(uint256,uint256,string,uint256)": "infinite",
						"owner()": "2511"
					}
				},
				"methodIdentifiers": {
					"auctions(uint256)": "571a26a0",
					"createAuction(uint256,uint256,string,uint256)": "e9835d15",
					"owner()": "8da5cb5b"
				}
			},
			"storageLayout": {
				"storage": [
					{
						"astId": 3,
						"contract": "contracts/Lesson_5.sol:AucEngine",
						"label": "owner",
						"offset": 0,
						"slot": "0",
						"type": "t_address"
					},
					{
						"astId": 30,
						"contract": "contracts/Lesson_5.sol:AucEngine",
						"label": "auctions",
						"offset": 0,
						"slot": "1",
						"type": "t_array(t_struct(Auction)26_storage)dyn_storage"
					}
				],
				"types": {
					"t_address": {
						"encoding": "inplace",
						"label": "address",
						"numberOfBytes": "20"
					},
					"t_address_payable": {
						"encoding": "inplace",
						"label": "address payable",
						"numberOfBytes": "20"
					},
					"t_array(t_struct(Auction)26_storage)dyn_storage": {
						"base": "t_struct(Auction)26_storage",
						"encoding": "dynamic_array",
						"label": "struct AucEngine.Auction[]",
						"numberOfBytes": "32"
					},
					"t_bool": {
						"encoding": "inplace",
						"label": "bool",
						"numberOfBytes": "1"
					},
					"t_string_storage": {
						"encoding": "bytes",
						"label": "string",
						"numberOfBytes": "32"
					},
					"t_struct(Auction)26_storage": {
						"encoding": "inplace",
						"label": "struct AucEngine.Auction",
						"members": [
							{
								"astId": 11,
								"contract": "contracts/Lesson_5.sol:AucEngine",
								"label": "seller",
								"offset": 0,
								"slot": "0",
								"type": "t_address_payable"
							},
							{
								"astId": 13,
								"contract": "contracts/Lesson_5.sol:AucEngine",
								"label": "startingPrice",
								"offset": 0,
								"slot": "1",
								"type": "t_uint256"
							},
							{
								"astId": 15,
								"contract": "contracts/Lesson_5.sol:AucEngine",
								"label": "finalPrice",
								"offset": 0,
								"slot": "2",
								"type": "t_uint256"
							},
							{
								"astId": 17,
								"contract": "contracts/Lesson_5.sol:AucEngine",
								"label": "startsAt",
								"offset": 0,
								"slot": "3",
								"type": "t_uint256"
							},
							{
								"astId": 19,
								"contract": "contracts/Lesson_5.sol:AucEngine",
								"label": "endsAt",
								"offset": 0,
								"slot": "4",
								"type": "t_uint256"
							},
							{
								"astId": 21,
								"contract": "contracts/Lesson_5.sol:AucEngine",
								"label": "discountRate",
								"offset": 0,
								"slot": "5",
								"type": "t_uint256"
							},
							{
								"astId": 23,
								"contract": "contracts/Lesson_5.sol:AucEngine",
								"label": "item",
								"offset": 0,
								"slot": "6",
								"type": "t_string_storage"
							},
							{
								"astId": 25,
								"contract": "contracts/Lesson_5.sol:AucEngine",
								"label": "stopped",
								"offset": 0,
								"slot": "7",
								"type": "t_bool"
							}
						],
						"numberOfBytes": "256"
					},
					"t_uint256": {
						"encoding": "inplace",
						"label": "uint256",
						"numberOfBytes": "32"
					}
				}
			},
			"userdoc": {
				"kind": "user",
				"methods": {},
				"version": 1
			}
		}
	}
}