{
	"contracts/Lesson_5.sol": {
		"AucEngine": {
			"abi": [
				{
					"inputs": [],
					"stateMutability": "nonpayable",
					"type": "constructor"
				},
				{
					"anonymous": false,
					"inputs": [
						{
							"indexed": false,
							"internalType": "uint256",
							"name": "index",
							"type": "uint256"
						},
						{
							"indexed": false,
							"internalType": "string",
							"name": "itemName",
							"type": "string"
						},
						{
							"indexed": false,
							"internalType": "uint256",
							"name": "startingprice",
							"type": "uint256"
						},
						{
							"indexed": false,
							"internalType": "uint256",
							"name": "duration",
							"type": "uint256"
						}
					],
					"name": "AuctionCreated",
					"type": "event"
				},
				{
					"inputs": [
						{
							"internalType": "uint256",
							"name": "",
							"type": "uint256"
						}
					],
					"name": "auctions",
					"outputs": [
						{
							"internalType": "address payable",
							"name": "seller",
							"type": "address"
						},
						{
							"internalType": "uint256",
							"name": "startingPrice",
							"type": "uint256"
						},
						{
							"internalType": "uint256",
							"name": "finalPrice",
							"type": "uint256"
						},
						{
							"internalType": "uint256",
							"name": "startsAt",
							"type": "uint256"
						},
						{
							"internalType": "uint256",
							"name": "endsAt",
							"type": "uint256"
						},
						{
							"internalType": "uint256",
							"name": "discountRate",
							"type": "uint256"
						},
						{
							"internalType": "string",
							"name": "item",
							"type": "string"
						},
						{
							"internalType": "bool",
							"name": "stopped",
							"type": "bool"
						}
					],
					"stateMutability": "view",
					"type": "function"
				},
				{
					"inputs": [
						{
							"internalType": "uint256",
							"name": "index",
							"type": "uint256"
						}
					],
					"name": "buy",
					"outputs": [],
					"stateMutability": "payable",
					"type": "function"
				},
				{
					"inputs": [
						{
							"internalType": "uint256",
							"name": "_startingPrice",
							"type": "uint256"
						},
						{
							"internalType": "uint256",
							"name": "_discountRate",
							"type": "uint256"
						},
						{
							"internalType": "string",
							"name": "_item",
							"type": "string"
						},
						{
							"internalType": "uint256",
							"name": "_duration",
							"type": "uint256"
						}
					],
					"name": "createAuction",
					"outputs": [],
					"stateMutability": "nonpayable",
					"type": "function"
				},
				{
					"inputs": [
						{
							"internalType": "uint256",
							"name": "index",
							"type": "uint256"
						}
					],
					"name": "getPriceFor",
					"outputs": [
						{
							"internalType": "uint256",
							"name": "",
							"type": "uint256"
						}
					],
					"stateMutability": "view",
					"type": "function"
				},
				{
					"inputs": [],
					"name": "owner",
					"outputs": [
						{
							"internalType": "address",
							"name": "",
							"type": "address"
						}
					],
					"stateMutability": "view",
					"type": "function"
				}
			],
			"devdoc": {
				"kind": "dev",
				"methods": {},
				"version": 1
			},
			"evm": {
				"assembly": "    /* \"contracts/Lesson_5.sol\":62:4345  contract AucEngine\r... */\n  mstore(0x40, 0x80)\n    /* \"contracts/Lesson_5.sol\":723:779  constructor()\r... */\n  callvalue\n  dup1\n  iszero\n  tag_1\n  jumpi\n  0x00\n  dup1\n  revert\ntag_1:\n  pop\n    /* \"contracts/Lesson_5.sol\":761:771  msg.sender */\n  caller\n    /* \"contracts/Lesson_5.sol\":753:758  owner */\n  0x00\n  dup1\n    /* \"contracts/Lesson_5.sol\":753:771  owner = msg.sender */\n  0x0100\n  exp\n  dup2\n  sload\n  dup2\n  0xffffffffffffffffffffffffffffffffffffffff\n  mul\n  not\n  and\n  swap1\n  dup4\n  0xffffffffffffffffffffffffffffffffffffffff\n  and\n  mul\n  or\n  swap1\n  sstore\n  pop\n    /* \"contracts/Lesson_5.sol\":62:4345  contract AucEngine\r... */\n  dataSize(sub_0)\n  dup1\n  dataOffset(sub_0)\n  0x00\n  codecopy\n  0x00\n  return\nstop\n\nsub_0: assembly {\n        /* \"contracts/Lesson_5.sol\":62:4345  contract AucEngine\r... */\n      mstore(0x40, 0x80)\n      jumpi(tag_1, lt(calldatasize, 0x04))\n      shr(0xe0, calldataload(0x00))\n      dup1\n      0x4534cd9c\n      eq\n      tag_2\n      jumpi\n      dup1\n      0x571a26a0\n      eq\n      tag_3\n      jumpi\n      dup1\n      0x8da5cb5b\n      eq\n      tag_4\n      jumpi\n      dup1\n      0xd96a094a\n      eq\n      tag_5\n      jumpi\n      dup1\n      0xe9835d15\n      eq\n      tag_6\n      jumpi\n    tag_1:\n      0x00\n      dup1\n      revert\n        /* \"contracts/Lesson_5.sol\":2020:2928  function getPriceFor(uint index) public view returns(uint)\r... */\n    tag_2:\n      callvalue\n      dup1\n      iszero\n      tag_7\n      jumpi\n      0x00\n      dup1\n      revert\n    tag_7:\n      pop\n      tag_8\n      0x04\n      dup1\n      calldatasize\n      sub\n      dup2\n      add\n      swap1\n      tag_9\n      swap2\n      swap1\n      tag_10\n      jump\t// in\n    tag_9:\n      tag_11\n      jump\t// in\n    tag_8:\n      mload(0x40)\n      tag_12\n      swap2\n      swap1\n      tag_13\n      jump\t// in\n    tag_12:\n      mload(0x40)\n      dup1\n      swap2\n      sub\n      swap1\n      return\n        /* \"contracts/Lesson_5.sol\":540:565  Auction[] public auctions */\n    tag_3:\n      callvalue\n      dup1\n      iszero\n      tag_14\n      jumpi\n      0x00\n      dup1\n      revert\n    tag_14:\n      pop\n      tag_15\n      0x04\n      dup1\n      calldatasize\n      sub\n      dup2\n      add\n      swap1\n      tag_16\n      swap2\n      swap1\n      tag_10\n      jump\t// in\n    tag_16:\n      tag_17\n      jump\t// in\n    tag_15:\n      mload(0x40)\n      tag_18\n      swap9\n      swap8\n      swap7\n      swap6\n      swap5\n      swap4\n      swap3\n      swap2\n      swap1\n      tag_19\n      jump\t// in\n    tag_18:\n      mload(0x40)\n      dup1\n      swap2\n      sub\n      swap1\n      return\n        /* \"contracts/Lesson_5.sol\":89:109  address public owner */\n    tag_4:\n      callvalue\n      dup1\n      iszero\n      tag_20\n      jumpi\n      0x00\n      dup1\n      revert\n    tag_20:\n      pop\n      tag_21\n      tag_22\n      jump\t// in\n    tag_21:\n      mload(0x40)\n      tag_23\n      swap2\n      swap1\n      tag_24\n      jump\t// in\n    tag_23:\n      mload(0x40)\n      dup1\n      swap2\n      sub\n      swap1\n      return\n        /* \"contracts/Lesson_5.sol\":2936:4342  function buy(uint index) external payable \r... */\n    tag_5:\n      tag_25\n      0x04\n      dup1\n      calldatasize\n      sub\n      dup2\n      add\n      swap1\n      tag_26\n      swap2\n      swap1\n      tag_10\n      jump\t// in\n    tag_26:\n      tag_27\n      jump\t// in\n    tag_25:\n      stop\n        /* \"contracts/Lesson_5.sol\":852:2012  function createAuction(uint _startingPrice, uint _discountRate, string calldata _item, uint _duration) external \r... */\n    tag_6:\n      callvalue\n      dup1\n      iszero\n      tag_28\n      jumpi\n      0x00\n      dup1\n      revert\n    tag_28:\n      pop\n      tag_29\n      0x04\n      dup1\n      calldatasize\n      sub\n      dup2\n      add\n      swap1\n      tag_30\n      swap2\n      swap1\n      tag_31\n      jump\t// in\n    tag_30:\n      tag_32\n      jump\t// in\n    tag_29:\n      stop\n        /* \"contracts/Lesson_5.sol\":2020:2928  function getPriceFor(uint index) public view returns(uint)\r... */\n    tag_11:\n        /* \"contracts/Lesson_5.sol\":2073:2077  uint */\n      0x00\n        /* \"contracts/Lesson_5.sol\":2264:2293  Auction memory currentAuction */\n      dup1\n        /* \"contracts/Lesson_5.sol\":2296:2304  auctions */\n      0x01\n        /* \"contracts/Lesson_5.sol\":2305:2310  index */\n      dup4\n        /* \"contracts/Lesson_5.sol\":2296:2311  auctions[index] */\n      dup2\n      sload\n      dup2\n      lt\n      tag_34\n      jumpi\n      tag_35\n      tag_36\n      jump\t// in\n    tag_35:\n    tag_34:\n      swap1\n      0x00\n      mstore\n      keccak256(0x00, 0x20)\n      swap1\n      0x08\n      mul\n      add\n        /* \"contracts/Lesson_5.sol\":2264:2311  Auction memory currentAuction = auctions[index] */\n      mload(0x40)\n      dup1\n      0x0100\n      add\n      0x40\n      mstore\n      swap1\n      dup2\n      0x00\n      dup3\n      add\n      0x00\n      swap1\n      sload\n      swap1\n      0x0100\n      exp\n      swap1\n      div\n      0xffffffffffffffffffffffffffffffffffffffff\n      and\n      0xffffffffffffffffffffffffffffffffffffffff\n      and\n      0xffffffffffffffffffffffffffffffffffffffff\n      and\n      dup2\n      mstore\n      0x20\n      add\n      0x01\n      dup3\n      add\n      sload\n      dup2\n      mstore\n      0x20\n      add\n      0x02\n      dup3\n      add\n      sload\n      dup2\n      mstore\n      0x20\n      add\n      0x03\n      dup3\n      add\n      sload\n      dup2\n      mstore\n      0x20\n      add\n      0x04\n      dup3\n      add\n      sload\n      dup2\n      mstore\n      0x20\n      add\n      0x05\n      dup3\n      add\n      sload\n      dup2\n      mstore\n      0x20\n      add\n      0x06\n      dup3\n      add\n      dup1\n      sload\n      tag_38\n      swap1\n      tag_39\n      jump\t// in\n    tag_38:\n      dup1\n      0x1f\n      add\n      0x20\n      dup1\n      swap2\n      div\n      mul\n      0x20\n      add\n      mload(0x40)\n      swap1\n      dup2\n      add\n      0x40\n      mstore\n      dup1\n      swap3\n      swap2\n      swap1\n      dup2\n      dup2\n      mstore\n      0x20\n      add\n      dup3\n      dup1\n      sload\n      tag_40\n      swap1\n      tag_39\n      jump\t// in\n    tag_40:\n      dup1\n      iszero\n      tag_41\n      jumpi\n      dup1\n      0x1f\n      lt\n      tag_42\n      jumpi\n      0x0100\n      dup1\n      dup4\n      sload\n      div\n      mul\n      dup4\n      mstore\n      swap2\n      0x20\n      add\n      swap2\n      jump(tag_41)\n    tag_42:\n      dup3\n      add\n      swap2\n      swap1\n      0x00\n      mstore\n      keccak256(0x00, 0x20)\n      swap1\n    tag_43:\n      dup2\n      sload\n      dup2\n      mstore\n      swap1\n      0x01\n      add\n      swap1\n      0x20\n      add\n      dup1\n      dup4\n      gt\n      tag_43\n      jumpi\n      dup3\n      swap1\n      sub\n      0x1f\n      and\n      dup3\n      add\n      swap2\n    tag_41:\n      pop\n      pop\n      pop\n      pop\n      pop\n      dup2\n      mstore\n      0x20\n      add\n      0x07\n      dup3\n      add\n      0x00\n      swap1\n      sload\n      swap1\n      0x0100\n      exp\n      swap1\n      div\n      0xff\n      and\n      iszero\n      iszero\n      iszero\n      iszero\n      dup2\n      mstore\n      pop\n      pop\n      swap1\n      pop\n        /* \"contracts/Lesson_5.sol\":2419:2433  currentAuction */\n      dup1\n        /* \"contracts/Lesson_5.sol\":2419:2441  currentAuction.stopped */\n      0xe0\n      add\n      mload\n        /* \"contracts/Lesson_5.sol\":2418:2441  !currentAuction.stopped */\n      iszero\n        /* \"contracts/Lesson_5.sol\":2410:2465  require(!currentAuction.stopped, \"Auction is stopped.\") */\n      tag_44\n      jumpi\n      mload(0x40)\n      0x08c379a000000000000000000000000000000000000000000000000000000000\n      dup2\n      mstore\n      0x04\n      add\n      tag_45\n      swap1\n      tag_46\n      jump\t// in\n    tag_45:\n      mload(0x40)\n      dup1\n      swap2\n      sub\n      swap1\n      revert\n    tag_44:\n        /* \"contracts/Lesson_5.sol\":2591:2603  uint elapsed */\n      0x00\n        /* \"contracts/Lesson_5.sol\":2624:2638  currentAuction */\n      dup2\n        /* \"contracts/Lesson_5.sol\":2624:2647  currentAuction.startsAt */\n      0x60\n      add\n      mload\n        /* \"contracts/Lesson_5.sol\":2606:2621  block.timestamp */\n      timestamp\n        /* \"contracts/Lesson_5.sol\":2606:2647  block.timestamp - currentAuction.startsAt */\n      tag_47\n      swap2\n      swap1\n      tag_48\n      jump\t// in\n    tag_47:\n        /* \"contracts/Lesson_5.sol\":2591:2647  uint elapsed = block.timestamp - currentAuction.startsAt */\n      swap1\n      pop\n        /* \"contracts/Lesson_5.sol\":2739:2752  uint discount */\n      0x00\n        /* \"contracts/Lesson_5.sol\":2785:2792  elapsed */\n      dup2\n        /* \"contracts/Lesson_5.sol\":2755:2769  currentAuction */\n      dup4\n        /* \"contracts/Lesson_5.sol\":2755:2782  currentAuction.discountRate */\n      0xa0\n      add\n      mload\n        /* \"contracts/Lesson_5.sol\":2755:2792  currentAuction.discountRate * elapsed */\n      tag_49\n      swap2\n      swap1\n      tag_50\n      jump\t// in\n    tag_49:\n        /* \"contracts/Lesson_5.sol\":2739:2792  uint discount = currentAuction.discountRate * elapsed */\n      swap1\n      pop\n        /* \"contracts/Lesson_5.sol\":2912:2920  discount */\n      dup1\n        /* \"contracts/Lesson_5.sol\":2881:2895  currentAuction */\n      dup4\n        /* \"contracts/Lesson_5.sol\":2881:2909  currentAuction.startingPrice */\n      0x20\n      add\n      mload\n        /* \"contracts/Lesson_5.sol\":2881:2920  currentAuction.startingPrice - discount */\n      tag_51\n      swap2\n      swap1\n      tag_48\n      jump\t// in\n    tag_51:\n        /* \"contracts/Lesson_5.sol\":2874:2920  return currentAuction.startingPrice - discount */\n      swap4\n      pop\n      pop\n      pop\n      pop\n        /* \"contracts/Lesson_5.sol\":2020:2928  function getPriceFor(uint index) public view returns(uint)\r... */\n      swap2\n      swap1\n      pop\n      jump\t// out\n        /* \"contracts/Lesson_5.sol\":540:565  Auction[] public auctions */\n    tag_17:\n      0x01\n      dup2\n      dup2\n      sload\n      dup2\n      lt\n      tag_52\n      jumpi\n      0x00\n      dup1\n      revert\n    tag_52:\n      swap1\n      0x00\n      mstore\n      keccak256(0x00, 0x20)\n      swap1\n      0x08\n      mul\n      add\n      0x00\n      swap2\n      pop\n      swap1\n      pop\n      dup1\n      0x00\n      add\n      0x00\n      swap1\n      sload\n      swap1\n      0x0100\n      exp\n      swap1\n      div\n      0xffffffffffffffffffffffffffffffffffffffff\n      and\n      swap1\n      dup1\n      0x01\n      add\n      sload\n      swap1\n      dup1\n      0x02\n      add\n      sload\n      swap1\n      dup1\n      0x03\n      add\n      sload\n      swap1\n      dup1\n      0x04\n      add\n      sload\n      swap1\n      dup1\n      0x05\n      add\n      sload\n      swap1\n      dup1\n      0x06\n      add\n      dup1\n      sload\n      tag_54\n      swap1\n      tag_39\n      jump\t// in\n    tag_54:\n      dup1\n      0x1f\n      add\n      0x20\n      dup1\n      swap2\n      div\n      mul\n      0x20\n      add\n      mload(0x40)\n      swap1\n      dup2\n      add\n      0x40\n      mstore\n      dup1\n      swap3\n      swap2\n      swap1\n      dup2\n      dup2\n      mstore\n      0x20\n      add\n      dup3\n      dup1\n      sload\n      tag_55\n      swap1\n      tag_39\n      jump\t// in\n    tag_55:\n      dup1\n      iszero\n      tag_56\n      jumpi\n      dup1\n      0x1f\n      lt\n      tag_57\n      jumpi\n      0x0100\n      dup1\n      dup4\n      sload\n      div\n      mul\n      dup4\n      mstore\n      swap2\n      0x20\n      add\n      swap2\n      jump(tag_56)\n    tag_57:\n      dup3\n      add\n      swap2\n      swap1\n      0x00\n      mstore\n      keccak256(0x00, 0x20)\n      swap1\n    tag_58:\n      dup2\n      sload\n      dup2\n      mstore\n      swap1\n      0x01\n      add\n      swap1\n      0x20\n      add\n      dup1\n      dup4\n      gt\n      tag_58\n      jumpi\n      dup3\n      swap1\n      sub\n      0x1f\n      and\n      dup3\n      add\n      swap2\n    tag_56:\n      pop\n      pop\n      pop\n      pop\n      pop\n      swap1\n      dup1\n      0x07\n      add\n      0x00\n      swap1\n      sload\n      swap1\n      0x0100\n      exp\n      swap1\n      div\n      0xff\n      and\n      swap1\n      pop\n      dup9\n      jump\t// out\n        /* \"contracts/Lesson_5.sol\":89:109  address public owner */\n    tag_22:\n      0x00\n      dup1\n      sload\n      swap1\n      0x0100\n      exp\n      swap1\n      div\n      0xffffffffffffffffffffffffffffffffffffffff\n      and\n      dup2\n      jump\t// out\n        /* \"contracts/Lesson_5.sol\":2936:4342  function buy(uint index) external payable \r... */\n    tag_27:\n        /* \"contracts/Lesson_5.sol\":3164:3193  Auction memory currentAuction */\n      0x00\n        /* \"contracts/Lesson_5.sol\":3196:3204  auctions */\n      0x01\n        /* \"contracts/Lesson_5.sol\":3205:3210  index */\n      dup3\n        /* \"contracts/Lesson_5.sol\":3196:3211  auctions[index] */\n      dup2\n      sload\n      dup2\n      lt\n      tag_60\n      jumpi\n      tag_61\n      tag_36\n      jump\t// in\n    tag_61:\n    tag_60:\n      swap1\n      0x00\n      mstore\n      keccak256(0x00, 0x20)\n      swap1\n      0x08\n      mul\n      add\n        /* \"contracts/Lesson_5.sol\":3164:3211  Auction memory currentAuction = auctions[index] */\n      mload(0x40)\n      dup1\n      0x0100\n      add\n      0x40\n      mstore\n      swap1\n      dup2\n      0x00\n      dup3\n      add\n      0x00\n      swap1\n      sload\n      swap1\n      0x0100\n      exp\n      swap1\n      div\n      0xffffffffffffffffffffffffffffffffffffffff\n      and\n      0xffffffffffffffffffffffffffffffffffffffff\n      and\n      0xffffffffffffffffffffffffffffffffffffffff\n      and\n      dup2\n      mstore\n      0x20\n      add\n      0x01\n      dup3\n      add\n      sload\n      dup2\n      mstore\n      0x20\n      add\n      0x02\n      dup3\n      add\n      sload\n      dup2\n      mstore\n      0x20\n      add\n      0x03\n      dup3\n      add\n      sload\n      dup2\n      mstore\n      0x20\n      add\n      0x04\n      dup3\n      add\n      sload\n      dup2\n      mstore\n      0x20\n      add\n      0x05\n      dup3\n      add\n      sload\n      dup2\n      mstore\n      0x20\n      add\n      0x06\n      dup3\n      add\n      dup1\n      sload\n      tag_63\n      swap1\n      tag_39\n      jump\t// in\n    tag_63:\n      dup1\n      0x1f\n      add\n      0x20\n      dup1\n      swap2\n      div\n      mul\n      0x20\n      add\n      mload(0x40)\n      swap1\n      dup2\n      add\n      0x40\n      mstore\n      dup1\n      swap3\n      swap2\n      swap1\n      dup2\n      dup2\n      mstore\n      0x20\n      add\n      dup3\n      dup1\n      sload\n      tag_64\n      swap1\n      tag_39\n      jump\t// in\n    tag_64:\n      dup1\n      iszero\n      tag_65\n      jumpi\n      dup1\n      0x1f\n      lt\n      tag_66\n      jumpi\n      0x0100\n      dup1\n      dup4\n      sload\n      div\n      mul\n      dup4\n      mstore\n      swap2\n      0x20\n      add\n      swap2\n      jump(tag_65)\n    tag_66:\n      dup3\n      add\n      swap2\n      swap1\n      0x00\n      mstore\n      keccak256(0x00, 0x20)\n      swap1\n    tag_67:\n      dup2\n      sload\n      dup2\n      mstore\n      swap1\n      0x01\n      add\n      swap1\n      0x20\n      add\n      dup1\n      dup4\n      gt\n      tag_67\n      jumpi\n      dup3\n      swap1\n      sub\n      0x1f\n      and\n      dup3\n      add\n      swap2\n    tag_65:\n      pop\n      pop\n      pop\n      pop\n      pop\n      dup2\n      mstore\n      0x20\n      add\n      0x07\n      dup3\n      add\n      0x00\n      swap1\n      sload\n      swap1\n      0x0100\n      exp\n      swap1\n      div\n      0xff\n      and\n      iszero\n      iszero\n      iszero\n      iszero\n      dup2\n      mstore\n      pop\n      pop\n      swap1\n      pop\n        /* \"contracts/Lesson_5.sol\":3319:3333  currentAuction */\n      dup1\n        /* \"contracts/Lesson_5.sol\":3319:3341  currentAuction.stopped */\n      0xe0\n      add\n      mload\n        /* \"contracts/Lesson_5.sol\":3318:3341  !currentAuction.stopped */\n      iszero\n        /* \"contracts/Lesson_5.sol\":3310:3365  require(!currentAuction.stopped, \"Auction is stopped.\") */\n      tag_68\n      jumpi\n      mload(0x40)\n      0x08c379a000000000000000000000000000000000000000000000000000000000\n      dup2\n      mstore\n      0x04\n      add\n      tag_69\n      swap1\n      tag_46\n      jump\t// in\n    tag_69:\n      mload(0x40)\n      dup1\n      swap2\n      sub\n      swap1\n      revert\n    tag_68:\n        /* \"contracts/Lesson_5.sol\":3508:3522  currentAuction */\n      dup1\n        /* \"contracts/Lesson_5.sol\":3508:3529  currentAuction.endsAt */\n      0x80\n      add\n      mload\n        /* \"contracts/Lesson_5.sol\":3490:3505  block.timestamp */\n      timestamp\n        /* \"contracts/Lesson_5.sol\":3490:3529  block.timestamp < currentAuction.endsAt */\n      lt\n        /* \"contracts/Lesson_5.sol\":3482:3552  require(block.timestamp < currentAuction.endsAt, \"Auction has ended.\") */\n      tag_70\n      jumpi\n      mload(0x40)\n      0x08c379a000000000000000000000000000000000000000000000000000000000\n      dup2\n      mstore\n      0x04\n      add\n      tag_71\n      swap1\n      tag_72\n      jump\t// in\n    tag_71:\n      mload(0x40)\n      dup1\n      swap2\n      sub\n      swap1\n      revert\n    tag_70:\n        /* \"contracts/Lesson_5.sol\":3680:3697  uint currentPrice */\n      0x00\n        /* \"contracts/Lesson_5.sol\":3700:3718  getPriceFor(index) */\n      tag_73\n        /* \"contracts/Lesson_5.sol\":3712:3717  index */\n      dup4\n        /* \"contracts/Lesson_5.sol\":3700:3711  getPriceFor */\n      tag_11\n        /* \"contracts/Lesson_5.sol\":3700:3718  getPriceFor(index) */\n      jump\t// in\n    tag_73:\n        /* \"contracts/Lesson_5.sol\":3680:3718  uint currentPrice = getPriceFor(index) */\n      swap1\n      pop\n        /* \"contracts/Lesson_5.sol\":3896:3908  currentPrice */\n      dup1\n        /* \"contracts/Lesson_5.sol\":3883:3892  msg.value */\n      callvalue\n        /* \"contracts/Lesson_5.sol\":3883:3908  msg.value >= currentPrice */\n      lt\n      iszero\n        /* \"contracts/Lesson_5.sol\":3875:3930  require(msg.value >= currentPrice, \"Not enough funds!\") */\n      tag_74\n      jumpi\n      mload(0x40)\n      0x08c379a000000000000000000000000000000000000000000000000000000000\n      dup2\n      mstore\n      0x04\n      add\n      tag_75\n      swap1\n      tag_76\n      jump\t// in\n    tag_75:\n      mload(0x40)\n      dup1\n      swap2\n      sub\n      swap1\n      revert\n    tag_74:\n        /* \"contracts/Lesson_5.sol\":4030:4034  true */\n      0x01\n        /* \"contracts/Lesson_5.sol\":4005:4019  currentAuction */\n      dup3\n        /* \"contracts/Lesson_5.sol\":4005:4027  currentAuction.stopped */\n      0xe0\n      add\n        /* \"contracts/Lesson_5.sol\":4005:4034  currentAuction.stopped = true */\n      swap1\n      iszero\n      iszero\n      swap1\n      dup2\n      iszero\n      iszero\n      dup2\n      mstore\n      pop\n      pop\n        /* \"contracts/Lesson_5.sol\":4175:4187  currentPrice */\n      dup1\n        /* \"contracts/Lesson_5.sol\":4147:4161  currentAuction */\n      dup3\n        /* \"contracts/Lesson_5.sol\":4147:4172  currentAuction.finalPrice */\n      0x40\n      add\n        /* \"contracts/Lesson_5.sol\":4147:4187  currentAuction.finalPrice = currentPrice */\n      dup2\n      dup2\n      mstore\n      pop\n      pop\n        /* \"contracts/Lesson_5.sol\":4245:4256  uint refund */\n      0x00\n        /* \"contracts/Lesson_5.sol\":4271:4283  currentPrice */\n      dup2\n        /* \"contracts/Lesson_5.sol\":4259:4268  msg.value */\n      callvalue\n        /* \"contracts/Lesson_5.sol\":4259:4283  msg.value - currentPrice */\n      tag_77\n      swap2\n      swap1\n      tag_48\n      jump\t// in\n    tag_77:\n        /* \"contracts/Lesson_5.sol\":4245:4283  uint refund = msg.value - currentPrice */\n      swap1\n      pop\n        /* \"contracts/Lesson_5.sol\":2984:4342  {\r... */\n      pop\n      pop\n      pop\n        /* \"contracts/Lesson_5.sol\":2936:4342  function buy(uint index) external payable \r... */\n      pop\n      jump\t// out\n        /* \"contracts/Lesson_5.sol\":852:2012  function createAuction(uint _startingPrice, uint _discountRate, string calldata _item, uint _duration) external \r... */\n    tag_32:\n        /* \"contracts/Lesson_5.sol\":1029:1042  uint duration */\n      0x00\n        /* \"contracts/Lesson_5.sol\":1058:1059  0 */\n      dup1\n        /* \"contracts/Lesson_5.sol\":1045:1054  _duration */\n      dup3\n        /* \"contracts/Lesson_5.sol\":1045:1059  _duration == 0 */\n      eq\n        /* \"contracts/Lesson_5.sol\":1045:1082  _duration == 0 ? DURATION : _duration */\n      tag_80\n      jumpi\n        /* \"contracts/Lesson_5.sol\":1073:1082  _duration */\n      dup2\n        /* \"contracts/Lesson_5.sol\":1045:1082  _duration == 0 ? DURATION : _duration */\n      jump(tag_81)\n    tag_80:\n        /* \"contracts/Lesson_5.sol\":141:147  2 days */\n      0x02a300\n        /* \"contracts/Lesson_5.sol\":1045:1082  _duration == 0 ? DURATION : _duration */\n    tag_81:\n        /* \"contracts/Lesson_5.sol\":1029:1082  uint duration = _duration == 0 ? DURATION : _duration */\n      swap1\n      pop\n        /* \"contracts/Lesson_5.sol\":1137:1146  _duration */\n      dup2\n        /* \"contracts/Lesson_5.sol\":1121:1134  _discountRate */\n      dup6\n        /* \"contracts/Lesson_5.sol\":1121:1146  _discountRate * _duration */\n      tag_82\n      swap2\n      swap1\n      tag_50\n      jump\t// in\n    tag_82:\n        /* \"contracts/Lesson_5.sol\":1103:1117  _startingPrice */\n      dup7\n        /* \"contracts/Lesson_5.sol\":1103:1146  _startingPrice >= _discountRate * _duration */\n      lt\n      iszero\n        /* \"contracts/Lesson_5.sol\":1095:1176  require(_startingPrice >= _discountRate * _duration, \"Incorrect starting price.\") */\n      tag_83\n      jumpi\n      mload(0x40)\n      0x08c379a000000000000000000000000000000000000000000000000000000000\n      dup2\n      mstore\n      0x04\n      add\n      tag_84\n      swap1\n      tag_85\n      jump\t// in\n    tag_84:\n      mload(0x40)\n      dup1\n      swap2\n      sub\n      swap1\n      revert\n    tag_83:\n        /* \"contracts/Lesson_5.sol\":1246:1271  Auction memory newAuction */\n      0x00\n        /* \"contracts/Lesson_5.sol\":1274:1607  Auction({\r... */\n      mload(0x40)\n      dup1\n      0x0100\n      add\n      0x40\n      mstore\n      dup1\n        /* \"contracts/Lesson_5.sol\":1313:1323  msg.sender */\n      caller\n        /* \"contracts/Lesson_5.sol\":1274:1607  Auction({\r... */\n      0xffffffffffffffffffffffffffffffffffffffff\n      and\n      dup2\n      mstore\n      0x20\n      add\n        /* \"contracts/Lesson_5.sol\":1354:1368  _startingPrice */\n      dup9\n        /* \"contracts/Lesson_5.sol\":1274:1607  Auction({\r... */\n      dup2\n      mstore\n      0x20\n      add\n        /* \"contracts/Lesson_5.sol\":1395:1409  _startingPrice */\n      dup9\n        /* \"contracts/Lesson_5.sol\":1274:1607  Auction({\r... */\n      dup2\n      mstore\n      0x20\n      add\n        /* \"contracts/Lesson_5.sol\":1476:1491  block.timestamp */\n      timestamp\n        /* \"contracts/Lesson_5.sol\":1274:1607  Auction({\r... */\n      dup2\n      mstore\n      0x20\n      add\n        /* \"contracts/Lesson_5.sol\":1532:1540  duration */\n      dup4\n        /* \"contracts/Lesson_5.sol\":1514:1529  block.timestamp */\n      timestamp\n        /* \"contracts/Lesson_5.sol\":1514:1540  block.timestamp + duration */\n      tag_86\n      swap2\n      swap1\n      tag_87\n      jump\t// in\n    tag_86:\n        /* \"contracts/Lesson_5.sol\":1274:1607  Auction({\r... */\n      dup2\n      mstore\n      0x20\n      add\n        /* \"contracts/Lesson_5.sol\":1438:1451  _discountRate */\n      dup8\n        /* \"contracts/Lesson_5.sol\":1274:1607  Auction({\r... */\n      dup2\n      mstore\n      0x20\n      add\n        /* \"contracts/Lesson_5.sol\":1561:1566  _item */\n      dup7\n      dup7\n        /* \"contracts/Lesson_5.sol\":1274:1607  Auction({\r... */\n      dup1\n      dup1\n      0x1f\n      add\n      0x20\n      dup1\n      swap2\n      div\n      mul\n      0x20\n      add\n      mload(0x40)\n      swap1\n      dup2\n      add\n      0x40\n      mstore\n      dup1\n      swap4\n      swap3\n      swap2\n      swap1\n      dup2\n      dup2\n      mstore\n      0x20\n      add\n      dup4\n      dup4\n      dup1\n      dup3\n      dup5\n      calldatacopy\n      0x00\n      dup2\n      dup5\n      add\n      mstore\n      not(0x1f)\n      0x1f\n      dup3\n      add\n      and\n      swap1\n      pop\n      dup1\n      dup4\n      add\n      swap3\n      pop\n      pop\n      pop\n      pop\n      pop\n      pop\n      pop\n      dup2\n      mstore\n      0x20\n      add\n        /* \"contracts/Lesson_5.sol\":1590:1595  false */\n      0x00\n        /* \"contracts/Lesson_5.sol\":1274:1607  Auction({\r... */\n      iszero\n      iszero\n      dup2\n      mstore\n      pop\n        /* \"contracts/Lesson_5.sol\":1246:1607  Auction memory newAuction = Auction({\r... */\n      swap1\n      pop\n        /* \"contracts/Lesson_5.sol\":1739:1747  auctions */\n      0x01\n        /* \"contracts/Lesson_5.sol\":1753:1763  newAuction */\n      dup2\n        /* \"contracts/Lesson_5.sol\":1739:1764  auctions.push(newAuction) */\n      swap1\n      dup1\n      0x01\n      dup2\n      sload\n      add\n      dup1\n      dup3\n      sstore\n      dup1\n      swap2\n      pop\n      pop\n      0x01\n      swap1\n      sub\n      swap1\n      0x00\n      mstore\n      keccak256(0x00, 0x20)\n      swap1\n      0x08\n      mul\n      add\n      0x00\n      swap1\n      swap2\n      swap1\n      swap2\n      swap1\n      swap2\n      pop\n      0x00\n      dup3\n      add\n      mload\n      dup2\n      0x00\n      add\n      exp(0x0100, 0x00)\n      dup2\n      sload\n      dup2\n      0xffffffffffffffffffffffffffffffffffffffff\n      mul\n      not\n      and\n      swap1\n      dup4\n      0xffffffffffffffffffffffffffffffffffffffff\n      and\n      mul\n      or\n      swap1\n      sstore\n      pop\n      0x20\n      dup3\n      add\n      mload\n      dup2\n      0x01\n      add\n      sstore\n      0x40\n      dup3\n      add\n      mload\n      dup2\n      0x02\n      add\n      sstore\n      0x60\n      dup3\n      add\n      mload\n      dup2\n      0x03\n      add\n      sstore\n      0x80\n      dup3\n      add\n      mload\n      dup2\n      0x04\n      add\n      sstore\n      0xa0\n      dup3\n      add\n      mload\n      dup2\n      0x05\n      add\n      sstore\n      0xc0\n      dup3\n      add\n      mload\n      dup2\n      0x06\n      add\n      swap1\n      dup1\n      mload\n      swap1\n      0x20\n      add\n      swap1\n      tag_89\n      swap3\n      swap2\n      swap1\n      tag_90\n      jump\t// in\n    tag_89:\n      pop\n      0xe0\n      dup3\n      add\n      mload\n      dup2\n      0x07\n      add\n      exp(0x0100, 0x00)\n      dup2\n      sload\n      dup2\n      0xff\n      mul\n      not\n      and\n      swap1\n      dup4\n      iszero\n      iszero\n      mul\n      or\n      swap1\n      sstore\n      pop\n      pop\n      pop\n        /* \"contracts/Lesson_5.sol\":1936:2004  AuctionCreated(auctions.length - 1, _item, _startingPrice, duration) */\n      0x5bf34ed94988e5dcdc7d1faaa54eb1d3b55f45d5f11457e235afb21a8ebbe73c\n        /* \"contracts/Lesson_5.sol\":1969:1970  1 */\n      0x01\n        /* \"contracts/Lesson_5.sol\":1951:1959  auctions */\n      dup1\n        /* \"contracts/Lesson_5.sol\":1951:1966  auctions.length */\n      dup1\n      sload\n      swap1\n      pop\n        /* \"contracts/Lesson_5.sol\":1951:1970  auctions.length - 1 */\n      tag_91\n      swap2\n      swap1\n      tag_48\n      jump\t// in\n    tag_91:\n        /* \"contracts/Lesson_5.sol\":1972:1977  _item */\n      dup7\n      dup7\n        /* \"contracts/Lesson_5.sol\":1979:1993  _startingPrice */\n      dup11\n        /* \"contracts/Lesson_5.sol\":1995:2003  duration */\n      dup7\n        /* \"contracts/Lesson_5.sol\":1936:2004  AuctionCreated(auctions.length - 1, _item, _startingPrice, duration) */\n      mload(0x40)\n      tag_92\n      swap6\n      swap5\n      swap4\n      swap3\n      swap2\n      swap1\n      tag_93\n      jump\t// in\n    tag_92:\n      mload(0x40)\n      dup1\n      swap2\n      sub\n      swap1\n      log1\n        /* \"contracts/Lesson_5.sol\":970:2012  {\r... */\n      pop\n      pop\n        /* \"contracts/Lesson_5.sol\":852:2012  function createAuction(uint _startingPrice, uint _discountRate, string calldata _item, uint _duration) external \r... */\n      pop\n      pop\n      pop\n      pop\n      pop\n      jump\t// out\n    tag_90:\n      dup3\n      dup1\n      sload\n      tag_94\n      swap1\n      tag_39\n      jump\t// in\n    tag_94:\n      swap1\n      0x00\n      mstore\n      keccak256(0x00, 0x20)\n      swap1\n      0x1f\n      add\n      0x20\n      swap1\n      div\n      dup2\n      add\n      swap3\n      dup3\n      tag_96\n      jumpi\n      0x00\n      dup6\n      sstore\n      jump(tag_95)\n    tag_96:\n      dup3\n      0x1f\n      lt\n      tag_97\n      jumpi\n      dup1\n      mload\n      not(0xff)\n      and\n      dup4\n      dup1\n      add\n      or\n      dup6\n      sstore\n      jump(tag_95)\n    tag_97:\n      dup3\n      dup1\n      add\n      0x01\n      add\n      dup6\n      sstore\n      dup3\n      iszero\n      tag_95\n      jumpi\n      swap2\n      dup3\n      add\n    tag_98:\n      dup3\n      dup2\n      gt\n      iszero\n      tag_99\n      jumpi\n      dup3\n      mload\n      dup3\n      sstore\n      swap2\n      0x20\n      add\n      swap2\n      swap1\n      0x01\n      add\n      swap1\n      jump(tag_98)\n    tag_99:\n    tag_95:\n      pop\n      swap1\n      pop\n      tag_100\n      swap2\n      swap1\n      tag_101\n      jump\t// in\n    tag_100:\n      pop\n      swap1\n      jump\t// out\n    tag_101:\n    tag_102:\n      dup1\n      dup3\n      gt\n      iszero\n      tag_103\n      jumpi\n      0x00\n      dup2\n      0x00\n      swap1\n      sstore\n      pop\n      0x01\n      add\n      jump(tag_102)\n    tag_103:\n      pop\n      swap1\n      jump\t// out\n        /* \"#utility.yul\":21:574   */\n    tag_105:\n        /* \"#utility.yul\":79:87   */\n      0x00\n        /* \"#utility.yul\":89:95   */\n      dup1\n        /* \"#utility.yul\":139:142   */\n      dup4\n        /* \"#utility.yul\":132:136   */\n      0x1f\n        /* \"#utility.yul\":124:130   */\n      dup5\n        /* \"#utility.yul\":120:137   */\n      add\n        /* \"#utility.yul\":116:143   */\n      slt\n        /* \"#utility.yul\":106:228   */\n      tag_107\n      jumpi\n        /* \"#utility.yul\":147:226   */\n      tag_108\n      tag_109\n      jump\t// in\n    tag_108:\n        /* \"#utility.yul\":106:228   */\n    tag_107:\n        /* \"#utility.yul\":260:266   */\n      dup3\n        /* \"#utility.yul\":247:267   */\n      calldataload\n        /* \"#utility.yul\":237:267   */\n      swap1\n      pop\n        /* \"#utility.yul\":290:308   */\n      0xffffffffffffffff\n        /* \"#utility.yul\":282:288   */\n      dup2\n        /* \"#utility.yul\":279:309   */\n      gt\n        /* \"#utility.yul\":276:393   */\n      iszero\n      tag_110\n      jumpi\n        /* \"#utility.yul\":312:391   */\n      tag_111\n      tag_112\n      jump\t// in\n    tag_111:\n        /* \"#utility.yul\":276:393   */\n    tag_110:\n        /* \"#utility.yul\":426:430   */\n      0x20\n        /* \"#utility.yul\":418:424   */\n      dup4\n        /* \"#utility.yul\":414:431   */\n      add\n        /* \"#utility.yul\":402:431   */\n      swap2\n      pop\n        /* \"#utility.yul\":480:483   */\n      dup4\n        /* \"#utility.yul\":472:476   */\n      0x01\n        /* \"#utility.yul\":464:470   */\n      dup3\n        /* \"#utility.yul\":460:477   */\n      mul\n        /* \"#utility.yul\":450:458   */\n      dup4\n        /* \"#utility.yul\":446:478   */\n      add\n        /* \"#utility.yul\":443:484   */\n      gt\n        /* \"#utility.yul\":440:568   */\n      iszero\n      tag_113\n      jumpi\n        /* \"#utility.yul\":487:566   */\n      tag_114\n      tag_115\n      jump\t// in\n    tag_114:\n        /* \"#utility.yul\":440:568   */\n    tag_113:\n        /* \"#utility.yul\":21:574   */\n      swap3\n      pop\n      swap3\n      swap1\n      pop\n      jump\t// out\n        /* \"#utility.yul\":580:719   */\n    tag_116:\n        /* \"#utility.yul\":626:631   */\n      0x00\n        /* \"#utility.yul\":664:670   */\n      dup2\n        /* \"#utility.yul\":651:671   */\n      calldataload\n        /* \"#utility.yul\":642:671   */\n      swap1\n      pop\n        /* \"#utility.yul\":680:713   */\n      tag_118\n        /* \"#utility.yul\":707:712   */\n      dup2\n        /* \"#utility.yul\":680:713   */\n      tag_119\n      jump\t// in\n    tag_118:\n        /* \"#utility.yul\":580:719   */\n      swap3\n      swap2\n      pop\n      pop\n      jump\t// out\n        /* \"#utility.yul\":725:1054   */\n    tag_10:\n        /* \"#utility.yul\":784:790   */\n      0x00\n        /* \"#utility.yul\":833:835   */\n      0x20\n        /* \"#utility.yul\":821:830   */\n      dup3\n        /* \"#utility.yul\":812:819   */\n      dup5\n        /* \"#utility.yul\":808:831   */\n      sub\n        /* \"#utility.yul\":804:836   */\n      slt\n        /* \"#utility.yul\":801:920   */\n      iszero\n      tag_121\n      jumpi\n        /* \"#utility.yul\":839:918   */\n      tag_122\n      tag_123\n      jump\t// in\n    tag_122:\n        /* \"#utility.yul\":801:920   */\n    tag_121:\n        /* \"#utility.yul\":959:960   */\n      0x00\n        /* \"#utility.yul\":984:1037   */\n      tag_124\n        /* \"#utility.yul\":1029:1036   */\n      dup5\n        /* \"#utility.yul\":1020:1026   */\n      dup3\n        /* \"#utility.yul\":1009:1018   */\n      dup6\n        /* \"#utility.yul\":1005:1027   */\n      add\n        /* \"#utility.yul\":984:1037   */\n      tag_116\n      jump\t// in\n    tag_124:\n        /* \"#utility.yul\":974:1037   */\n      swap2\n      pop\n        /* \"#utility.yul\":930:1047   */\n      pop\n        /* \"#utility.yul\":725:1054   */\n      swap3\n      swap2\n      pop\n      pop\n      jump\t// out\n        /* \"#utility.yul\":1060:2025   */\n    tag_31:\n        /* \"#utility.yul\":1158:1164   */\n      0x00\n        /* \"#utility.yul\":1166:1172   */\n      dup1\n        /* \"#utility.yul\":1174:1180   */\n      0x00\n        /* \"#utility.yul\":1182:1188   */\n      dup1\n        /* \"#utility.yul\":1190:1196   */\n      0x00\n        /* \"#utility.yul\":1239:1242   */\n      0x80\n        /* \"#utility.yul\":1227:1236   */\n      dup7\n        /* \"#utility.yul\":1218:1225   */\n      dup9\n        /* \"#utility.yul\":1214:1237   */\n      sub\n        /* \"#utility.yul\":1210:1243   */\n      slt\n        /* \"#utility.yul\":1207:1327   */\n      iszero\n      tag_126\n      jumpi\n        /* \"#utility.yul\":1246:1325   */\n      tag_127\n      tag_123\n      jump\t// in\n    tag_127:\n        /* \"#utility.yul\":1207:1327   */\n    tag_126:\n        /* \"#utility.yul\":1366:1367   */\n      0x00\n        /* \"#utility.yul\":1391:1444   */\n      tag_128\n        /* \"#utility.yul\":1436:1443   */\n      dup9\n        /* \"#utility.yul\":1427:1433   */\n      dup3\n        /* \"#utility.yul\":1416:1425   */\n      dup10\n        /* \"#utility.yul\":1412:1434   */\n      add\n        /* \"#utility.yul\":1391:1444   */\n      tag_116\n      jump\t// in\n    tag_128:\n        /* \"#utility.yul\":1381:1444   */\n      swap6\n      pop\n        /* \"#utility.yul\":1337:1454   */\n      pop\n        /* \"#utility.yul\":1493:1495   */\n      0x20\n        /* \"#utility.yul\":1519:1572   */\n      tag_129\n        /* \"#utility.yul\":1564:1571   */\n      dup9\n        /* \"#utility.yul\":1555:1561   */\n      dup3\n        /* \"#utility.yul\":1544:1553   */\n      dup10\n        /* \"#utility.yul\":1540:1562   */\n      add\n        /* \"#utility.yul\":1519:1572   */\n      tag_116\n      jump\t// in\n    tag_129:\n        /* \"#utility.yul\":1509:1572   */\n      swap5\n      pop\n        /* \"#utility.yul\":1464:1582   */\n      pop\n        /* \"#utility.yul\":1649:1651   */\n      0x40\n        /* \"#utility.yul\":1638:1647   */\n      dup7\n        /* \"#utility.yul\":1634:1652   */\n      add\n        /* \"#utility.yul\":1621:1653   */\n      calldataload\n        /* \"#utility.yul\":1680:1698   */\n      0xffffffffffffffff\n        /* \"#utility.yul\":1672:1678   */\n      dup2\n        /* \"#utility.yul\":1669:1699   */\n      gt\n        /* \"#utility.yul\":1666:1783   */\n      iszero\n      tag_130\n      jumpi\n        /* \"#utility.yul\":1702:1781   */\n      tag_131\n      tag_132\n      jump\t// in\n    tag_131:\n        /* \"#utility.yul\":1666:1783   */\n    tag_130:\n        /* \"#utility.yul\":1815:1880   */\n      tag_133\n        /* \"#utility.yul\":1872:1879   */\n      dup9\n        /* \"#utility.yul\":1863:1869   */\n      dup3\n        /* \"#utility.yul\":1852:1861   */\n      dup10\n        /* \"#utility.yul\":1848:1870   */\n      add\n        /* \"#utility.yul\":1815:1880   */\n      tag_105\n      jump\t// in\n    tag_133:\n        /* \"#utility.yul\":1797:1880   */\n      swap4\n      pop\n      swap4\n      pop\n        /* \"#utility.yul\":1592:1890   */\n      pop\n        /* \"#utility.yul\":1929:1931   */\n      0x60\n        /* \"#utility.yul\":1955:2008   */\n      tag_134\n        /* \"#utility.yul\":2000:2007   */\n      dup9\n        /* \"#utility.yul\":1991:1997   */\n      dup3\n        /* \"#utility.yul\":1980:1989   */\n      dup10\n        /* \"#utility.yul\":1976:1998   */\n      add\n        /* \"#utility.yul\":1955:2008   */\n      tag_116\n      jump\t// in\n    tag_134:\n        /* \"#utility.yul\":1945:2008   */\n      swap2\n      pop\n        /* \"#utility.yul\":1900:2018   */\n      pop\n        /* \"#utility.yul\":1060:2025   */\n      swap3\n      swap6\n      pop\n      swap3\n      swap6\n      swap1\n      swap4\n      pop\n      jump\t// out\n        /* \"#utility.yul\":2031:2173   */\n    tag_135:\n        /* \"#utility.yul\":2134:2166   */\n      tag_137\n        /* \"#utility.yul\":2160:2165   */\n      dup2\n        /* \"#utility.yul\":2134:2166   */\n      tag_138\n      jump\t// in\n    tag_137:\n        /* \"#utility.yul\":2129:2132   */\n      dup3\n        /* \"#utility.yul\":2122:2167   */\n      mstore\n        /* \"#utility.yul\":2031:2173   */\n      pop\n      pop\n      jump\t// out\n        /* \"#utility.yul\":2179:2297   */\n    tag_139:\n        /* \"#utility.yul\":2266:2290   */\n      tag_141\n        /* \"#utility.yul\":2284:2289   */\n      dup2\n        /* \"#utility.yul\":2266:2290   */\n      tag_142\n      jump\t// in\n    tag_141:\n        /* \"#utility.yul\":2261:2264   */\n      dup3\n        /* \"#utility.yul\":2254:2291   */\n      mstore\n        /* \"#utility.yul\":2179:2297   */\n      pop\n      pop\n      jump\t// out\n        /* \"#utility.yul\":2303:2412   */\n    tag_143:\n        /* \"#utility.yul\":2384:2405   */\n      tag_145\n        /* \"#utility.yul\":2399:2404   */\n      dup2\n        /* \"#utility.yul\":2384:2405   */\n      tag_146\n      jump\t// in\n    tag_145:\n        /* \"#utility.yul\":2379:2382   */\n      dup3\n        /* \"#utility.yul\":2372:2406   */\n      mstore\n        /* \"#utility.yul\":2303:2412   */\n      pop\n      pop\n      jump\t// out\n        /* \"#utility.yul\":2442:2746   */\n    tag_147:\n        /* \"#utility.yul\":2540:2543   */\n      0x00\n        /* \"#utility.yul\":2561:2632   */\n      tag_149\n        /* \"#utility.yul\":2625:2631   */\n      dup4\n        /* \"#utility.yul\":2620:2623   */\n      dup6\n        /* \"#utility.yul\":2561:2632   */\n      tag_150\n      jump\t// in\n    tag_149:\n        /* \"#utility.yul\":2554:2632   */\n      swap4\n      pop\n        /* \"#utility.yul\":2642:2685   */\n      tag_151\n        /* \"#utility.yul\":2678:2684   */\n      dup4\n        /* \"#utility.yul\":2673:2676   */\n      dup6\n        /* \"#utility.yul\":2666:2671   */\n      dup5\n        /* \"#utility.yul\":2642:2685   */\n      tag_152\n      jump\t// in\n    tag_151:\n        /* \"#utility.yul\":2710:2739   */\n      tag_153\n        /* \"#utility.yul\":2732:2738   */\n      dup4\n        /* \"#utility.yul\":2710:2739   */\n      tag_154\n      jump\t// in\n    tag_153:\n        /* \"#utility.yul\":2705:2708   */\n      dup5\n        /* \"#utility.yul\":2701:2740   */\n      add\n        /* \"#utility.yul\":2694:2740   */\n      swap1\n      pop\n        /* \"#utility.yul\":2442:2746   */\n      swap4\n      swap3\n      pop\n      pop\n      pop\n      jump\t// out\n        /* \"#utility.yul\":2752:3116   */\n    tag_155:\n        /* \"#utility.yul\":2840:2843   */\n      0x00\n        /* \"#utility.yul\":2868:2907   */\n      tag_157\n        /* \"#utility.yul\":2901:2906   */\n      dup3\n        /* \"#utility.yul\":2868:2907   */\n      tag_158\n      jump\t// in\n    tag_157:\n        /* \"#utility.yul\":2923:2994   */\n      tag_159\n        /* \"#utility.yul\":2987:2993   */\n      dup2\n        /* \"#utility.yul\":2982:2985   */\n      dup6\n        /* \"#utility.yul\":2923:2994   */\n      tag_150\n      jump\t// in\n    tag_159:\n        /* \"#utility.yul\":2916:2994   */\n      swap4\n      pop\n        /* \"#utility.yul\":3003:3055   */\n      tag_160\n        /* \"#utility.yul\":3048:3054   */\n      dup2\n        /* \"#utility.yul\":3043:3046   */\n      dup6\n        /* \"#utility.yul\":3036:3040   */\n      0x20\n        /* \"#utility.yul\":3029:3034   */\n      dup7\n        /* \"#utility.yul\":3025:3041   */\n      add\n        /* \"#utility.yul\":3003:3055   */\n      tag_161\n      jump\t// in\n    tag_160:\n        /* \"#utility.yul\":3080:3109   */\n      tag_162\n        /* \"#utility.yul\":3102:3108   */\n      dup2\n        /* \"#utility.yul\":3080:3109   */\n      tag_154\n      jump\t// in\n    tag_162:\n        /* \"#utility.yul\":3075:3078   */\n      dup5\n        /* \"#utility.yul\":3071:3110   */\n      add\n        /* \"#utility.yul\":3064:3110   */\n      swap2\n      pop\n        /* \"#utility.yul\":2844:3116   */\n      pop\n        /* \"#utility.yul\":2752:3116   */\n      swap3\n      swap2\n      pop\n      pop\n      jump\t// out\n        /* \"#utility.yul\":3122:3488   */\n    tag_163:\n        /* \"#utility.yul\":3264:3267   */\n      0x00\n        /* \"#utility.yul\":3285:3352   */\n      tag_165\n        /* \"#utility.yul\":3349:3351   */\n      0x19\n        /* \"#utility.yul\":3344:3347   */\n      dup4\n        /* \"#utility.yul\":3285:3352   */\n      tag_150\n      jump\t// in\n    tag_165:\n        /* \"#utility.yul\":3278:3352   */\n      swap2\n      pop\n        /* \"#utility.yul\":3361:3454   */\n      tag_166\n        /* \"#utility.yul\":3450:3453   */\n      dup3\n        /* \"#utility.yul\":3361:3454   */\n      tag_167\n      jump\t// in\n    tag_166:\n        /* \"#utility.yul\":3479:3481   */\n      0x20\n        /* \"#utility.yul\":3474:3477   */\n      dup3\n        /* \"#utility.yul\":3470:3482   */\n      add\n        /* \"#utility.yul\":3463:3482   */\n      swap1\n      pop\n        /* \"#utility.yul\":3122:3488   */\n      swap2\n      swap1\n      pop\n      jump\t// out\n        /* \"#utility.yul\":3494:3860   */\n    tag_168:\n        /* \"#utility.yul\":3636:3639   */\n      0x00\n        /* \"#utility.yul\":3657:3724   */\n      tag_170\n        /* \"#utility.yul\":3721:3723   */\n      0x13\n        /* \"#utility.yul\":3716:3719   */\n      dup4\n        /* \"#utility.yul\":3657:3724   */\n      tag_150\n      jump\t// in\n    tag_170:\n        /* \"#utility.yul\":3650:3724   */\n      swap2\n      pop\n        /* \"#utility.yul\":3733:3826   */\n      tag_171\n        /* \"#utility.yul\":3822:3825   */\n      dup3\n        /* \"#utility.yul\":3733:3826   */\n      tag_172\n      jump\t// in\n    tag_171:\n        /* \"#utility.yul\":3851:3853   */\n      0x20\n        /* \"#utility.yul\":3846:3849   */\n      dup3\n        /* \"#utility.yul\":3842:3854   */\n      add\n        /* \"#utility.yul\":3835:3854   */\n      swap1\n      pop\n        /* \"#utility.yul\":3494:3860   */\n      swap2\n      swap1\n      pop\n      jump\t// out\n        /* \"#utility.yul\":3866:4232   */\n    tag_173:\n        /* \"#utility.yul\":4008:4011   */\n      0x00\n        /* \"#utility.yul\":4029:4096   */\n      tag_175\n        /* \"#utility.yul\":4093:4095   */\n      0x12\n        /* \"#utility.yul\":4088:4091   */\n      dup4\n        /* \"#utility.yul\":4029:4096   */\n      tag_150\n      jump\t// in\n    tag_175:\n        /* \"#utility.yul\":4022:4096   */\n      swap2\n      pop\n        /* \"#utility.yul\":4105:4198   */\n      tag_176\n        /* \"#utility.yul\":4194:4197   */\n      dup3\n        /* \"#utility.yul\":4105:4198   */\n      tag_177\n      jump\t// in\n    tag_176:\n        /* \"#utility.yul\":4223:4225   */\n      0x20\n        /* \"#utility.yul\":4218:4221   */\n      dup3\n        /* \"#utility.yul\":4214:4226   */\n      add\n        /* \"#utility.yul\":4207:4226   */\n      swap1\n      pop\n        /* \"#utility.yul\":3866:4232   */\n      swap2\n      swap1\n      pop\n      jump\t// out\n        /* \"#utility.yul\":4238:4604   */\n    tag_178:\n        /* \"#utility.yul\":4380:4383   */\n      0x00\n        /* \"#utility.yul\":4401:4468   */\n      tag_180\n        /* \"#utility.yul\":4465:4467   */\n      0x11\n        /* \"#utility.yul\":4460:4463   */\n      dup4\n        /* \"#utility.yul\":4401:4468   */\n      tag_150\n      jump\t// in\n    tag_180:\n        /* \"#utility.yul\":4394:4468   */\n      swap2\n      pop\n        /* \"#utility.yul\":4477:4570   */\n      tag_181\n        /* \"#utility.yul\":4566:4569   */\n      dup3\n        /* \"#utility.yul\":4477:4570   */\n      tag_182\n      jump\t// in\n    tag_181:\n        /* \"#utility.yul\":4595:4597   */\n      0x20\n        /* \"#utility.yul\":4590:4593   */\n      dup3\n        /* \"#utility.yul\":4586:4598   */\n      add\n        /* \"#utility.yul\":4579:4598   */\n      swap1\n      pop\n        /* \"#utility.yul\":4238:4604   */\n      swap2\n      swap1\n      pop\n      jump\t// out\n        /* \"#utility.yul\":4610:4728   */\n    tag_183:\n        /* \"#utility.yul\":4697:4721   */\n      tag_185\n        /* \"#utility.yul\":4715:4720   */\n      dup2\n        /* \"#utility.yul\":4697:4721   */\n      tag_186\n      jump\t// in\n    tag_185:\n        /* \"#utility.yul\":4692:4695   */\n      dup3\n        /* \"#utility.yul\":4685:4722   */\n      mstore\n        /* \"#utility.yul\":4610:4728   */\n      pop\n      pop\n      jump\t// out\n        /* \"#utility.yul\":4734:4956   */\n    tag_24:\n        /* \"#utility.yul\":4827:4831   */\n      0x00\n        /* \"#utility.yul\":4865:4867   */\n      0x20\n        /* \"#utility.yul\":4854:4863   */\n      dup3\n        /* \"#utility.yul\":4850:4868   */\n      add\n        /* \"#utility.yul\":4842:4868   */\n      swap1\n      pop\n        /* \"#utility.yul\":4878:4949   */\n      tag_188\n        /* \"#utility.yul\":4946:4947   */\n      0x00\n        /* \"#utility.yul\":4935:4944   */\n      dup4\n        /* \"#utility.yul\":4931:4948   */\n      add\n        /* \"#utility.yul\":4922:4928   */\n      dup5\n        /* \"#utility.yul\":4878:4949   */\n      tag_139\n      jump\t// in\n    tag_188:\n        /* \"#utility.yul\":4734:4956   */\n      swap3\n      swap2\n      pop\n      pop\n      jump\t// out\n        /* \"#utility.yul\":4962:6070   */\n    tag_19:\n        /* \"#utility.yul\":5281:5285   */\n      0x00\n        /* \"#utility.yul\":5319:5322   */\n      0x0100\n        /* \"#utility.yul\":5308:5317   */\n      dup3\n        /* \"#utility.yul\":5304:5323   */\n      add\n        /* \"#utility.yul\":5296:5323   */\n      swap1\n      pop\n        /* \"#utility.yul\":5333:5420   */\n      tag_190\n        /* \"#utility.yul\":5417:5418   */\n      0x00\n        /* \"#utility.yul\":5406:5415   */\n      dup4\n        /* \"#utility.yul\":5402:5419   */\n      add\n        /* \"#utility.yul\":5393:5399   */\n      dup12\n        /* \"#utility.yul\":5333:5420   */\n      tag_135\n      jump\t// in\n    tag_190:\n        /* \"#utility.yul\":5430:5502   */\n      tag_191\n        /* \"#utility.yul\":5498:5500   */\n      0x20\n        /* \"#utility.yul\":5487:5496   */\n      dup4\n        /* \"#utility.yul\":5483:5501   */\n      add\n        /* \"#utility.yul\":5474:5480   */\n      dup11\n        /* \"#utility.yul\":5430:5502   */\n      tag_183\n      jump\t// in\n    tag_191:\n        /* \"#utility.yul\":5512:5584   */\n      tag_192\n        /* \"#utility.yul\":5580:5582   */\n      0x40\n        /* \"#utility.yul\":5569:5578   */\n      dup4\n        /* \"#utility.yul\":5565:5583   */\n      add\n        /* \"#utility.yul\":5556:5562   */\n      dup10\n        /* \"#utility.yul\":5512:5584   */\n      tag_183\n      jump\t// in\n    tag_192:\n        /* \"#utility.yul\":5594:5666   */\n      tag_193\n        /* \"#utility.yul\":5662:5664   */\n      0x60\n        /* \"#utility.yul\":5651:5660   */\n      dup4\n        /* \"#utility.yul\":5647:5665   */\n      add\n        /* \"#utility.yul\":5638:5644   */\n      dup9\n        /* \"#utility.yul\":5594:5666   */\n      tag_183\n      jump\t// in\n    tag_193:\n        /* \"#utility.yul\":5676:5749   */\n      tag_194\n        /* \"#utility.yul\":5744:5747   */\n      0x80\n        /* \"#utility.yul\":5733:5742   */\n      dup4\n        /* \"#utility.yul\":5729:5748   */\n      add\n        /* \"#utility.yul\":5720:5726   */\n      dup8\n        /* \"#utility.yul\":5676:5749   */\n      tag_183\n      jump\t// in\n    tag_194:\n        /* \"#utility.yul\":5759:5832   */\n      tag_195\n        /* \"#utility.yul\":5827:5830   */\n      0xa0\n        /* \"#utility.yul\":5816:5825   */\n      dup4\n        /* \"#utility.yul\":5812:5831   */\n      add\n        /* \"#utility.yul\":5803:5809   */\n      dup7\n        /* \"#utility.yul\":5759:5832   */\n      tag_183\n      jump\t// in\n    tag_195:\n        /* \"#utility.yul\":5880:5889   */\n      dup2\n        /* \"#utility.yul\":5874:5878   */\n      dup2\n        /* \"#utility.yul\":5870:5890   */\n      sub\n        /* \"#utility.yul\":5864:5867   */\n      0xc0\n        /* \"#utility.yul\":5853:5862   */\n      dup4\n        /* \"#utility.yul\":5849:5868   */\n      add\n        /* \"#utility.yul\":5842:5891   */\n      mstore\n        /* \"#utility.yul\":5908:5986   */\n      tag_196\n        /* \"#utility.yul\":5981:5985   */\n      dup2\n        /* \"#utility.yul\":5972:5978   */\n      dup6\n        /* \"#utility.yul\":5908:5986   */\n      tag_155\n      jump\t// in\n    tag_196:\n        /* \"#utility.yul\":5900:5986   */\n      swap1\n      pop\n        /* \"#utility.yul\":5996:6063   */\n      tag_197\n        /* \"#utility.yul\":6058:6061   */\n      0xe0\n        /* \"#utility.yul\":6047:6056   */\n      dup4\n        /* \"#utility.yul\":6043:6062   */\n      add\n        /* \"#utility.yul\":6034:6040   */\n      dup5\n        /* \"#utility.yul\":5996:6063   */\n      tag_143\n      jump\t// in\n    tag_197:\n        /* \"#utility.yul\":4962:6070   */\n      swap10\n      swap9\n      pop\n      pop\n      pop\n      pop\n      pop\n      pop\n      pop\n      pop\n      pop\n      jump\t// out\n        /* \"#utility.yul\":6076:6495   */\n    tag_85:\n        /* \"#utility.yul\":6242:6246   */\n      0x00\n        /* \"#utility.yul\":6280:6282   */\n      0x20\n        /* \"#utility.yul\":6269:6278   */\n      dup3\n        /* \"#utility.yul\":6265:6283   */\n      add\n        /* \"#utility.yul\":6257:6283   */\n      swap1\n      pop\n        /* \"#utility.yul\":6329:6338   */\n      dup2\n        /* \"#utility.yul\":6323:6327   */\n      dup2\n        /* \"#utility.yul\":6319:6339   */\n      sub\n        /* \"#utility.yul\":6315:6316   */\n      0x00\n        /* \"#utility.yul\":6304:6313   */\n      dup4\n        /* \"#utility.yul\":6300:6317   */\n      add\n        /* \"#utility.yul\":6293:6340   */\n      mstore\n        /* \"#utility.yul\":6357:6488   */\n      tag_199\n        /* \"#utility.yul\":6483:6487   */\n      dup2\n        /* \"#utility.yul\":6357:6488   */\n      tag_163\n      jump\t// in\n    tag_199:\n        /* \"#utility.yul\":6349:6488   */\n      swap1\n      pop\n        /* \"#utility.yul\":6076:6495   */\n      swap2\n      swap1\n      pop\n      jump\t// out\n        /* \"#utility.yul\":6501:6920   */\n    tag_46:\n        /* \"#utility.yul\":6667:6671   */\n      0x00\n        /* \"#utility.yul\":6705:6707   */\n      0x20\n        /* \"#utility.yul\":6694:6703   */\n      dup3\n        /* \"#utility.yul\":6690:6708   */\n      add\n        /* \"#utility.yul\":6682:6708   */\n      swap1\n      pop\n        /* \"#utility.yul\":6754:6763   */\n      dup2\n        /* \"#utility.yul\":6748:6752   */\n      dup2\n        /* \"#utility.yul\":6744:6764   */\n      sub\n        /* \"#utility.yul\":6740:6741   */\n      0x00\n        /* \"#utility.yul\":6729:6738   */\n      dup4\n        /* \"#utility.yul\":6725:6742   */\n      add\n        /* \"#utility.yul\":6718:6765   */\n      mstore\n        /* \"#utility.yul\":6782:6913   */\n      tag_201\n        /* \"#utility.yul\":6908:6912   */\n      dup2\n        /* \"#utility.yul\":6782:6913   */\n      tag_168\n      jump\t// in\n    tag_201:\n        /* \"#utility.yul\":6774:6913   */\n      swap1\n      pop\n        /* \"#utility.yul\":6501:6920   */\n      swap2\n      swap1\n      pop\n      jump\t// out\n        /* \"#utility.yul\":6926:7345   */\n    tag_72:\n        /* \"#utility.yul\":7092:7096   */\n      0x00\n        /* \"#utility.yul\":7130:7132   */\n      0x20\n        /* \"#utility.yul\":7119:7128   */\n      dup3\n        /* \"#utility.yul\":7115:7133   */\n      add\n        /* \"#utility.yul\":7107:7133   */\n      swap1\n      pop\n        /* \"#utility.yul\":7179:7188   */\n      dup2\n        /* \"#utility.yul\":7173:7177   */\n      dup2\n        /* \"#utility.yul\":7169:7189   */\n      sub\n        /* \"#utility.yul\":7165:7166   */\n      0x00\n        /* \"#utility.yul\":7154:7163   */\n      dup4\n        /* \"#utility.yul\":7150:7167   */\n      add\n        /* \"#utility.yul\":7143:7190   */\n      mstore\n        /* \"#utility.yul\":7207:7338   */\n      tag_203\n        /* \"#utility.yul\":7333:7337   */\n      dup2\n        /* \"#utility.yul\":7207:7338   */\n      tag_173\n      jump\t// in\n    tag_203:\n        /* \"#utility.yul\":7199:7338   */\n      swap1\n      pop\n        /* \"#utility.yul\":6926:7345   */\n      swap2\n      swap1\n      pop\n      jump\t// out\n        /* \"#utility.yul\":7351:7770   */\n    tag_76:\n        /* \"#utility.yul\":7517:7521   */\n      0x00\n        /* \"#utility.yul\":7555:7557   */\n      0x20\n        /* \"#utility.yul\":7544:7553   */\n      dup3\n        /* \"#utility.yul\":7540:7558   */\n      add\n        /* \"#utility.yul\":7532:7558   */\n      swap1\n      pop\n        /* \"#utility.yul\":7604:7613   */\n      dup2\n        /* \"#utility.yul\":7598:7602   */\n      dup2\n        /* \"#utility.yul\":7594:7614   */\n      sub\n        /* \"#utility.yul\":7590:7591   */\n      0x00\n        /* \"#utility.yul\":7579:7588   */\n      dup4\n        /* \"#utility.yul\":7575:7592   */\n      add\n        /* \"#utility.yul\":7568:7615   */\n      mstore\n        /* \"#utility.yul\":7632:7763   */\n      tag_205\n        /* \"#utility.yul\":7758:7762   */\n      dup2\n        /* \"#utility.yul\":7632:7763   */\n      tag_178\n      jump\t// in\n    tag_205:\n        /* \"#utility.yul\":7624:7763   */\n      swap1\n      pop\n        /* \"#utility.yul\":7351:7770   */\n      swap2\n      swap1\n      pop\n      jump\t// out\n        /* \"#utility.yul\":7776:7998   */\n    tag_13:\n        /* \"#utility.yul\":7869:7873   */\n      0x00\n        /* \"#utility.yul\":7907:7909   */\n      0x20\n        /* \"#utility.yul\":7896:7905   */\n      dup3\n        /* \"#utility.yul\":7892:7910   */\n      add\n        /* \"#utility.yul\":7884:7910   */\n      swap1\n      pop\n        /* \"#utility.yul\":7920:7991   */\n      tag_207\n        /* \"#utility.yul\":7988:7989   */\n      0x00\n        /* \"#utility.yul\":7977:7986   */\n      dup4\n        /* \"#utility.yul\":7973:7990   */\n      add\n        /* \"#utility.yul\":7964:7970   */\n      dup5\n        /* \"#utility.yul\":7920:7991   */\n      tag_183\n      jump\t// in\n    tag_207:\n        /* \"#utility.yul\":7776:7998   */\n      swap3\n      swap2\n      pop\n      pop\n      jump\t// out\n        /* \"#utility.yul\":8004:8668   */\n    tag_93:\n        /* \"#utility.yul\":8211:8215   */\n      0x00\n        /* \"#utility.yul\":8249:8252   */\n      0x80\n        /* \"#utility.yul\":8238:8247   */\n      dup3\n        /* \"#utility.yul\":8234:8253   */\n      add\n        /* \"#utility.yul\":8226:8253   */\n      swap1\n      pop\n        /* \"#utility.yul\":8263:8334   */\n      tag_209\n        /* \"#utility.yul\":8331:8332   */\n      0x00\n        /* \"#utility.yul\":8320:8329   */\n      dup4\n        /* \"#utility.yul\":8316:8333   */\n      add\n        /* \"#utility.yul\":8307:8313   */\n      dup9\n        /* \"#utility.yul\":8263:8334   */\n      tag_183\n      jump\t// in\n    tag_209:\n        /* \"#utility.yul\":8381:8390   */\n      dup2\n        /* \"#utility.yul\":8375:8379   */\n      dup2\n        /* \"#utility.yul\":8371:8391   */\n      sub\n        /* \"#utility.yul\":8366:8368   */\n      0x20\n        /* \"#utility.yul\":8355:8364   */\n      dup4\n        /* \"#utility.yul\":8351:8369   */\n      add\n        /* \"#utility.yul\":8344:8392   */\n      mstore\n        /* \"#utility.yul\":8409:8497   */\n      tag_210\n        /* \"#utility.yul\":8492:8496   */\n      dup2\n        /* \"#utility.yul\":8483:8489   */\n      dup7\n        /* \"#utility.yul\":8475:8481   */\n      dup9\n        /* \"#utility.yul\":8409:8497   */\n      tag_147\n      jump\t// in\n    tag_210:\n        /* \"#utility.yul\":8401:8497   */\n      swap1\n      pop\n        /* \"#utility.yul\":8507:8579   */\n      tag_211\n        /* \"#utility.yul\":8575:8577   */\n      0x40\n        /* \"#utility.yul\":8564:8573   */\n      dup4\n        /* \"#utility.yul\":8560:8578   */\n      add\n        /* \"#utility.yul\":8551:8557   */\n      dup6\n        /* \"#utility.yul\":8507:8579   */\n      tag_183\n      jump\t// in\n    tag_211:\n        /* \"#utility.yul\":8589:8661   */\n      tag_212\n        /* \"#utility.yul\":8657:8659   */\n      0x60\n        /* \"#utility.yul\":8646:8655   */\n      dup4\n        /* \"#utility.yul\":8642:8660   */\n      add\n        /* \"#utility.yul\":8633:8639   */\n      dup5\n        /* \"#utility.yul\":8589:8661   */\n      tag_183\n      jump\t// in\n    tag_212:\n        /* \"#utility.yul\":8004:8668   */\n      swap7\n      swap6\n      pop\n      pop\n      pop\n      pop\n      pop\n      pop\n      jump\t// out\n        /* \"#utility.yul\":8755:8854   */\n    tag_158:\n        /* \"#utility.yul\":8807:8813   */\n      0x00\n        /* \"#utility.yul\":8841:8846   */\n      dup2\n        /* \"#utility.yul\":8835:8847   */\n      mload\n        /* \"#utility.yul\":8825:8847   */\n      swap1\n      pop\n        /* \"#utility.yul\":8755:8854   */\n      swap2\n      swap1\n      pop\n      jump\t// out\n        /* \"#utility.yul\":8860:9029   */\n    tag_150:\n        /* \"#utility.yul\":8944:8955   */\n      0x00\n        /* \"#utility.yul\":8978:8984   */\n      dup3\n        /* \"#utility.yul\":8973:8976   */\n      dup3\n        /* \"#utility.yul\":8966:8985   */\n      mstore\n        /* \"#utility.yul\":9018:9022   */\n      0x20\n        /* \"#utility.yul\":9013:9016   */\n      dup3\n        /* \"#utility.yul\":9009:9023   */\n      add\n        /* \"#utility.yul\":8994:9023   */\n      swap1\n      pop\n        /* \"#utility.yul\":8860:9029   */\n      swap3\n      swap2\n      pop\n      pop\n      jump\t// out\n        /* \"#utility.yul\":9035:9340   */\n    tag_87:\n        /* \"#utility.yul\":9075:9078   */\n      0x00\n        /* \"#utility.yul\":9094:9114   */\n      tag_218\n        /* \"#utility.yul\":9112:9113   */\n      dup3\n        /* \"#utility.yul\":9094:9114   */\n      tag_186\n      jump\t// in\n    tag_218:\n        /* \"#utility.yul\":9089:9114   */\n      swap2\n      pop\n        /* \"#utility.yul\":9128:9148   */\n      tag_219\n        /* \"#utility.yul\":9146:9147   */\n      dup4\n        /* \"#utility.yul\":9128:9148   */\n      tag_186\n      jump\t// in\n    tag_219:\n        /* \"#utility.yul\":9123:9148   */\n      swap3\n      pop\n        /* \"#utility.yul\":9282:9283   */\n      dup3\n        /* \"#utility.yul\":9214:9280   */\n      0xffffffffffffffffffffffffffffffffffffffffffffffffffffffffffffffff\n        /* \"#utility.yul\":9210:9284   */\n      sub\n        /* \"#utility.yul\":9207:9208   */\n      dup3\n        /* \"#utility.yul\":9204:9285   */\n      gt\n        /* \"#utility.yul\":9201:9308   */\n      iszero\n      tag_220\n      jumpi\n        /* \"#utility.yul\":9288:9306   */\n      tag_221\n      tag_222\n      jump\t// in\n    tag_221:\n        /* \"#utility.yul\":9201:9308   */\n    tag_220:\n        /* \"#utility.yul\":9332:9333   */\n      dup3\n        /* \"#utility.yul\":9329:9330   */\n      dup3\n        /* \"#utility.yul\":9325:9334   */\n      add\n        /* \"#utility.yul\":9318:9334   */\n      swap1\n      pop\n        /* \"#utility.yul\":9035:9340   */\n      swap3\n      swap2\n      pop\n      pop\n      jump\t// out\n        /* \"#utility.yul\":9346:9694   */\n    tag_50:\n        /* \"#utility.yul\":9386:9393   */\n      0x00\n        /* \"#utility.yul\":9409:9429   */\n      tag_224\n        /* \"#utility.yul\":9427:9428   */\n      dup3\n        /* \"#utility.yul\":9409:9429   */\n      tag_186\n      jump\t// in\n    tag_224:\n        /* \"#utility.yul\":9404:9429   */\n      swap2\n      pop\n        /* \"#utility.yul\":9443:9463   */\n      tag_225\n        /* \"#utility.yul\":9461:9462   */\n      dup4\n        /* \"#utility.yul\":9443:9463   */\n      tag_186\n      jump\t// in\n    tag_225:\n        /* \"#utility.yul\":9438:9463   */\n      swap3\n      pop\n        /* \"#utility.yul\":9631:9632   */\n      dup2\n        /* \"#utility.yul\":9563:9629   */\n      0xffffffffffffffffffffffffffffffffffffffffffffffffffffffffffffffff\n        /* \"#utility.yul\":9559:9633   */\n      div\n        /* \"#utility.yul\":9556:9557   */\n      dup4\n        /* \"#utility.yul\":9553:9634   */\n      gt\n        /* \"#utility.yul\":9548:9549   */\n      dup3\n        /* \"#utility.yul\":9541:9550   */\n      iszero\n        /* \"#utility.yul\":9534:9551   */\n      iszero\n        /* \"#utility.yul\":9530:9635   */\n      and\n        /* \"#utility.yul\":9527:9658   */\n      iszero\n      tag_226\n      jumpi\n        /* \"#utility.yul\":9638:9656   */\n      tag_227\n      tag_222\n      jump\t// in\n    tag_227:\n        /* \"#utility.yul\":9527:9658   */\n    tag_226:\n        /* \"#utility.yul\":9686:9687   */\n      dup3\n        /* \"#utility.yul\":9683:9684   */\n      dup3\n        /* \"#utility.yul\":9679:9688   */\n      mul\n        /* \"#utility.yul\":9668:9688   */\n      swap1\n      pop\n        /* \"#utility.yul\":9346:9694   */\n      swap3\n      swap2\n      pop\n      pop\n      jump\t// out\n        /* \"#utility.yul\":9700:9891   */\n    tag_48:\n        /* \"#utility.yul\":9740:9744   */\n      0x00\n        /* \"#utility.yul\":9760:9780   */\n      tag_229\n        /* \"#utility.yul\":9778:9779   */\n      dup3\n        /* \"#utility.yul\":9760:9780   */\n      tag_186\n      jump\t// in\n    tag_229:\n        /* \"#utility.yul\":9755:9780   */\n      swap2\n      pop\n        /* \"#utility.yul\":9794:9814   */\n      tag_230\n        /* \"#utility.yul\":9812:9813   */\n      dup4\n        /* \"#utility.yul\":9794:9814   */\n      tag_186\n      jump\t// in\n    tag_230:\n        /* \"#utility.yul\":9789:9814   */\n      swap3\n      pop\n        /* \"#utility.yul\":9833:9834   */\n      dup3\n        /* \"#utility.yul\":9830:9831   */\n      dup3\n        /* \"#utility.yul\":9827:9835   */\n      lt\n        /* \"#utility.yul\":9824:9858   */\n      iszero\n      tag_231\n      jumpi\n        /* \"#utility.yul\":9838:9856   */\n      tag_232\n      tag_222\n      jump\t// in\n    tag_232:\n        /* \"#utility.yul\":9824:9858   */\n    tag_231:\n        /* \"#utility.yul\":9883:9884   */\n      dup3\n        /* \"#utility.yul\":9880:9881   */\n      dup3\n        /* \"#utility.yul\":9876:9885   */\n      sub\n        /* \"#utility.yul\":9868:9885   */\n      swap1\n      pop\n        /* \"#utility.yul\":9700:9891   */\n      swap3\n      swap2\n      pop\n      pop\n      jump\t// out\n        /* \"#utility.yul\":9897:9993   */\n    tag_142:\n        /* \"#utility.yul\":9934:9941   */\n      0x00\n        /* \"#utility.yul\":9963:9987   */\n      tag_234\n        /* \"#utility.yul\":9981:9986   */\n      dup3\n        /* \"#utility.yul\":9963:9987   */\n      tag_235\n      jump\t// in\n    tag_234:\n        /* \"#utility.yul\":9952:9987   */\n      swap1\n      pop\n        /* \"#utility.yul\":9897:9993   */\n      swap2\n      swap1\n      pop\n      jump\t// out\n        /* \"#utility.yul\":9999:10103   */\n    tag_138:\n        /* \"#utility.yul\":10044:10051   */\n      0x00\n        /* \"#utility.yul\":10073:10097   */\n      tag_237\n        /* \"#utility.yul\":10091:10096   */\n      dup3\n        /* \"#utility.yul\":10073:10097   */\n      tag_235\n      jump\t// in\n    tag_237:\n        /* \"#utility.yul\":10062:10097   */\n      swap1\n      pop\n        /* \"#utility.yul\":9999:10103   */\n      swap2\n      swap1\n      pop\n      jump\t// out\n        /* \"#utility.yul\":10109:10199   */\n    tag_146:\n        /* \"#utility.yul\":10143:10150   */\n      0x00\n        /* \"#utility.yul\":10186:10191   */\n      dup2\n        /* \"#utility.yul\":10179:10192   */\n      iszero\n        /* \"#utility.yul\":10172:10193   */\n      iszero\n        /* \"#utility.yul\":10161:10193   */\n      swap1\n      pop\n        /* \"#utility.yul\":10109:10199   */\n      swap2\n      swap1\n      pop\n      jump\t// out\n        /* \"#utility.yul\":10205:10331   */\n    tag_235:\n        /* \"#utility.yul\":10242:10249   */\n      0x00\n        /* \"#utility.yul\":10282:10324   */\n      0xffffffffffffffffffffffffffffffffffffffff\n        /* \"#utility.yul\":10275:10280   */\n      dup3\n        /* \"#utility.yul\":10271:10325   */\n      and\n        /* \"#utility.yul\":10260:10325   */\n      swap1\n      pop\n        /* \"#utility.yul\":10205:10331   */\n      swap2\n      swap1\n      pop\n      jump\t// out\n        /* \"#utility.yul\":10337:10414   */\n    tag_186:\n        /* \"#utility.yul\":10374:10381   */\n      0x00\n        /* \"#utility.yul\":10403:10408   */\n      dup2\n        /* \"#utility.yul\":10392:10408   */\n      swap1\n      pop\n        /* \"#utility.yul\":10337:10414   */\n      swap2\n      swap1\n      pop\n      jump\t// out\n        /* \"#utility.yul\":10420:10574   */\n    tag_152:\n        /* \"#utility.yul\":10504:10510   */\n      dup3\n        /* \"#utility.yul\":10499:10502   */\n      dup2\n        /* \"#utility.yul\":10494:10497   */\n      dup4\n        /* \"#utility.yul\":10481:10511   */\n      calldatacopy\n        /* \"#utility.yul\":10566:10567   */\n      0x00\n        /* \"#utility.yul\":10557:10563   */\n      dup4\n        /* \"#utility.yul\":10552:10555   */\n      dup4\n        /* \"#utility.yul\":10548:10564   */\n      add\n        /* \"#utility.yul\":10541:10568   */\n      mstore\n        /* \"#utility.yul\":10420:10574   */\n      pop\n      pop\n      pop\n      jump\t// out\n        /* \"#utility.yul\":10580:10887   */\n    tag_161:\n        /* \"#utility.yul\":10648:10649   */\n      0x00\n        /* \"#utility.yul\":10658:10771   */\n    tag_243:\n        /* \"#utility.yul\":10672:10678   */\n      dup4\n        /* \"#utility.yul\":10669:10670   */\n      dup2\n        /* \"#utility.yul\":10666:10679   */\n      lt\n        /* \"#utility.yul\":10658:10771   */\n      iszero\n      tag_245\n      jumpi\n        /* \"#utility.yul\":10757:10758   */\n      dup1\n        /* \"#utility.yul\":10752:10755   */\n      dup3\n        /* \"#utility.yul\":10748:10759   */\n      add\n        /* \"#utility.yul\":10742:10760   */\n      mload\n        /* \"#utility.yul\":10738:10739   */\n      dup2\n        /* \"#utility.yul\":10733:10736   */\n      dup5\n        /* \"#utility.yul\":10729:10740   */\n      add\n        /* \"#utility.yul\":10722:10761   */\n      mstore\n        /* \"#utility.yul\":10694:10696   */\n      0x20\n        /* \"#utility.yul\":10691:10692   */\n      dup2\n        /* \"#utility.yul\":10687:10697   */\n      add\n        /* \"#utility.yul\":10682:10697   */\n      swap1\n      pop\n        /* \"#utility.yul\":10658:10771   */\n      jump(tag_243)\n    tag_245:\n        /* \"#utility.yul\":10789:10795   */\n      dup4\n        /* \"#utility.yul\":10786:10787   */\n      dup2\n        /* \"#utility.yul\":10783:10796   */\n      gt\n        /* \"#utility.yul\":10780:10881   */\n      iszero\n      tag_246\n      jumpi\n        /* \"#utility.yul\":10869:10870   */\n      0x00\n        /* \"#utility.yul\":10860:10866   */\n      dup5\n        /* \"#utility.yul\":10855:10858   */\n      dup5\n        /* \"#utility.yul\":10851:10867   */\n      add\n        /* \"#utility.yul\":10844:10871   */\n      mstore\n        /* \"#utility.yul\":10780:10881   */\n    tag_246:\n        /* \"#utility.yul\":10629:10887   */\n      pop\n        /* \"#utility.yul\":10580:10887   */\n      pop\n      pop\n      pop\n      jump\t// out\n        /* \"#utility.yul\":10893:11213   */\n    tag_39:\n        /* \"#utility.yul\":10937:10943   */\n      0x00\n        /* \"#utility.yul\":10974:10975   */\n      0x02\n        /* \"#utility.yul\":10968:10972   */\n      dup3\n        /* \"#utility.yul\":10964:10976   */\n      div\n        /* \"#utility.yul\":10954:10976   */\n      swap1\n      pop\n        /* \"#utility.yul\":11021:11022   */\n      0x01\n        /* \"#utility.yul\":11015:11019   */\n      dup3\n        /* \"#utility.yul\":11011:11023   */\n      and\n        /* \"#utility.yul\":11042:11060   */\n      dup1\n        /* \"#utility.yul\":11032:11113   */\n      tag_248\n      jumpi\n        /* \"#utility.yul\":11098:11102   */\n      0x7f\n        /* \"#utility.yul\":11090:11096   */\n      dup3\n        /* \"#utility.yul\":11086:11103   */\n      and\n        /* \"#utility.yul\":11076:11103   */\n      swap2\n      pop\n        /* \"#utility.yul\":11032:11113   */\n    tag_248:\n        /* \"#utility.yul\":11160:11162   */\n      0x20\n        /* \"#utility.yul\":11152:11158   */\n      dup3\n        /* \"#utility.yul\":11149:11163   */\n      lt\n        /* \"#utility.yul\":11129:11147   */\n      dup2\n        /* \"#utility.yul\":11126:11164   */\n      eq\n        /* \"#utility.yul\":11123:11207   */\n      iszero\n      tag_249\n      jumpi\n        /* \"#utility.yul\":11179:11197   */\n      tag_250\n      tag_251\n      jump\t// in\n    tag_250:\n        /* \"#utility.yul\":11123:11207   */\n    tag_249:\n        /* \"#utility.yul\":10944:11213   */\n      pop\n        /* \"#utility.yul\":10893:11213   */\n      swap2\n      swap1\n      pop\n      jump\t// out\n        /* \"#utility.yul\":11219:11399   */\n    tag_222:\n        /* \"#utility.yul\":11267:11344   */\n      0x4e487b7100000000000000000000000000000000000000000000000000000000\n        /* \"#utility.yul\":11264:11265   */\n      0x00\n        /* \"#utility.yul\":11257:11345   */\n      mstore\n        /* \"#utility.yul\":11364:11368   */\n      0x11\n        /* \"#utility.yul\":11361:11362   */\n      0x04\n        /* \"#utility.yul\":11354:11369   */\n      mstore\n        /* \"#utility.yul\":11388:11392   */\n      0x24\n        /* \"#utility.yul\":11385:11386   */\n      0x00\n        /* \"#utility.yul\":11378:11393   */\n      revert\n        /* \"#utility.yul\":11405:11585   */\n    tag_251:\n        /* \"#utility.yul\":11453:11530   */\n      0x4e487b7100000000000000000000000000000000000000000000000000000000\n        /* \"#utility.yul\":11450:11451   */\n      0x00\n        /* \"#utility.yul\":11443:11531   */\n      mstore\n        /* \"#utility.yul\":11550:11554   */\n      0x22\n        /* \"#utility.yul\":11547:11548   */\n      0x04\n        /* \"#utility.yul\":11540:11555   */\n      mstore\n        /* \"#utility.yul\":11574:11578   */\n      0x24\n        /* \"#utility.yul\":11571:11572   */\n      0x00\n        /* \"#utility.yul\":11564:11579   */\n      revert\n        /* \"#utility.yul\":11591:11771   */\n    tag_36:\n        /* \"#utility.yul\":11639:11716   */\n      0x4e487b7100000000000000000000000000000000000000000000000000000000\n        /* \"#utility.yul\":11636:11637   */\n      0x00\n        /* \"#utility.yul\":11629:11717   */\n      mstore\n        /* \"#utility.yul\":11736:11740   */\n      0x32\n        /* \"#utility.yul\":11733:11734   */\n      0x04\n        /* \"#utility.yul\":11726:11741   */\n      mstore\n        /* \"#utility.yul\":11760:11764   */\n      0x24\n        /* \"#utility.yul\":11757:11758   */\n      0x00\n        /* \"#utility.yul\":11750:11765   */\n      revert\n        /* \"#utility.yul\":11777:11894   */\n    tag_112:\n        /* \"#utility.yul\":11886:11887   */\n      0x00\n        /* \"#utility.yul\":11883:11884   */\n      dup1\n        /* \"#utility.yul\":11876:11888   */\n      revert\n        /* \"#utility.yul\":11900:12017   */\n    tag_109:\n        /* \"#utility.yul\":12009:12010   */\n      0x00\n        /* \"#utility.yul\":12006:12007   */\n      dup1\n        /* \"#utility.yul\":11999:12011   */\n      revert\n        /* \"#utility.yul\":12023:12140   */\n    tag_115:\n        /* \"#utility.yul\":12132:12133   */\n      0x00\n        /* \"#utility.yul\":12129:12130   */\n      dup1\n        /* \"#utility.yul\":12122:12134   */\n      revert\n        /* \"#utility.yul\":12146:12263   */\n    tag_132:\n        /* \"#utility.yul\":12255:12256   */\n      0x00\n        /* \"#utility.yul\":12252:12253   */\n      dup1\n        /* \"#utility.yul\":12245:12257   */\n      revert\n        /* \"#utility.yul\":12269:12386   */\n    tag_123:\n        /* \"#utility.yul\":12378:12379   */\n      0x00\n        /* \"#utility.yul\":12375:12376   */\n      dup1\n        /* \"#utility.yul\":12368:12380   */\n      revert\n        /* \"#utility.yul\":12392:12494   */\n    tag_154:\n        /* \"#utility.yul\":12433:12439   */\n      0x00\n        /* \"#utility.yul\":12484:12486   */\n      0x1f\n        /* \"#utility.yul\":12480:12487   */\n      not\n        /* \"#utility.yul\":12475:12477   */\n      0x1f\n        /* \"#utility.yul\":12468:12473   */\n      dup4\n        /* \"#utility.yul\":12464:12478   */\n      add\n        /* \"#utility.yul\":12460:12488   */\n      and\n        /* \"#utility.yul\":12450:12488   */\n      swap1\n      pop\n        /* \"#utility.yul\":12392:12494   */\n      swap2\n      swap1\n      pop\n      jump\t// out\n        /* \"#utility.yul\":12500:12675   */\n    tag_167:\n        /* \"#utility.yul\":12640:12667   */\n      0x496e636f7272656374207374617274696e672070726963652e00000000000000\n        /* \"#utility.yul\":12636:12637   */\n      0x00\n        /* \"#utility.yul\":12628:12634   */\n      dup3\n        /* \"#utility.yul\":12624:12638   */\n      add\n        /* \"#utility.yul\":12617:12668   */\n      mstore\n        /* \"#utility.yul\":12500:12675   */\n      pop\n      jump\t// out\n        /* \"#utility.yul\":12681:12850   */\n    tag_172:\n        /* \"#utility.yul\":12821:12842   */\n      0x41756374696f6e2069732073746f707065642e00000000000000000000000000\n        /* \"#utility.yul\":12817:12818   */\n      0x00\n        /* \"#utility.yul\":12809:12815   */\n      dup3\n        /* \"#utility.yul\":12805:12819   */\n      add\n        /* \"#utility.yul\":12798:12843   */\n      mstore\n        /* \"#utility.yul\":12681:12850   */\n      pop\n      jump\t// out\n        /* \"#utility.yul\":12856:13024   */\n    tag_177:\n        /* \"#utility.yul\":12996:13016   */\n      0x41756374696f6e2068617320656e6465642e0000000000000000000000000000\n        /* \"#utility.yul\":12992:12993   */\n      0x00\n        /* \"#utility.yul\":12984:12990   */\n      dup3\n        /* \"#utility.yul\":12980:12994   */\n      add\n        /* \"#utility.yul\":12973:13017   */\n      mstore\n        /* \"#utility.yul\":12856:13024   */\n      pop\n      jump\t// out\n        /* \"#utility.yul\":13030:13197   */\n    tag_182:\n        /* \"#utility.yul\":13170:13189   */\n      0x4e6f7420656e6f7567682066756e647321000000000000000000000000000000\n        /* \"#utility.yul\":13166:13167   */\n      0x00\n        /* \"#utility.yul\":13158:13164   */\n      dup3\n        /* \"#utility.yul\":13154:13168   */\n      add\n        /* \"#utility.yul\":13147:13190   */\n      mstore\n        /* \"#utility.yul\":13030:13197   */\n      pop\n      jump\t// out\n        /* \"#utility.yul\":13203:13325   */\n    tag_119:\n        /* \"#utility.yul\":13276:13300   */\n      tag_266\n        /* \"#utility.yul\":13294:13299   */\n      dup2\n        /* \"#utility.yul\":13276:13300   */\n      tag_186\n      jump\t// in\n    tag_266:\n        /* \"#utility.yul\":13269:13274   */\n      dup2\n        /* \"#utility.yul\":13266:13301   */\n      eq\n        /* \"#utility.yul\":13256:13319   */\n      tag_267\n      jumpi\n        /* \"#utility.yul\":13315:13316   */\n      0x00\n        /* \"#utility.yul\":13312:13313   */\n      dup1\n        /* \"#utility.yul\":13305:13317   */\n      revert\n        /* \"#utility.yul\":13256:13319   */\n    tag_267:\n        /* \"#utility.yul\":13203:13325   */\n      pop\n      jump\t// out\n\n    auxdata: 0xa264697066735822122007cc283575fb6ded9a819919041615f4e8fe14be0edbf97b1cccfbe31c51b63364736f6c63430008070033\n}\n",
				"bytecode": {
					"linkReferences": {},
					"object": "608060405234801561001057600080fd5b50336000806101000a81548173ffffffffffffffffffffffffffffffffffffffff021916908373ffffffffffffffffffffffffffffffffffffffff160217905550611109806100606000396000f3fe60806040526004361061004a5760003560e01c80634534cd9c1461004f578063571a26a01461008c5780638da5cb5b146100d0578063d96a094a146100fb578063e9835d1514610117575b600080fd5b34801561005b57600080fd5b5061007660048036038101906100719190610a27565b610140565b6040516100839190610d2a565b60405180910390f35b34801561009857600080fd5b506100b360048036038101906100ae9190610a27565b61032f565b6040516100c7989796959493929190610c25565b60405180910390f35b3480156100dc57600080fd5b506100e561043c565b6040516100f29190610c0a565b60405180910390f35b61011560048036038101906101109190610a27565b610460565b005b34801561012357600080fd5b5061013e60048036038101906101399190610a54565b6106d3565b005b6000806001838154811061015757610156610fbf565b5b9060005260206000209060080201604051806101000160405290816000820160009054906101000a900473ffffffffffffffffffffffffffffffffffffffff1673ffffffffffffffffffffffffffffffffffffffff1673ffffffffffffffffffffffffffffffffffffffff168152602001600182015481526020016002820154815260200160038201548152602001600482015481526020016005820154815260200160068201805461020990610f2f565b80601f016020809104026020016040519081016040528092919081815260200182805461023590610f2f565b80156102825780601f1061025757610100808354040283529160200191610282565b820191906000526020600020905b81548152906001019060200180831161026557829003601f168201915b505050505081526020016007820160009054906101000a900460ff16151515158152505090508060e00151156102ed576040517f08c379a00000000000000000000000000000000000000000000000000000000081526004016102e490610cca565b60405180910390fd5b60008160600151426102ff9190610e5f565b90506000818360a001516103139190610e05565b90508083602001516103259190610e5f565b9350505050919050565b6001818154811061033f57600080fd5b90600052602060002090600802016000915090508060000160009054906101000a900473ffffffffffffffffffffffffffffffffffffffff16908060010154908060020154908060030154908060040154908060050154908060060180546103a690610f2f565b80601f01602080910402602001604051908101604052809291908181526020018280546103d290610f2f565b801561041f5780601f106103f45761010080835404028352916020019161041f565b820191906000526020600020905b81548152906001019060200180831161040257829003601f168201915b5050505050908060070160009054906101000a900460ff16905088565b60008054906101000a900473ffffffffffffffffffffffffffffffffffffffff1681565b60006001828154811061047657610475610fbf565b5b9060005260206000209060080201604051806101000160405290816000820160009054906101000a900473ffffffffffffffffffffffffffffffffffffffff1673ffffffffffffffffffffffffffffffffffffffff1673ffffffffffffffffffffffffffffffffffffffff168152602001600182015481526020016002820154815260200160038201548152602001600482015481526020016005820154815260200160068201805461052890610f2f565b80601f016020809104026020016040519081016040528092919081815260200182805461055490610f2f565b80156105a15780601f10610576576101008083540402835291602001916105a1565b820191906000526020600020905b81548152906001019060200180831161058457829003601f168201915b505050505081526020016007820160009054906101000a900460ff16151515158152505090508060e001511561060c576040517f08c379a000000000000000000000000000000000000000000000000000000000815260040161060390610cca565b60405180910390fd5b80608001514210610652576040517f08c379a000000000000000000000000000000000000000000000000000000000815260040161064990610cea565b60405180910390fd5b600061065d83610140565b9050803410156106a2576040517f08c379a000000000000000000000000000000000000000000000000000000000815260040161069990610d0a565b60405180910390fd5b60018260e001901515908115158152505080826040018181525050600081346106cb9190610e5f565b905050505050565b60008082146106e257816106e7565b6202a3005b905081856106f59190610e05565b861015610737576040517f08c379a000000000000000000000000000000000000000000000000000000000815260040161072e90610caa565b60405180910390fd5b60006040518061010001604052803373ffffffffffffffffffffffffffffffffffffffff168152602001888152602001888152602001428152602001834261077f9190610daf565b815260200187815260200186868080601f016020809104026020016040519081016040528093929190818152602001838380828437600081840152601f19601f820116905080830192505050505050508152602001600015158152509050600181908060018154018082558091505060019003906000526020600020906008020160009091909190915060008201518160000160006101000a81548173ffffffffffffffffffffffffffffffffffffffff021916908373ffffffffffffffffffffffffffffffffffffffff1602179055506020820151816001015560408201518160020155606082015181600301556080820151816004015560a0820151816005015560c082015181600601908051906020019061089e929190610919565b5060e08201518160070160006101000a81548160ff02191690831515021790555050507f5bf34ed94988e5dcdc7d1faaa54eb1d3b55f45d5f11457e235afb21a8ebbe73c600180805490506108f39190610e5f565b86868a86604051610908959493929190610d45565b60405180910390a150505050505050565b82805461092590610f2f565b90600052602060002090601f016020900481019282610947576000855561098e565b82601f1061096057805160ff191683800117855561098e565b8280016001018555821561098e579182015b8281111561098d578251825591602001919060010190610972565b5b50905061099b919061099f565b5090565b5b808211156109b85760008160009055506001016109a0565b5090565b60008083601f8401126109d2576109d1610ff3565b5b8235905067ffffffffffffffff8111156109ef576109ee610fee565b5b602083019150836001820283011115610a0b57610a0a610ff8565b5b9250929050565b600081359050610a21816110bc565b92915050565b600060208284031215610a3d57610a3c611002565b5b6000610a4b84828501610a12565b91505092915050565b600080600080600060808688031215610a7057610a6f611002565b5b6000610a7e88828901610a12565b9550506020610a8f88828901610a12565b945050604086013567ffffffffffffffff811115610ab057610aaf610ffd565b5b610abc888289016109bc565b93509350506060610acf88828901610a12565b9150509295509295909350565b610ae581610ea5565b82525050565b610af481610e93565b82525050565b610b0381610eb7565b82525050565b6000610b158385610d9e565b9350610b22838584610eed565b610b2b83611007565b840190509392505050565b6000610b4182610d93565b610b4b8185610d9e565b9350610b5b818560208601610efc565b610b6481611007565b840191505092915050565b6000610b7c601983610d9e565b9150610b8782611018565b602082019050919050565b6000610b9f601383610d9e565b9150610baa82611041565b602082019050919050565b6000610bc2601283610d9e565b9150610bcd8261106a565b602082019050919050565b6000610be5601183610d9e565b9150610bf082611093565b602082019050919050565b610c0481610ee3565b82525050565b6000602082019050610c1f6000830184610aeb565b92915050565b600061010082019050610c3b600083018b610adc565b610c48602083018a610bfb565b610c556040830189610bfb565b610c626060830188610bfb565b610c6f6080830187610bfb565b610c7c60a0830186610bfb565b81810360c0830152610c8e8185610b36565b9050610c9d60e0830184610afa565b9998505050505050505050565b60006020820190508181036000830152610cc381610b6f565b9050919050565b60006020820190508181036000830152610ce381610b92565b9050919050565b60006020820190508181036000830152610d0381610bb5565b9050919050565b60006020820190508181036000830152610d2381610bd8565b9050919050565b6000602082019050610d3f6000830184610bfb565b92915050565b6000608082019050610d5a6000830188610bfb565b8181036020830152610d6d818688610b09565b9050610d7c6040830185610bfb565b610d896060830184610bfb565b9695505050505050565b600081519050919050565b600082825260208201905092915050565b6000610dba82610ee3565b9150610dc583610ee3565b9250827fffffffffffffffffffffffffffffffffffffffffffffffffffffffffffffffff03821115610dfa57610df9610f61565b5b828201905092915050565b6000610e1082610ee3565b9150610e1b83610ee3565b9250817fffffffffffffffffffffffffffffffffffffffffffffffffffffffffffffffff0483118215151615610e5457610e53610f61565b5b828202905092915050565b6000610e6a82610ee3565b9150610e7583610ee3565b925082821015610e8857610e87610f61565b5b828203905092915050565b6000610e9e82610ec3565b9050919050565b6000610eb082610ec3565b9050919050565b60008115159050919050565b600073ffffffffffffffffffffffffffffffffffffffff82169050919050565b6000819050919050565b82818337600083830152505050565b60005b83811015610f1a578082015181840152602081019050610eff565b83811115610f29576000848401525b50505050565b60006002820490506001821680610f4757607f821691505b60208210811415610f5b57610f5a610f90565b5b50919050565b7f4e487b7100000000000000000000000000000000000000000000000000000000600052601160045260246000fd5b7f4e487b7100000000000000000000000000000000000000000000000000000000600052602260045260246000fd5b7f4e487b7100000000000000000000000000000000000000000000000000000000600052603260045260246000fd5b600080fd5b600080fd5b600080fd5b600080fd5b600080fd5b6000601f19601f8301169050919050565b7f496e636f7272656374207374617274696e672070726963652e00000000000000600082015250565b7f41756374696f6e2069732073746f707065642e00000000000000000000000000600082015250565b7f41756374696f6e2068617320656e6465642e0000000000000000000000000000600082015250565b7f4e6f7420656e6f7567682066756e647321000000000000000000000000000000600082015250565b6110c581610ee3565b81146110d057600080fd5b5056fea264697066735822122007cc283575fb6ded9a819919041615f4e8fe14be0edbf97b1cccfbe31c51b63364736f6c63430008070033",
					"opcodes": "PUSH1 0x80 PUSH1 0x40 MSTORE CALLVALUE DUP1 ISZERO PUSH2 0x10 JUMPI PUSH1 0x0 DUP1 REVERT JUMPDEST POP CALLER PUSH1 0x0 DUP1 PUSH2 0x100 EXP DUP2 SLOAD DUP2 PUSH20 0xFFFFFFFFFFFFFFFFFFFFFFFFFFFFFFFFFFFFFFFF MUL NOT AND SWAP1 DUP4 PUSH20 0xFFFFFFFFFFFFFFFFFFFFFFFFFFFFFFFFFFFFFFFF AND MUL OR SWAP1 SSTORE POP PUSH2 0x1109 DUP1 PUSH2 0x60 PUSH1 0x0 CODECOPY PUSH1 0x0 RETURN INVALID PUSH1 0x80 PUSH1 0x40 MSTORE PUSH1 0x4 CALLDATASIZE LT PUSH2 0x4A JUMPI PUSH1 0x0 CALLDATALOAD PUSH1 0xE0 SHR DUP1 PUSH4 0x4534CD9C EQ PUSH2 0x4F JUMPI DUP1 PUSH4 0x571A26A0 EQ PUSH2 0x8C JUMPI DUP1 PUSH4 0x8DA5CB5B EQ PUSH2 0xD0 JUMPI DUP1 PUSH4 0xD96A094A EQ PUSH2 0xFB JUMPI DUP1 PUSH4 0xE9835D15 EQ PUSH2 0x117 JUMPI JUMPDEST PUSH1 0x0 DUP1 REVERT JUMPDEST CALLVALUE DUP1 ISZERO PUSH2 0x5B JUMPI PUSH1 0x0 DUP1 REVERT JUMPDEST POP PUSH2 0x76 PUSH1 0x4 DUP1 CALLDATASIZE SUB DUP2 ADD SWAP1 PUSH2 0x71 SWAP2 SWAP1 PUSH2 0xA27 JUMP JUMPDEST PUSH2 0x140 JUMP JUMPDEST PUSH1 0x40 MLOAD PUSH2 0x83 SWAP2 SWAP1 PUSH2 0xD2A JUMP JUMPDEST PUSH1 0x40 MLOAD DUP1 SWAP2 SUB SWAP1 RETURN JUMPDEST CALLVALUE DUP1 ISZERO PUSH2 0x98 JUMPI PUSH1 0x0 DUP1 REVERT JUMPDEST POP PUSH2 0xB3 PUSH1 0x4 DUP1 CALLDATASIZE SUB DUP2 ADD SWAP1 PUSH2 0xAE SWAP2 SWAP1 PUSH2 0xA27 JUMP JUMPDEST PUSH2 0x32F JUMP JUMPDEST PUSH1 0x40 MLOAD PUSH2 0xC7 SWAP9 SWAP8 SWAP7 SWAP6 SWAP5 SWAP4 SWAP3 SWAP2 SWAP1 PUSH2 0xC25 JUMP JUMPDEST PUSH1 0x40 MLOAD DUP1 SWAP2 SUB SWAP1 RETURN JUMPDEST CALLVALUE DUP1 ISZERO PUSH2 0xDC JUMPI PUSH1 0x0 DUP1 REVERT JUMPDEST POP PUSH2 0xE5 PUSH2 0x43C JUMP JUMPDEST PUSH1 0x40 MLOAD PUSH2 0xF2 SWAP2 SWAP1 PUSH2 0xC0A JUMP JUMPDEST PUSH1 0x40 MLOAD DUP1 SWAP2 SUB SWAP1 RETURN JUMPDEST PUSH2 0x115 PUSH1 0x4 DUP1 CALLDATASIZE SUB DUP2 ADD SWAP1 PUSH2 0x110 SWAP2 SWAP1 PUSH2 0xA27 JUMP JUMPDEST PUSH2 0x460 JUMP JUMPDEST STOP JUMPDEST CALLVALUE DUP1 ISZERO PUSH2 0x123 JUMPI PUSH1 0x0 DUP1 REVERT JUMPDEST POP PUSH2 0x13E PUSH1 0x4 DUP1 CALLDATASIZE SUB DUP2 ADD SWAP1 PUSH2 0x139 SWAP2 SWAP1 PUSH2 0xA54 JUMP JUMPDEST PUSH2 0x6D3 JUMP JUMPDEST STOP JUMPDEST PUSH1 0x0 DUP1 PUSH1 0x1 DUP4 DUP2 SLOAD DUP2 LT PUSH2 0x157 JUMPI PUSH2 0x156 PUSH2 0xFBF JUMP JUMPDEST JUMPDEST SWAP1 PUSH1 0x0 MSTORE PUSH1 0x20 PUSH1 0x0 KECCAK256 SWAP1 PUSH1 0x8 MUL ADD PUSH1 0x40 MLOAD DUP1 PUSH2 0x100 ADD PUSH1 0x40 MSTORE SWAP1 DUP2 PUSH1 0x0 DUP3 ADD PUSH1 0x0 SWAP1 SLOAD SWAP1 PUSH2 0x100 EXP SWAP1 DIV PUSH20 0xFFFFFFFFFFFFFFFFFFFFFFFFFFFFFFFFFFFFFFFF AND PUSH20 0xFFFFFFFFFFFFFFFFFFFFFFFFFFFFFFFFFFFFFFFF AND PUSH20 0xFFFFFFFFFFFFFFFFFFFFFFFFFFFFFFFFFFFFFFFF AND DUP2 MSTORE PUSH1 0x20 ADD PUSH1 0x1 DUP3 ADD SLOAD DUP2 MSTORE PUSH1 0x20 ADD PUSH1 0x2 DUP3 ADD SLOAD DUP2 MSTORE PUSH1 0x20 ADD PUSH1 0x3 DUP3 ADD SLOAD DUP2 MSTORE PUSH1 0x20 ADD PUSH1 0x4 DUP3 ADD SLOAD DUP2 MSTORE PUSH1 0x20 ADD PUSH1 0x5 DUP3 ADD SLOAD DUP2 MSTORE PUSH1 0x20 ADD PUSH1 0x6 DUP3 ADD DUP1 SLOAD PUSH2 0x209 SWAP1 PUSH2 0xF2F JUMP JUMPDEST DUP1 PUSH1 0x1F ADD PUSH1 0x20 DUP1 SWAP2 DIV MUL PUSH1 0x20 ADD PUSH1 0x40 MLOAD SWAP1 DUP2 ADD PUSH1 0x40 MSTORE DUP1 SWAP3 SWAP2 SWAP1 DUP2 DUP2 MSTORE PUSH1 0x20 ADD DUP3 DUP1 SLOAD PUSH2 0x235 SWAP1 PUSH2 0xF2F JUMP JUMPDEST DUP1 ISZERO PUSH2 0x282 JUMPI DUP1 PUSH1 0x1F LT PUSH2 0x257 JUMPI PUSH2 0x100 DUP1 DUP4 SLOAD DIV MUL DUP4 MSTORE SWAP2 PUSH1 0x20 ADD SWAP2 PUSH2 0x282 JUMP JUMPDEST DUP3 ADD SWAP2 SWAP1 PUSH1 0x0 MSTORE PUSH1 0x20 PUSH1 0x0 KECCAK256 SWAP1 JUMPDEST DUP2 SLOAD DUP2 MSTORE SWAP1 PUSH1 0x1 ADD SWAP1 PUSH1 0x20 ADD DUP1 DUP4 GT PUSH2 0x265 JUMPI DUP3 SWAP1 SUB PUSH1 0x1F AND DUP3 ADD SWAP2 JUMPDEST POP POP POP POP POP DUP2 MSTORE PUSH1 0x20 ADD PUSH1 0x7 DUP3 ADD PUSH1 0x0 SWAP1 SLOAD SWAP1 PUSH2 0x100 EXP SWAP1 DIV PUSH1 0xFF AND ISZERO ISZERO ISZERO ISZERO DUP2 MSTORE POP POP SWAP1 POP DUP1 PUSH1 0xE0 ADD MLOAD ISZERO PUSH2 0x2ED JUMPI PUSH1 0x40 MLOAD PUSH32 0x8C379A000000000000000000000000000000000000000000000000000000000 DUP2 MSTORE PUSH1 0x4 ADD PUSH2 0x2E4 SWAP1 PUSH2 0xCCA JUMP JUMPDEST PUSH1 0x40 MLOAD DUP1 SWAP2 SUB SWAP1 REVERT JUMPDEST PUSH1 0x0 DUP2 PUSH1 0x60 ADD MLOAD TIMESTAMP PUSH2 0x2FF SWAP2 SWAP1 PUSH2 0xE5F JUMP JUMPDEST SWAP1 POP PUSH1 0x0 DUP2 DUP4 PUSH1 0xA0 ADD MLOAD PUSH2 0x313 SWAP2 SWAP1 PUSH2 0xE05 JUMP JUMPDEST SWAP1 POP DUP1 DUP4 PUSH1 0x20 ADD MLOAD PUSH2 0x325 SWAP2 SWAP1 PUSH2 0xE5F JUMP JUMPDEST SWAP4 POP POP POP POP SWAP2 SWAP1 POP JUMP JUMPDEST PUSH1 0x1 DUP2 DUP2 SLOAD DUP2 LT PUSH2 0x33F JUMPI PUSH1 0x0 DUP1 REVERT JUMPDEST SWAP1 PUSH1 0x0 MSTORE PUSH1 0x20 PUSH1 0x0 KECCAK256 SWAP1 PUSH1 0x8 MUL ADD PUSH1 0x0 SWAP2 POP SWAP1 POP DUP1 PUSH1 0x0 ADD PUSH1 0x0 SWAP1 SLOAD SWAP1 PUSH2 0x100 EXP SWAP1 DIV PUSH20 0xFFFFFFFFFFFFFFFFFFFFFFFFFFFFFFFFFFFFFFFF AND SWAP1 DUP1 PUSH1 0x1 ADD SLOAD SWAP1 DUP1 PUSH1 0x2 ADD SLOAD SWAP1 DUP1 PUSH1 0x3 ADD SLOAD SWAP1 DUP1 PUSH1 0x4 ADD SLOAD SWAP1 DUP1 PUSH1 0x5 ADD SLOAD SWAP1 DUP1 PUSH1 0x6 ADD DUP1 SLOAD PUSH2 0x3A6 SWAP1 PUSH2 0xF2F JUMP JUMPDEST DUP1 PUSH1 0x1F ADD PUSH1 0x20 DUP1 SWAP2 DIV MUL PUSH1 0x20 ADD PUSH1 0x40 MLOAD SWAP1 DUP2 ADD PUSH1 0x40 MSTORE DUP1 SWAP3 SWAP2 SWAP1 DUP2 DUP2 MSTORE PUSH1 0x20 ADD DUP3 DUP1 SLOAD PUSH2 0x3D2 SWAP1 PUSH2 0xF2F JUMP JUMPDEST DUP1 ISZERO PUSH2 0x41F JUMPI DUP1 PUSH1 0x1F LT PUSH2 0x3F4 JUMPI PUSH2 0x100 DUP1 DUP4 SLOAD DIV MUL DUP4 MSTORE SWAP2 PUSH1 0x20 ADD SWAP2 PUSH2 0x41F JUMP JUMPDEST DUP3 ADD SWAP2 SWAP1 PUSH1 0x0 MSTORE PUSH1 0x20 PUSH1 0x0 KECCAK256 SWAP1 JUMPDEST DUP2 SLOAD DUP2 MSTORE SWAP1 PUSH1 0x1 ADD SWAP1 PUSH1 0x20 ADD DUP1 DUP4 GT PUSH2 0x402 JUMPI DUP3 SWAP1 SUB PUSH1 0x1F AND DUP3 ADD SWAP2 JUMPDEST POP POP POP POP POP SWAP1 DUP1 PUSH1 0x7 ADD PUSH1 0x0 SWAP1 SLOAD SWAP1 PUSH2 0x100 EXP SWAP1 DIV PUSH1 0xFF AND SWAP1 POP DUP9 JUMP JUMPDEST PUSH1 0x0 DUP1 SLOAD SWAP1 PUSH2 0x100 EXP SWAP1 DIV PUSH20 0xFFFFFFFFFFFFFFFFFFFFFFFFFFFFFFFFFFFFFFFF AND DUP2 JUMP JUMPDEST PUSH1 0x0 PUSH1 0x1 DUP3 DUP2 SLOAD DUP2 LT PUSH2 0x476 JUMPI PUSH2 0x475 PUSH2 0xFBF JUMP JUMPDEST JUMPDEST SWAP1 PUSH1 0x0 MSTORE PUSH1 0x20 PUSH1 0x0 KECCAK256 SWAP1 PUSH1 0x8 MUL ADD PUSH1 0x40 MLOAD DUP1 PUSH2 0x100 ADD PUSH1 0x40 MSTORE SWAP1 DUP2 PUSH1 0x0 DUP3 ADD PUSH1 0x0 SWAP1 SLOAD SWAP1 PUSH2 0x100 EXP SWAP1 DIV PUSH20 0xFFFFFFFFFFFFFFFFFFFFFFFFFFFFFFFFFFFFFFFF AND PUSH20 0xFFFFFFFFFFFFFFFFFFFFFFFFFFFFFFFFFFFFFFFF AND PUSH20 0xFFFFFFFFFFFFFFFFFFFFFFFFFFFFFFFFFFFFFFFF AND DUP2 MSTORE PUSH1 0x20 ADD PUSH1 0x1 DUP3 ADD SLOAD DUP2 MSTORE PUSH1 0x20 ADD PUSH1 0x2 DUP3 ADD SLOAD DUP2 MSTORE PUSH1 0x20 ADD PUSH1 0x3 DUP3 ADD SLOAD DUP2 MSTORE PUSH1 0x20 ADD PUSH1 0x4 DUP3 ADD SLOAD DUP2 MSTORE PUSH1 0x20 ADD PUSH1 0x5 DUP3 ADD SLOAD DUP2 MSTORE PUSH1 0x20 ADD PUSH1 0x6 DUP3 ADD DUP1 SLOAD PUSH2 0x528 SWAP1 PUSH2 0xF2F JUMP JUMPDEST DUP1 PUSH1 0x1F ADD PUSH1 0x20 DUP1 SWAP2 DIV MUL PUSH1 0x20 ADD PUSH1 0x40 MLOAD SWAP1 DUP2 ADD PUSH1 0x40 MSTORE DUP1 SWAP3 SWAP2 SWAP1 DUP2 DUP2 MSTORE PUSH1 0x20 ADD DUP3 DUP1 SLOAD PUSH2 0x554 SWAP1 PUSH2 0xF2F JUMP JUMPDEST DUP1 ISZERO PUSH2 0x5A1 JUMPI DUP1 PUSH1 0x1F LT PUSH2 0x576 JUMPI PUSH2 0x100 DUP1 DUP4 SLOAD DIV MUL DUP4 MSTORE SWAP2 PUSH1 0x20 ADD SWAP2 PUSH2 0x5A1 JUMP JUMPDEST DUP3 ADD SWAP2 SWAP1 PUSH1 0x0 MSTORE PUSH1 0x20 PUSH1 0x0 KECCAK256 SWAP1 JUMPDEST DUP2 SLOAD DUP2 MSTORE SWAP1 PUSH1 0x1 ADD SWAP1 PUSH1 0x20 ADD DUP1 DUP4 GT PUSH2 0x584 JUMPI DUP3 SWAP1 SUB PUSH1 0x1F AND DUP3 ADD SWAP2 JUMPDEST POP POP POP POP POP DUP2 MSTORE PUSH1 0x20 ADD PUSH1 0x7 DUP3 ADD PUSH1 0x0 SWAP1 SLOAD SWAP1 PUSH2 0x100 EXP SWAP1 DIV PUSH1 0xFF AND ISZERO ISZERO ISZERO ISZERO DUP2 MSTORE POP POP SWAP1 POP DUP1 PUSH1 0xE0 ADD MLOAD ISZERO PUSH2 0x60C JUMPI PUSH1 0x40 MLOAD PUSH32 0x8C379A000000000000000000000000000000000000000000000000000000000 DUP2 MSTORE PUSH1 0x4 ADD PUSH2 0x603 SWAP1 PUSH2 0xCCA JUMP JUMPDEST PUSH1 0x40 MLOAD DUP1 SWAP2 SUB SWAP1 REVERT JUMPDEST DUP1 PUSH1 0x80 ADD MLOAD TIMESTAMP LT PUSH2 0x652 JUMPI PUSH1 0x40 MLOAD PUSH32 0x8C379A000000000000000000000000000000000000000000000000000000000 DUP2 MSTORE PUSH1 0x4 ADD PUSH2 0x649 SWAP1 PUSH2 0xCEA JUMP JUMPDEST PUSH1 0x40 MLOAD DUP1 SWAP2 SUB SWAP1 REVERT JUMPDEST PUSH1 0x0 PUSH2 0x65D DUP4 PUSH2 0x140 JUMP JUMPDEST SWAP1 POP DUP1 CALLVALUE LT ISZERO PUSH2 0x6A2 JUMPI PUSH1 0x40 MLOAD PUSH32 0x8C379A000000000000000000000000000000000000000000000000000000000 DUP2 MSTORE PUSH1 0x4 ADD PUSH2 0x699 SWAP1 PUSH2 0xD0A JUMP JUMPDEST PUSH1 0x40 MLOAD DUP1 SWAP2 SUB SWAP1 REVERT JUMPDEST PUSH1 0x1 DUP3 PUSH1 0xE0 ADD SWAP1 ISZERO ISZERO SWAP1 DUP2 ISZERO ISZERO DUP2 MSTORE POP POP DUP1 DUP3 PUSH1 0x40 ADD DUP2 DUP2 MSTORE POP POP PUSH1 0x0 DUP2 CALLVALUE PUSH2 0x6CB SWAP2 SWAP1 PUSH2 0xE5F JUMP JUMPDEST SWAP1 POP POP POP POP POP JUMP JUMPDEST PUSH1 0x0 DUP1 DUP3 EQ PUSH2 0x6E2 JUMPI DUP2 PUSH2 0x6E7 JUMP JUMPDEST PUSH3 0x2A300 JUMPDEST SWAP1 POP DUP2 DUP6 PUSH2 0x6F5 SWAP2 SWAP1 PUSH2 0xE05 JUMP JUMPDEST DUP7 LT ISZERO PUSH2 0x737 JUMPI PUSH1 0x40 MLOAD PUSH32 0x8C379A000000000000000000000000000000000000000000000000000000000 DUP2 MSTORE PUSH1 0x4 ADD PUSH2 0x72E SWAP1 PUSH2 0xCAA JUMP JUMPDEST PUSH1 0x40 MLOAD DUP1 SWAP2 SUB SWAP1 REVERT JUMPDEST PUSH1 0x0 PUSH1 0x40 MLOAD DUP1 PUSH2 0x100 ADD PUSH1 0x40 MSTORE DUP1 CALLER PUSH20 0xFFFFFFFFFFFFFFFFFFFFFFFFFFFFFFFFFFFFFFFF AND DUP2 MSTORE PUSH1 0x20 ADD DUP9 DUP2 MSTORE PUSH1 0x20 ADD DUP9 DUP2 MSTORE PUSH1 0x20 ADD TIMESTAMP DUP2 MSTORE PUSH1 0x20 ADD DUP4 TIMESTAMP PUSH2 0x77F SWAP2 SWAP1 PUSH2 0xDAF JUMP JUMPDEST DUP2 MSTORE PUSH1 0x20 ADD DUP8 DUP2 MSTORE PUSH1 0x20 ADD DUP7 DUP7 DUP1 DUP1 PUSH1 0x1F ADD PUSH1 0x20 DUP1 SWAP2 DIV MUL PUSH1 0x20 ADD PUSH1 0x40 MLOAD SWAP1 DUP2 ADD PUSH1 0x40 MSTORE DUP1 SWAP4 SWAP3 SWAP2 SWAP1 DUP2 DUP2 MSTORE PUSH1 0x20 ADD DUP4 DUP4 DUP1 DUP3 DUP5 CALLDATACOPY PUSH1 0x0 DUP2 DUP5 ADD MSTORE PUSH1 0x1F NOT PUSH1 0x1F DUP3 ADD AND SWAP1 POP DUP1 DUP4 ADD SWAP3 POP POP POP POP POP POP POP DUP2 MSTORE PUSH1 0x20 ADD PUSH1 0x0 ISZERO ISZERO DUP2 MSTORE POP SWAP1 POP PUSH1 0x1 DUP2 SWAP1 DUP1 PUSH1 0x1 DUP2 SLOAD ADD DUP1 DUP3 SSTORE DUP1 SWAP2 POP POP PUSH1 0x1 SWAP1 SUB SWAP1 PUSH1 0x0 MSTORE PUSH1 0x20 PUSH1 0x0 KECCAK256 SWAP1 PUSH1 0x8 MUL ADD PUSH1 0x0 SWAP1 SWAP2 SWAP1 SWAP2 SWAP1 SWAP2 POP PUSH1 0x0 DUP3 ADD MLOAD DUP2 PUSH1 0x0 ADD PUSH1 0x0 PUSH2 0x100 EXP DUP2 SLOAD DUP2 PUSH20 0xFFFFFFFFFFFFFFFFFFFFFFFFFFFFFFFFFFFFFFFF MUL NOT AND SWAP1 DUP4 PUSH20 0xFFFFFFFFFFFFFFFFFFFFFFFFFFFFFFFFFFFFFFFF AND MUL OR SWAP1 SSTORE POP PUSH1 0x20 DUP3 ADD MLOAD DUP2 PUSH1 0x1 ADD SSTORE PUSH1 0x40 DUP3 ADD MLOAD DUP2 PUSH1 0x2 ADD SSTORE PUSH1 0x60 DUP3 ADD MLOAD DUP2 PUSH1 0x3 ADD SSTORE PUSH1 0x80 DUP3 ADD MLOAD DUP2 PUSH1 0x4 ADD SSTORE PUSH1 0xA0 DUP3 ADD MLOAD DUP2 PUSH1 0x5 ADD SSTORE PUSH1 0xC0 DUP3 ADD MLOAD DUP2 PUSH1 0x6 ADD SWAP1 DUP1 MLOAD SWAP1 PUSH1 0x20 ADD SWAP1 PUSH2 0x89E SWAP3 SWAP2 SWAP1 PUSH2 0x919 JUMP JUMPDEST POP PUSH1 0xE0 DUP3 ADD MLOAD DUP2 PUSH1 0x7 ADD PUSH1 0x0 PUSH2 0x100 EXP DUP2 SLOAD DUP2 PUSH1 0xFF MUL NOT AND SWAP1 DUP4 ISZERO ISZERO MUL OR SWAP1 SSTORE POP POP POP PUSH32 0x5BF34ED94988E5DCDC7D1FAAA54EB1D3B55F45D5F11457E235AFB21A8EBBE73C PUSH1 0x1 DUP1 DUP1 SLOAD SWAP1 POP PUSH2 0x8F3 SWAP2 SWAP1 PUSH2 0xE5F JUMP JUMPDEST DUP7 DUP7 DUP11 DUP7 PUSH1 0x40 MLOAD PUSH2 0x908 SWAP6 SWAP5 SWAP4 SWAP3 SWAP2 SWAP1 PUSH2 0xD45 JUMP JUMPDEST PUSH1 0x40 MLOAD DUP1 SWAP2 SUB SWAP1 LOG1 POP POP POP POP POP POP POP JUMP JUMPDEST DUP3 DUP1 SLOAD PUSH2 0x925 SWAP1 PUSH2 0xF2F JUMP JUMPDEST SWAP1 PUSH1 0x0 MSTORE PUSH1 0x20 PUSH1 0x0 KECCAK256 SWAP1 PUSH1 0x1F ADD PUSH1 0x20 SWAP1 DIV DUP2 ADD SWAP3 DUP3 PUSH2 0x947 JUMPI PUSH1 0x0 DUP6 SSTORE PUSH2 0x98E JUMP JUMPDEST DUP3 PUSH1 0x1F LT PUSH2 0x960 JUMPI DUP1 MLOAD PUSH1 0xFF NOT AND DUP4 DUP1 ADD OR DUP6 SSTORE PUSH2 0x98E JUMP JUMPDEST DUP3 DUP1 ADD PUSH1 0x1 ADD DUP6 SSTORE DUP3 ISZERO PUSH2 0x98E JUMPI SWAP2 DUP3 ADD JUMPDEST DUP3 DUP2 GT ISZERO PUSH2 0x98D JUMPI DUP3 MLOAD DUP3 SSTORE SWAP2 PUSH1 0x20 ADD SWAP2 SWAP1 PUSH1 0x1 ADD SWAP1 PUSH2 0x972 JUMP JUMPDEST JUMPDEST POP SWAP1 POP PUSH2 0x99B SWAP2 SWAP1 PUSH2 0x99F JUMP JUMPDEST POP SWAP1 JUMP JUMPDEST JUMPDEST DUP1 DUP3 GT ISZERO PUSH2 0x9B8 JUMPI PUSH1 0x0 DUP2 PUSH1 0x0 SWAP1 SSTORE POP PUSH1 0x1 ADD PUSH2 0x9A0 JUMP JUMPDEST POP SWAP1 JUMP JUMPDEST PUSH1 0x0 DUP1 DUP4 PUSH1 0x1F DUP5 ADD SLT PUSH2 0x9D2 JUMPI PUSH2 0x9D1 PUSH2 0xFF3 JUMP JUMPDEST JUMPDEST DUP3 CALLDATALOAD SWAP1 POP PUSH8 0xFFFFFFFFFFFFFFFF DUP2 GT ISZERO PUSH2 0x9EF JUMPI PUSH2 0x9EE PUSH2 0xFEE JUMP JUMPDEST JUMPDEST PUSH1 0x20 DUP4 ADD SWAP2 POP DUP4 PUSH1 0x1 DUP3 MUL DUP4 ADD GT ISZERO PUSH2 0xA0B JUMPI PUSH2 0xA0A PUSH2 0xFF8 JUMP JUMPDEST JUMPDEST SWAP3 POP SWAP3 SWAP1 POP JUMP JUMPDEST PUSH1 0x0 DUP2 CALLDATALOAD SWAP1 POP PUSH2 0xA21 DUP2 PUSH2 0x10BC JUMP JUMPDEST SWAP3 SWAP2 POP POP JUMP JUMPDEST PUSH1 0x0 PUSH1 0x20 DUP3 DUP5 SUB SLT ISZERO PUSH2 0xA3D JUMPI PUSH2 0xA3C PUSH2 0x1002 JUMP JUMPDEST JUMPDEST PUSH1 0x0 PUSH2 0xA4B DUP5 DUP3 DUP6 ADD PUSH2 0xA12 JUMP JUMPDEST SWAP2 POP POP SWAP3 SWAP2 POP POP JUMP JUMPDEST PUSH1 0x0 DUP1 PUSH1 0x0 DUP1 PUSH1 0x0 PUSH1 0x80 DUP7 DUP9 SUB SLT ISZERO PUSH2 0xA70 JUMPI PUSH2 0xA6F PUSH2 0x1002 JUMP JUMPDEST JUMPDEST PUSH1 0x0 PUSH2 0xA7E DUP9 DUP3 DUP10 ADD PUSH2 0xA12 JUMP JUMPDEST SWAP6 POP POP PUSH1 0x20 PUSH2 0xA8F DUP9 DUP3 DUP10 ADD PUSH2 0xA12 JUMP JUMPDEST SWAP5 POP POP PUSH1 0x40 DUP7 ADD CALLDATALOAD PUSH8 0xFFFFFFFFFFFFFFFF DUP2 GT ISZERO PUSH2 0xAB0 JUMPI PUSH2 0xAAF PUSH2 0xFFD JUMP JUMPDEST JUMPDEST PUSH2 0xABC DUP9 DUP3 DUP10 ADD PUSH2 0x9BC JUMP JUMPDEST SWAP4 POP SWAP4 POP POP PUSH1 0x60 PUSH2 0xACF DUP9 DUP3 DUP10 ADD PUSH2 0xA12 JUMP JUMPDEST SWAP2 POP POP SWAP3 SWAP6 POP SWAP3 SWAP6 SWAP1 SWAP4 POP JUMP JUMPDEST PUSH2 0xAE5 DUP2 PUSH2 0xEA5 JUMP JUMPDEST DUP3 MSTORE POP POP JUMP JUMPDEST PUSH2 0xAF4 DUP2 PUSH2 0xE93 JUMP JUMPDEST DUP3 MSTORE POP POP JUMP JUMPDEST PUSH2 0xB03 DUP2 PUSH2 0xEB7 JUMP JUMPDEST DUP3 MSTORE POP POP JUMP JUMPDEST PUSH1 0x0 PUSH2 0xB15 DUP4 DUP6 PUSH2 0xD9E JUMP JUMPDEST SWAP4 POP PUSH2 0xB22 DUP4 DUP6 DUP5 PUSH2 0xEED JUMP JUMPDEST PUSH2 0xB2B DUP4 PUSH2 0x1007 JUMP JUMPDEST DUP5 ADD SWAP1 POP SWAP4 SWAP3 POP POP POP JUMP JUMPDEST PUSH1 0x0 PUSH2 0xB41 DUP3 PUSH2 0xD93 JUMP JUMPDEST PUSH2 0xB4B DUP2 DUP6 PUSH2 0xD9E JUMP JUMPDEST SWAP4 POP PUSH2 0xB5B DUP2 DUP6 PUSH1 0x20 DUP7 ADD PUSH2 0xEFC JUMP JUMPDEST PUSH2 0xB64 DUP2 PUSH2 0x1007 JUMP JUMPDEST DUP5 ADD SWAP2 POP POP SWAP3 SWAP2 POP POP JUMP JUMPDEST PUSH1 0x0 PUSH2 0xB7C PUSH1 0x19 DUP4 PUSH2 0xD9E JUMP JUMPDEST SWAP2 POP PUSH2 0xB87 DUP3 PUSH2 0x1018 JUMP JUMPDEST PUSH1 0x20 DUP3 ADD SWAP1 POP SWAP2 SWAP1 POP JUMP JUMPDEST PUSH1 0x0 PUSH2 0xB9F PUSH1 0x13 DUP4 PUSH2 0xD9E JUMP JUMPDEST SWAP2 POP PUSH2 0xBAA DUP3 PUSH2 0x1041 JUMP JUMPDEST PUSH1 0x20 DUP3 ADD SWAP1 POP SWAP2 SWAP1 POP JUMP JUMPDEST PUSH1 0x0 PUSH2 0xBC2 PUSH1 0x12 DUP4 PUSH2 0xD9E JUMP JUMPDEST SWAP2 POP PUSH2 0xBCD DUP3 PUSH2 0x106A JUMP JUMPDEST PUSH1 0x20 DUP3 ADD SWAP1 POP SWAP2 SWAP1 POP JUMP JUMPDEST PUSH1 0x0 PUSH2 0xBE5 PUSH1 0x11 DUP4 PUSH2 0xD9E JUMP JUMPDEST SWAP2 POP PUSH2 0xBF0 DUP3 PUSH2 0x1093 JUMP JUMPDEST PUSH1 0x20 DUP3 ADD SWAP1 POP SWAP2 SWAP1 POP JUMP JUMPDEST PUSH2 0xC04 DUP2 PUSH2 0xEE3 JUMP JUMPDEST DUP3 MSTORE POP POP JUMP JUMPDEST PUSH1 0x0 PUSH1 0x20 DUP3 ADD SWAP1 POP PUSH2 0xC1F PUSH1 0x0 DUP4 ADD DUP5 PUSH2 0xAEB JUMP JUMPDEST SWAP3 SWAP2 POP POP JUMP JUMPDEST PUSH1 0x0 PUSH2 0x100 DUP3 ADD SWAP1 POP PUSH2 0xC3B PUSH1 0x0 DUP4 ADD DUP12 PUSH2 0xADC JUMP JUMPDEST PUSH2 0xC48 PUSH1 0x20 DUP4 ADD DUP11 PUSH2 0xBFB JUMP JUMPDEST PUSH2 0xC55 PUSH1 0x40 DUP4 ADD DUP10 PUSH2 0xBFB JUMP JUMPDEST PUSH2 0xC62 PUSH1 0x60 DUP4 ADD DUP9 PUSH2 0xBFB JUMP JUMPDEST PUSH2 0xC6F PUSH1 0x80 DUP4 ADD DUP8 PUSH2 0xBFB JUMP JUMPDEST PUSH2 0xC7C PUSH1 0xA0 DUP4 ADD DUP7 PUSH2 0xBFB JUMP JUMPDEST DUP2 DUP2 SUB PUSH1 0xC0 DUP4 ADD MSTORE PUSH2 0xC8E DUP2 DUP6 PUSH2 0xB36 JUMP JUMPDEST SWAP1 POP PUSH2 0xC9D PUSH1 0xE0 DUP4 ADD DUP5 PUSH2 0xAFA JUMP JUMPDEST SWAP10 SWAP9 POP POP POP POP POP POP POP POP POP JUMP JUMPDEST PUSH1 0x0 PUSH1 0x20 DUP3 ADD SWAP1 POP DUP2 DUP2 SUB PUSH1 0x0 DUP4 ADD MSTORE PUSH2 0xCC3 DUP2 PUSH2 0xB6F JUMP JUMPDEST SWAP1 POP SWAP2 SWAP1 POP JUMP JUMPDEST PUSH1 0x0 PUSH1 0x20 DUP3 ADD SWAP1 POP DUP2 DUP2 SUB PUSH1 0x0 DUP4 ADD MSTORE PUSH2 0xCE3 DUP2 PUSH2 0xB92 JUMP JUMPDEST SWAP1 POP SWAP2 SWAP1 POP JUMP JUMPDEST PUSH1 0x0 PUSH1 0x20 DUP3 ADD SWAP1 POP DUP2 DUP2 SUB PUSH1 0x0 DUP4 ADD MSTORE PUSH2 0xD03 DUP2 PUSH2 0xBB5 JUMP JUMPDEST SWAP1 POP SWAP2 SWAP1 POP JUMP JUMPDEST PUSH1 0x0 PUSH1 0x20 DUP3 ADD SWAP1 POP DUP2 DUP2 SUB PUSH1 0x0 DUP4 ADD MSTORE PUSH2 0xD23 DUP2 PUSH2 0xBD8 JUMP JUMPDEST SWAP1 POP SWAP2 SWAP1 POP JUMP JUMPDEST PUSH1 0x0 PUSH1 0x20 DUP3 ADD SWAP1 POP PUSH2 0xD3F PUSH1 0x0 DUP4 ADD DUP5 PUSH2 0xBFB JUMP JUMPDEST SWAP3 SWAP2 POP POP JUMP JUMPDEST PUSH1 0x0 PUSH1 0x80 DUP3 ADD SWAP1 POP PUSH2 0xD5A PUSH1 0x0 DUP4 ADD DUP9 PUSH2 0xBFB JUMP JUMPDEST DUP2 DUP2 SUB PUSH1 0x20 DUP4 ADD MSTORE PUSH2 0xD6D DUP2 DUP7 DUP9 PUSH2 0xB09 JUMP JUMPDEST SWAP1 POP PUSH2 0xD7C PUSH1 0x40 DUP4 ADD DUP6 PUSH2 0xBFB JUMP JUMPDEST PUSH2 0xD89 PUSH1 0x60 DUP4 ADD DUP5 PUSH2 0xBFB JUMP JUMPDEST SWAP7 SWAP6 POP POP POP POP POP POP JUMP JUMPDEST PUSH1 0x0 DUP2 MLOAD SWAP1 POP SWAP2 SWAP1 POP JUMP JUMPDEST PUSH1 0x0 DUP3 DUP3 MSTORE PUSH1 0x20 DUP3 ADD SWAP1 POP SWAP3 SWAP2 POP POP JUMP JUMPDEST PUSH1 0x0 PUSH2 0xDBA DUP3 PUSH2 0xEE3 JUMP JUMPDEST SWAP2 POP PUSH2 0xDC5 DUP4 PUSH2 0xEE3 JUMP JUMPDEST SWAP3 POP DUP3 PUSH32 0xFFFFFFFFFFFFFFFFFFFFFFFFFFFFFFFFFFFFFFFFFFFFFFFFFFFFFFFFFFFFFFFF SUB DUP3 GT ISZERO PUSH2 0xDFA JUMPI PUSH2 0xDF9 PUSH2 0xF61 JUMP JUMPDEST JUMPDEST DUP3 DUP3 ADD SWAP1 POP SWAP3 SWAP2 POP POP JUMP JUMPDEST PUSH1 0x0 PUSH2 0xE10 DUP3 PUSH2 0xEE3 JUMP JUMPDEST SWAP2 POP PUSH2 0xE1B DUP4 PUSH2 0xEE3 JUMP JUMPDEST SWAP3 POP DUP2 PUSH32 0xFFFFFFFFFFFFFFFFFFFFFFFFFFFFFFFFFFFFFFFFFFFFFFFFFFFFFFFFFFFFFFFF DIV DUP4 GT DUP3 ISZERO ISZERO AND ISZERO PUSH2 0xE54 JUMPI PUSH2 0xE53 PUSH2 0xF61 JUMP JUMPDEST JUMPDEST DUP3 DUP3 MUL SWAP1 POP SWAP3 SWAP2 POP POP JUMP JUMPDEST PUSH1 0x0 PUSH2 0xE6A DUP3 PUSH2 0xEE3 JUMP JUMPDEST SWAP2 POP PUSH2 0xE75 DUP4 PUSH2 0xEE3 JUMP JUMPDEST SWAP3 POP DUP3 DUP3 LT ISZERO PUSH2 0xE88 JUMPI PUSH2 0xE87 PUSH2 0xF61 JUMP JUMPDEST JUMPDEST DUP3 DUP3 SUB SWAP1 POP SWAP3 SWAP2 POP POP JUMP JUMPDEST PUSH1 0x0 PUSH2 0xE9E DUP3 PUSH2 0xEC3 JUMP JUMPDEST SWAP1 POP SWAP2 SWAP1 POP JUMP JUMPDEST PUSH1 0x0 PUSH2 0xEB0 DUP3 PUSH2 0xEC3 JUMP JUMPDEST SWAP1 POP SWAP2 SWAP1 POP JUMP JUMPDEST PUSH1 0x0 DUP2 ISZERO ISZERO SWAP1 POP SWAP2 SWAP1 POP JUMP JUMPDEST PUSH1 0x0 PUSH20 0xFFFFFFFFFFFFFFFFFFFFFFFFFFFFFFFFFFFFFFFF DUP3 AND SWAP1 POP SWAP2 SWAP1 POP JUMP JUMPDEST PUSH1 0x0 DUP2 SWAP1 POP SWAP2 SWAP1 POP JUMP JUMPDEST DUP3 DUP2 DUP4 CALLDATACOPY PUSH1 0x0 DUP4 DUP4 ADD MSTORE POP POP POP JUMP JUMPDEST PUSH1 0x0 JUMPDEST DUP4 DUP2 LT ISZERO PUSH2 0xF1A JUMPI DUP1 DUP3 ADD MLOAD DUP2 DUP5 ADD MSTORE PUSH1 0x20 DUP2 ADD SWAP1 POP PUSH2 0xEFF JUMP JUMPDEST DUP4 DUP2 GT ISZERO PUSH2 0xF29 JUMPI PUSH1 0x0 DUP5 DUP5 ADD MSTORE JUMPDEST POP POP POP POP JUMP JUMPDEST PUSH1 0x0 PUSH1 0x2 DUP3 DIV SWAP1 POP PUSH1 0x1 DUP3 AND DUP1 PUSH2 0xF47 JUMPI PUSH1 0x7F DUP3 AND SWAP2 POP JUMPDEST PUSH1 0x20 DUP3 LT DUP2 EQ ISZERO PUSH2 0xF5B JUMPI PUSH2 0xF5A PUSH2 0xF90 JUMP JUMPDEST JUMPDEST POP SWAP2 SWAP1 POP JUMP JUMPDEST PUSH32 0x4E487B7100000000000000000000000000000000000000000000000000000000 PUSH1 0x0 MSTORE PUSH1 0x11 PUSH1 0x4 MSTORE PUSH1 0x24 PUSH1 0x0 REVERT JUMPDEST PUSH32 0x4E487B7100000000000000000000000000000000000000000000000000000000 PUSH1 0x0 MSTORE PUSH1 0x22 PUSH1 0x4 MSTORE PUSH1 0x24 PUSH1 0x0 REVERT JUMPDEST PUSH32 0x4E487B7100000000000000000000000000000000000000000000000000000000 PUSH1 0x0 MSTORE PUSH1 0x32 PUSH1 0x4 MSTORE PUSH1 0x24 PUSH1 0x0 REVERT JUMPDEST PUSH1 0x0 DUP1 REVERT JUMPDEST PUSH1 0x0 DUP1 REVERT JUMPDEST PUSH1 0x0 DUP1 REVERT JUMPDEST PUSH1 0x0 DUP1 REVERT JUMPDEST PUSH1 0x0 DUP1 REVERT JUMPDEST PUSH1 0x0 PUSH1 0x1F NOT PUSH1 0x1F DUP4 ADD AND SWAP1 POP SWAP2 SWAP1 POP JUMP JUMPDEST PUSH32 0x496E636F7272656374207374617274696E672070726963652E00000000000000 PUSH1 0x0 DUP3 ADD MSTORE POP JUMP JUMPDEST PUSH32 0x41756374696F6E2069732073746F707065642E00000000000000000000000000 PUSH1 0x0 DUP3 ADD MSTORE POP JUMP JUMPDEST PUSH32 0x41756374696F6E2068617320656E6465642E0000000000000000000000000000 PUSH1 0x0 DUP3 ADD MSTORE POP JUMP JUMPDEST PUSH32 0x4E6F7420656E6F7567682066756E647321000000000000000000000000000000 PUSH1 0x0 DUP3 ADD MSTORE POP JUMP JUMPDEST PUSH2 0x10C5 DUP2 PUSH2 0xEE3 JUMP JUMPDEST DUP2 EQ PUSH2 0x10D0 JUMPI PUSH1 0x0 DUP1 REVERT JUMPDEST POP JUMP INVALID LOG2 PUSH5 0x6970667358 0x22 SLT KECCAK256 SMOD 0xCC 0x28 CALLDATALOAD PUSH22 0xFB6DED9A819919041615F4E8FE14BE0EDBF97B1CCCFB 0xE3 SHR MLOAD 0xB6 CALLER PUSH5 0x736F6C6343 STOP ADDMOD SMOD STOP CALLER "
				},
				"gasEstimates": {
					"creation": {
						"codeDepositCost": "872200",
						"executionCost": "25175",
						"totalCost": "897375"
					},
					"external": {
						"auctions(uint256)": "infinite",
						"buy(uint256)": "infinite",
						"createAuction(uint256,uint256,string,uint256)": "infinite",
						"getPriceFor(uint256)": "infinite",
						"owner()": "2533"
					}
				},
				"methodIdentifiers": {
					"auctions(uint256)": "571a26a0",
					"buy(uint256)": "d96a094a",
					"createAuction(uint256,uint256,string,uint256)": "e9835d15",
					"getPriceFor(uint256)": "4534cd9c",
					"owner()": "8da5cb5b"
				}
			},
			"storageLayout": {
				"storage": [
					{
						"astId": 3,
						"contract": "contracts/Lesson_5.sol:AucEngine",
						"label": "owner",
						"offset": 0,
						"slot": "0",
						"type": "t_address"
					},
					{
						"astId": 30,
						"contract": "contracts/Lesson_5.sol:AucEngine",
						"label": "auctions",
						"offset": 0,
						"slot": "1",
						"type": "t_array(t_struct(Auction)26_storage)dyn_storage"
					}
				],
				"types": {
					"t_address": {
						"encoding": "inplace",
						"label": "address",
						"numberOfBytes": "20"
					},
					"t_address_payable": {
						"encoding": "inplace",
						"label": "address payable",
						"numberOfBytes": "20"
					},
					"t_array(t_struct(Auction)26_storage)dyn_storage": {
						"base": "t_struct(Auction)26_storage",
						"encoding": "dynamic_array",
						"label": "struct AucEngine.Auction[]",
						"numberOfBytes": "32"
					},
					"t_bool": {
						"encoding": "inplace",
						"label": "bool",
						"numberOfBytes": "1"
					},
					"t_string_storage": {
						"encoding": "bytes",
						"label": "string",
						"numberOfBytes": "32"
					},
					"t_struct(Auction)26_storage": {
						"encoding": "inplace",
						"label": "struct AucEngine.Auction",
						"members": [
							{
								"astId": 11,
								"contract": "contracts/Lesson_5.sol:AucEngine",
								"label": "seller",
								"offset": 0,
								"slot": "0",
								"type": "t_address_payable"
							},
							{
								"astId": 13,
								"contract": "contracts/Lesson_5.sol:AucEngine",
								"label": "startingPrice",
								"offset": 0,
								"slot": "1",
								"type": "t_uint256"
							},
							{
								"astId": 15,
								"contract": "contracts/Lesson_5.sol:AucEngine",
								"label": "finalPrice",
								"offset": 0,
								"slot": "2",
								"type": "t_uint256"
							},
							{
								"astId": 17,
								"contract": "contracts/Lesson_5.sol:AucEngine",
								"label": "startsAt",
								"offset": 0,
								"slot": "3",
								"type": "t_uint256"
							},
							{
								"astId": 19,
								"contract": "contracts/Lesson_5.sol:AucEngine",
								"label": "endsAt",
								"offset": 0,
								"slot": "4",
								"type": "t_uint256"
							},
							{
								"astId": 21,
								"contract": "contracts/Lesson_5.sol:AucEngine",
								"label": "discountRate",
								"offset": 0,
								"slot": "5",
								"type": "t_uint256"
							},
							{
								"astId": 23,
								"contract": "contracts/Lesson_5.sol:AucEngine",
								"label": "item",
								"offset": 0,
								"slot": "6",
								"type": "t_string_storage"
							},
							{
								"astId": 25,
								"contract": "contracts/Lesson_5.sol:AucEngine",
								"label": "stopped",
								"offset": 0,
								"slot": "7",
								"type": "t_bool"
							}
						],
						"numberOfBytes": "256"
					},
					"t_uint256": {
						"encoding": "inplace",
						"label": "uint256",
						"numberOfBytes": "32"
					}
				}
			},
			"userdoc": {
				"kind": "user",
				"methods": {},
				"version": 1
			}
		}
	}
}