{
	"contracts/Lesson_5.sol": {
		"AucEngine": {
			"abi": [
				{
					"inputs": [],
					"stateMutability": "nonpayable",
					"type": "constructor"
				},
				{
					"anonymous": false,
					"inputs": [
						{
							"indexed": false,
							"internalType": "uint256",
							"name": "index",
							"type": "uint256"
						},
						{
							"indexed": false,
							"internalType": "string",
							"name": "itemName",
							"type": "string"
						},
						{
							"indexed": false,
							"internalType": "uint256",
							"name": "startingprice",
							"type": "uint256"
						},
						{
							"indexed": false,
							"internalType": "uint256",
							"name": "duration",
							"type": "uint256"
						}
					],
					"name": "AuctionCreated",
					"type": "event"
				},
				{
					"inputs": [
						{
							"internalType": "uint256",
							"name": "",
							"type": "uint256"
						}
					],
					"name": "auctions",
					"outputs": [
						{
							"internalType": "address payable",
							"name": "seller",
							"type": "address"
						},
						{
							"internalType": "uint256",
							"name": "startingPrice",
							"type": "uint256"
						},
						{
							"internalType": "uint256",
							"name": "finalPrice",
							"type": "uint256"
						},
						{
							"internalType": "uint256",
							"name": "startsAt",
							"type": "uint256"
						},
						{
							"internalType": "uint256",
							"name": "endsAt",
							"type": "uint256"
						},
						{
							"internalType": "uint256",
							"name": "discountRate",
							"type": "uint256"
						},
						{
							"internalType": "string",
							"name": "item",
							"type": "string"
						},
						{
							"internalType": "bool",
							"name": "stopped",
							"type": "bool"
						}
					],
					"stateMutability": "view",
					"type": "function"
				},
				{
					"inputs": [
						{
							"internalType": "uint256",
							"name": "_startingPrice",
							"type": "uint256"
						},
						{
							"internalType": "uint256",
							"name": "_discountRate",
							"type": "uint256"
						},
						{
							"internalType": "string",
							"name": "_item",
							"type": "string"
						},
						{
							"internalType": "uint256",
							"name": "_duration",
							"type": "uint256"
						}
					],
					"name": "createAuction",
					"outputs": [],
					"stateMutability": "nonpayable",
					"type": "function"
				},
				{
					"inputs": [
						{
							"internalType": "uint256",
							"name": "index",
							"type": "uint256"
						}
					],
					"name": "getPriceFor",
					"outputs": [
						{
							"internalType": "uint256",
							"name": "",
							"type": "uint256"
						}
					],
					"stateMutability": "view",
					"type": "function"
				},
				{
					"inputs": [],
					"name": "owner",
					"outputs": [
						{
							"internalType": "address",
							"name": "",
							"type": "address"
						}
					],
					"stateMutability": "view",
					"type": "function"
				}
			],
			"devdoc": {
				"kind": "dev",
				"methods": {},
				"version": 1
			},
			"evm": {
				"assembly": "    /* \"contracts/Lesson_5.sol\":62:2591  contract AucEngine\r... */\n  mstore(0x40, 0x80)\n    /* \"contracts/Lesson_5.sol\":723:779  constructor()\r... */\n  callvalue\n  dup1\n  iszero\n  tag_1\n  jumpi\n  0x00\n  dup1\n  revert\ntag_1:\n  pop\n    /* \"contracts/Lesson_5.sol\":761:771  msg.sender */\n  caller\n    /* \"contracts/Lesson_5.sol\":753:758  owner */\n  0x00\n  dup1\n    /* \"contracts/Lesson_5.sol\":753:771  owner = msg.sender */\n  0x0100\n  exp\n  dup2\n  sload\n  dup2\n  0xffffffffffffffffffffffffffffffffffffffff\n  mul\n  not\n  and\n  swap1\n  dup4\n  0xffffffffffffffffffffffffffffffffffffffff\n  and\n  mul\n  or\n  swap1\n  sstore\n  pop\n    /* \"contracts/Lesson_5.sol\":62:2591  contract AucEngine\r... */\n  dataSize(sub_0)\n  dup1\n  dataOffset(sub_0)\n  0x00\n  codecopy\n  0x00\n  return\nstop\n\nsub_0: assembly {\n        /* \"contracts/Lesson_5.sol\":62:2591  contract AucEngine\r... */\n      mstore(0x40, 0x80)\n      callvalue\n      dup1\n      iszero\n      tag_1\n      jumpi\n      0x00\n      dup1\n      revert\n    tag_1:\n      pop\n      jumpi(tag_2, lt(calldatasize, 0x04))\n      shr(0xe0, calldataload(0x00))\n      dup1\n      0x4534cd9c\n      eq\n      tag_3\n      jumpi\n      dup1\n      0x571a26a0\n      eq\n      tag_4\n      jumpi\n      dup1\n      0x8da5cb5b\n      eq\n      tag_5\n      jumpi\n      dup1\n      0xe9835d15\n      eq\n      tag_6\n      jumpi\n    tag_2:\n      0x00\n      dup1\n      revert\n        /* \"contracts/Lesson_5.sol\":2020:2588  function getPriceFor(uint index) public view returns(uint)\r... */\n    tag_3:\n      tag_7\n      0x04\n      dup1\n      calldatasize\n      sub\n      dup2\n      add\n      swap1\n      tag_8\n      swap2\n      swap1\n      tag_9\n      jump\t// in\n    tag_8:\n      tag_10\n      jump\t// in\n    tag_7:\n      mload(0x40)\n      tag_11\n      swap2\n      swap1\n      tag_12\n      jump\t// in\n    tag_11:\n      mload(0x40)\n      dup1\n      swap2\n      sub\n      swap1\n      return\n        /* \"contracts/Lesson_5.sol\":540:565  Auction[] public auctions */\n    tag_4:\n      tag_13\n      0x04\n      dup1\n      calldatasize\n      sub\n      dup2\n      add\n      swap1\n      tag_14\n      swap2\n      swap1\n      tag_9\n      jump\t// in\n    tag_14:\n      tag_15\n      jump\t// in\n    tag_13:\n      mload(0x40)\n      tag_16\n      swap9\n      swap8\n      swap7\n      swap6\n      swap5\n      swap4\n      swap3\n      swap2\n      swap1\n      tag_17\n      jump\t// in\n    tag_16:\n      mload(0x40)\n      dup1\n      swap2\n      sub\n      swap1\n      return\n        /* \"contracts/Lesson_5.sol\":89:109  address public owner */\n    tag_5:\n      tag_18\n      tag_19\n      jump\t// in\n    tag_18:\n      mload(0x40)\n      tag_20\n      swap2\n      swap1\n      tag_21\n      jump\t// in\n    tag_20:\n      mload(0x40)\n      dup1\n      swap2\n      sub\n      swap1\n      return\n        /* \"contracts/Lesson_5.sol\":852:2012  function createAuction(uint _startingPrice, uint _discountRate, string calldata _item, uint _duration) external \r... */\n    tag_6:\n      tag_22\n      0x04\n      dup1\n      calldatasize\n      sub\n      dup2\n      add\n      swap1\n      tag_23\n      swap2\n      swap1\n      tag_24\n      jump\t// in\n    tag_23:\n      tag_25\n      jump\t// in\n    tag_22:\n      stop\n        /* \"contracts/Lesson_5.sol\":2020:2588  function getPriceFor(uint index) public view returns(uint)\r... */\n    tag_10:\n        /* \"contracts/Lesson_5.sol\":2073:2077  uint */\n      0x00\n        /* \"contracts/Lesson_5.sol\":2239:2268  Auction memory currentAuction */\n      dup1\n        /* \"contracts/Lesson_5.sol\":2271:2279  auctions */\n      0x01\n        /* \"contracts/Lesson_5.sol\":2280:2285  index */\n      dup4\n        /* \"contracts/Lesson_5.sol\":2271:2286  auctions[index] */\n      dup2\n      sload\n      dup2\n      lt\n      tag_27\n      jumpi\n      tag_28\n      tag_29\n      jump\t// in\n    tag_28:\n    tag_27:\n      swap1\n      0x00\n      mstore\n      keccak256(0x00, 0x20)\n      swap1\n      0x08\n      mul\n      add\n        /* \"contracts/Lesson_5.sol\":2239:2286  Auction memory currentAuction = auctions[index] */\n      mload(0x40)\n      dup1\n      0x0100\n      add\n      0x40\n      mstore\n      swap1\n      dup2\n      0x00\n      dup3\n      add\n      0x00\n      swap1\n      sload\n      swap1\n      0x0100\n      exp\n      swap1\n      div\n      0xffffffffffffffffffffffffffffffffffffffff\n      and\n      0xffffffffffffffffffffffffffffffffffffffff\n      and\n      0xffffffffffffffffffffffffffffffffffffffff\n      and\n      dup2\n      mstore\n      0x20\n      add\n      0x01\n      dup3\n      add\n      sload\n      dup2\n      mstore\n      0x20\n      add\n      0x02\n      dup3\n      add\n      sload\n      dup2\n      mstore\n      0x20\n      add\n      0x03\n      dup3\n      add\n      sload\n      dup2\n      mstore\n      0x20\n      add\n      0x04\n      dup3\n      add\n      sload\n      dup2\n      mstore\n      0x20\n      add\n      0x05\n      dup3\n      add\n      sload\n      dup2\n      mstore\n      0x20\n      add\n      0x06\n      dup3\n      add\n      dup1\n      sload\n      tag_31\n      swap1\n      tag_32\n      jump\t// in\n    tag_31:\n      dup1\n      0x1f\n      add\n      0x20\n      dup1\n      swap2\n      div\n      mul\n      0x20\n      add\n      mload(0x40)\n      swap1\n      dup2\n      add\n      0x40\n      mstore\n      dup1\n      swap3\n      swap2\n      swap1\n      dup2\n      dup2\n      mstore\n      0x20\n      add\n      dup3\n      dup1\n      sload\n      tag_33\n      swap1\n      tag_32\n      jump\t// in\n    tag_33:\n      dup1\n      iszero\n      tag_34\n      jumpi\n      dup1\n      0x1f\n      lt\n      tag_35\n      jumpi\n      0x0100\n      dup1\n      dup4\n      sload\n      div\n      mul\n      dup4\n      mstore\n      swap2\n      0x20\n      add\n      swap2\n      jump(tag_34)\n    tag_35:\n      dup3\n      add\n      swap2\n      swap1\n      0x00\n      mstore\n      keccak256(0x00, 0x20)\n      swap1\n    tag_36:\n      dup2\n      sload\n      dup2\n      mstore\n      swap1\n      0x01\n      add\n      swap1\n      0x20\n      add\n      dup1\n      dup4\n      gt\n      tag_36\n      jumpi\n      dup3\n      swap1\n      sub\n      0x1f\n      and\n      dup3\n      add\n      swap2\n    tag_34:\n      pop\n      pop\n      pop\n      pop\n      pop\n      dup2\n      mstore\n      0x20\n      add\n      0x07\n      dup3\n      add\n      0x00\n      swap1\n      sload\n      swap1\n      0x0100\n      exp\n      swap1\n      div\n      0xff\n      and\n      iszero\n      iszero\n      iszero\n      iszero\n      dup2\n      mstore\n      pop\n      pop\n      swap1\n      pop\n        /* \"contracts/Lesson_5.sol\":2306:2320  currentAuction */\n      dup1\n        /* \"contracts/Lesson_5.sol\":2306:2328  currentAuction.stopped */\n      0xe0\n      add\n      mload\n        /* \"contracts/Lesson_5.sol\":2305:2328  !currentAuction.stopped */\n      iszero\n        /* \"contracts/Lesson_5.sol\":2297:2352  require(!currentAuction.stopped, \"Auction is stopped.\") */\n      tag_37\n      jumpi\n      mload(0x40)\n      0x08c379a000000000000000000000000000000000000000000000000000000000\n      dup2\n      mstore\n      0x04\n      add\n      tag_38\n      swap1\n      tag_39\n      jump\t// in\n    tag_38:\n      mload(0x40)\n      dup1\n      swap2\n      sub\n      swap1\n      revert\n    tag_37:\n        /* \"contracts/Lesson_5.sol\":2363:2375  uint elapsed */\n      0x00\n        /* \"contracts/Lesson_5.sol\":2396:2410  currentAuction */\n      dup2\n        /* \"contracts/Lesson_5.sol\":2396:2419  currentAuction.startsAt */\n      0x60\n      add\n      mload\n        /* \"contracts/Lesson_5.sol\":2378:2393  block.timestamp */\n      timestamp\n        /* \"contracts/Lesson_5.sol\":2378:2419  block.timestamp - currentAuction.startsAt */\n      tag_40\n      swap2\n      swap1\n      tag_41\n      jump\t// in\n    tag_40:\n        /* \"contracts/Lesson_5.sol\":2363:2419  uint elapsed = block.timestamp - currentAuction.startsAt */\n      swap1\n      pop\n        /* \"contracts/Lesson_5.sol\":2468:2481  uint discount */\n      0x00\n        /* \"contracts/Lesson_5.sol\":2514:2521  elapsed */\n      dup2\n        /* \"contracts/Lesson_5.sol\":2484:2498  currentAuction */\n      dup4\n        /* \"contracts/Lesson_5.sol\":2484:2511  currentAuction.discountRate */\n      0xa0\n      add\n      mload\n        /* \"contracts/Lesson_5.sol\":2484:2521  currentAuction.discountRate * elapsed */\n      tag_42\n      swap2\n      swap1\n      tag_43\n      jump\t// in\n    tag_42:\n        /* \"contracts/Lesson_5.sol\":2468:2521  uint discount = currentAuction.discountRate * elapsed */\n      swap1\n      pop\n        /* \"contracts/Lesson_5.sol\":2572:2580  discount */\n      dup1\n        /* \"contracts/Lesson_5.sol\":2541:2555  currentAuction */\n      dup4\n        /* \"contracts/Lesson_5.sol\":2541:2569  currentAuction.startingPrice */\n      0x20\n      add\n      mload\n        /* \"contracts/Lesson_5.sol\":2541:2580  currentAuction.startingPrice - discount */\n      tag_44\n      swap2\n      swap1\n      tag_41\n      jump\t// in\n    tag_44:\n        /* \"contracts/Lesson_5.sol\":2534:2580  return currentAuction.startingPrice - discount */\n      swap4\n      pop\n      pop\n      pop\n      pop\n        /* \"contracts/Lesson_5.sol\":2020:2588  function getPriceFor(uint index) public view returns(uint)\r... */\n      swap2\n      swap1\n      pop\n      jump\t// out\n        /* \"contracts/Lesson_5.sol\":540:565  Auction[] public auctions */\n    tag_15:\n      0x01\n      dup2\n      dup2\n      sload\n      dup2\n      lt\n      tag_45\n      jumpi\n      0x00\n      dup1\n      revert\n    tag_45:\n      swap1\n      0x00\n      mstore\n      keccak256(0x00, 0x20)\n      swap1\n      0x08\n      mul\n      add\n      0x00\n      swap2\n      pop\n      swap1\n      pop\n      dup1\n      0x00\n      add\n      0x00\n      swap1\n      sload\n      swap1\n      0x0100\n      exp\n      swap1\n      div\n      0xffffffffffffffffffffffffffffffffffffffff\n      and\n      swap1\n      dup1\n      0x01\n      add\n      sload\n      swap1\n      dup1\n      0x02\n      add\n      sload\n      swap1\n      dup1\n      0x03\n      add\n      sload\n      swap1\n      dup1\n      0x04\n      add\n      sload\n      swap1\n      dup1\n      0x05\n      add\n      sload\n      swap1\n      dup1\n      0x06\n      add\n      dup1\n      sload\n      tag_47\n      swap1\n      tag_32\n      jump\t// in\n    tag_47:\n      dup1\n      0x1f\n      add\n      0x20\n      dup1\n      swap2\n      div\n      mul\n      0x20\n      add\n      mload(0x40)\n      swap1\n      dup2\n      add\n      0x40\n      mstore\n      dup1\n      swap3\n      swap2\n      swap1\n      dup2\n      dup2\n      mstore\n      0x20\n      add\n      dup3\n      dup1\n      sload\n      tag_48\n      swap1\n      tag_32\n      jump\t// in\n    tag_48:\n      dup1\n      iszero\n      tag_49\n      jumpi\n      dup1\n      0x1f\n      lt\n      tag_50\n      jumpi\n      0x0100\n      dup1\n      dup4\n      sload\n      div\n      mul\n      dup4\n      mstore\n      swap2\n      0x20\n      add\n      swap2\n      jump(tag_49)\n    tag_50:\n      dup3\n      add\n      swap2\n      swap1\n      0x00\n      mstore\n      keccak256(0x00, 0x20)\n      swap1\n    tag_51:\n      dup2\n      sload\n      dup2\n      mstore\n      swap1\n      0x01\n      add\n      swap1\n      0x20\n      add\n      dup1\n      dup4\n      gt\n      tag_51\n      jumpi\n      dup3\n      swap1\n      sub\n      0x1f\n      and\n      dup3\n      add\n      swap2\n    tag_49:\n      pop\n      pop\n      pop\n      pop\n      pop\n      swap1\n      dup1\n      0x07\n      add\n      0x00\n      swap1\n      sload\n      swap1\n      0x0100\n      exp\n      swap1\n      div\n      0xff\n      and\n      swap1\n      pop\n      dup9\n      jump\t// out\n        /* \"contracts/Lesson_5.sol\":89:109  address public owner */\n    tag_19:\n      0x00\n      dup1\n      sload\n      swap1\n      0x0100\n      exp\n      swap1\n      div\n      0xffffffffffffffffffffffffffffffffffffffff\n      and\n      dup2\n      jump\t// out\n        /* \"contracts/Lesson_5.sol\":852:2012  function createAuction(uint _startingPrice, uint _discountRate, string calldata _item, uint _duration) external \r... */\n    tag_25:\n        /* \"contracts/Lesson_5.sol\":1029:1042  uint duration */\n      0x00\n        /* \"contracts/Lesson_5.sol\":1058:1059  0 */\n      dup1\n        /* \"contracts/Lesson_5.sol\":1045:1054  _duration */\n      dup3\n        /* \"contracts/Lesson_5.sol\":1045:1059  _duration == 0 */\n      eq\n        /* \"contracts/Lesson_5.sol\":1045:1082  _duration == 0 ? DURATION : _duration */\n      tag_53\n      jumpi\n        /* \"contracts/Lesson_5.sol\":1073:1082  _duration */\n      dup2\n        /* \"contracts/Lesson_5.sol\":1045:1082  _duration == 0 ? DURATION : _duration */\n      jump(tag_54)\n    tag_53:\n        /* \"contracts/Lesson_5.sol\":141:147  2 days */\n      0x02a300\n        /* \"contracts/Lesson_5.sol\":1045:1082  _duration == 0 ? DURATION : _duration */\n    tag_54:\n        /* \"contracts/Lesson_5.sol\":1029:1082  uint duration = _duration == 0 ? DURATION : _duration */\n      swap1\n      pop\n        /* \"contracts/Lesson_5.sol\":1137:1146  _duration */\n      dup2\n        /* \"contracts/Lesson_5.sol\":1121:1134  _discountRate */\n      dup6\n        /* \"contracts/Lesson_5.sol\":1121:1146  _discountRate * _duration */\n      tag_55\n      swap2\n      swap1\n      tag_43\n      jump\t// in\n    tag_55:\n        /* \"contracts/Lesson_5.sol\":1103:1117  _startingPrice */\n      dup7\n        /* \"contracts/Lesson_5.sol\":1103:1146  _startingPrice >= _discountRate * _duration */\n      lt\n      iszero\n        /* \"contracts/Lesson_5.sol\":1095:1176  require(_startingPrice >= _discountRate * _duration, \"Incorrect starting price.\") */\n      tag_56\n      jumpi\n      mload(0x40)\n      0x08c379a000000000000000000000000000000000000000000000000000000000\n      dup2\n      mstore\n      0x04\n      add\n      tag_57\n      swap1\n      tag_58\n      jump\t// in\n    tag_57:\n      mload(0x40)\n      dup1\n      swap2\n      sub\n      swap1\n      revert\n    tag_56:\n        /* \"contracts/Lesson_5.sol\":1246:1271  Auction memory newAuction */\n      0x00\n        /* \"contracts/Lesson_5.sol\":1274:1607  Auction({\r... */\n      mload(0x40)\n      dup1\n      0x0100\n      add\n      0x40\n      mstore\n      dup1\n        /* \"contracts/Lesson_5.sol\":1313:1323  msg.sender */\n      caller\n        /* \"contracts/Lesson_5.sol\":1274:1607  Auction({\r... */\n      0xffffffffffffffffffffffffffffffffffffffff\n      and\n      dup2\n      mstore\n      0x20\n      add\n        /* \"contracts/Lesson_5.sol\":1354:1368  _startingPrice */\n      dup9\n        /* \"contracts/Lesson_5.sol\":1274:1607  Auction({\r... */\n      dup2\n      mstore\n      0x20\n      add\n        /* \"contracts/Lesson_5.sol\":1395:1409  _startingPrice */\n      dup9\n        /* \"contracts/Lesson_5.sol\":1274:1607  Auction({\r... */\n      dup2\n      mstore\n      0x20\n      add\n        /* \"contracts/Lesson_5.sol\":1476:1491  block.timestamp */\n      timestamp\n        /* \"contracts/Lesson_5.sol\":1274:1607  Auction({\r... */\n      dup2\n      mstore\n      0x20\n      add\n        /* \"contracts/Lesson_5.sol\":1532:1540  duration */\n      dup4\n        /* \"contracts/Lesson_5.sol\":1514:1529  block.timestamp */\n      timestamp\n        /* \"contracts/Lesson_5.sol\":1514:1540  block.timestamp + duration */\n      tag_59\n      swap2\n      swap1\n      tag_60\n      jump\t// in\n    tag_59:\n        /* \"contracts/Lesson_5.sol\":1274:1607  Auction({\r... */\n      dup2\n      mstore\n      0x20\n      add\n        /* \"contracts/Lesson_5.sol\":1438:1451  _discountRate */\n      dup8\n        /* \"contracts/Lesson_5.sol\":1274:1607  Auction({\r... */\n      dup2\n      mstore\n      0x20\n      add\n        /* \"contracts/Lesson_5.sol\":1561:1566  _item */\n      dup7\n      dup7\n        /* \"contracts/Lesson_5.sol\":1274:1607  Auction({\r... */\n      dup1\n      dup1\n      0x1f\n      add\n      0x20\n      dup1\n      swap2\n      div\n      mul\n      0x20\n      add\n      mload(0x40)\n      swap1\n      dup2\n      add\n      0x40\n      mstore\n      dup1\n      swap4\n      swap3\n      swap2\n      swap1\n      dup2\n      dup2\n      mstore\n      0x20\n      add\n      dup4\n      dup4\n      dup1\n      dup3\n      dup5\n      calldatacopy\n      0x00\n      dup2\n      dup5\n      add\n      mstore\n      not(0x1f)\n      0x1f\n      dup3\n      add\n      and\n      swap1\n      pop\n      dup1\n      dup4\n      add\n      swap3\n      pop\n      pop\n      pop\n      pop\n      pop\n      pop\n      pop\n      dup2\n      mstore\n      0x20\n      add\n        /* \"contracts/Lesson_5.sol\":1590:1595  false */\n      0x00\n        /* \"contracts/Lesson_5.sol\":1274:1607  Auction({\r... */\n      iszero\n      iszero\n      dup2\n      mstore\n      pop\n        /* \"contracts/Lesson_5.sol\":1246:1607  Auction memory newAuction = Auction({\r... */\n      swap1\n      pop\n        /* \"contracts/Lesson_5.sol\":1739:1747  auctions */\n      0x01\n        /* \"contracts/Lesson_5.sol\":1753:1763  newAuction */\n      dup2\n        /* \"contracts/Lesson_5.sol\":1739:1764  auctions.push(newAuction) */\n      swap1\n      dup1\n      0x01\n      dup2\n      sload\n      add\n      dup1\n      dup3\n      sstore\n      dup1\n      swap2\n      pop\n      pop\n      0x01\n      swap1\n      sub\n      swap1\n      0x00\n      mstore\n      keccak256(0x00, 0x20)\n      swap1\n      0x08\n      mul\n      add\n      0x00\n      swap1\n      swap2\n      swap1\n      swap2\n      swap1\n      swap2\n      pop\n      0x00\n      dup3\n      add\n      mload\n      dup2\n      0x00\n      add\n      exp(0x0100, 0x00)\n      dup2\n      sload\n      dup2\n      0xffffffffffffffffffffffffffffffffffffffff\n      mul\n      not\n      and\n      swap1\n      dup4\n      0xffffffffffffffffffffffffffffffffffffffff\n      and\n      mul\n      or\n      swap1\n      sstore\n      pop\n      0x20\n      dup3\n      add\n      mload\n      dup2\n      0x01\n      add\n      sstore\n      0x40\n      dup3\n      add\n      mload\n      dup2\n      0x02\n      add\n      sstore\n      0x60\n      dup3\n      add\n      mload\n      dup2\n      0x03\n      add\n      sstore\n      0x80\n      dup3\n      add\n      mload\n      dup2\n      0x04\n      add\n      sstore\n      0xa0\n      dup3\n      add\n      mload\n      dup2\n      0x05\n      add\n      sstore\n      0xc0\n      dup3\n      add\n      mload\n      dup2\n      0x06\n      add\n      swap1\n      dup1\n      mload\n      swap1\n      0x20\n      add\n      swap1\n      tag_62\n      swap3\n      swap2\n      swap1\n      tag_63\n      jump\t// in\n    tag_62:\n      pop\n      0xe0\n      dup3\n      add\n      mload\n      dup2\n      0x07\n      add\n      exp(0x0100, 0x00)\n      dup2\n      sload\n      dup2\n      0xff\n      mul\n      not\n      and\n      swap1\n      dup4\n      iszero\n      iszero\n      mul\n      or\n      swap1\n      sstore\n      pop\n      pop\n      pop\n        /* \"contracts/Lesson_5.sol\":1936:2004  AuctionCreated(auctions.length - 1, _item, _startingPrice, duration) */\n      0x5bf34ed94988e5dcdc7d1faaa54eb1d3b55f45d5f11457e235afb21a8ebbe73c\n        /* \"contracts/Lesson_5.sol\":1969:1970  1 */\n      0x01\n        /* \"contracts/Lesson_5.sol\":1951:1959  auctions */\n      dup1\n        /* \"contracts/Lesson_5.sol\":1951:1966  auctions.length */\n      dup1\n      sload\n      swap1\n      pop\n        /* \"contracts/Lesson_5.sol\":1951:1970  auctions.length - 1 */\n      tag_64\n      swap2\n      swap1\n      tag_41\n      jump\t// in\n    tag_64:\n        /* \"contracts/Lesson_5.sol\":1972:1977  _item */\n      dup7\n      dup7\n        /* \"contracts/Lesson_5.sol\":1979:1993  _startingPrice */\n      dup11\n        /* \"contracts/Lesson_5.sol\":1995:2003  duration */\n      dup7\n        /* \"contracts/Lesson_5.sol\":1936:2004  AuctionCreated(auctions.length - 1, _item, _startingPrice, duration) */\n      mload(0x40)\n      tag_65\n      swap6\n      swap5\n      swap4\n      swap3\n      swap2\n      swap1\n      tag_66\n      jump\t// in\n    tag_65:\n      mload(0x40)\n      dup1\n      swap2\n      sub\n      swap1\n      log1\n        /* \"contracts/Lesson_5.sol\":970:2012  {\r... */\n      pop\n      pop\n        /* \"contracts/Lesson_5.sol\":852:2012  function createAuction(uint _startingPrice, uint _discountRate, string calldata _item, uint _duration) external \r... */\n      pop\n      pop\n      pop\n      pop\n      pop\n      jump\t// out\n    tag_63:\n      dup3\n      dup1\n      sload\n      tag_67\n      swap1\n      tag_32\n      jump\t// in\n    tag_67:\n      swap1\n      0x00\n      mstore\n      keccak256(0x00, 0x20)\n      swap1\n      0x1f\n      add\n      0x20\n      swap1\n      div\n      dup2\n      add\n      swap3\n      dup3\n      tag_69\n      jumpi\n      0x00\n      dup6\n      sstore\n      jump(tag_68)\n    tag_69:\n      dup3\n      0x1f\n      lt\n      tag_70\n      jumpi\n      dup1\n      mload\n      not(0xff)\n      and\n      dup4\n      dup1\n      add\n      or\n      dup6\n      sstore\n      jump(tag_68)\n    tag_70:\n      dup3\n      dup1\n      add\n      0x01\n      add\n      dup6\n      sstore\n      dup3\n      iszero\n      tag_68\n      jumpi\n      swap2\n      dup3\n      add\n    tag_71:\n      dup3\n      dup2\n      gt\n      iszero\n      tag_72\n      jumpi\n      dup3\n      mload\n      dup3\n      sstore\n      swap2\n      0x20\n      add\n      swap2\n      swap1\n      0x01\n      add\n      swap1\n      jump(tag_71)\n    tag_72:\n    tag_68:\n      pop\n      swap1\n      pop\n      tag_73\n      swap2\n      swap1\n      tag_74\n      jump\t// in\n    tag_73:\n      pop\n      swap1\n      jump\t// out\n    tag_74:\n    tag_75:\n      dup1\n      dup3\n      gt\n      iszero\n      tag_76\n      jumpi\n      0x00\n      dup2\n      0x00\n      swap1\n      sstore\n      pop\n      0x01\n      add\n      jump(tag_75)\n    tag_76:\n      pop\n      swap1\n      jump\t// out\n        /* \"#utility.yul\":21:574   */\n    tag_78:\n        /* \"#utility.yul\":79:87   */\n      0x00\n        /* \"#utility.yul\":89:95   */\n      dup1\n        /* \"#utility.yul\":139:142   */\n      dup4\n        /* \"#utility.yul\":132:136   */\n      0x1f\n        /* \"#utility.yul\":124:130   */\n      dup5\n        /* \"#utility.yul\":120:137   */\n      add\n        /* \"#utility.yul\":116:143   */\n      slt\n        /* \"#utility.yul\":106:228   */\n      tag_80\n      jumpi\n        /* \"#utility.yul\":147:226   */\n      tag_81\n      tag_82\n      jump\t// in\n    tag_81:\n        /* \"#utility.yul\":106:228   */\n    tag_80:\n        /* \"#utility.yul\":260:266   */\n      dup3\n        /* \"#utility.yul\":247:267   */\n      calldataload\n        /* \"#utility.yul\":237:267   */\n      swap1\n      pop\n        /* \"#utility.yul\":290:308   */\n      0xffffffffffffffff\n        /* \"#utility.yul\":282:288   */\n      dup2\n        /* \"#utility.yul\":279:309   */\n      gt\n        /* \"#utility.yul\":276:393   */\n      iszero\n      tag_83\n      jumpi\n        /* \"#utility.yul\":312:391   */\n      tag_84\n      tag_85\n      jump\t// in\n    tag_84:\n        /* \"#utility.yul\":276:393   */\n    tag_83:\n        /* \"#utility.yul\":426:430   */\n      0x20\n        /* \"#utility.yul\":418:424   */\n      dup4\n        /* \"#utility.yul\":414:431   */\n      add\n        /* \"#utility.yul\":402:431   */\n      swap2\n      pop\n        /* \"#utility.yul\":480:483   */\n      dup4\n        /* \"#utility.yul\":472:476   */\n      0x01\n        /* \"#utility.yul\":464:470   */\n      dup3\n        /* \"#utility.yul\":460:477   */\n      mul\n        /* \"#utility.yul\":450:458   */\n      dup4\n        /* \"#utility.yul\":446:478   */\n      add\n        /* \"#utility.yul\":443:484   */\n      gt\n        /* \"#utility.yul\":440:568   */\n      iszero\n      tag_86\n      jumpi\n        /* \"#utility.yul\":487:566   */\n      tag_87\n      tag_88\n      jump\t// in\n    tag_87:\n        /* \"#utility.yul\":440:568   */\n    tag_86:\n        /* \"#utility.yul\":21:574   */\n      swap3\n      pop\n      swap3\n      swap1\n      pop\n      jump\t// out\n        /* \"#utility.yul\":580:719   */\n    tag_89:\n        /* \"#utility.yul\":626:631   */\n      0x00\n        /* \"#utility.yul\":664:670   */\n      dup2\n        /* \"#utility.yul\":651:671   */\n      calldataload\n        /* \"#utility.yul\":642:671   */\n      swap1\n      pop\n        /* \"#utility.yul\":680:713   */\n      tag_91\n        /* \"#utility.yul\":707:712   */\n      dup2\n        /* \"#utility.yul\":680:713   */\n      tag_92\n      jump\t// in\n    tag_91:\n        /* \"#utility.yul\":580:719   */\n      swap3\n      swap2\n      pop\n      pop\n      jump\t// out\n        /* \"#utility.yul\":725:1054   */\n    tag_9:\n        /* \"#utility.yul\":784:790   */\n      0x00\n        /* \"#utility.yul\":833:835   */\n      0x20\n        /* \"#utility.yul\":821:830   */\n      dup3\n        /* \"#utility.yul\":812:819   */\n      dup5\n        /* \"#utility.yul\":808:831   */\n      sub\n        /* \"#utility.yul\":804:836   */\n      slt\n        /* \"#utility.yul\":801:920   */\n      iszero\n      tag_94\n      jumpi\n        /* \"#utility.yul\":839:918   */\n      tag_95\n      tag_96\n      jump\t// in\n    tag_95:\n        /* \"#utility.yul\":801:920   */\n    tag_94:\n        /* \"#utility.yul\":959:960   */\n      0x00\n        /* \"#utility.yul\":984:1037   */\n      tag_97\n        /* \"#utility.yul\":1029:1036   */\n      dup5\n        /* \"#utility.yul\":1020:1026   */\n      dup3\n        /* \"#utility.yul\":1009:1018   */\n      dup6\n        /* \"#utility.yul\":1005:1027   */\n      add\n        /* \"#utility.yul\":984:1037   */\n      tag_89\n      jump\t// in\n    tag_97:\n        /* \"#utility.yul\":974:1037   */\n      swap2\n      pop\n        /* \"#utility.yul\":930:1047   */\n      pop\n        /* \"#utility.yul\":725:1054   */\n      swap3\n      swap2\n      pop\n      pop\n      jump\t// out\n        /* \"#utility.yul\":1060:2025   */\n    tag_24:\n        /* \"#utility.yul\":1158:1164   */\n      0x00\n        /* \"#utility.yul\":1166:1172   */\n      dup1\n        /* \"#utility.yul\":1174:1180   */\n      0x00\n        /* \"#utility.yul\":1182:1188   */\n      dup1\n        /* \"#utility.yul\":1190:1196   */\n      0x00\n        /* \"#utility.yul\":1239:1242   */\n      0x80\n        /* \"#utility.yul\":1227:1236   */\n      dup7\n        /* \"#utility.yul\":1218:1225   */\n      dup9\n        /* \"#utility.yul\":1214:1237   */\n      sub\n        /* \"#utility.yul\":1210:1243   */\n      slt\n        /* \"#utility.yul\":1207:1327   */\n      iszero\n      tag_99\n      jumpi\n        /* \"#utility.yul\":1246:1325   */\n      tag_100\n      tag_96\n      jump\t// in\n    tag_100:\n        /* \"#utility.yul\":1207:1327   */\n    tag_99:\n        /* \"#utility.yul\":1366:1367   */\n      0x00\n        /* \"#utility.yul\":1391:1444   */\n      tag_101\n        /* \"#utility.yul\":1436:1443   */\n      dup9\n        /* \"#utility.yul\":1427:1433   */\n      dup3\n        /* \"#utility.yul\":1416:1425   */\n      dup10\n        /* \"#utility.yul\":1412:1434   */\n      add\n        /* \"#utility.yul\":1391:1444   */\n      tag_89\n      jump\t// in\n    tag_101:\n        /* \"#utility.yul\":1381:1444   */\n      swap6\n      pop\n        /* \"#utility.yul\":1337:1454   */\n      pop\n        /* \"#utility.yul\":1493:1495   */\n      0x20\n        /* \"#utility.yul\":1519:1572   */\n      tag_102\n        /* \"#utility.yul\":1564:1571   */\n      dup9\n        /* \"#utility.yul\":1555:1561   */\n      dup3\n        /* \"#utility.yul\":1544:1553   */\n      dup10\n        /* \"#utility.yul\":1540:1562   */\n      add\n        /* \"#utility.yul\":1519:1572   */\n      tag_89\n      jump\t// in\n    tag_102:\n        /* \"#utility.yul\":1509:1572   */\n      swap5\n      pop\n        /* \"#utility.yul\":1464:1582   */\n      pop\n        /* \"#utility.yul\":1649:1651   */\n      0x40\n        /* \"#utility.yul\":1638:1647   */\n      dup7\n        /* \"#utility.yul\":1634:1652   */\n      add\n        /* \"#utility.yul\":1621:1653   */\n      calldataload\n        /* \"#utility.yul\":1680:1698   */\n      0xffffffffffffffff\n        /* \"#utility.yul\":1672:1678   */\n      dup2\n        /* \"#utility.yul\":1669:1699   */\n      gt\n        /* \"#utility.yul\":1666:1783   */\n      iszero\n      tag_103\n      jumpi\n        /* \"#utility.yul\":1702:1781   */\n      tag_104\n      tag_105\n      jump\t// in\n    tag_104:\n        /* \"#utility.yul\":1666:1783   */\n    tag_103:\n        /* \"#utility.yul\":1815:1880   */\n      tag_106\n        /* \"#utility.yul\":1872:1879   */\n      dup9\n        /* \"#utility.yul\":1863:1869   */\n      dup3\n        /* \"#utility.yul\":1852:1861   */\n      dup10\n        /* \"#utility.yul\":1848:1870   */\n      add\n        /* \"#utility.yul\":1815:1880   */\n      tag_78\n      jump\t// in\n    tag_106:\n        /* \"#utility.yul\":1797:1880   */\n      swap4\n      pop\n      swap4\n      pop\n        /* \"#utility.yul\":1592:1890   */\n      pop\n        /* \"#utility.yul\":1929:1931   */\n      0x60\n        /* \"#utility.yul\":1955:2008   */\n      tag_107\n        /* \"#utility.yul\":2000:2007   */\n      dup9\n        /* \"#utility.yul\":1991:1997   */\n      dup3\n        /* \"#utility.yul\":1980:1989   */\n      dup10\n        /* \"#utility.yul\":1976:1998   */\n      add\n        /* \"#utility.yul\":1955:2008   */\n      tag_89\n      jump\t// in\n    tag_107:\n        /* \"#utility.yul\":1945:2008   */\n      swap2\n      pop\n        /* \"#utility.yul\":1900:2018   */\n      pop\n        /* \"#utility.yul\":1060:2025   */\n      swap3\n      swap6\n      pop\n      swap3\n      swap6\n      swap1\n      swap4\n      pop\n      jump\t// out\n        /* \"#utility.yul\":2031:2173   */\n    tag_108:\n        /* \"#utility.yul\":2134:2166   */\n      tag_110\n        /* \"#utility.yul\":2160:2165   */\n      dup2\n        /* \"#utility.yul\":2134:2166   */\n      tag_111\n      jump\t// in\n    tag_110:\n        /* \"#utility.yul\":2129:2132   */\n      dup3\n        /* \"#utility.yul\":2122:2167   */\n      mstore\n        /* \"#utility.yul\":2031:2173   */\n      pop\n      pop\n      jump\t// out\n        /* \"#utility.yul\":2179:2297   */\n    tag_112:\n        /* \"#utility.yul\":2266:2290   */\n      tag_114\n        /* \"#utility.yul\":2284:2289   */\n      dup2\n        /* \"#utility.yul\":2266:2290   */\n      tag_115\n      jump\t// in\n    tag_114:\n        /* \"#utility.yul\":2261:2264   */\n      dup3\n        /* \"#utility.yul\":2254:2291   */\n      mstore\n        /* \"#utility.yul\":2179:2297   */\n      pop\n      pop\n      jump\t// out\n        /* \"#utility.yul\":2303:2412   */\n    tag_116:\n        /* \"#utility.yul\":2384:2405   */\n      tag_118\n        /* \"#utility.yul\":2399:2404   */\n      dup2\n        /* \"#utility.yul\":2384:2405   */\n      tag_119\n      jump\t// in\n    tag_118:\n        /* \"#utility.yul\":2379:2382   */\n      dup3\n        /* \"#utility.yul\":2372:2406   */\n      mstore\n        /* \"#utility.yul\":2303:2412   */\n      pop\n      pop\n      jump\t// out\n        /* \"#utility.yul\":2442:2746   */\n    tag_120:\n        /* \"#utility.yul\":2540:2543   */\n      0x00\n        /* \"#utility.yul\":2561:2632   */\n      tag_122\n        /* \"#utility.yul\":2625:2631   */\n      dup4\n        /* \"#utility.yul\":2620:2623   */\n      dup6\n        /* \"#utility.yul\":2561:2632   */\n      tag_123\n      jump\t// in\n    tag_122:\n        /* \"#utility.yul\":2554:2632   */\n      swap4\n      pop\n        /* \"#utility.yul\":2642:2685   */\n      tag_124\n        /* \"#utility.yul\":2678:2684   */\n      dup4\n        /* \"#utility.yul\":2673:2676   */\n      dup6\n        /* \"#utility.yul\":2666:2671   */\n      dup5\n        /* \"#utility.yul\":2642:2685   */\n      tag_125\n      jump\t// in\n    tag_124:\n        /* \"#utility.yul\":2710:2739   */\n      tag_126\n        /* \"#utility.yul\":2732:2738   */\n      dup4\n        /* \"#utility.yul\":2710:2739   */\n      tag_127\n      jump\t// in\n    tag_126:\n        /* \"#utility.yul\":2705:2708   */\n      dup5\n        /* \"#utility.yul\":2701:2740   */\n      add\n        /* \"#utility.yul\":2694:2740   */\n      swap1\n      pop\n        /* \"#utility.yul\":2442:2746   */\n      swap4\n      swap3\n      pop\n      pop\n      pop\n      jump\t// out\n        /* \"#utility.yul\":2752:3116   */\n    tag_128:\n        /* \"#utility.yul\":2840:2843   */\n      0x00\n        /* \"#utility.yul\":2868:2907   */\n      tag_130\n        /* \"#utility.yul\":2901:2906   */\n      dup3\n        /* \"#utility.yul\":2868:2907   */\n      tag_131\n      jump\t// in\n    tag_130:\n        /* \"#utility.yul\":2923:2994   */\n      tag_132\n        /* \"#utility.yul\":2987:2993   */\n      dup2\n        /* \"#utility.yul\":2982:2985   */\n      dup6\n        /* \"#utility.yul\":2923:2994   */\n      tag_123\n      jump\t// in\n    tag_132:\n        /* \"#utility.yul\":2916:2994   */\n      swap4\n      pop\n        /* \"#utility.yul\":3003:3055   */\n      tag_133\n        /* \"#utility.yul\":3048:3054   */\n      dup2\n        /* \"#utility.yul\":3043:3046   */\n      dup6\n        /* \"#utility.yul\":3036:3040   */\n      0x20\n        /* \"#utility.yul\":3029:3034   */\n      dup7\n        /* \"#utility.yul\":3025:3041   */\n      add\n        /* \"#utility.yul\":3003:3055   */\n      tag_134\n      jump\t// in\n    tag_133:\n        /* \"#utility.yul\":3080:3109   */\n      tag_135\n        /* \"#utility.yul\":3102:3108   */\n      dup2\n        /* \"#utility.yul\":3080:3109   */\n      tag_127\n      jump\t// in\n    tag_135:\n        /* \"#utility.yul\":3075:3078   */\n      dup5\n        /* \"#utility.yul\":3071:3110   */\n      add\n        /* \"#utility.yul\":3064:3110   */\n      swap2\n      pop\n        /* \"#utility.yul\":2844:3116   */\n      pop\n        /* \"#utility.yul\":2752:3116   */\n      swap3\n      swap2\n      pop\n      pop\n      jump\t// out\n        /* \"#utility.yul\":3122:3488   */\n    tag_136:\n        /* \"#utility.yul\":3264:3267   */\n      0x00\n        /* \"#utility.yul\":3285:3352   */\n      tag_138\n        /* \"#utility.yul\":3349:3351   */\n      0x19\n        /* \"#utility.yul\":3344:3347   */\n      dup4\n        /* \"#utility.yul\":3285:3352   */\n      tag_123\n      jump\t// in\n    tag_138:\n        /* \"#utility.yul\":3278:3352   */\n      swap2\n      pop\n        /* \"#utility.yul\":3361:3454   */\n      tag_139\n        /* \"#utility.yul\":3450:3453   */\n      dup3\n        /* \"#utility.yul\":3361:3454   */\n      tag_140\n      jump\t// in\n    tag_139:\n        /* \"#utility.yul\":3479:3481   */\n      0x20\n        /* \"#utility.yul\":3474:3477   */\n      dup3\n        /* \"#utility.yul\":3470:3482   */\n      add\n        /* \"#utility.yul\":3463:3482   */\n      swap1\n      pop\n        /* \"#utility.yul\":3122:3488   */\n      swap2\n      swap1\n      pop\n      jump\t// out\n        /* \"#utility.yul\":3494:3860   */\n    tag_141:\n        /* \"#utility.yul\":3636:3639   */\n      0x00\n        /* \"#utility.yul\":3657:3724   */\n      tag_143\n        /* \"#utility.yul\":3721:3723   */\n      0x13\n        /* \"#utility.yul\":3716:3719   */\n      dup4\n        /* \"#utility.yul\":3657:3724   */\n      tag_123\n      jump\t// in\n    tag_143:\n        /* \"#utility.yul\":3650:3724   */\n      swap2\n      pop\n        /* \"#utility.yul\":3733:3826   */\n      tag_144\n        /* \"#utility.yul\":3822:3825   */\n      dup3\n        /* \"#utility.yul\":3733:3826   */\n      tag_145\n      jump\t// in\n    tag_144:\n        /* \"#utility.yul\":3851:3853   */\n      0x20\n        /* \"#utility.yul\":3846:3849   */\n      dup3\n        /* \"#utility.yul\":3842:3854   */\n      add\n        /* \"#utility.yul\":3835:3854   */\n      swap1\n      pop\n        /* \"#utility.yul\":3494:3860   */\n      swap2\n      swap1\n      pop\n      jump\t// out\n        /* \"#utility.yul\":3866:3984   */\n    tag_146:\n        /* \"#utility.yul\":3953:3977   */\n      tag_148\n        /* \"#utility.yul\":3971:3976   */\n      dup2\n        /* \"#utility.yul\":3953:3977   */\n      tag_149\n      jump\t// in\n    tag_148:\n        /* \"#utility.yul\":3948:3951   */\n      dup3\n        /* \"#utility.yul\":3941:3978   */\n      mstore\n        /* \"#utility.yul\":3866:3984   */\n      pop\n      pop\n      jump\t// out\n        /* \"#utility.yul\":3990:4212   */\n    tag_21:\n        /* \"#utility.yul\":4083:4087   */\n      0x00\n        /* \"#utility.yul\":4121:4123   */\n      0x20\n        /* \"#utility.yul\":4110:4119   */\n      dup3\n        /* \"#utility.yul\":4106:4124   */\n      add\n        /* \"#utility.yul\":4098:4124   */\n      swap1\n      pop\n        /* \"#utility.yul\":4134:4205   */\n      tag_151\n        /* \"#utility.yul\":4202:4203   */\n      0x00\n        /* \"#utility.yul\":4191:4200   */\n      dup4\n        /* \"#utility.yul\":4187:4204   */\n      add\n        /* \"#utility.yul\":4178:4184   */\n      dup5\n        /* \"#utility.yul\":4134:4205   */\n      tag_112\n      jump\t// in\n    tag_151:\n        /* \"#utility.yul\":3990:4212   */\n      swap3\n      swap2\n      pop\n      pop\n      jump\t// out\n        /* \"#utility.yul\":4218:5326   */\n    tag_17:\n        /* \"#utility.yul\":4537:4541   */\n      0x00\n        /* \"#utility.yul\":4575:4578   */\n      0x0100\n        /* \"#utility.yul\":4564:4573   */\n      dup3\n        /* \"#utility.yul\":4560:4579   */\n      add\n        /* \"#utility.yul\":4552:4579   */\n      swap1\n      pop\n        /* \"#utility.yul\":4589:4676   */\n      tag_153\n        /* \"#utility.yul\":4673:4674   */\n      0x00\n        /* \"#utility.yul\":4662:4671   */\n      dup4\n        /* \"#utility.yul\":4658:4675   */\n      add\n        /* \"#utility.yul\":4649:4655   */\n      dup12\n        /* \"#utility.yul\":4589:4676   */\n      tag_108\n      jump\t// in\n    tag_153:\n        /* \"#utility.yul\":4686:4758   */\n      tag_154\n        /* \"#utility.yul\":4754:4756   */\n      0x20\n        /* \"#utility.yul\":4743:4752   */\n      dup4\n        /* \"#utility.yul\":4739:4757   */\n      add\n        /* \"#utility.yul\":4730:4736   */\n      dup11\n        /* \"#utility.yul\":4686:4758   */\n      tag_146\n      jump\t// in\n    tag_154:\n        /* \"#utility.yul\":4768:4840   */\n      tag_155\n        /* \"#utility.yul\":4836:4838   */\n      0x40\n        /* \"#utility.yul\":4825:4834   */\n      dup4\n        /* \"#utility.yul\":4821:4839   */\n      add\n        /* \"#utility.yul\":4812:4818   */\n      dup10\n        /* \"#utility.yul\":4768:4840   */\n      tag_146\n      jump\t// in\n    tag_155:\n        /* \"#utility.yul\":4850:4922   */\n      tag_156\n        /* \"#utility.yul\":4918:4920   */\n      0x60\n        /* \"#utility.yul\":4907:4916   */\n      dup4\n        /* \"#utility.yul\":4903:4921   */\n      add\n        /* \"#utility.yul\":4894:4900   */\n      dup9\n        /* \"#utility.yul\":4850:4922   */\n      tag_146\n      jump\t// in\n    tag_156:\n        /* \"#utility.yul\":4932:5005   */\n      tag_157\n        /* \"#utility.yul\":5000:5003   */\n      0x80\n        /* \"#utility.yul\":4989:4998   */\n      dup4\n        /* \"#utility.yul\":4985:5004   */\n      add\n        /* \"#utility.yul\":4976:4982   */\n      dup8\n        /* \"#utility.yul\":4932:5005   */\n      tag_146\n      jump\t// in\n    tag_157:\n        /* \"#utility.yul\":5015:5088   */\n      tag_158\n        /* \"#utility.yul\":5083:5086   */\n      0xa0\n        /* \"#utility.yul\":5072:5081   */\n      dup4\n        /* \"#utility.yul\":5068:5087   */\n      add\n        /* \"#utility.yul\":5059:5065   */\n      dup7\n        /* \"#utility.yul\":5015:5088   */\n      tag_146\n      jump\t// in\n    tag_158:\n        /* \"#utility.yul\":5136:5145   */\n      dup2\n        /* \"#utility.yul\":5130:5134   */\n      dup2\n        /* \"#utility.yul\":5126:5146   */\n      sub\n        /* \"#utility.yul\":5120:5123   */\n      0xc0\n        /* \"#utility.yul\":5109:5118   */\n      dup4\n        /* \"#utility.yul\":5105:5124   */\n      add\n        /* \"#utility.yul\":5098:5147   */\n      mstore\n        /* \"#utility.yul\":5164:5242   */\n      tag_159\n        /* \"#utility.yul\":5237:5241   */\n      dup2\n        /* \"#utility.yul\":5228:5234   */\n      dup6\n        /* \"#utility.yul\":5164:5242   */\n      tag_128\n      jump\t// in\n    tag_159:\n        /* \"#utility.yul\":5156:5242   */\n      swap1\n      pop\n        /* \"#utility.yul\":5252:5319   */\n      tag_160\n        /* \"#utility.yul\":5314:5317   */\n      0xe0\n        /* \"#utility.yul\":5303:5312   */\n      dup4\n        /* \"#utility.yul\":5299:5318   */\n      add\n        /* \"#utility.yul\":5290:5296   */\n      dup5\n        /* \"#utility.yul\":5252:5319   */\n      tag_116\n      jump\t// in\n    tag_160:\n        /* \"#utility.yul\":4218:5326   */\n      swap10\n      swap9\n      pop\n      pop\n      pop\n      pop\n      pop\n      pop\n      pop\n      pop\n      pop\n      jump\t// out\n        /* \"#utility.yul\":5332:5751   */\n    tag_58:\n        /* \"#utility.yul\":5498:5502   */\n      0x00\n        /* \"#utility.yul\":5536:5538   */\n      0x20\n        /* \"#utility.yul\":5525:5534   */\n      dup3\n        /* \"#utility.yul\":5521:5539   */\n      add\n        /* \"#utility.yul\":5513:5539   */\n      swap1\n      pop\n        /* \"#utility.yul\":5585:5594   */\n      dup2\n        /* \"#utility.yul\":5579:5583   */\n      dup2\n        /* \"#utility.yul\":5575:5595   */\n      sub\n        /* \"#utility.yul\":5571:5572   */\n      0x00\n        /* \"#utility.yul\":5560:5569   */\n      dup4\n        /* \"#utility.yul\":5556:5573   */\n      add\n        /* \"#utility.yul\":5549:5596   */\n      mstore\n        /* \"#utility.yul\":5613:5744   */\n      tag_162\n        /* \"#utility.yul\":5739:5743   */\n      dup2\n        /* \"#utility.yul\":5613:5744   */\n      tag_136\n      jump\t// in\n    tag_162:\n        /* \"#utility.yul\":5605:5744   */\n      swap1\n      pop\n        /* \"#utility.yul\":5332:5751   */\n      swap2\n      swap1\n      pop\n      jump\t// out\n        /* \"#utility.yul\":5757:6176   */\n    tag_39:\n        /* \"#utility.yul\":5923:5927   */\n      0x00\n        /* \"#utility.yul\":5961:5963   */\n      0x20\n        /* \"#utility.yul\":5950:5959   */\n      dup3\n        /* \"#utility.yul\":5946:5964   */\n      add\n        /* \"#utility.yul\":5938:5964   */\n      swap1\n      pop\n        /* \"#utility.yul\":6010:6019   */\n      dup2\n        /* \"#utility.yul\":6004:6008   */\n      dup2\n        /* \"#utility.yul\":6000:6020   */\n      sub\n        /* \"#utility.yul\":5996:5997   */\n      0x00\n        /* \"#utility.yul\":5985:5994   */\n      dup4\n        /* \"#utility.yul\":5981:5998   */\n      add\n        /* \"#utility.yul\":5974:6021   */\n      mstore\n        /* \"#utility.yul\":6038:6169   */\n      tag_164\n        /* \"#utility.yul\":6164:6168   */\n      dup2\n        /* \"#utility.yul\":6038:6169   */\n      tag_141\n      jump\t// in\n    tag_164:\n        /* \"#utility.yul\":6030:6169   */\n      swap1\n      pop\n        /* \"#utility.yul\":5757:6176   */\n      swap2\n      swap1\n      pop\n      jump\t// out\n        /* \"#utility.yul\":6182:6404   */\n    tag_12:\n        /* \"#utility.yul\":6275:6279   */\n      0x00\n        /* \"#utility.yul\":6313:6315   */\n      0x20\n        /* \"#utility.yul\":6302:6311   */\n      dup3\n        /* \"#utility.yul\":6298:6316   */\n      add\n        /* \"#utility.yul\":6290:6316   */\n      swap1\n      pop\n        /* \"#utility.yul\":6326:6397   */\n      tag_166\n        /* \"#utility.yul\":6394:6395   */\n      0x00\n        /* \"#utility.yul\":6383:6392   */\n      dup4\n        /* \"#utility.yul\":6379:6396   */\n      add\n        /* \"#utility.yul\":6370:6376   */\n      dup5\n        /* \"#utility.yul\":6326:6397   */\n      tag_146\n      jump\t// in\n    tag_166:\n        /* \"#utility.yul\":6182:6404   */\n      swap3\n      swap2\n      pop\n      pop\n      jump\t// out\n        /* \"#utility.yul\":6410:7074   */\n    tag_66:\n        /* \"#utility.yul\":6617:6621   */\n      0x00\n        /* \"#utility.yul\":6655:6658   */\n      0x80\n        /* \"#utility.yul\":6644:6653   */\n      dup3\n        /* \"#utility.yul\":6640:6659   */\n      add\n        /* \"#utility.yul\":6632:6659   */\n      swap1\n      pop\n        /* \"#utility.yul\":6669:6740   */\n      tag_168\n        /* \"#utility.yul\":6737:6738   */\n      0x00\n        /* \"#utility.yul\":6726:6735   */\n      dup4\n        /* \"#utility.yul\":6722:6739   */\n      add\n        /* \"#utility.yul\":6713:6719   */\n      dup9\n        /* \"#utility.yul\":6669:6740   */\n      tag_146\n      jump\t// in\n    tag_168:\n        /* \"#utility.yul\":6787:6796   */\n      dup2\n        /* \"#utility.yul\":6781:6785   */\n      dup2\n        /* \"#utility.yul\":6777:6797   */\n      sub\n        /* \"#utility.yul\":6772:6774   */\n      0x20\n        /* \"#utility.yul\":6761:6770   */\n      dup4\n        /* \"#utility.yul\":6757:6775   */\n      add\n        /* \"#utility.yul\":6750:6798   */\n      mstore\n        /* \"#utility.yul\":6815:6903   */\n      tag_169\n        /* \"#utility.yul\":6898:6902   */\n      dup2\n        /* \"#utility.yul\":6889:6895   */\n      dup7\n        /* \"#utility.yul\":6881:6887   */\n      dup9\n        /* \"#utility.yul\":6815:6903   */\n      tag_120\n      jump\t// in\n    tag_169:\n        /* \"#utility.yul\":6807:6903   */\n      swap1\n      pop\n        /* \"#utility.yul\":6913:6985   */\n      tag_170\n        /* \"#utility.yul\":6981:6983   */\n      0x40\n        /* \"#utility.yul\":6970:6979   */\n      dup4\n        /* \"#utility.yul\":6966:6984   */\n      add\n        /* \"#utility.yul\":6957:6963   */\n      dup6\n        /* \"#utility.yul\":6913:6985   */\n      tag_146\n      jump\t// in\n    tag_170:\n        /* \"#utility.yul\":6995:7067   */\n      tag_171\n        /* \"#utility.yul\":7063:7065   */\n      0x60\n        /* \"#utility.yul\":7052:7061   */\n      dup4\n        /* \"#utility.yul\":7048:7066   */\n      add\n        /* \"#utility.yul\":7039:7045   */\n      dup5\n        /* \"#utility.yul\":6995:7067   */\n      tag_146\n      jump\t// in\n    tag_171:\n        /* \"#utility.yul\":6410:7074   */\n      swap7\n      swap6\n      pop\n      pop\n      pop\n      pop\n      pop\n      pop\n      jump\t// out\n        /* \"#utility.yul\":7161:7260   */\n    tag_131:\n        /* \"#utility.yul\":7213:7219   */\n      0x00\n        /* \"#utility.yul\":7247:7252   */\n      dup2\n        /* \"#utility.yul\":7241:7253   */\n      mload\n        /* \"#utility.yul\":7231:7253   */\n      swap1\n      pop\n        /* \"#utility.yul\":7161:7260   */\n      swap2\n      swap1\n      pop\n      jump\t// out\n        /* \"#utility.yul\":7266:7435   */\n    tag_123:\n        /* \"#utility.yul\":7350:7361   */\n      0x00\n        /* \"#utility.yul\":7384:7390   */\n      dup3\n        /* \"#utility.yul\":7379:7382   */\n      dup3\n        /* \"#utility.yul\":7372:7391   */\n      mstore\n        /* \"#utility.yul\":7424:7428   */\n      0x20\n        /* \"#utility.yul\":7419:7422   */\n      dup3\n        /* \"#utility.yul\":7415:7429   */\n      add\n        /* \"#utility.yul\":7400:7429   */\n      swap1\n      pop\n        /* \"#utility.yul\":7266:7435   */\n      swap3\n      swap2\n      pop\n      pop\n      jump\t// out\n        /* \"#utility.yul\":7441:7746   */\n    tag_60:\n        /* \"#utility.yul\":7481:7484   */\n      0x00\n        /* \"#utility.yul\":7500:7520   */\n      tag_177\n        /* \"#utility.yul\":7518:7519   */\n      dup3\n        /* \"#utility.yul\":7500:7520   */\n      tag_149\n      jump\t// in\n    tag_177:\n        /* \"#utility.yul\":7495:7520   */\n      swap2\n      pop\n        /* \"#utility.yul\":7534:7554   */\n      tag_178\n        /* \"#utility.yul\":7552:7553   */\n      dup4\n        /* \"#utility.yul\":7534:7554   */\n      tag_149\n      jump\t// in\n    tag_178:\n        /* \"#utility.yul\":7529:7554   */\n      swap3\n      pop\n        /* \"#utility.yul\":7688:7689   */\n      dup3\n        /* \"#utility.yul\":7620:7686   */\n      0xffffffffffffffffffffffffffffffffffffffffffffffffffffffffffffffff\n        /* \"#utility.yul\":7616:7690   */\n      sub\n        /* \"#utility.yul\":7613:7614   */\n      dup3\n        /* \"#utility.yul\":7610:7691   */\n      gt\n        /* \"#utility.yul\":7607:7714   */\n      iszero\n      tag_179\n      jumpi\n        /* \"#utility.yul\":7694:7712   */\n      tag_180\n      tag_181\n      jump\t// in\n    tag_180:\n        /* \"#utility.yul\":7607:7714   */\n    tag_179:\n        /* \"#utility.yul\":7738:7739   */\n      dup3\n        /* \"#utility.yul\":7735:7736   */\n      dup3\n        /* \"#utility.yul\":7731:7740   */\n      add\n        /* \"#utility.yul\":7724:7740   */\n      swap1\n      pop\n        /* \"#utility.yul\":7441:7746   */\n      swap3\n      swap2\n      pop\n      pop\n      jump\t// out\n        /* \"#utility.yul\":7752:8100   */\n    tag_43:\n        /* \"#utility.yul\":7792:7799   */\n      0x00\n        /* \"#utility.yul\":7815:7835   */\n      tag_183\n        /* \"#utility.yul\":7833:7834   */\n      dup3\n        /* \"#utility.yul\":7815:7835   */\n      tag_149\n      jump\t// in\n    tag_183:\n        /* \"#utility.yul\":7810:7835   */\n      swap2\n      pop\n        /* \"#utility.yul\":7849:7869   */\n      tag_184\n        /* \"#utility.yul\":7867:7868   */\n      dup4\n        /* \"#utility.yul\":7849:7869   */\n      tag_149\n      jump\t// in\n    tag_184:\n        /* \"#utility.yul\":7844:7869   */\n      swap3\n      pop\n        /* \"#utility.yul\":8037:8038   */\n      dup2\n        /* \"#utility.yul\":7969:8035   */\n      0xffffffffffffffffffffffffffffffffffffffffffffffffffffffffffffffff\n        /* \"#utility.yul\":7965:8039   */\n      div\n        /* \"#utility.yul\":7962:7963   */\n      dup4\n        /* \"#utility.yul\":7959:8040   */\n      gt\n        /* \"#utility.yul\":7954:7955   */\n      dup3\n        /* \"#utility.yul\":7947:7956   */\n      iszero\n        /* \"#utility.yul\":7940:7957   */\n      iszero\n        /* \"#utility.yul\":7936:8041   */\n      and\n        /* \"#utility.yul\":7933:8064   */\n      iszero\n      tag_185\n      jumpi\n        /* \"#utility.yul\":8044:8062   */\n      tag_186\n      tag_181\n      jump\t// in\n    tag_186:\n        /* \"#utility.yul\":7933:8064   */\n    tag_185:\n        /* \"#utility.yul\":8092:8093   */\n      dup3\n        /* \"#utility.yul\":8089:8090   */\n      dup3\n        /* \"#utility.yul\":8085:8094   */\n      mul\n        /* \"#utility.yul\":8074:8094   */\n      swap1\n      pop\n        /* \"#utility.yul\":7752:8100   */\n      swap3\n      swap2\n      pop\n      pop\n      jump\t// out\n        /* \"#utility.yul\":8106:8297   */\n    tag_41:\n        /* \"#utility.yul\":8146:8150   */\n      0x00\n        /* \"#utility.yul\":8166:8186   */\n      tag_188\n        /* \"#utility.yul\":8184:8185   */\n      dup3\n        /* \"#utility.yul\":8166:8186   */\n      tag_149\n      jump\t// in\n    tag_188:\n        /* \"#utility.yul\":8161:8186   */\n      swap2\n      pop\n        /* \"#utility.yul\":8200:8220   */\n      tag_189\n        /* \"#utility.yul\":8218:8219   */\n      dup4\n        /* \"#utility.yul\":8200:8220   */\n      tag_149\n      jump\t// in\n    tag_189:\n        /* \"#utility.yul\":8195:8220   */\n      swap3\n      pop\n        /* \"#utility.yul\":8239:8240   */\n      dup3\n        /* \"#utility.yul\":8236:8237   */\n      dup3\n        /* \"#utility.yul\":8233:8241   */\n      lt\n        /* \"#utility.yul\":8230:8264   */\n      iszero\n      tag_190\n      jumpi\n        /* \"#utility.yul\":8244:8262   */\n      tag_191\n      tag_181\n      jump\t// in\n    tag_191:\n        /* \"#utility.yul\":8230:8264   */\n    tag_190:\n        /* \"#utility.yul\":8289:8290   */\n      dup3\n        /* \"#utility.yul\":8286:8287   */\n      dup3\n        /* \"#utility.yul\":8282:8291   */\n      sub\n        /* \"#utility.yul\":8274:8291   */\n      swap1\n      pop\n        /* \"#utility.yul\":8106:8297   */\n      swap3\n      swap2\n      pop\n      pop\n      jump\t// out\n        /* \"#utility.yul\":8303:8399   */\n    tag_115:\n        /* \"#utility.yul\":8340:8347   */\n      0x00\n        /* \"#utility.yul\":8369:8393   */\n      tag_193\n        /* \"#utility.yul\":8387:8392   */\n      dup3\n        /* \"#utility.yul\":8369:8393   */\n      tag_194\n      jump\t// in\n    tag_193:\n        /* \"#utility.yul\":8358:8393   */\n      swap1\n      pop\n        /* \"#utility.yul\":8303:8399   */\n      swap2\n      swap1\n      pop\n      jump\t// out\n        /* \"#utility.yul\":8405:8509   */\n    tag_111:\n        /* \"#utility.yul\":8450:8457   */\n      0x00\n        /* \"#utility.yul\":8479:8503   */\n      tag_196\n        /* \"#utility.yul\":8497:8502   */\n      dup3\n        /* \"#utility.yul\":8479:8503   */\n      tag_194\n      jump\t// in\n    tag_196:\n        /* \"#utility.yul\":8468:8503   */\n      swap1\n      pop\n        /* \"#utility.yul\":8405:8509   */\n      swap2\n      swap1\n      pop\n      jump\t// out\n        /* \"#utility.yul\":8515:8605   */\n    tag_119:\n        /* \"#utility.yul\":8549:8556   */\n      0x00\n        /* \"#utility.yul\":8592:8597   */\n      dup2\n        /* \"#utility.yul\":8585:8598   */\n      iszero\n        /* \"#utility.yul\":8578:8599   */\n      iszero\n        /* \"#utility.yul\":8567:8599   */\n      swap1\n      pop\n        /* \"#utility.yul\":8515:8605   */\n      swap2\n      swap1\n      pop\n      jump\t// out\n        /* \"#utility.yul\":8611:8737   */\n    tag_194:\n        /* \"#utility.yul\":8648:8655   */\n      0x00\n        /* \"#utility.yul\":8688:8730   */\n      0xffffffffffffffffffffffffffffffffffffffff\n        /* \"#utility.yul\":8681:8686   */\n      dup3\n        /* \"#utility.yul\":8677:8731   */\n      and\n        /* \"#utility.yul\":8666:8731   */\n      swap1\n      pop\n        /* \"#utility.yul\":8611:8737   */\n      swap2\n      swap1\n      pop\n      jump\t// out\n        /* \"#utility.yul\":8743:8820   */\n    tag_149:\n        /* \"#utility.yul\":8780:8787   */\n      0x00\n        /* \"#utility.yul\":8809:8814   */\n      dup2\n        /* \"#utility.yul\":8798:8814   */\n      swap1\n      pop\n        /* \"#utility.yul\":8743:8820   */\n      swap2\n      swap1\n      pop\n      jump\t// out\n        /* \"#utility.yul\":8826:8980   */\n    tag_125:\n        /* \"#utility.yul\":8910:8916   */\n      dup3\n        /* \"#utility.yul\":8905:8908   */\n      dup2\n        /* \"#utility.yul\":8900:8903   */\n      dup4\n        /* \"#utility.yul\":8887:8917   */\n      calldatacopy\n        /* \"#utility.yul\":8972:8973   */\n      0x00\n        /* \"#utility.yul\":8963:8969   */\n      dup4\n        /* \"#utility.yul\":8958:8961   */\n      dup4\n        /* \"#utility.yul\":8954:8970   */\n      add\n        /* \"#utility.yul\":8947:8974   */\n      mstore\n        /* \"#utility.yul\":8826:8980   */\n      pop\n      pop\n      pop\n      jump\t// out\n        /* \"#utility.yul\":8986:9293   */\n    tag_134:\n        /* \"#utility.yul\":9054:9055   */\n      0x00\n        /* \"#utility.yul\":9064:9177   */\n    tag_202:\n        /* \"#utility.yul\":9078:9084   */\n      dup4\n        /* \"#utility.yul\":9075:9076   */\n      dup2\n        /* \"#utility.yul\":9072:9085   */\n      lt\n        /* \"#utility.yul\":9064:9177   */\n      iszero\n      tag_204\n      jumpi\n        /* \"#utility.yul\":9163:9164   */\n      dup1\n        /* \"#utility.yul\":9158:9161   */\n      dup3\n        /* \"#utility.yul\":9154:9165   */\n      add\n        /* \"#utility.yul\":9148:9166   */\n      mload\n        /* \"#utility.yul\":9144:9145   */\n      dup2\n        /* \"#utility.yul\":9139:9142   */\n      dup5\n        /* \"#utility.yul\":9135:9146   */\n      add\n        /* \"#utility.yul\":9128:9167   */\n      mstore\n        /* \"#utility.yul\":9100:9102   */\n      0x20\n        /* \"#utility.yul\":9097:9098   */\n      dup2\n        /* \"#utility.yul\":9093:9103   */\n      add\n        /* \"#utility.yul\":9088:9103   */\n      swap1\n      pop\n        /* \"#utility.yul\":9064:9177   */\n      jump(tag_202)\n    tag_204:\n        /* \"#utility.yul\":9195:9201   */\n      dup4\n        /* \"#utility.yul\":9192:9193   */\n      dup2\n        /* \"#utility.yul\":9189:9202   */\n      gt\n        /* \"#utility.yul\":9186:9287   */\n      iszero\n      tag_205\n      jumpi\n        /* \"#utility.yul\":9275:9276   */\n      0x00\n        /* \"#utility.yul\":9266:9272   */\n      dup5\n        /* \"#utility.yul\":9261:9264   */\n      dup5\n        /* \"#utility.yul\":9257:9273   */\n      add\n        /* \"#utility.yul\":9250:9277   */\n      mstore\n        /* \"#utility.yul\":9186:9287   */\n    tag_205:\n        /* \"#utility.yul\":9035:9293   */\n      pop\n        /* \"#utility.yul\":8986:9293   */\n      pop\n      pop\n      pop\n      jump\t// out\n        /* \"#utility.yul\":9299:9619   */\n    tag_32:\n        /* \"#utility.yul\":9343:9349   */\n      0x00\n        /* \"#utility.yul\":9380:9381   */\n      0x02\n        /* \"#utility.yul\":9374:9378   */\n      dup3\n        /* \"#utility.yul\":9370:9382   */\n      div\n        /* \"#utility.yul\":9360:9382   */\n      swap1\n      pop\n        /* \"#utility.yul\":9427:9428   */\n      0x01\n        /* \"#utility.yul\":9421:9425   */\n      dup3\n        /* \"#utility.yul\":9417:9429   */\n      and\n        /* \"#utility.yul\":9448:9466   */\n      dup1\n        /* \"#utility.yul\":9438:9519   */\n      tag_207\n      jumpi\n        /* \"#utility.yul\":9504:9508   */\n      0x7f\n        /* \"#utility.yul\":9496:9502   */\n      dup3\n        /* \"#utility.yul\":9492:9509   */\n      and\n        /* \"#utility.yul\":9482:9509   */\n      swap2\n      pop\n        /* \"#utility.yul\":9438:9519   */\n    tag_207:\n        /* \"#utility.yul\":9566:9568   */\n      0x20\n        /* \"#utility.yul\":9558:9564   */\n      dup3\n        /* \"#utility.yul\":9555:9569   */\n      lt\n        /* \"#utility.yul\":9535:9553   */\n      dup2\n        /* \"#utility.yul\":9532:9570   */\n      eq\n        /* \"#utility.yul\":9529:9613   */\n      iszero\n      tag_208\n      jumpi\n        /* \"#utility.yul\":9585:9603   */\n      tag_209\n      tag_210\n      jump\t// in\n    tag_209:\n        /* \"#utility.yul\":9529:9613   */\n    tag_208:\n        /* \"#utility.yul\":9350:9619   */\n      pop\n        /* \"#utility.yul\":9299:9619   */\n      swap2\n      swap1\n      pop\n      jump\t// out\n        /* \"#utility.yul\":9625:9805   */\n    tag_181:\n        /* \"#utility.yul\":9673:9750   */\n      0x4e487b7100000000000000000000000000000000000000000000000000000000\n        /* \"#utility.yul\":9670:9671   */\n      0x00\n        /* \"#utility.yul\":9663:9751   */\n      mstore\n        /* \"#utility.yul\":9770:9774   */\n      0x11\n        /* \"#utility.yul\":9767:9768   */\n      0x04\n        /* \"#utility.yul\":9760:9775   */\n      mstore\n        /* \"#utility.yul\":9794:9798   */\n      0x24\n        /* \"#utility.yul\":9791:9792   */\n      0x00\n        /* \"#utility.yul\":9784:9799   */\n      revert\n        /* \"#utility.yul\":9811:9991   */\n    tag_210:\n        /* \"#utility.yul\":9859:9936   */\n      0x4e487b7100000000000000000000000000000000000000000000000000000000\n        /* \"#utility.yul\":9856:9857   */\n      0x00\n        /* \"#utility.yul\":9849:9937   */\n      mstore\n        /* \"#utility.yul\":9956:9960   */\n      0x22\n        /* \"#utility.yul\":9953:9954   */\n      0x04\n        /* \"#utility.yul\":9946:9961   */\n      mstore\n        /* \"#utility.yul\":9980:9984   */\n      0x24\n        /* \"#utility.yul\":9977:9978   */\n      0x00\n        /* \"#utility.yul\":9970:9985   */\n      revert\n        /* \"#utility.yul\":9997:10177   */\n    tag_29:\n        /* \"#utility.yul\":10045:10122   */\n      0x4e487b7100000000000000000000000000000000000000000000000000000000\n        /* \"#utility.yul\":10042:10043   */\n      0x00\n        /* \"#utility.yul\":10035:10123   */\n      mstore\n        /* \"#utility.yul\":10142:10146   */\n      0x32\n        /* \"#utility.yul\":10139:10140   */\n      0x04\n        /* \"#utility.yul\":10132:10147   */\n      mstore\n        /* \"#utility.yul\":10166:10170   */\n      0x24\n        /* \"#utility.yul\":10163:10164   */\n      0x00\n        /* \"#utility.yul\":10156:10171   */\n      revert\n        /* \"#utility.yul\":10183:10300   */\n    tag_85:\n        /* \"#utility.yul\":10292:10293   */\n      0x00\n        /* \"#utility.yul\":10289:10290   */\n      dup1\n        /* \"#utility.yul\":10282:10294   */\n      revert\n        /* \"#utility.yul\":10306:10423   */\n    tag_82:\n        /* \"#utility.yul\":10415:10416   */\n      0x00\n        /* \"#utility.yul\":10412:10413   */\n      dup1\n        /* \"#utility.yul\":10405:10417   */\n      revert\n        /* \"#utility.yul\":10429:10546   */\n    tag_88:\n        /* \"#utility.yul\":10538:10539   */\n      0x00\n        /* \"#utility.yul\":10535:10536   */\n      dup1\n        /* \"#utility.yul\":10528:10540   */\n      revert\n        /* \"#utility.yul\":10552:10669   */\n    tag_105:\n        /* \"#utility.yul\":10661:10662   */\n      0x00\n        /* \"#utility.yul\":10658:10659   */\n      dup1\n        /* \"#utility.yul\":10651:10663   */\n      revert\n        /* \"#utility.yul\":10675:10792   */\n    tag_96:\n        /* \"#utility.yul\":10784:10785   */\n      0x00\n        /* \"#utility.yul\":10781:10782   */\n      dup1\n        /* \"#utility.yul\":10774:10786   */\n      revert\n        /* \"#utility.yul\":10798:10900   */\n    tag_127:\n        /* \"#utility.yul\":10839:10845   */\n      0x00\n        /* \"#utility.yul\":10890:10892   */\n      0x1f\n        /* \"#utility.yul\":10886:10893   */\n      not\n        /* \"#utility.yul\":10881:10883   */\n      0x1f\n        /* \"#utility.yul\":10874:10879   */\n      dup4\n        /* \"#utility.yul\":10870:10884   */\n      add\n        /* \"#utility.yul\":10866:10894   */\n      and\n        /* \"#utility.yul\":10856:10894   */\n      swap1\n      pop\n        /* \"#utility.yul\":10798:10900   */\n      swap2\n      swap1\n      pop\n      jump\t// out\n        /* \"#utility.yul\":10906:11081   */\n    tag_140:\n        /* \"#utility.yul\":11046:11073   */\n      0x496e636f7272656374207374617274696e672070726963652e00000000000000\n        /* \"#utility.yul\":11042:11043   */\n      0x00\n        /* \"#utility.yul\":11034:11040   */\n      dup3\n        /* \"#utility.yul\":11030:11044   */\n      add\n        /* \"#utility.yul\":11023:11074   */\n      mstore\n        /* \"#utility.yul\":10906:11081   */\n      pop\n      jump\t// out\n        /* \"#utility.yul\":11087:11256   */\n    tag_145:\n        /* \"#utility.yul\":11227:11248   */\n      0x41756374696f6e2069732073746f707065642e00000000000000000000000000\n        /* \"#utility.yul\":11223:11224   */\n      0x00\n        /* \"#utility.yul\":11215:11221   */\n      dup3\n        /* \"#utility.yul\":11211:11225   */\n      add\n        /* \"#utility.yul\":11204:11249   */\n      mstore\n        /* \"#utility.yul\":11087:11256   */\n      pop\n      jump\t// out\n        /* \"#utility.yul\":11262:11384   */\n    tag_92:\n        /* \"#utility.yul\":11335:11359   */\n      tag_223\n        /* \"#utility.yul\":11353:11358   */\n      dup2\n        /* \"#utility.yul\":11335:11359   */\n      tag_149\n      jump\t// in\n    tag_223:\n        /* \"#utility.yul\":11328:11333   */\n      dup2\n        /* \"#utility.yul\":11325:11360   */\n      eq\n        /* \"#utility.yul\":11315:11378   */\n      tag_224\n      jumpi\n        /* \"#utility.yul\":11374:11375   */\n      0x00\n        /* \"#utility.yul\":11371:11372   */\n      dup1\n        /* \"#utility.yul\":11364:11376   */\n      revert\n        /* \"#utility.yul\":11315:11378   */\n    tag_224:\n        /* \"#utility.yul\":11262:11384   */\n      pop\n      jump\t// out\n\n    auxdata: 0xa264697066735822122068f7305d40191e99011e8e0060d07fbdce819b50bcf2e5638fecdd4e2666988c64736f6c63430008070033\n}\n",
				"bytecode": {
					"linkReferences": {},
					"object": "608060405234801561001057600080fd5b50336000806101000a81548173ffffffffffffffffffffffffffffffffffffffff021916908373ffffffffffffffffffffffffffffffffffffffff160217905550610d70806100606000396000f3fe608060405234801561001057600080fd5b506004361061004c5760003560e01c80634534cd9c14610051578063571a26a0146100815780638da5cb5b146100b8578063e9835d15146100d6575b600080fd5b61006b60048036038101906100669190610766565b6100f2565b60405161007891906109e3565b60405180910390f35b61009b60048036038101906100969190610766565b6102e1565b6040516100af98979695949392919061091e565b60405180910390f35b6100c06103ee565b6040516100cd9190610903565b60405180910390f35b6100f060048036038101906100eb9190610793565b610412565b005b6000806001838154811061010957610108610c78565b5b9060005260206000209060080201604051806101000160405290816000820160009054906101000a900473ffffffffffffffffffffffffffffffffffffffff1673ffffffffffffffffffffffffffffffffffffffff1673ffffffffffffffffffffffffffffffffffffffff16815260200160018201548152602001600282015481526020016003820154815260200160048201548152602001600582015481526020016006820180546101bb90610be8565b80601f01602080910402602001604051908101604052809291908181526020018280546101e790610be8565b80156102345780601f1061020957610100808354040283529160200191610234565b820191906000526020600020905b81548152906001019060200180831161021757829003601f168201915b505050505081526020016007820160009054906101000a900460ff16151515158152505090508060e001511561029f576040517f08c379a0000000000000000000000000000000000000000000000000000000008152600401610296906109c3565b60405180910390fd5b60008160600151426102b19190610b18565b90506000818360a001516102c59190610abe565b90508083602001516102d79190610b18565b9350505050919050565b600181815481106102f157600080fd5b90600052602060002090600802016000915090508060000160009054906101000a900473ffffffffffffffffffffffffffffffffffffffff169080600101549080600201549080600301549080600401549080600501549080600601805461035890610be8565b80601f016020809104026020016040519081016040528092919081815260200182805461038490610be8565b80156103d15780601f106103a6576101008083540402835291602001916103d1565b820191906000526020600020905b8154815290600101906020018083116103b457829003601f168201915b5050505050908060070160009054906101000a900460ff16905088565b60008054906101000a900473ffffffffffffffffffffffffffffffffffffffff1681565b60008082146104215781610426565b6202a3005b905081856104349190610abe565b861015610476576040517f08c379a000000000000000000000000000000000000000000000000000000000815260040161046d906109a3565b60405180910390fd5b60006040518061010001604052803373ffffffffffffffffffffffffffffffffffffffff16815260200188815260200188815260200142815260200183426104be9190610a68565b815260200187815260200186868080601f016020809104026020016040519081016040528093929190818152602001838380828437600081840152601f19601f820116905080830192505050505050508152602001600015158152509050600181908060018154018082558091505060019003906000526020600020906008020160009091909190915060008201518160000160006101000a81548173ffffffffffffffffffffffffffffffffffffffff021916908373ffffffffffffffffffffffffffffffffffffffff1602179055506020820151816001015560408201518160020155606082015181600301556080820151816004015560a0820151816005015560c08201518160060190805190602001906105dd929190610658565b5060e08201518160070160006101000a81548160ff02191690831515021790555050507f5bf34ed94988e5dcdc7d1faaa54eb1d3b55f45d5f11457e235afb21a8ebbe73c600180805490506106329190610b18565b86868a866040516106479594939291906109fe565b60405180910390a150505050505050565b82805461066490610be8565b90600052602060002090601f01602090048101928261068657600085556106cd565b82601f1061069f57805160ff19168380011785556106cd565b828001600101855582156106cd579182015b828111156106cc5782518255916020019190600101906106b1565b5b5090506106da91906106de565b5090565b5b808211156106f75760008160009055506001016106df565b5090565b60008083601f84011261071157610710610cac565b5b8235905067ffffffffffffffff81111561072e5761072d610ca7565b5b60208301915083600182028301111561074a57610749610cb1565b5b9250929050565b60008135905061076081610d23565b92915050565b60006020828403121561077c5761077b610cbb565b5b600061078a84828501610751565b91505092915050565b6000806000806000608086880312156107af576107ae610cbb565b5b60006107bd88828901610751565b95505060206107ce88828901610751565b945050604086013567ffffffffffffffff8111156107ef576107ee610cb6565b5b6107fb888289016106fb565b9350935050606061080e88828901610751565b9150509295509295909350565b61082481610b5e565b82525050565b61083381610b4c565b82525050565b61084281610b70565b82525050565b60006108548385610a57565b9350610861838584610ba6565b61086a83610cc0565b840190509392505050565b600061088082610a4c565b61088a8185610a57565b935061089a818560208601610bb5565b6108a381610cc0565b840191505092915050565b60006108bb601983610a57565b91506108c682610cd1565b602082019050919050565b60006108de601383610a57565b91506108e982610cfa565b602082019050919050565b6108fd81610b9c565b82525050565b6000602082019050610918600083018461082a565b92915050565b600061010082019050610934600083018b61081b565b610941602083018a6108f4565b61094e60408301896108f4565b61095b60608301886108f4565b61096860808301876108f4565b61097560a08301866108f4565b81810360c08301526109878185610875565b905061099660e0830184610839565b9998505050505050505050565b600060208201905081810360008301526109bc816108ae565b9050919050565b600060208201905081810360008301526109dc816108d1565b9050919050565b60006020820190506109f860008301846108f4565b92915050565b6000608082019050610a1360008301886108f4565b8181036020830152610a26818688610848565b9050610a3560408301856108f4565b610a4260608301846108f4565b9695505050505050565b600081519050919050565b600082825260208201905092915050565b6000610a7382610b9c565b9150610a7e83610b9c565b9250827fffffffffffffffffffffffffffffffffffffffffffffffffffffffffffffffff03821115610ab357610ab2610c1a565b5b828201905092915050565b6000610ac982610b9c565b9150610ad483610b9c565b9250817fffffffffffffffffffffffffffffffffffffffffffffffffffffffffffffffff0483118215151615610b0d57610b0c610c1a565b5b828202905092915050565b6000610b2382610b9c565b9150610b2e83610b9c565b925082821015610b4157610b40610c1a565b5b828203905092915050565b6000610b5782610b7c565b9050919050565b6000610b6982610b7c565b9050919050565b60008115159050919050565b600073ffffffffffffffffffffffffffffffffffffffff82169050919050565b6000819050919050565b82818337600083830152505050565b60005b83811015610bd3578082015181840152602081019050610bb8565b83811115610be2576000848401525b50505050565b60006002820490506001821680610c0057607f821691505b60208210811415610c1457610c13610c49565b5b50919050565b7f4e487b7100000000000000000000000000000000000000000000000000000000600052601160045260246000fd5b7f4e487b7100000000000000000000000000000000000000000000000000000000600052602260045260246000fd5b7f4e487b7100000000000000000000000000000000000000000000000000000000600052603260045260246000fd5b600080fd5b600080fd5b600080fd5b600080fd5b600080fd5b6000601f19601f8301169050919050565b7f496e636f7272656374207374617274696e672070726963652e00000000000000600082015250565b7f41756374696f6e2069732073746f707065642e00000000000000000000000000600082015250565b610d2c81610b9c565b8114610d3757600080fd5b5056fea264697066735822122068f7305d40191e99011e8e0060d07fbdce819b50bcf2e5638fecdd4e2666988c64736f6c63430008070033",
					"opcodes": "PUSH1 0x80 PUSH1 0x40 MSTORE CALLVALUE DUP1 ISZERO PUSH2 0x10 JUMPI PUSH1 0x0 DUP1 REVERT JUMPDEST POP CALLER PUSH1 0x0 DUP1 PUSH2 0x100 EXP DUP2 SLOAD DUP2 PUSH20 0xFFFFFFFFFFFFFFFFFFFFFFFFFFFFFFFFFFFFFFFF MUL NOT AND SWAP1 DUP4 PUSH20 0xFFFFFFFFFFFFFFFFFFFFFFFFFFFFFFFFFFFFFFFF AND MUL OR SWAP1 SSTORE POP PUSH2 0xD70 DUP1 PUSH2 0x60 PUSH1 0x0 CODECOPY PUSH1 0x0 RETURN INVALID PUSH1 0x80 PUSH1 0x40 MSTORE CALLVALUE DUP1 ISZERO PUSH2 0x10 JUMPI PUSH1 0x0 DUP1 REVERT JUMPDEST POP PUSH1 0x4 CALLDATASIZE LT PUSH2 0x4C JUMPI PUSH1 0x0 CALLDATALOAD PUSH1 0xE0 SHR DUP1 PUSH4 0x4534CD9C EQ PUSH2 0x51 JUMPI DUP1 PUSH4 0x571A26A0 EQ PUSH2 0x81 JUMPI DUP1 PUSH4 0x8DA5CB5B EQ PUSH2 0xB8 JUMPI DUP1 PUSH4 0xE9835D15 EQ PUSH2 0xD6 JUMPI JUMPDEST PUSH1 0x0 DUP1 REVERT JUMPDEST PUSH2 0x6B PUSH1 0x4 DUP1 CALLDATASIZE SUB DUP2 ADD SWAP1 PUSH2 0x66 SWAP2 SWAP1 PUSH2 0x766 JUMP JUMPDEST PUSH2 0xF2 JUMP JUMPDEST PUSH1 0x40 MLOAD PUSH2 0x78 SWAP2 SWAP1 PUSH2 0x9E3 JUMP JUMPDEST PUSH1 0x40 MLOAD DUP1 SWAP2 SUB SWAP1 RETURN JUMPDEST PUSH2 0x9B PUSH1 0x4 DUP1 CALLDATASIZE SUB DUP2 ADD SWAP1 PUSH2 0x96 SWAP2 SWAP1 PUSH2 0x766 JUMP JUMPDEST PUSH2 0x2E1 JUMP JUMPDEST PUSH1 0x40 MLOAD PUSH2 0xAF SWAP9 SWAP8 SWAP7 SWAP6 SWAP5 SWAP4 SWAP3 SWAP2 SWAP1 PUSH2 0x91E JUMP JUMPDEST PUSH1 0x40 MLOAD DUP1 SWAP2 SUB SWAP1 RETURN JUMPDEST PUSH2 0xC0 PUSH2 0x3EE JUMP JUMPDEST PUSH1 0x40 MLOAD PUSH2 0xCD SWAP2 SWAP1 PUSH2 0x903 JUMP JUMPDEST PUSH1 0x40 MLOAD DUP1 SWAP2 SUB SWAP1 RETURN JUMPDEST PUSH2 0xF0 PUSH1 0x4 DUP1 CALLDATASIZE SUB DUP2 ADD SWAP1 PUSH2 0xEB SWAP2 SWAP1 PUSH2 0x793 JUMP JUMPDEST PUSH2 0x412 JUMP JUMPDEST STOP JUMPDEST PUSH1 0x0 DUP1 PUSH1 0x1 DUP4 DUP2 SLOAD DUP2 LT PUSH2 0x109 JUMPI PUSH2 0x108 PUSH2 0xC78 JUMP JUMPDEST JUMPDEST SWAP1 PUSH1 0x0 MSTORE PUSH1 0x20 PUSH1 0x0 KECCAK256 SWAP1 PUSH1 0x8 MUL ADD PUSH1 0x40 MLOAD DUP1 PUSH2 0x100 ADD PUSH1 0x40 MSTORE SWAP1 DUP2 PUSH1 0x0 DUP3 ADD PUSH1 0x0 SWAP1 SLOAD SWAP1 PUSH2 0x100 EXP SWAP1 DIV PUSH20 0xFFFFFFFFFFFFFFFFFFFFFFFFFFFFFFFFFFFFFFFF AND PUSH20 0xFFFFFFFFFFFFFFFFFFFFFFFFFFFFFFFFFFFFFFFF AND PUSH20 0xFFFFFFFFFFFFFFFFFFFFFFFFFFFFFFFFFFFFFFFF AND DUP2 MSTORE PUSH1 0x20 ADD PUSH1 0x1 DUP3 ADD SLOAD DUP2 MSTORE PUSH1 0x20 ADD PUSH1 0x2 DUP3 ADD SLOAD DUP2 MSTORE PUSH1 0x20 ADD PUSH1 0x3 DUP3 ADD SLOAD DUP2 MSTORE PUSH1 0x20 ADD PUSH1 0x4 DUP3 ADD SLOAD DUP2 MSTORE PUSH1 0x20 ADD PUSH1 0x5 DUP3 ADD SLOAD DUP2 MSTORE PUSH1 0x20 ADD PUSH1 0x6 DUP3 ADD DUP1 SLOAD PUSH2 0x1BB SWAP1 PUSH2 0xBE8 JUMP JUMPDEST DUP1 PUSH1 0x1F ADD PUSH1 0x20 DUP1 SWAP2 DIV MUL PUSH1 0x20 ADD PUSH1 0x40 MLOAD SWAP1 DUP2 ADD PUSH1 0x40 MSTORE DUP1 SWAP3 SWAP2 SWAP1 DUP2 DUP2 MSTORE PUSH1 0x20 ADD DUP3 DUP1 SLOAD PUSH2 0x1E7 SWAP1 PUSH2 0xBE8 JUMP JUMPDEST DUP1 ISZERO PUSH2 0x234 JUMPI DUP1 PUSH1 0x1F LT PUSH2 0x209 JUMPI PUSH2 0x100 DUP1 DUP4 SLOAD DIV MUL DUP4 MSTORE SWAP2 PUSH1 0x20 ADD SWAP2 PUSH2 0x234 JUMP JUMPDEST DUP3 ADD SWAP2 SWAP1 PUSH1 0x0 MSTORE PUSH1 0x20 PUSH1 0x0 KECCAK256 SWAP1 JUMPDEST DUP2 SLOAD DUP2 MSTORE SWAP1 PUSH1 0x1 ADD SWAP1 PUSH1 0x20 ADD DUP1 DUP4 GT PUSH2 0x217 JUMPI DUP3 SWAP1 SUB PUSH1 0x1F AND DUP3 ADD SWAP2 JUMPDEST POP POP POP POP POP DUP2 MSTORE PUSH1 0x20 ADD PUSH1 0x7 DUP3 ADD PUSH1 0x0 SWAP1 SLOAD SWAP1 PUSH2 0x100 EXP SWAP1 DIV PUSH1 0xFF AND ISZERO ISZERO ISZERO ISZERO DUP2 MSTORE POP POP SWAP1 POP DUP1 PUSH1 0xE0 ADD MLOAD ISZERO PUSH2 0x29F JUMPI PUSH1 0x40 MLOAD PUSH32 0x8C379A000000000000000000000000000000000000000000000000000000000 DUP2 MSTORE PUSH1 0x4 ADD PUSH2 0x296 SWAP1 PUSH2 0x9C3 JUMP JUMPDEST PUSH1 0x40 MLOAD DUP1 SWAP2 SUB SWAP1 REVERT JUMPDEST PUSH1 0x0 DUP2 PUSH1 0x60 ADD MLOAD TIMESTAMP PUSH2 0x2B1 SWAP2 SWAP1 PUSH2 0xB18 JUMP JUMPDEST SWAP1 POP PUSH1 0x0 DUP2 DUP4 PUSH1 0xA0 ADD MLOAD PUSH2 0x2C5 SWAP2 SWAP1 PUSH2 0xABE JUMP JUMPDEST SWAP1 POP DUP1 DUP4 PUSH1 0x20 ADD MLOAD PUSH2 0x2D7 SWAP2 SWAP1 PUSH2 0xB18 JUMP JUMPDEST SWAP4 POP POP POP POP SWAP2 SWAP1 POP JUMP JUMPDEST PUSH1 0x1 DUP2 DUP2 SLOAD DUP2 LT PUSH2 0x2F1 JUMPI PUSH1 0x0 DUP1 REVERT JUMPDEST SWAP1 PUSH1 0x0 MSTORE PUSH1 0x20 PUSH1 0x0 KECCAK256 SWAP1 PUSH1 0x8 MUL ADD PUSH1 0x0 SWAP2 POP SWAP1 POP DUP1 PUSH1 0x0 ADD PUSH1 0x0 SWAP1 SLOAD SWAP1 PUSH2 0x100 EXP SWAP1 DIV PUSH20 0xFFFFFFFFFFFFFFFFFFFFFFFFFFFFFFFFFFFFFFFF AND SWAP1 DUP1 PUSH1 0x1 ADD SLOAD SWAP1 DUP1 PUSH1 0x2 ADD SLOAD SWAP1 DUP1 PUSH1 0x3 ADD SLOAD SWAP1 DUP1 PUSH1 0x4 ADD SLOAD SWAP1 DUP1 PUSH1 0x5 ADD SLOAD SWAP1 DUP1 PUSH1 0x6 ADD DUP1 SLOAD PUSH2 0x358 SWAP1 PUSH2 0xBE8 JUMP JUMPDEST DUP1 PUSH1 0x1F ADD PUSH1 0x20 DUP1 SWAP2 DIV MUL PUSH1 0x20 ADD PUSH1 0x40 MLOAD SWAP1 DUP2 ADD PUSH1 0x40 MSTORE DUP1 SWAP3 SWAP2 SWAP1 DUP2 DUP2 MSTORE PUSH1 0x20 ADD DUP3 DUP1 SLOAD PUSH2 0x384 SWAP1 PUSH2 0xBE8 JUMP JUMPDEST DUP1 ISZERO PUSH2 0x3D1 JUMPI DUP1 PUSH1 0x1F LT PUSH2 0x3A6 JUMPI PUSH2 0x100 DUP1 DUP4 SLOAD DIV MUL DUP4 MSTORE SWAP2 PUSH1 0x20 ADD SWAP2 PUSH2 0x3D1 JUMP JUMPDEST DUP3 ADD SWAP2 SWAP1 PUSH1 0x0 MSTORE PUSH1 0x20 PUSH1 0x0 KECCAK256 SWAP1 JUMPDEST DUP2 SLOAD DUP2 MSTORE SWAP1 PUSH1 0x1 ADD SWAP1 PUSH1 0x20 ADD DUP1 DUP4 GT PUSH2 0x3B4 JUMPI DUP3 SWAP1 SUB PUSH1 0x1F AND DUP3 ADD SWAP2 JUMPDEST POP POP POP POP POP SWAP1 DUP1 PUSH1 0x7 ADD PUSH1 0x0 SWAP1 SLOAD SWAP1 PUSH2 0x100 EXP SWAP1 DIV PUSH1 0xFF AND SWAP1 POP DUP9 JUMP JUMPDEST PUSH1 0x0 DUP1 SLOAD SWAP1 PUSH2 0x100 EXP SWAP1 DIV PUSH20 0xFFFFFFFFFFFFFFFFFFFFFFFFFFFFFFFFFFFFFFFF AND DUP2 JUMP JUMPDEST PUSH1 0x0 DUP1 DUP3 EQ PUSH2 0x421 JUMPI DUP2 PUSH2 0x426 JUMP JUMPDEST PUSH3 0x2A300 JUMPDEST SWAP1 POP DUP2 DUP6 PUSH2 0x434 SWAP2 SWAP1 PUSH2 0xABE JUMP JUMPDEST DUP7 LT ISZERO PUSH2 0x476 JUMPI PUSH1 0x40 MLOAD PUSH32 0x8C379A000000000000000000000000000000000000000000000000000000000 DUP2 MSTORE PUSH1 0x4 ADD PUSH2 0x46D SWAP1 PUSH2 0x9A3 JUMP JUMPDEST PUSH1 0x40 MLOAD DUP1 SWAP2 SUB SWAP1 REVERT JUMPDEST PUSH1 0x0 PUSH1 0x40 MLOAD DUP1 PUSH2 0x100 ADD PUSH1 0x40 MSTORE DUP1 CALLER PUSH20 0xFFFFFFFFFFFFFFFFFFFFFFFFFFFFFFFFFFFFFFFF AND DUP2 MSTORE PUSH1 0x20 ADD DUP9 DUP2 MSTORE PUSH1 0x20 ADD DUP9 DUP2 MSTORE PUSH1 0x20 ADD TIMESTAMP DUP2 MSTORE PUSH1 0x20 ADD DUP4 TIMESTAMP PUSH2 0x4BE SWAP2 SWAP1 PUSH2 0xA68 JUMP JUMPDEST DUP2 MSTORE PUSH1 0x20 ADD DUP8 DUP2 MSTORE PUSH1 0x20 ADD DUP7 DUP7 DUP1 DUP1 PUSH1 0x1F ADD PUSH1 0x20 DUP1 SWAP2 DIV MUL PUSH1 0x20 ADD PUSH1 0x40 MLOAD SWAP1 DUP2 ADD PUSH1 0x40 MSTORE DUP1 SWAP4 SWAP3 SWAP2 SWAP1 DUP2 DUP2 MSTORE PUSH1 0x20 ADD DUP4 DUP4 DUP1 DUP3 DUP5 CALLDATACOPY PUSH1 0x0 DUP2 DUP5 ADD MSTORE PUSH1 0x1F NOT PUSH1 0x1F DUP3 ADD AND SWAP1 POP DUP1 DUP4 ADD SWAP3 POP POP POP POP POP POP POP DUP2 MSTORE PUSH1 0x20 ADD PUSH1 0x0 ISZERO ISZERO DUP2 MSTORE POP SWAP1 POP PUSH1 0x1 DUP2 SWAP1 DUP1 PUSH1 0x1 DUP2 SLOAD ADD DUP1 DUP3 SSTORE DUP1 SWAP2 POP POP PUSH1 0x1 SWAP1 SUB SWAP1 PUSH1 0x0 MSTORE PUSH1 0x20 PUSH1 0x0 KECCAK256 SWAP1 PUSH1 0x8 MUL ADD PUSH1 0x0 SWAP1 SWAP2 SWAP1 SWAP2 SWAP1 SWAP2 POP PUSH1 0x0 DUP3 ADD MLOAD DUP2 PUSH1 0x0 ADD PUSH1 0x0 PUSH2 0x100 EXP DUP2 SLOAD DUP2 PUSH20 0xFFFFFFFFFFFFFFFFFFFFFFFFFFFFFFFFFFFFFFFF MUL NOT AND SWAP1 DUP4 PUSH20 0xFFFFFFFFFFFFFFFFFFFFFFFFFFFFFFFFFFFFFFFF AND MUL OR SWAP1 SSTORE POP PUSH1 0x20 DUP3 ADD MLOAD DUP2 PUSH1 0x1 ADD SSTORE PUSH1 0x40 DUP3 ADD MLOAD DUP2 PUSH1 0x2 ADD SSTORE PUSH1 0x60 DUP3 ADD MLOAD DUP2 PUSH1 0x3 ADD SSTORE PUSH1 0x80 DUP3 ADD MLOAD DUP2 PUSH1 0x4 ADD SSTORE PUSH1 0xA0 DUP3 ADD MLOAD DUP2 PUSH1 0x5 ADD SSTORE PUSH1 0xC0 DUP3 ADD MLOAD DUP2 PUSH1 0x6 ADD SWAP1 DUP1 MLOAD SWAP1 PUSH1 0x20 ADD SWAP1 PUSH2 0x5DD SWAP3 SWAP2 SWAP1 PUSH2 0x658 JUMP JUMPDEST POP PUSH1 0xE0 DUP3 ADD MLOAD DUP2 PUSH1 0x7 ADD PUSH1 0x0 PUSH2 0x100 EXP DUP2 SLOAD DUP2 PUSH1 0xFF MUL NOT AND SWAP1 DUP4 ISZERO ISZERO MUL OR SWAP1 SSTORE POP POP POP PUSH32 0x5BF34ED94988E5DCDC7D1FAAA54EB1D3B55F45D5F11457E235AFB21A8EBBE73C PUSH1 0x1 DUP1 DUP1 SLOAD SWAP1 POP PUSH2 0x632 SWAP2 SWAP1 PUSH2 0xB18 JUMP JUMPDEST DUP7 DUP7 DUP11 DUP7 PUSH1 0x40 MLOAD PUSH2 0x647 SWAP6 SWAP5 SWAP4 SWAP3 SWAP2 SWAP1 PUSH2 0x9FE JUMP JUMPDEST PUSH1 0x40 MLOAD DUP1 SWAP2 SUB SWAP1 LOG1 POP POP POP POP POP POP POP JUMP JUMPDEST DUP3 DUP1 SLOAD PUSH2 0x664 SWAP1 PUSH2 0xBE8 JUMP JUMPDEST SWAP1 PUSH1 0x0 MSTORE PUSH1 0x20 PUSH1 0x0 KECCAK256 SWAP1 PUSH1 0x1F ADD PUSH1 0x20 SWAP1 DIV DUP2 ADD SWAP3 DUP3 PUSH2 0x686 JUMPI PUSH1 0x0 DUP6 SSTORE PUSH2 0x6CD JUMP JUMPDEST DUP3 PUSH1 0x1F LT PUSH2 0x69F JUMPI DUP1 MLOAD PUSH1 0xFF NOT AND DUP4 DUP1 ADD OR DUP6 SSTORE PUSH2 0x6CD JUMP JUMPDEST DUP3 DUP1 ADD PUSH1 0x1 ADD DUP6 SSTORE DUP3 ISZERO PUSH2 0x6CD JUMPI SWAP2 DUP3 ADD JUMPDEST DUP3 DUP2 GT ISZERO PUSH2 0x6CC JUMPI DUP3 MLOAD DUP3 SSTORE SWAP2 PUSH1 0x20 ADD SWAP2 SWAP1 PUSH1 0x1 ADD SWAP1 PUSH2 0x6B1 JUMP JUMPDEST JUMPDEST POP SWAP1 POP PUSH2 0x6DA SWAP2 SWAP1 PUSH2 0x6DE JUMP JUMPDEST POP SWAP1 JUMP JUMPDEST JUMPDEST DUP1 DUP3 GT ISZERO PUSH2 0x6F7 JUMPI PUSH1 0x0 DUP2 PUSH1 0x0 SWAP1 SSTORE POP PUSH1 0x1 ADD PUSH2 0x6DF JUMP JUMPDEST POP SWAP1 JUMP JUMPDEST PUSH1 0x0 DUP1 DUP4 PUSH1 0x1F DUP5 ADD SLT PUSH2 0x711 JUMPI PUSH2 0x710 PUSH2 0xCAC JUMP JUMPDEST JUMPDEST DUP3 CALLDATALOAD SWAP1 POP PUSH8 0xFFFFFFFFFFFFFFFF DUP2 GT ISZERO PUSH2 0x72E JUMPI PUSH2 0x72D PUSH2 0xCA7 JUMP JUMPDEST JUMPDEST PUSH1 0x20 DUP4 ADD SWAP2 POP DUP4 PUSH1 0x1 DUP3 MUL DUP4 ADD GT ISZERO PUSH2 0x74A JUMPI PUSH2 0x749 PUSH2 0xCB1 JUMP JUMPDEST JUMPDEST SWAP3 POP SWAP3 SWAP1 POP JUMP JUMPDEST PUSH1 0x0 DUP2 CALLDATALOAD SWAP1 POP PUSH2 0x760 DUP2 PUSH2 0xD23 JUMP JUMPDEST SWAP3 SWAP2 POP POP JUMP JUMPDEST PUSH1 0x0 PUSH1 0x20 DUP3 DUP5 SUB SLT ISZERO PUSH2 0x77C JUMPI PUSH2 0x77B PUSH2 0xCBB JUMP JUMPDEST JUMPDEST PUSH1 0x0 PUSH2 0x78A DUP5 DUP3 DUP6 ADD PUSH2 0x751 JUMP JUMPDEST SWAP2 POP POP SWAP3 SWAP2 POP POP JUMP JUMPDEST PUSH1 0x0 DUP1 PUSH1 0x0 DUP1 PUSH1 0x0 PUSH1 0x80 DUP7 DUP9 SUB SLT ISZERO PUSH2 0x7AF JUMPI PUSH2 0x7AE PUSH2 0xCBB JUMP JUMPDEST JUMPDEST PUSH1 0x0 PUSH2 0x7BD DUP9 DUP3 DUP10 ADD PUSH2 0x751 JUMP JUMPDEST SWAP6 POP POP PUSH1 0x20 PUSH2 0x7CE DUP9 DUP3 DUP10 ADD PUSH2 0x751 JUMP JUMPDEST SWAP5 POP POP PUSH1 0x40 DUP7 ADD CALLDATALOAD PUSH8 0xFFFFFFFFFFFFFFFF DUP2 GT ISZERO PUSH2 0x7EF JUMPI PUSH2 0x7EE PUSH2 0xCB6 JUMP JUMPDEST JUMPDEST PUSH2 0x7FB DUP9 DUP3 DUP10 ADD PUSH2 0x6FB JUMP JUMPDEST SWAP4 POP SWAP4 POP POP PUSH1 0x60 PUSH2 0x80E DUP9 DUP3 DUP10 ADD PUSH2 0x751 JUMP JUMPDEST SWAP2 POP POP SWAP3 SWAP6 POP SWAP3 SWAP6 SWAP1 SWAP4 POP JUMP JUMPDEST PUSH2 0x824 DUP2 PUSH2 0xB5E JUMP JUMPDEST DUP3 MSTORE POP POP JUMP JUMPDEST PUSH2 0x833 DUP2 PUSH2 0xB4C JUMP JUMPDEST DUP3 MSTORE POP POP JUMP JUMPDEST PUSH2 0x842 DUP2 PUSH2 0xB70 JUMP JUMPDEST DUP3 MSTORE POP POP JUMP JUMPDEST PUSH1 0x0 PUSH2 0x854 DUP4 DUP6 PUSH2 0xA57 JUMP JUMPDEST SWAP4 POP PUSH2 0x861 DUP4 DUP6 DUP5 PUSH2 0xBA6 JUMP JUMPDEST PUSH2 0x86A DUP4 PUSH2 0xCC0 JUMP JUMPDEST DUP5 ADD SWAP1 POP SWAP4 SWAP3 POP POP POP JUMP JUMPDEST PUSH1 0x0 PUSH2 0x880 DUP3 PUSH2 0xA4C JUMP JUMPDEST PUSH2 0x88A DUP2 DUP6 PUSH2 0xA57 JUMP JUMPDEST SWAP4 POP PUSH2 0x89A DUP2 DUP6 PUSH1 0x20 DUP7 ADD PUSH2 0xBB5 JUMP JUMPDEST PUSH2 0x8A3 DUP2 PUSH2 0xCC0 JUMP JUMPDEST DUP5 ADD SWAP2 POP POP SWAP3 SWAP2 POP POP JUMP JUMPDEST PUSH1 0x0 PUSH2 0x8BB PUSH1 0x19 DUP4 PUSH2 0xA57 JUMP JUMPDEST SWAP2 POP PUSH2 0x8C6 DUP3 PUSH2 0xCD1 JUMP JUMPDEST PUSH1 0x20 DUP3 ADD SWAP1 POP SWAP2 SWAP1 POP JUMP JUMPDEST PUSH1 0x0 PUSH2 0x8DE PUSH1 0x13 DUP4 PUSH2 0xA57 JUMP JUMPDEST SWAP2 POP PUSH2 0x8E9 DUP3 PUSH2 0xCFA JUMP JUMPDEST PUSH1 0x20 DUP3 ADD SWAP1 POP SWAP2 SWAP1 POP JUMP JUMPDEST PUSH2 0x8FD DUP2 PUSH2 0xB9C JUMP JUMPDEST DUP3 MSTORE POP POP JUMP JUMPDEST PUSH1 0x0 PUSH1 0x20 DUP3 ADD SWAP1 POP PUSH2 0x918 PUSH1 0x0 DUP4 ADD DUP5 PUSH2 0x82A JUMP JUMPDEST SWAP3 SWAP2 POP POP JUMP JUMPDEST PUSH1 0x0 PUSH2 0x100 DUP3 ADD SWAP1 POP PUSH2 0x934 PUSH1 0x0 DUP4 ADD DUP12 PUSH2 0x81B JUMP JUMPDEST PUSH2 0x941 PUSH1 0x20 DUP4 ADD DUP11 PUSH2 0x8F4 JUMP JUMPDEST PUSH2 0x94E PUSH1 0x40 DUP4 ADD DUP10 PUSH2 0x8F4 JUMP JUMPDEST PUSH2 0x95B PUSH1 0x60 DUP4 ADD DUP9 PUSH2 0x8F4 JUMP JUMPDEST PUSH2 0x968 PUSH1 0x80 DUP4 ADD DUP8 PUSH2 0x8F4 JUMP JUMPDEST PUSH2 0x975 PUSH1 0xA0 DUP4 ADD DUP7 PUSH2 0x8F4 JUMP JUMPDEST DUP2 DUP2 SUB PUSH1 0xC0 DUP4 ADD MSTORE PUSH2 0x987 DUP2 DUP6 PUSH2 0x875 JUMP JUMPDEST SWAP1 POP PUSH2 0x996 PUSH1 0xE0 DUP4 ADD DUP5 PUSH2 0x839 JUMP JUMPDEST SWAP10 SWAP9 POP POP POP POP POP POP POP POP POP JUMP JUMPDEST PUSH1 0x0 PUSH1 0x20 DUP3 ADD SWAP1 POP DUP2 DUP2 SUB PUSH1 0x0 DUP4 ADD MSTORE PUSH2 0x9BC DUP2 PUSH2 0x8AE JUMP JUMPDEST SWAP1 POP SWAP2 SWAP1 POP JUMP JUMPDEST PUSH1 0x0 PUSH1 0x20 DUP3 ADD SWAP1 POP DUP2 DUP2 SUB PUSH1 0x0 DUP4 ADD MSTORE PUSH2 0x9DC DUP2 PUSH2 0x8D1 JUMP JUMPDEST SWAP1 POP SWAP2 SWAP1 POP JUMP JUMPDEST PUSH1 0x0 PUSH1 0x20 DUP3 ADD SWAP1 POP PUSH2 0x9F8 PUSH1 0x0 DUP4 ADD DUP5 PUSH2 0x8F4 JUMP JUMPDEST SWAP3 SWAP2 POP POP JUMP JUMPDEST PUSH1 0x0 PUSH1 0x80 DUP3 ADD SWAP1 POP PUSH2 0xA13 PUSH1 0x0 DUP4 ADD DUP9 PUSH2 0x8F4 JUMP JUMPDEST DUP2 DUP2 SUB PUSH1 0x20 DUP4 ADD MSTORE PUSH2 0xA26 DUP2 DUP7 DUP9 PUSH2 0x848 JUMP JUMPDEST SWAP1 POP PUSH2 0xA35 PUSH1 0x40 DUP4 ADD DUP6 PUSH2 0x8F4 JUMP JUMPDEST PUSH2 0xA42 PUSH1 0x60 DUP4 ADD DUP5 PUSH2 0x8F4 JUMP JUMPDEST SWAP7 SWAP6 POP POP POP POP POP POP JUMP JUMPDEST PUSH1 0x0 DUP2 MLOAD SWAP1 POP SWAP2 SWAP1 POP JUMP JUMPDEST PUSH1 0x0 DUP3 DUP3 MSTORE PUSH1 0x20 DUP3 ADD SWAP1 POP SWAP3 SWAP2 POP POP JUMP JUMPDEST PUSH1 0x0 PUSH2 0xA73 DUP3 PUSH2 0xB9C JUMP JUMPDEST SWAP2 POP PUSH2 0xA7E DUP4 PUSH2 0xB9C JUMP JUMPDEST SWAP3 POP DUP3 PUSH32 0xFFFFFFFFFFFFFFFFFFFFFFFFFFFFFFFFFFFFFFFFFFFFFFFFFFFFFFFFFFFFFFFF SUB DUP3 GT ISZERO PUSH2 0xAB3 JUMPI PUSH2 0xAB2 PUSH2 0xC1A JUMP JUMPDEST JUMPDEST DUP3 DUP3 ADD SWAP1 POP SWAP3 SWAP2 POP POP JUMP JUMPDEST PUSH1 0x0 PUSH2 0xAC9 DUP3 PUSH2 0xB9C JUMP JUMPDEST SWAP2 POP PUSH2 0xAD4 DUP4 PUSH2 0xB9C JUMP JUMPDEST SWAP3 POP DUP2 PUSH32 0xFFFFFFFFFFFFFFFFFFFFFFFFFFFFFFFFFFFFFFFFFFFFFFFFFFFFFFFFFFFFFFFF DIV DUP4 GT DUP3 ISZERO ISZERO AND ISZERO PUSH2 0xB0D JUMPI PUSH2 0xB0C PUSH2 0xC1A JUMP JUMPDEST JUMPDEST DUP3 DUP3 MUL SWAP1 POP SWAP3 SWAP2 POP POP JUMP JUMPDEST PUSH1 0x0 PUSH2 0xB23 DUP3 PUSH2 0xB9C JUMP JUMPDEST SWAP2 POP PUSH2 0xB2E DUP4 PUSH2 0xB9C JUMP JUMPDEST SWAP3 POP DUP3 DUP3 LT ISZERO PUSH2 0xB41 JUMPI PUSH2 0xB40 PUSH2 0xC1A JUMP JUMPDEST JUMPDEST DUP3 DUP3 SUB SWAP1 POP SWAP3 SWAP2 POP POP JUMP JUMPDEST PUSH1 0x0 PUSH2 0xB57 DUP3 PUSH2 0xB7C JUMP JUMPDEST SWAP1 POP SWAP2 SWAP1 POP JUMP JUMPDEST PUSH1 0x0 PUSH2 0xB69 DUP3 PUSH2 0xB7C JUMP JUMPDEST SWAP1 POP SWAP2 SWAP1 POP JUMP JUMPDEST PUSH1 0x0 DUP2 ISZERO ISZERO SWAP1 POP SWAP2 SWAP1 POP JUMP JUMPDEST PUSH1 0x0 PUSH20 0xFFFFFFFFFFFFFFFFFFFFFFFFFFFFFFFFFFFFFFFF DUP3 AND SWAP1 POP SWAP2 SWAP1 POP JUMP JUMPDEST PUSH1 0x0 DUP2 SWAP1 POP SWAP2 SWAP1 POP JUMP JUMPDEST DUP3 DUP2 DUP4 CALLDATACOPY PUSH1 0x0 DUP4 DUP4 ADD MSTORE POP POP POP JUMP JUMPDEST PUSH1 0x0 JUMPDEST DUP4 DUP2 LT ISZERO PUSH2 0xBD3 JUMPI DUP1 DUP3 ADD MLOAD DUP2 DUP5 ADD MSTORE PUSH1 0x20 DUP2 ADD SWAP1 POP PUSH2 0xBB8 JUMP JUMPDEST DUP4 DUP2 GT ISZERO PUSH2 0xBE2 JUMPI PUSH1 0x0 DUP5 DUP5 ADD MSTORE JUMPDEST POP POP POP POP JUMP JUMPDEST PUSH1 0x0 PUSH1 0x2 DUP3 DIV SWAP1 POP PUSH1 0x1 DUP3 AND DUP1 PUSH2 0xC00 JUMPI PUSH1 0x7F DUP3 AND SWAP2 POP JUMPDEST PUSH1 0x20 DUP3 LT DUP2 EQ ISZERO PUSH2 0xC14 JUMPI PUSH2 0xC13 PUSH2 0xC49 JUMP JUMPDEST JUMPDEST POP SWAP2 SWAP1 POP JUMP JUMPDEST PUSH32 0x4E487B7100000000000000000000000000000000000000000000000000000000 PUSH1 0x0 MSTORE PUSH1 0x11 PUSH1 0x4 MSTORE PUSH1 0x24 PUSH1 0x0 REVERT JUMPDEST PUSH32 0x4E487B7100000000000000000000000000000000000000000000000000000000 PUSH1 0x0 MSTORE PUSH1 0x22 PUSH1 0x4 MSTORE PUSH1 0x24 PUSH1 0x0 REVERT JUMPDEST PUSH32 0x4E487B7100000000000000000000000000000000000000000000000000000000 PUSH1 0x0 MSTORE PUSH1 0x32 PUSH1 0x4 MSTORE PUSH1 0x24 PUSH1 0x0 REVERT JUMPDEST PUSH1 0x0 DUP1 REVERT JUMPDEST PUSH1 0x0 DUP1 REVERT JUMPDEST PUSH1 0x0 DUP1 REVERT JUMPDEST PUSH1 0x0 DUP1 REVERT JUMPDEST PUSH1 0x0 DUP1 REVERT JUMPDEST PUSH1 0x0 PUSH1 0x1F NOT PUSH1 0x1F DUP4 ADD AND SWAP1 POP SWAP2 SWAP1 POP JUMP JUMPDEST PUSH32 0x496E636F7272656374207374617274696E672070726963652E00000000000000 PUSH1 0x0 DUP3 ADD MSTORE POP JUMP JUMPDEST PUSH32 0x41756374696F6E2069732073746F707065642E00000000000000000000000000 PUSH1 0x0 DUP3 ADD MSTORE POP JUMP JUMPDEST PUSH2 0xD2C DUP2 PUSH2 0xB9C JUMP JUMPDEST DUP2 EQ PUSH2 0xD37 JUMPI PUSH1 0x0 DUP1 REVERT JUMPDEST POP JUMP INVALID LOG2 PUSH5 0x6970667358 0x22 SLT KECCAK256 PUSH9 0xF7305D40191E99011E DUP15 STOP PUSH1 0xD0 PUSH32 0xBDCE819B50BCF2E5638FECDD4E2666988C64736F6C6343000807003300000000 "
				},
				"gasEstimates": {
					"creation": {
						"codeDepositCost": "688000",
						"executionCost": "24987",
						"totalCost": "712987"
					},
					"external": {
						"auctions(uint256)": "infinite",
						"createAuction(uint256,uint256,string,uint256)": "infinite",
						"getPriceFor(uint256)": "infinite",
						"owner()": "2533"
					}
				},
				"methodIdentifiers": {
					"auctions(uint256)": "571a26a0",
					"createAuction(uint256,uint256,string,uint256)": "e9835d15",
					"getPriceFor(uint256)": "4534cd9c",
					"owner()": "8da5cb5b"
				}
			},
			"storageLayout": {
				"storage": [
					{
						"astId": 3,
						"contract": "contracts/Lesson_5.sol:AucEngine",
						"label": "owner",
						"offset": 0,
						"slot": "0",
						"type": "t_address"
					},
					{
						"astId": 30,
						"contract": "contracts/Lesson_5.sol:AucEngine",
						"label": "auctions",
						"offset": 0,
						"slot": "1",
						"type": "t_array(t_struct(Auction)26_storage)dyn_storage"
					}
				],
				"types": {
					"t_address": {
						"encoding": "inplace",
						"label": "address",
						"numberOfBytes": "20"
					},
					"t_address_payable": {
						"encoding": "inplace",
						"label": "address payable",
						"numberOfBytes": "20"
					},
					"t_array(t_struct(Auction)26_storage)dyn_storage": {
						"base": "t_struct(Auction)26_storage",
						"encoding": "dynamic_array",
						"label": "struct AucEngine.Auction[]",
						"numberOfBytes": "32"
					},
					"t_bool": {
						"encoding": "inplace",
						"label": "bool",
						"numberOfBytes": "1"
					},
					"t_string_storage": {
						"encoding": "bytes",
						"label": "string",
						"numberOfBytes": "32"
					},
					"t_struct(Auction)26_storage": {
						"encoding": "inplace",
						"label": "struct AucEngine.Auction",
						"members": [
							{
								"astId": 11,
								"contract": "contracts/Lesson_5.sol:AucEngine",
								"label": "seller",
								"offset": 0,
								"slot": "0",
								"type": "t_address_payable"
							},
							{
								"astId": 13,
								"contract": "contracts/Lesson_5.sol:AucEngine",
								"label": "startingPrice",
								"offset": 0,
								"slot": "1",
								"type": "t_uint256"
							},
							{
								"astId": 15,
								"contract": "contracts/Lesson_5.sol:AucEngine",
								"label": "finalPrice",
								"offset": 0,
								"slot": "2",
								"type": "t_uint256"
							},
							{
								"astId": 17,
								"contract": "contracts/Lesson_5.sol:AucEngine",
								"label": "startsAt",
								"offset": 0,
								"slot": "3",
								"type": "t_uint256"
							},
							{
								"astId": 19,
								"contract": "contracts/Lesson_5.sol:AucEngine",
								"label": "endsAt",
								"offset": 0,
								"slot": "4",
								"type": "t_uint256"
							},
							{
								"astId": 21,
								"contract": "contracts/Lesson_5.sol:AucEngine",
								"label": "discountRate",
								"offset": 0,
								"slot": "5",
								"type": "t_uint256"
							},
							{
								"astId": 23,
								"contract": "contracts/Lesson_5.sol:AucEngine",
								"label": "item",
								"offset": 0,
								"slot": "6",
								"type": "t_string_storage"
							},
							{
								"astId": 25,
								"contract": "contracts/Lesson_5.sol:AucEngine",
								"label": "stopped",
								"offset": 0,
								"slot": "7",
								"type": "t_bool"
							}
						],
						"numberOfBytes": "256"
					},
					"t_uint256": {
						"encoding": "inplace",
						"label": "uint256",
						"numberOfBytes": "32"
					}
				}
			},
			"userdoc": {
				"kind": "user",
				"methods": {},
				"version": 1
			}
		}
	}
}